:020000040801F1
:1000000040370020A9010108E51D0208F1D30108CD
:10001000CD1A0208392D0108619102080000000084
:100020000000000000000000000000003D4F02083A
:10003000554D01080000000091280208015E0208E9
:10004000C3010108C3010108C3010108C30101087C
:10005000C3010108C3010108C3010108C30101086C
:10006000C3010108C3010108C3010108714B010864
:10007000C3010108C3010108C3010108C30101084C
:10008000C3010108C30101087D0801080000000048
:10009000000000000000000000000000D56701081B
:1000A000C3010108C3010108C3010108C30101081C
:1000B000C3010108C3010108C3010108C30101080C
:1000C000C3010108C3010108C3010108C3010108FC
:1000D000C3010108C3010108C301010800000000B9
:1000E000B9670108C3010108C3010108000000004D
:1000F000000000000000000000000000C301010833
:1001000000000000C3010108C3010108C301010888
:1001100000000000000000000000000000000000DF
:10012000C3010108C3010108C3010108C30101089B
:10013000C3010108000000000000000000000000F2
:100140000000000000000000000000002D1E02085A
:10015000C3010108C3010108C3010108C30101086B
:10016000C3010108C30101080000000000000000F5
:10017000000000000000000000000000000000007F
:1001800000000000C30101080000000000000000A2
:10019000C3010108DFF80CD000F020FB0048004745
:1001A0006D0803084037002006488047064800478E
:1001B000FEE7FEE7FEE7FEE7FEE7FEE7FEE7FEE717
:1001C000FEE7FEE70D6202089501010810B5431A2B
:1001D000934209D28318881803E010F8011D03F830
:1001E000011D521EF9D210BD40EA01039B0703D046
:1001F00009E008C9121F08C0042AFAD203E011F866
:10020000013B00F8013B521EF9D210BDD2B201E011
:1002100000F8012B491EFBD270470022F6E710B50B
:1002200013460A4604461946FFF7F0FF204610BD64
:1002300010B5002200E0521C835C8C5CA34201D10B
:10024000002BF8D1D8B2E1B2401A10BD2DE9FE4F13
:1002500081EA030404F0004421F0004100944FF0CF
:10026000000B23F0004350EA01045ED052EA03047D
:100270005BD0C3F30A54C1F30A552C44A4F2F334FF
:100280000194A0FB0254C1F3130141F48011C3F3A4
:10029000130343F4801301FB024400FB034E840A62
:1002A000970A44EA815447EA8357A4FB07680295FA
:1002B0008D0A05FB07854FEA932C04FB0C54270598
:1002C000029D4FEA065847EA1637B5EB08056EEB74
:1002D000070C870E920E47EA811742EA8312A7FBAA
:1002E0000201B6EB0B0164EB00042B0D43EA0C3367
:1002F0005E1844EB1C50DA465146E7FB0201C5F399
:1003000013044FEA0B3343EA14534FEA0432019CBF
:1003100043EA0603A4F10C040294009CCDE900B466
:1003200000F04FF903B0BDE8F08F00200146F9E777
:100330002DE9F04D81EA030404F0004B21F0004563
:1003400014464FF0000A23F0004150EA050220D085
:1003500054EA01021DD0C5F30A570246C5F3130340
:10036000C1F31300C1F30A5640F4801543F480131F
:10037000A7EB0608101BD64608F2FD3873EB050004
:1003800002D308F1010801E092185B41B8F1000FB7
:1003900003DA00200146BDE8F08D00204FF4801103
:1003A000064684460EE0171B73EB050705D3121BA8
:1003B00063EB050306434CEA010C49084FEA3000A1
:1003C00092185B4150EA0107EDD152EA030012D0C6
:1003D00082EA040083EA0501084305D0101BAB4103
:1003E00006D20122002306E000224FF0004302E083
:1003F0006FF0010253101AEB06004CEB085110EBA2
:100400000A0041EB0B01BDE8F04D00F0CBB80EB592
:10041000C10F80EAE0700844CA07002140F233436C
:100420008DE80E000A460B4600F0CBF803B000BD85
:1004300070B5C1F30A5201F000450024C1F3130165
:1004400040F2FF3341F480119A4201DA002070BD7E
:1004500040F233439A42A2F2334203DC524200F0AC
:100460005AF800E090402C43F1D0404270BD00F0BB
:10047000004230F000400AD0C10D01F56071C0F3B8
:10048000160042EA0151C20840071143704700209C
:100490000146704701F0004330B421F0004150EABA
:1004A000010206D00A0DA2F56072C1F31301002A01
:1004B00002DC30BC00207047440F44EAC104C10094
:1004C000E01830BC00EBC25000F035B830B50B4638
:1004D000014600202022012409E021FA02F59D4274
:1004E00005D303FA02F5491B04FA02F52844151E48
:1004F000A2F10102F1DC30BD202A04DB203A00FA2F
:1005000002F1002070479140C2F1200320FA03F36A
:10051000194390407047202A04DB203A21FA02F068
:100520000021704721FA02F3D040C2F1200291402D
:100530000843194670470029A8BF7047401C49006E
:1005400008BF20F00100704710B4B0FA80FC00FA38
:100550000CF050EA010404BF10BC704749B1CCF163
:10056000200421FA04F411FA0CF118BF01212143EF
:100570000843A3EB0C01CB1D4FEA00614FEA1020AA
:1005800042BF002010BC704700EBC350104400294C
:10059000A4BF10BC7047401C490008BF20F00100F8
:1005A00010BC704710B5141E73F1000408DA401C2B
:1005B00041F1000192185B411A4301D120F0010082
:1005C00010BD2DE9F04D92469B4611B1B1FA81F272
:1005D00002E0B0FA80F220329046FFF78DFF044629
:1005E0000F4640EA0A0041EA0B0153465A460843C7
:1005F00013D0114653EA010019D0C8F14002504609
:10060000FFF789FF05460E46504659464246FFF71A
:1006100073FF084305D0012004E020463946BDE8B9
:10062000F08D0020054346EAE0762C4337430A98D4
:100630006305E40AA0EB08000022FD0A44EA4754DF
:100640000A3002D500200146E9E701051019694189
:10065000DDE9084500196941BDE8F04DA2E72DE943
:10066000FE4F804681EA0300C00F0C46009021F047
:10067000004123F00045B8EB0200A94105D24046F5
:10068000214690461C460B46024623F0004010438C
:1006900047D0270DC7F30A00C3F30A510290401A4E
:1006A000019040286BDAC3F3130040F4801B0098DC
:1006B000924620B10023D2EB030A63EB0B0B0198A7
:1006C0005946C0F140025046FFF716FF06460D4658
:1006D00050465946019A00F093F810EB080061412A
:1006E000002487EA115284EAE7731A4340D0009A43
:1006F00062B3019A012A4FEA075215DC001B61EB35
:1007000002014FF0004202EA0752CDE90042001C0C
:1007100041F5801132462B46FFF753FF03B0BDE889
:10072000F08F40462146F9E7001B61EB0201001CF7
:1007300041F5801300185B412018A2F5001747EB24
:10074000030140EAD570B6196D4111E06D084FEA1A
:10075000360645EAC0754FEA0752001B61EB0201FD
:10076000001C41F5801149084FEA30000019514141
:1007700032462B4603B0BDE8F04FFFF713BF009899
:10078000012240000023D0EB020263EBE0730098EB
:1007900021464FEAE074B8EB000061EB0401E9E7A1
:1007A00083F000435BE781F0004158E730B5041E59
:1007B00071F1000404DB4FF00044404264EB01019E
:1007C000141E73F1000405DB1C464FF00043524237
:1007D00063EB0403994208BF904230BD064C074DBD
:1007E00006E0E06840F0010394E807009847103401
:1007F000AC42F6D3FFF7D2FCA0F10308C0F1030826
:10080000202A06DBCB17203A41FA02F043EAE073D4
:1008100006E041FA02F3D040C2F1200291400843C1
:100820001946704770B58C1810F8015B15F0070376
:1008300001D110F8013B2A1106D110F8012B03E079
:1008400010F8016B01F8016B5B1EF9D12B0705D481
:100850000023521E0DD401F8013BFAE710F8013BCA
:10086000CB1A921C03E013F8015B01F8015B521EE6
:10087000F9D5A142D8D3002070BD000010B50A4CB4
:100880006068C0F3801000280CD06FF00100206079
:10089000002001F085F80549F0200870606820F01C
:1008A0004000606010BD00000020014034190020AD
:1008B0002DE9F041204C002602464FF6FF753746E1
:1008C0004FF4007120460EF033FDA06840F08040E8
:1008D000A0602068C0F340000028FAD06FF0020149
:1008E0002160A06840F08040A0602068C0F3400014
:1008F0000028FAD021600022A06840F08040A0606B
:100900002068C0F340000028FAD0E06C216080B27B
:10091000B04200D90646A84200D20546521CD2B2C7
:1009200007440C2AE8D3B81B401B0A21B0FBF1F0A6
:1009300080B2BDE8F08100000020014010B5104CED
:1009400002464FF4007120460EF0F2FCA06840F021
:100950008040A0602068C0F340000028FAD06FF00B
:1009600002012160A06840F08040A0602068C0F3D0
:1009700040000028FAD0E06C216080B210BD000079
:100980000020014070B51C49CA790AB1521ECA71D3
:100990001A4A14781A4A012C137801D0012B03D17A
:1009A000CA790AB10A22CA71164A1578164A012D67
:1009B000147801D1CD792DB1D8B1144800788CB11B
:1009C00030B116E014B10020107010E00120FBE7F8
:1009D0007BB1D8070DD10F490D4808600E481AF0B9
:1009E000EFFC04E028B1012010701420C871012030
:1009F00070BD002070BD0000281C0020E31A0020FC
:100A0000E11A0020E81A0020CD1B0020041B002062
:100A100075680108241C0020D5AB020810B50DF044
:100A2000D7F81748017879B100210170012018F03A
:100A300029FF00F079F81349012008701248134982
:100A40000088088012490880124C2078032810D0B2
:100A50000C2810D000F024F8012000F077F90120D4
:100A600006F04CFC14F06CFA01F0DCFB0D20207059
:100A700010BD094800E009481AF0A2FCF6E70000A2
:100A80008C1B0020ED1A0020A41B0020921B0020CC
:100A9000901B0020AB1B0020B9230108098F02081E
:100AA00070B586B001250026CDE901656420CDE949
:100AB0000350164C009502230822217914480CF0AB
:100AC00053FF2179884208D0C1B22171002003F080
:100AD000EBFF2179012003F0E7FF0E48007804289E
:100AE00006D121790C4869B106700C481AF070FCE7
:100AF0000B480078012807D106B00A48BDE87040CD
:100B00001AF066BC0570F0E706B070BDA41C0020AA
:100B1000E31A0020F41A0020501B0020656202082E
:100B2000E11A0020AD0F020838B525482549264CAA
:100B30000068884209D12548007830B124480078FF
:100B400008B1002000E00120207102200AF064F9C1
:100B500011F082FE50211FA010F0BAFFE622022100
:100B60001D481FF045FC592249211C481FF040FC3C
:100B70006FF07F400AF010F919480AF017F9C822FF
:100B8000782118A007F0A4FE18480AF005F9032000
:100B900007F0ACF91220009040F22F13E12240F24E
:100BA0000B110F2007F00AF82179002003F07CFFD9
:100BB0002179012003F078FFBDE8384011F05ABEDA
:100BC0009C1B002065620208A41C00208D1B0020D5
:100BD000501B002041504800DBBB0200E21E060013
:100BE000F8E103084155544F000000004E535700F0
:100BF00004480078002804D007226A2102481FF028
:100C0000F7BB7047501B0020C2580F007CB5032073
:100C100007F06CF911200AF0EDF800200AF0BCF89A
:100C20004FF4B4740025CDE900543B231A469521B6
:100C3000782006F0ADFD0F200AF0DCF80F480AF02E
:100C4000ABF8CDE900543B231A469521782006F0F5
:100C50009FFD0B4C4FF4EB75B4F92C00A8420CDA55
:100C600008480AF099F8B4F92C00CDE900053B23B7
:100C70001A469521782006F08BFD7CBD585C5F00FC
:100C8000B41B002000EFFF001CB536200AF0B2F8BC
:100C9000064832231A46B0F92A10B0F92C00CDE9E3
:100CA00000019A21782007F055FE1CBDB41B0020DE
:100CB0001CB536200AF09EF8064832231A46B0F9D1
:100CC0002C10B0F92A00CDE900019A21782007F014
:100CD00041FE1CBDB41B002070B50A4A0A4C1378B3
:100CE0004FF4EB7262850022A276E276C4E913012A
:100CF00088470546E06C80472946BDE8704004F00F
:100D00002BBB0000A71B0020B41B00200B480A21AE
:100D1000007806280ED007280CD004280AD00848EE
:100D20000088B0FBF1F007490A8C904204D0088497
:100D300013F01AB80448F3E770470000A71B00201F
:100D400044190020B41B0020401900202DE9F04177
:100D5000144C0746144E20780025F8B1134800784B
:100D6000062805D0072803D0042801D078B113E065
:100D70000F48007880B90F481AF02AFB1FB10E48BF
:100D80000E490068086001203070BDE8F0810C4811
:100D9000007808B100F030F9257000E035700020CF
:100DA000F3E700003A1900203C1C0020A71B00209C
:100DB00038190020C50D0108941B0020A01B00203D
:100DC0003A1D002070B50CF003FF1D481D4C017842
:100DD00071B100210170012018F054FD00F092F86B
:100DE0001949012008701948194900880880208095
:100DF000184D2878032806D00C2806D000F038F8C3
:100E0000208830B116E0144800E014481AF0E0FAE7
:100E100012E01348007808B10F4809E01148007843
:100E200008B10E4804E010480078012802D00F48AD
:100E30001AF0CEFA01F0F6F90D20287070BD00000E
:100E40008C1B0020901B0020ED1A0020A41B00200A
:100E5000921B0020AB1B0020B9230108098F020858
:100E60009B190020F61A0020F41C002021520208D1
:100E70001D4810B500781D4C082801D002280AD161
:100E80002078A0B100212170002003F0A5FD217879
:100E9000012003F0A1FD164816490078042808D067
:100EA000087800281ED1BDE8104005F033BE0121AE
:100EB000E9E7247800231048104A012C0B7006D073
:100EC0000F4909780029EED100881080EBE70388EC
:100ED00011888B4202D3B3EB810F01D91380E2E773
:100EE0000180E0E710BD0000E11A0020381C00205E
:100EF000F31A00203A19002040190020421900205E
:100F00003819002038B5244C2078012801D9002058
:100F10002070022009F080FF11F09EFC002009F0F3
:100F200039FF07F0DFFA4D2238211C481FF060FA24
:100F3000A32291211A481FF05BFA6FF07F4009F05D
:100F40002BFF184809F032FF2422782116A007F061
:100F5000BFFC194809F020FF032006F0C7FF12204C
:100F6000009040F22F13E12240F20B110F2006F007
:100F700025FE12480A210088B0FBF1F012F03AFF7A
:100F80002178002003F028FD2178012003F024FDC2
:100F9000BDE8384011F06EBC381C002082A70C0060
:100FA0004E17070070CA03084E45572041544F4D55
:100FB000495A4552000000004E5357004019002086
:100FC0000A480B4900880988411A0A48032902DAAD
:100FD00064218171704781790029FBD1417E00290C
:100FE000F8D1012141760FF019BA0000921B0020C0
:100FF000901B0020B41B0020184910B5164A098820
:10100000508801F10F03984225D001EBC1044FF045
:101010000A03B4FBF3F4844207D801EB410404EB68
:10102000C104B4FBF3F3834215D20D4B1220401ED2
:10103000C0B233F810408C420AD2094B2433185CFA
:10104000084B00EB8000400018800120507001E048
:101050000028ECD1518010BD381C0020441900201C
:10106000582103083E1D002030B5224B987B0028F4
:1010700008D01946587EC96E28B1401E5876D88EC1
:101080000844D86630BD142058761C7A002254B12A
:10109000B1FBF0F000EB4000C0F34F051A72962D43
:1010A00004D9962502E0B1FBF0F085B2DA662A4653
:1010B000997D587C00F048F8C4B22A46D97D987CC6
:1010C00000F042F80B49C0B270310A8802F10A03FD
:1010D000A34202D3A24200D804B90C804A8802F18C
:1010E0000A03834203D3824201D80028CAD1488030
:1010F00030BD00008819002030B5114B14205876FF
:101100000020D866D88DB0F5827F01D2282406E071
:101110000C49B1FBF0F084B2962C00D99624012042
:1011200018722246997D587C00F00EF8044D224634
:1011300070352880D97D987C00F006F8688030BD35
:1011400088190020A086010008B10020704740F6F1
:10115000282011FB00F06421B0FBF1F0A0F628205C
:10116000A0EB8000400090FBF2F080B2022801D298
:1011700002207047B428FCD9B42070472DE9F04113
:10118000054691B15FF01F0405EB85008000052145
:10119000B0FBF1F006190D3604F10D07012D02D850
:1011A0001048007818B1104802E00024ECE70F481E
:1011B00009F0F2FD3DB1112332460A21384607F00D
:1011C00089FD052D0BD2002009F0E6FD11230A212F
:1011D00004F12102701CBDE8F04107F07BBDBDE8C1
:1011E000F08100009B1900203C86B500DF38250007
:1011F0002DE9F84F6B2381468122E9B3842161F305
:101200000F0463F31F44C92161F30F0062F31F4011
:101210004FEA20480121009102B2211420B2A8EB2C
:101220000103171A0E4605467A1C5B1C08F0D0FD18
:10123000824608F09FFF002009F0ACFD07F052F94C
:101240004EF2416009F0A8FDB9F1000F0AD007FB8A
:1012500009F7052097FBF0F042194346314628462E
:1012600007F038FD002008F085FF221421B2504617
:1012700008F0D6FF504600E003E0BDE8F84F08F064
:1012800003BE242161F30F0463F31F446921BBE70C
:10129000704700002DE9F05F00F028F98B4CDFF873
:1012A00030B2E0790D2803D08BF800000D20E071FA
:1012B0006078002508B3607BF8B1657312F056F9C9
:1012C000E08712F0C7FBA4F84E00E18FD22904D8C2
:1012D000804A1278B2B1502914D9B4F84010B1F54F
:1012E000E17F0FD2B0F59E7F0CD3B0F5AC7F09D86B
:1012F000A078642802D2401CA07004E0A57065703C
:10130000E57000E0A570E07C10B1A079002871D0F4
:101310000020FFF7BDFFA07B00286BD0A57312F063
:1013200025F9E087002005F099FBE18DE08F8A1C0C
:10133000904202D8821C8A4204D2E085608F608687
:10134000A08FA08600F0E2FF12F084FBA4F84E000C
:10135000607808B900F046FEE08F0126DFF878A13A
:10136000462811D35B49097809B9C8280CD3B4F8C9
:101370004000B0F5EB7F07D8B4F84E00B0F59B7F86
:1013800002D3B0F5AF7F19D9E07CA0B1002000F006
:1013900007FB52494FF400308861514900038861CE
:1013A000E574BAF80010052902D20521AAF8001048
:1013B000002017F069F8E5706670A57003F0CCFCAA
:1013C0004849E27C0878024358D0474F8946A7F144
:1013D0000408D0B1E07A30B101280CD002280DD039
:1013E000032811D011E0E6720A2038606E21C8F897
:1013F00000100AE042E00220E07206E00320E07202
:101400003D60C8F8005000E0E57205F077FB12F08F
:1014100015FBB0F5A57F10D2E574BAF800100529C8
:1014200002D20521AAF8001089F80050002017F018
:101430002BF828486571057043E0A0F29F11A6299A
:101440001ED399F80010002918D16179491CC9B23E
:101450006171032912D9657189F80060E07B401C35
:10146000E07323202074E574BAF80010052902D235
:101470000521AAF800100C218BF80010BDE8F09FA0
:10148000657161780029F9D199F80020002AF5D01A
:10149000E27B032AF2D2B0F5E17FEFD9207C00286D
:1014A000ECD189F80050E6742570A4F84850322039
:1014B000A4F84C00E586258703208BF8000005F092
:1014C0001DFBE5723D60C8F80050D7E78819002081
:1014D000AB1B0020F51A0020621B0020001C0240FC
:1014E00000080240F61A0020380800402DE9F05F9D
:1014F000F94CE07C00281DD0F848F949F94E0078F5
:101500000978F94F08434FF400394FF0005A4FF073
:10151000000511D0A07900280CD100F041FAC6F8DE
:101520001890C7F818A094F84C006075E5862587D8
:101530000120A071BDE8F09FA846A5710120FFF72A
:10154000A7FE12F013F8E08712F078FA054612F0C1
:10155000ADF8A4F844000146280000D10120B4F8F9
:101560004220514391FBF0F0642148435C2190FB01
:10157000F1F0A4F84600203412F06CFAE085618C9A
:1015800034F820091E30814207D8D84A0120126958
:10159000904302D1B1F55C7F02D9002000F000FA3F
:1015A000618CB4F8440001F15002904202D85030EE
:1015B000884202D2002000F0F3F9B4F84400C828B1
:1015C00004D8B4F84600B0F5AF7F02D9002000F08F
:1015D000E7F9B4F844006084B4F84200DFF810B3CF
:1015E0002084B0F5617F14D8E08F462811D3C1491B
:1015F000097809B9C8280CD3B4F84000B0F5EB7FDE
:1016000007D8B4F84E00B0F59B7F02D3B0F5AF7F9A
:1016100018D9002000F0C4F9C6F81890C7F818A02F
:1016200084F81380BBF800104546052902D2052135
:10163000ABF80010002016F027FFE5700120607065
:10164000A57077E7607B0028FBD084F80D80617D72
:10165000204619B1A0F84C1084F81580FFF704FD5E
:10166000B4F848004FF62051884206D3B4F84C1025
:101670000A2902D90A21A4F84C10012000F090F99F
:10168000B5F5AF7F1AD284F81380BBF80010052996
:1016900002D20521ABF80010964880F800800020A7
:1016A00000F07EF9C6F81890C7F818A0002016F0D0
:1016B000EBFE84F80580A4F81E803BE7A5F29F109E
:1016C0004FF4DC7CA62805D2654527D2B4F8440047
:1016D000052823D2E08B401C80B2E083B0F57A7FEE
:1016E0001ED98549A4F81E8001200870E07B401CAB
:1016F000E0732320207484F81380BBF800100529C0
:1017000002D20521ABF80010002000F049F9C6F81C
:101710001890C7F818A00C20E0710BE7A4F81E8001
:10172000E18FB1F5877F01D2282100E0A0216A482E
:101730008B4630F8441F0289704891420DD8664BA1
:10174000B3F84640FA2C08D8B3F84030B3F5D27F4E
:1017500003D8654514D2032912D90388141D5B1ED2
:101760001BB20380A14201D95B1E03800832914263
:1017700002D999B2491E0DE0604800F021F90BE052
:1017800001F10A03934201D3022905D2F02C03D2BE
:101790000188491C0180EFE7012005F05FF94E4CFC
:1017A0004FF4967204F16800618EB1F5D07F13D9C1
:1017B000B4F844100F2906D926290DD2494914310D
:1017C0000968890708D50188914202D2491C018025
:1017D00004E00121617401E0A0F80080A18EB1F560
:1017E000D07F13D9B4F844100F2906D926290DD279
:1017F0003D4914310968890408D54188914202D2D3
:10180000491C418004E00120A07401E0A0F802809E
:10181000607C28B1A07C18B1A4F83680A4F8388088
:10182000A07B00283FF40DAF84F80E8000F06EFD21
:1018300003F092FA00F0D6FB11F01AFF85B230489F
:10184000FFF736F8462D02D8B0F5077F0BD2B4F873
:101850004C000A2802D90A20A4F84C00C6F81890B7
:10186000C7F818A066E6B4F8401000224FF43A7E9C
:101870004FF4D173B1F5D27F01D301220BE0B1F562
:10188000CF7F05D83C2D03D2704501D9032202E059
:10189000994200D80222B1F5D07F33D9B4F83EC0C6
:1018A000A1EB0C0109B2032901DB9C4502D3C6F868
:1018B00018902DE0A38E618E03F1020C614503D9CF
:1018C000C7F818A002212AE0891C8B4228D9C6F843
:1018D00018904FF400511CE088190020041B0020D0
:1018E0004A1D0020001C0240000802400000024087
:1018F000621B0020F51A0020F61A00202219002091
:101900000900B003A38E618E03F1040C614502D976
:101910005146B96104E0091D8B42C8D94946B161FD
:101920003C2D01D8704508D2207D401CC0B22075E6
:10193000082802D984F8148008E0012A06D0462D30
:101940001FD2022A0CD0032A12D01AE0B4F84C009D
:101950001E2801D9401F12E0022812D9801E0EE075
:10196000B4F84C001E2801D8801C08E0401D06E099
:10197000B4F84C001E2801D80A3000E01430A4F856
:101980004C00B4F84C00584502D9A4F84CB0D1E54D
:1019900000B20228FBDA0220A4F84C00CAE50000DD
:1019A00005490A78824206D00870002088800349E1
:1019B0000860091D086070471E19002034080040A7
:1019C000124910B5124A0C78131D002134B1B0F938
:1019D0000040C62C06DDC624048006E001801160AC
:1019E000196010BD002C00DA0180B0F90040782C9D
:1019F00006DD78211960B0F900007838106010BD5C
:101A00001160B0F90000186010BD00001E19002020
:101A1000340800400748C17800290AD041780029DD
:101A200007D105490968002903D1C17028200DF0AC
:101A300041B970475A1D0020400400400149002070
:101A4000C88070471E1900200149401DC88070479A
:101A50001E19002010B5FFF7F1FF02490020487061
:101A600010BD00005A1D002070B5074C012565709F
:101A7000207814F0DDFFE078002803D129200DF054
:101A800019F9E57070BD00005A1D00202DE9F041E4
:101A90002748284E284F0178284DDFF8A48001B34D
:101AA00000240470204609F075F906F01BFD254955
:101AB0004FF4104005F05EF9FFF7D6FF2248306082
:101AC000224844800480002017F0DCFE07214FF4F8
:101AD000FA7017F0DDFE0A20388032202880A8F83E
:101AE00000001B4C388898B12988A8F8001000BF66
:101AF00014F04CFC00F0A4FD164817490068096872
:101B0000884201D0154830600D202070BDE8F0817A
:101B10000020FFF71BF918B1124911480860E7E7E8
:101B20001149642008700E4819F052FCE0E70000EB
:101B30008C1B00205C1B0020AE1B0020921B002091
:101B4000901B002088260020D5200208341C00208D
:101B5000AB1B0020981B0020941B0020456201084D
:101B6000AD0F0208A01B0020BA1B00202DE9F04792
:101B70003C4C0546E07A401CC0B2E0721E2805D3FA
:101B80000020E072207B90B1002020733648374E51
:101B9000374F00783178DFF8DC90084339784FF020
:101BA00001080843284304D0A07880B321E0012035
:101BB000EBE7E07AE8B9207BA07088B1484609F0ED
:101BC000EBF8012009F016F91323232208210B203A
:101BD00007F00AF810220B21242007F053F808E040
:101BE000002009F0D9F81323242208210B2007F044
:101BF00071F8214831780078084339780843284340
:101C000009D0E07800282AD184F8038009E0FFE7B2
:101C100084F80280D2E7E07A002820D1207BE070AF
:101C200090B1484609F0B8F8012009F0E3F8132311
:101C3000422208212A2006F0D7FFBDE8F0471022F3
:101C40000B21432007F01EB8002009F0A5F8BDE8DD
:101C5000F0471323432208212A2007F03BB8BDE8B0
:101C6000F0870000B41B0020A2190020041B0020F4
:101C70009B1900203C86B500A31900202DE9F05FD8
:101C80001EF010FDC3494FF0000B074681F800B06D
:101C9000C1494FF4FA70088016F0AAF9BF4C6FF0F2
:101CA0007F464FF47A75002F7DD014F0E7FF322085
:101CB0000AF060FB14F0FAFF14F0C6FE14F0F8FE10
:101CC000002009F067F806F00DFC002009F0A4F8E8
:101CD000304609F061F8B24809F068F84122502115
:101CE000B0A006F0EDFD03F0F5FDFFF7BDFE2846C0
:101CF0000AF040FB20460026058045804FF6FF7421
:101D00003746B246B146A0464FEA060511F02EFC12
:101D100014200AF02FFBA64AA64910880988064419
:101D20000F44504500D98246A04200D2044649459E
:101D300000D98946414500D288466D1CEDB20A2D76
:101D4000E4D3311BA1EB0A00C108A7EB0802A2EB08
:101D50000900C008A1F5CB721D2A34D240F22A3204
:101D6000904230D940F2663290422CD2924A8B4C4B
:101D7000B2FBF0F020805010B0FBF1F0608000204A
:101D800018F018F86088218840EA01410C2012F010
:101D9000F1FD8A480168002012F0ECFD8748001D23
:101DA0000168042000E067E012F0E4FD8348083099
:101DB0000168082012F0DEFD814808F0F7FFA0223C
:101DC000642180A005E07E4808F0F0FFA022642195
:101DD0007DA006F075FD7122742311466F2006F078
:101DE00079FF9C23712299216F2006F073FF774DB4
:101DF000012014242870764808F0D8FF01200AF04A
:101E0000B9FA2878A8B3641CE4B285F800B0142CA1
:101E100029D311F0ABFB6F4F6426002438880123CF
:101E2000B0FBF6F05022572106F082FC38880223DE
:101E3000B0FBF6F106FB11005022742106F078FC8D
:101E40005B4F0123782238885721B0FBF6F006F06B
:101E50006FFC38880223B0FBF6F106FB11007822F4
:101E6000742106F065FC0BF011FF5B480078012837
:101E70007ED017F027F9C1E70E2012F017FD208061
:101E80000C2012F013FD60802188A1F2C631452993
:101E900000D32580A0F2C530492800D365800BF01F
:101EA000F5FE4E480078012872D114F0E7FE32208A
:101EB0000AF060FA14F0FAFE14F0C6FD14F0F8FD12
:101EC000002008F067FF06F00DFB03F003FDFFF7AD
:101ED000CBFD304608F060FF7122742311466F205D
:101EE00006F0F8FE9C23712299216F2006F0F2FE85
:101EF000364D01203A4F287032203880142434485F
:101F000008F054FF3DE001200AF034FA287880B34D
:101F1000641CE4B285F800B0142C32D311F026FB17
:101F2000DFF8B08064260024B8F800000123B0FB7D
:101F3000F6F05022572106F0FBFBB8F80000022310
:101F4000B0FBF6F106FB11005022742106F0F0FB05
:101F5000DFF85C8001237822B8F800005721B0FB3D
:101F6000F6F006F0E5FBB8F80000B0FBF6F101E092
:101F70000AE006E006FB110002237822742106F035
:101F8000D7FB38880028BED1BDE8F05FFFF762BDFF
:101F9000BDE8F09FDC1A002046190020541D0020E7
:101FA000F8570308424154542041444A5500000068
:101FB000C2190020CA19002040D10C00107AFF1F5E
:101FC000C84B03084F4B00004E470000DA1A0020B0
:101FD000BC2B0308C4190020E81A0020BC1A0020FA
:101FE000621B00202DE9F04F8B4801788B4809B126
:101FF000032102E0017B19B1491E0173BDE8F08F96
:102000008649C27C4D8E8C8E62B1C18EC82900D9A2
:10201000C8211422B1FBF2F3B1FBF2F1EB1A611A01
:102020009DB28CB27D49DFF8F491437CCF780022D9
:10203000DFF8ECE105264FF0640B09F170094FF071
:10204000630A243123B180F816B0A9F800206FE0AC
:10205000837D642B03D180F816A0A9F80060B5F544
:10206000A07F02D202760A7025E0B5F5D27F02D3B6
:1020700080F818A01FE001234FEA0E0C3CF81380F3
:10208000A84503D85B1CDBB2052BF7D33CF81380C3
:102090000EEB430C03EB83033CF802CCA5EB0C05E1
:1020A00005EB8505A8EB0C08AD0095FBF8F505EBF5
:1020B0008303143B03760FB9037E8375057E837D0E
:1020C00005F10A0C9C4501D20A7022E005F1050CCD
:1020D0009C4502D20D78AD1E17E005F1030C9C451E
:1020E00002D20D786D1E10E003F10A0C654501D98E
:1020F0000A250AE003F1050C654502D90D78AD1CEF
:1021000003E09D4203D90D786D1C0D7001E005B10F
:102110000E7091F90050002D03DC0E7043B15B1E70
:1021200005E00A2D04DB0E70632B01D25B1C837566
:10213000837C23B180F817B0A9F8022068E0C37D42
:10214000642B03D180F817A0A9F80260B4F5A07F32
:1021500002D202764A7023E0B4F5D27F02D380F82F
:1021600018A01DE00123754635F813C0A44503D817
:102170005B1CDBB2052BF7D335F813C00EEB430520
:1021800003EB830335F8025C641B04EB8404ACEBC3
:10219000050CA40094FBFCF404EB8303143B0376CE
:1021A0000FB9037EC375047EC37D04F10A059D4209
:1021B0001BD3621D9A4202D24A78921E15E0E21C9D
:1021C0009A4202D24A78521E0FE003F10A02944268
:1021D00001D90A2209E05A1D944202D94A78921C78
:1021E00003E09C4203D94A78521C4A7001E004B1D2
:1021F0004E7091F90120002A03DC4E7043B15B1E42
:1022000005E00A2A04DB4E70632B01D25B1CC37508
:102210000121C170F2E60000041B00208819002093
:102220007E1C0308044810B50078002803D003483A
:1022300019F0CEF8012010BD8919002041220108B3
:1022400070B513480024017851B10470002017F0D4
:1022500019FBFFF7FFFB0F49142008800E49088087
:102260000F480E4D007878B90E48047014F006FD42
:1022700032200AF07FF814F019FD14F0E5FB14F099
:1022800017FC094819F0A4F80D20287070BD000053
:102290008C1B0020921B0020901B0020AB1B0020F9
:1022A00089190020B01B0020AD0F0208154810B599
:1022B000F021017441740021C17401752821417518
:1022C00001218170C170104808F066FD012008F0FE
:1022D00091FD1323232208210B2006F085FC1323F4
:1022E000422208212A2006F07FFC10220B21242004
:1022F00006F0C8FC10220B21BDE81040432006F078
:10230000C1BC0000B41B00203C86B500F0B52848D5
:10231000284BC18C428E914222D0C2845FF00001D2
:1023200033F81150954203D8491CC9B20529F7D397
:102330008176458D4C1CEEB2AC4204D133F811705D
:10234000D41CA74209D36D1CA94207D103EB41015C
:1023500031F8021CC91C914200D98676817E4185E4
:10236000018D828E914221D00285002133F81150D7
:10237000954203D8491CC9B20529F7D3C176848D8B
:102380004E1CE5B2A64204D133F81160D71CBE4200
:1023900009D3641CA14207D103EB410131F8021CAF
:1023A000C91C914200D9C576C17E8185F0BD00006F
:1023B000881900207E1C03082DE9F84F0BF008FC5B
:1023C00000906648DFF898B1DFF898810178664D93
:1023D000DFF898A1664F4FF416690024D1B104705C
:1023E000644839780078084320D0002017F04AFA72
:1023F00000F0F4F860490120087060490C708BF817
:1024000000005F49A5F80090A8F80090052008801A
:102410008AF800405B485C4E0078401F08282FD2A5
:10242000DFE800F00A0F1A151F2429060120DDE756
:10243000564818F0CDFF83E0554818F0C9FF5548BD
:1024400003E0534818F0C4FF5348306078E0504828
:1024500018F0BEFF5148F8E74D4818F0B9FF504852
:10246000F3E74B4818F0B4FF4E48EEE7484818F041
:10247000AFFF4D48E9E7464818F0AAFF4B48E4E7AC
:102480004B48007860B13E490520088049480078F3
:10249000B8B149480078A0B19AF80010E1B122E043
:1024A0003748A5F80090A8F800900088D8B9387887
:1024B000022802D004F02EFB15E0404818F088FFF7
:1024C00011E0A5F800909AF8002048460AB1A8F853
:1024D00000008AF8004006E001218AF8001064201C
:1024E0002880A8F800003648364900780978084363
:1024F00004D03878022801D004F00CFB3248007870
:1025000001280CD13878022802D0012803D006E037
:102510003C702E4801E03C702D4818F059FF2D48C2
:10252000007818B19BF8000010B107E08BF800406C
:102530003878022802D00020FEF708FCFFF772FE70
:102540002548007828B1009808B100F047F804F059
:1025500087F80C480D210170BDE8F88F8C1B002016
:102560003C1C0020901B0020921B0020FA1C002025
:10257000B01B0020CD1B0020ED1A0020011B002005
:10258000AE1B0020AB1B0020241C0020098F02087A
:10259000D5AB0208E1580208FD1F020865040208D5
:1025A00079D30108D9040208555D020831220208D6
:1025B0009B190020991900209A190020A563020890
:1025C000E11A0020041B0020E91A00208D1A0108DE
:1025D000AD0F02083A1900205B1D002010B5022043
:1025E00008F01AFC10F038F9002008F0D3FB05F0D1
:1025F00079FF114C66221F2120461DF0F9FE66224C
:102600007F2120461DF0F4FE0C4828210022C170D5
:10261000F02141708170027142718171C17100F1CC
:102620000A03090219805980027204F019F8BDE802
:10263000104010F01FB900000E131800FA1C002003
:10264000F0B5154C154E85B060880A2528B1401E9E
:102650000004000C608035801CD1114823888068FC
:10266000984217DD4FF4104726220021384604F027
:1026700065FB22886946384604F06EFB2088401CC2
:102680002080049818B100EBD070401000E00520C5
:102690006080358005B0F0BD341C0020AE1B0020EA
:1026A0008826002070B5384E0A210025308888B071
:1026B000B0FBF1F40A2C01D2344802E0642C09D2B8
:1026C000334808F073FB224632A102A81DF04AF9F4
:1026D000532013E0B42C01D22F48F2E7B4F5167F53
:1026E00001D22A4800E02A4808F060FB3C20B4FBF5
:1026F000F0F228A102A81DF035F94D208DF8100048
:102700008DF811506FF07F4008F046FB23488DF89C
:102710000C500E22D0E90A10CDE9051005A902A837
:1027200006F0F0F81E4808F037FB1E4808F03EFBA4
:102730009B22782104A806F0CBF830884FF4E17290
:10274000C0F59661C0EB0010514300EB400001EB77
:1027500040004FF4966190FBF1F084B2042005F044
:10276000C5FB114808F018FB0A2008F043FB4FF4A2
:10277000E170CDE900402B231A468B21782005F02B
:1027800007F808B070BD0000A41B0020E4A00308F7
:10279000DC910308256400005C8B030874220308A5
:1027A00000FFFF00687E030800EFFF002DE9F04105
:1027B0000BF00EFA2648274C0125017879B1002646
:1027C0000670012017F05EF800F062F822482449F4
:1027D0000570224826700088088022490880224E11
:1027E0003078032807D00C2807D020781F4F40B13D
:1027F0003888E0B11EE01E4800E01E4818F0E0FDF9
:102800001AE000F07FF81C480078042806D12570F3
:1028100005203880012119A003F020F80120FEF7DF
:1028200095FA012004F06AFD12F08AFB02E01448D8
:1028300018F0CEFDFFF7F6FC1248134900688842F5
:1028400002D01248006880470D203070BDE8F0814A
:102850008C1B0020961C0020ED1A0020A41B0020D9
:10286000921B0020901B0020AB1B0020AE1B002001
:10287000B9230108098F0208F31A00204F4B00000A
:1028800065620208981B0020215202085C1B002090
:1028900008B5022008F0C0FA0FF0DEFF0A210EA0F2
:1028A0000FF016F9E62202210F481DF0A1FD0021CC
:1028B0000E4802F0D3FF0E48017800200346009036
:1028C00041B10C4A0C490D4807F002FBBDE8084035
:1028D0000FF0D0BF0A4AF5E753435245454E205406
:1028E000494D454F55540000DBBB0200A82B0108A1
:1028F000F41C0020A526010851FD020884220308CB
:10290000914F020870B530480025012200781E263C
:1029100086B0052378B32D4C0A212088CDE90132F9
:10292000B0FBF1F001B278200090CDE9032602233C
:10293000082227480BF018F800EB80004FF6FF71D3
:1029400001EA4000218888420BD022492080234A96
:10295000088021490023088000952149214807F07B
:10296000B7FA2148007801282CD106B01F48BDE8ED
:10297000704018F02DBD1E4C2188B42920D807D1F5
:102980001348007808281BD01A480078082817D068
:102990005FF001000DF1080C09B28CE845004FF41E
:1029A0006160CDE900030223082209480AF0DCFF38
:1029B00021888842D5D0208000230F4A0095CCE79B
:1029C0003C20E7E706B070BDF41C0020A41B0020EB
:1029D000E31A0020921B0020901B0020A52601086E
:1029E00051FD020884220308E11A0020AD0F0208FD
:1029F000D61C0020EC1A0020914F020838B50021A7
:102A000007236C22084607F09BF9054607F0B2FB46
:102A1000032005F06BFA154808F0BEF903240021E5
:102A200006236B220846009405F0C8F8104808F009
:102A3000B3F9104865210078401E10FB01F06321B6
:102A400090FBF1F2002106230846921D009405F048
:102A5000B5F8002007F08EFB84224221284607F0BB
:102A6000DFFB2846BDE8384007F00EBA4E5357004A
:102A700000EFFF005A1D00202DE9F04186B00BF059
:102A8000A7F841480026414D0178012461B3067042
:102A9000012016F0F7FE022008F0BEF90FF0DCFE70
:102AA00026213BA00FF014F8DD2202213B481DF047
:102AB0009FFC77221B213A481DF09AFC7722B42113
:102AC00038481DF095FC002137A002F0C7FEFFF743
:102AD00095FF0FF0CFFE35483649047034482E700C
:102AE0000088088034490880DFF8D08098F800001A
:102AF000032807D00C2807D02878314F40B13888F8
:102B0000A8B338E02F4800E02F4818F059FC34E013
:102B10001E2001940294CDE9036064202B4E0090A6
:102B20000223082231782A480AF01EFF31788842B1
:102B300002D03070FFF762FF26480078012802D1EA
:102B4000254818F045FC25480078042806D12C704B
:102B500005203880012114A002F080FE0120FEF73C
:102B6000F5F8012004F0CAFB12F0EAF903E0FFE7F0
:102B70001B4818F02DFCFFF755FB0D2188F80010BD
:102B800006B0BDE8F08100008C1B0020961C0020E0
:102B90004252494748544E4553530000DBBB0200A4
:102BA0007AD4060086DD06004F4B0000ED1A0020A7
:102BB000A41B0020921B0020901B0020AB1B0020B8
:102BC000AE1B0020B9230108098F02085A1D0020FE
:102BD000E31A0020E11A0020AD0F0208F31A0020CA
:102BE0006562020806480178002907D0417800296B
:102BF00004D10121417081710021417170470000B1
:102C0000601D00202DE9F041464D287800286FD046
:102C10004548007800286BD0A879002868D143483F
:102C20000078C0077CD110F021FE414A6979414FFC
:102C300022F811006A78322000268AB10122AA7196
:102C4000092966D16E70A8710A21394801F091FFF7
:102C500011F070F9A8702871385C13F01DFF58E06E
:102C6000A8710A21324801F084FF804611F062F910
:102C70000446421C2F49E8781439824205D131F8C4
:102C8000143008F12802934209D3421C944207D120
:102C900001EB440131F8021C2831414500D90446BA
:102CA000A878844217D900F101018C4202D9E97950
:102CB000491CE971E9790A2902D2491CE97128E025
:102CC0002979201A0844C0B228710A2801D30920A2
:102CD0002871C0B216E01AD2611C814202D2E97991
:102CE000491CE971297A0A2903D2491C297210E08A
:102CF00016E02979201A0844287140B2002800DA29
:102D00002E712879385C13F0C7FEAC7001E0EE71CB
:102D10002E726879401CC0B268710A2800D36E71A7
:102D2000BDE8F081601D00205B1D0020BC1A002062
:102D30003C280020362503081CF078FE10B5002042
:102D400008F02AF800212723EF22084605F0C2FFE9
:102D5000282200210F481DF04BFB262234210E486B
:102D60001DF046FB00200DF08BF90FF083F9FDF705
:102D70003FFF0A490A48FDF7AFFF5A225E21094882
:102D80001DF036FB16F002FD084807494164F8398A
:102D9000816410BDE29611006A310D000DC3010877
:102DA00011C3010872600D00D01E0308B41B00207F
:102DB0000F4810B50088322803D30E494FF4D27063
:102DC00008800D480D490088B0F58C7F0DD2087839
:102DD0000A2802D2401C087002E0092003F0C8FE55
:102DE000BDE81040012016F051BF0020F3E70000BD
:102DF000101B00201C1B00202C1B00200D1B002082
:102E000004494FF4E670088004490348086016F04E
:102E100023BE00001C1B0020B12D01084C1B00200C
:102E20002DE9F0410AF0D4FE2848294D012401780B
:102E300079B100260670012016F024FD00F066F836
:102E40002448264904702448AE700088088024492C
:102E50000880DFF89080244E98F80000032807D0FF
:102E60000C2807D0A878214F40B13888E8B11FE07E
:102E70001F4800E01F4818F0A3FA1BE000F02AF9F1
:102E80001D480078042807D1AC70347005203880C4
:102E900001211AA002F0E2FC0120FDF757FF0120FA
:102EA00004F02CFA12F04CF802E0154818F090FAF1
:102EB000FFF7B8F91348144900680968884200D040
:102EC00034700D2188F80010BDE8F0818C1B0020C3
:102ED000941C0020ED1A0020A41B0020921B00204F
:102EE000901B0020AB1B0020FC190020AE1B002013
:102EF000B9230108098F0208F31A00204F4B000084
:102F0000AD0F0208981B0020941B00202DE9FC4106
:102F1000334E3078022801D202203070314F324CCB
:102F20003878012857D031483178DFF8C48000EB79
:102F30008100002550F8080C6060284603F040FF2F
:102F400008F805006D1CEDB2092DF6D9022007F036
:102F500063FF60780025092800D96570022007F01A
:102F60005BFF0FF079FC21483178183000EB8100CD
:102F7000232150F8080C01F029FC6FF07F4007F086
:102F80000BFF1C4807F012FF38784FF03A02012877
:102F90004FF01B0122D0432005F0C2FB012007F0B7
:102FA00029FF032004F0A2FF4FF4B470CDE90050D4
:102FB00002231A464021182004F0EAFB6178606879
:102FC00030F8110001F01CFA607801F0F9FABDE860
:102FD000FC410FF04FBC05480C30A5E74620DBE76D
:102FE000441C0020A81B0020941C0020242203085D
:102FF00094260020687E03087FB52B482B4E2C4C6E
:10300000017830786425E9B32A4951F820006065D9
:103010004FF41670A087C820E087002007F0BCFEA0
:1030200000212D23EF22084605F054FE2E22002118
:1030300021481DF0DDF927224E2120481DF0D8F946
:1030400001200DF01DF80FF02DF8FDF7D1FD002047
:10305000A075E18FA28F1A48CDE90021CDE9025079
:10306000636D72211A463A2002F034F9154807F0D0
:1030700093FE154807F09AFE14483178C12250F8A3
:10308000210000E006E0782105F022FCBDE87F4049
:1030900016F07CBB0E4951F82000606540F23B10F1
:1030A000A087E587B9E70000A81B0020A91B002026
:1030B000B41B0020302203083AC70D0016920D0001
:1030C00081FC02083C86B500D8D803080421030817
:1030D000242203082DE9F04F85B06C4801F032FA44
:1030E000DFF8AC913220012699F80010694C0525D3
:1030F0004FF4167A01295DD0CDE90360642140F2D6
:103100003B108DE82300617860680223082230F9C3
:10311000111061480AF028FC62786168DFF87CB120
:1031200031F81230834279D021F8120001F068F9A9
:103130006078D8461BF8007003F042FE01466078C4
:10314000B94208F8001003D00246114601F0B6FA61
:1031500099F80000524B5349012803F10C024FF03B
:10316000000030D09946D4460B7859F8237052F8B5
:10317000233037F8107007EBC707B7FBF5F7203798
:10318000BFB223F810700B78B7FBF5F752F8233075
:1031900023F810700B7852F8238007EB87039BB25B
:1031A00028F810300F78634552F8277041D927F876
:1031B00010C043E0CDF800A0CDE903600A22C82189
:1031C000CDE901129FE74FF009094FF49E7AA84616
:1031D0000D7852F8257053F8255037F81070203FBD
:1031E00007EB870C9CFBF9F7BFB225F810700D7840
:1031F000B7FBF8F753F8255025F810700D7807EB5A
:103200008707BFB253F82550574525F810700D7841
:1032100053F8255003D340F23B1703E012E0642F2C
:1032200002D2642725F81070401C80B20928CFD93B
:1032300008E0C82B02D2C82327F81030401C80B207
:10324000092891D918480178B1B1002101700D46C3
:103250005F46284603F0B4FD78556D1CEDB2092D8C
:10326000F7D962780921002001F028FA61786068B6
:1032700030F8110001F0C4F80C480088002801D192
:103280000B48067005B0BDE8F08F0000014401084E
:10329000A81B0020941C0020E31A00209426002084
:1032A00024220308A91B0020A61B0020901B00203D
:1032B000FC1900202DE9F0410AF08AFC2848294D2C
:1032C0000124017879B100260670012016F0DAFA9F
:1032D00000F066F82448264904702448AE7000883F
:1032E000088024490880DFF89080244E98F8000078
:1032F000032807D00C2807D0A878214F40B1388880
:10330000E8B11FE01F4800E01F4818F059F81BE023
:1033100000F00EF91D480078042807D1AC70347015
:103320000520388001211AA002F098FA0120FDF74B
:103330000DFD012003F0E2FF11F002FE02E015484E
:1033400018F046F8FEF76EFF134814490068096844
:10335000884200D034700D2188F80010BDE8F0815B
:103360008C1B0020941C0020ED1A0020A41B0020C0
:10337000921B0020901B0020AB1B0020FC1900209A
:10338000AE1B0020B9230108098F0208F31A0020A0
:103390004F4B0000AD0F0208981B0020941B00202B
:1033A00070B51B4D19481B4E00246860204603F081
:1033B0002DFD3055641CE4B2092CF7D9002028708B
:1033C0006978092900D96870022007F025FD0FF0FF
:1033D00043FA362110A001F0F9F96FF07F4007F0B1
:1033E000DBFC0F4807F0E2FC3A221721562005F0DB
:1033F00097F96978686830F8110000F013F8687878
:1034000001F0DEF8BDE870400FF034BA181A002061
:10341000941C00209426002043435620534554001A
:10342000687E030870B586B005468A20ADF80800AE
:1034300050206424ADF80A000120ADF80440412179
:103440000090ADF8061010232722204606F0C0FC9D
:10345000064606F08FFE002007F09CFC05F042F8BF
:103460006FF07F4007F098FC114807F09FFCB5FB18
:10347000F4F0B5FBF4F204FB10530EA103A81CF00A
:1034800071FA00208DF810000E2201A903A805F0A2
:1034900039FA002006F06EFEBDF90620BDF90410D1
:1034A000304606F0BDFE304606F0EEFC06B070BDBC
:1034B000687E030825642E25303264001FB5002085
:1034C00007F06AFC00212D23EF22084605F002FCDC
:1034D0002E22002111481CF08BFF27224E2110487C
:1034E0001CF086FF00200CF0CBFD0EF0C3FDFDF7B5
:1034F0007FFB0C4900200C4A88754FF461736421EE
:10350000CDE90030CDE90212084B72211A463A206B
:1035100001F0E0FEBDE81F4016F038B93AC70D00D3
:1035200006A30D00B41B002081FC0208181A00201D
:10353000F0B585B02F4801F005F82F4C0A236278CA
:10354000616831F81200B0FBF3F503FB150028B9F0
:103550002A48007808284BD0022849D001200027AB
:10356000CDE901704FF4617000901423CDE903732D
:1035700031F912100223082221480AF0F5F9627885
:103580006168204D31F81230834210D021F81200CA
:10359000FFF748FF60782E5C03F038FC0146607846
:1035A000B142295403D00246114601F087F816486B
:1035B0000178A1B107700026304603F027FCA8551A
:1035C000761CF6B2092EF7D962780921002001F0A5
:1035D00075F86178606830F81100FFF723FF0B4839
:1035E0000088002802D10A490120087005B0F0BD0A
:1035F0000A20B4E725340108941C0020EC1A0020AE
:10360000E31A002094260020A61B0020901B002017
:10361000FC1900202DE9F0472C4C2788042020803D
:103620002B4EDFF8B080DFF8B0902C4D47E000BFA4
:103630000FF09CFFA8F800000FF0DAFF2848008880
:1036400030802848008880B22880B0F5AF5F02D96A
:10365000052003F08DFA30882988642300FB01F2ED
:1036600092FBF3F2DFF880C092B2A9F80020BCF818
:1036700000C00CEB0C1C0CEB8C0CBCFBF3F383427A
:1036800020D9B8F80000B0F58F7F1BD344F2C040BA
:10369000824217D2B1F56B6F14D20FF0FBF85FEADC
:1036A000000A03D01148008800F03EFC0A2016F002
:1036B000EDFA052001F050FDBAF1000F02D120888B
:1036C0000028B5D12780BDE8F0870000461900200A
:1036D000301B00202C1B00202E1B0020321B002042
:1036E0002C190020301900201C1B00204419002038
:1036F0002DE9F04186B0284800F024FF4FF0010882
:103700000522DC208DE8050114210027234CCDE99A
:103710000371617860680223082230F91110204893
:103720000AF022F9627861681E4D31F81230834246
:1037300010D021F8120000F063FE60782E5C03F0D8
:103740007DFB01466078B142295403D00246114600
:1037500000F0B4FF14480178A1B10770002630468C
:1037600003F06CFBA855761CF6B2092EF7D96278E7
:103770000921002000F0A2FF6178606830F8110094
:1037800000F03EFE09480088002802D1084981F86F
:10379000008006B0BDE8F08101440108941C0020BF
:1037A000E31A002094260020A61B0020901B002076
:1037B000FC1900201B4910B5062008701B491A4847
:1037C0001D4C08601A49143008601A481B492060D3
:1037D000401C08600FF040F8022007F01DFB18485D
:1037E0001849006888420ED11748007858B1174828
:1037F000007830B1012804D002280ED003280ED062
:103800000220216808703C2111A00EF061F90EF031
:1038100097F9BDE810400FF02DB80320F1E7042020
:10382000EFE70000451C002004250308481C002089
:103830004C1C0020231D0020501C0020541C002084
:103840009C1B0020DD4A01088D1B0020441C002029
:10385000434320534554000010B50AF0B9F9194804
:10386000017879B100210170012016F00BF8FFF703
:10387000A1FF1549012008701448154900880880E7
:1038800014490880144C2078032810D00C2812D03A
:1038900000F02CF80120FDF759FA012003F02EFD6D
:1038A00011F04EFBFEF7BEFC0D20207010BD0B4842
:1038B00017F086FDF8E70A4817F082FD0A49094823
:1038C0000860F1E78C1B0020ED1A0020A41B0020EB
:1038D000921B0020901B0020AB1B0020B923010885
:1038E000098F020849900208241C00202DE9F041AC
:1038F00009F0F6FF1E48007801281AD01D4800780C
:10390000042833D11D491C48002608601C480124A6
:10391000042300680327022590F800C019481A49BB
:103920001A4ABCF1060F21D2DFE80CF005090E128D
:10393000171B174816E006700F70164812E0047047
:103940000520087014480DE003700B70157002E03C
:1039500005700B701670114804E007700B7014703E
:10396000F9E70F48BDE8F04117F032BDBDE8F0813E
:10397000E11A0020F31A0020593801080C1C00201D
:10398000501C0020441C0020A71B0020A91B002065
:10399000AD0F020891420108B5320108212E01083D
:1039A000DD4A010870B5234C054682B02068418C81
:1039B000B0F84C2011444184818CB0F8502011445F
:1039C0008184284605F02EFF2168498CADF800104F
:1039D0004618284608F096F93044401EADF8040019
:1039E00005F044FF2168898CADF802100844401EA0
:1039F000ADF80600684616F041FF30B1284603F0E6
:103A000035FA16F06DFD0028F8D10A2D04D0BDF866
:103A100004002168401C48842068418CB0F84C2088
:103A2000891A4184818CB0F85020891A818402B0AF
:103A300070BD0000E81D00200B490128086803D074
:103A400020F040000860704740F0400008600749DF
:103A5000402009698843F6D103481030016841F0DD
:103A60004001016070470000003C0140000002403E
:103A700010B50022044B03E050F822401C60521C99
:103A80008A42F9D3186810BD003002400020704708
:103A900000207047002070472DE9F0479FED271B5D
:103AA00099462DED048B90460E4607469DED0C8AF7
:103AB00053EC112B51EC100BFCF7C8FB0D4645ECF9
:103AC000100B9FED209B044653EC192B51EC100B6F
:103AD000FCF72EFCFCF7DEFC00EE100A1CF0A8FB45
:103AE00000EE907AB8EE481A53EC192BF8EE600A03
:103AF00041EE000ABDEEE00A10EE100A45EC104B54
:103B0000A8F8000051EC100BFCF712FCFCF7C2FC0B
:103B100000EE100A1CF050FB00EE906AB8EE481A56
:103B2000F8EE600A41EE400ABDEEE00A10EE100A1F
:103B3000A9F80000BDEC048BBDE8F0870000006030
:103B4000FB21094000000000008066402DE9FC5F79
:103B5000824C83494FF4877BA07E0A78002550B1C0
:103B6000012870D1207A00286ED0002A6DD07D48BF
:103B7000018891B115E0002A65D07B4800780228C1
:103B800061D9A5740120A076A4F830B06FF0590176
:103B9000A18620720B206071E9E70421018015F0F5
:103BA000F5FD6079A0460B287ED388F8055098F87B
:103BB000121040460F2901D2491C8174826C847C0A
:103BC000DFF8A891B2F90230B2F90010DFF8A0A135
:103BD0005E1A664B09F158091B5D39245E4396FB5A
:103BE000F4F6314409B24186B2F90660B2F9042014
:103BF000B61A5E4396FBF4F31A44C286B8F9303025
:103C00008B4239DD04220024D8F84460204600BFEE
:103C100036F930709F4201DD8F4202DC824200D9CA
:103C2000024606EBC007B7F902709F4201DA8F42E5
:103C300002DB844200D20446401CC0B20528E7D310
:103C4000D6B24F4611E071E07AE075E007EB06115D
:103C5000484AB1F902002830CDE90005B1F9003039
:103C600050460DF05BFD761CF6B2A642EED9B8F8D0
:103C700032104046A8F830100346B0F93400B3F9CA
:103C80003620904237DA04210026D8F844703446B2
:103C900007EBC403B3F904C0844501DD944502DC9D
:103CA000A14200D9214600E025E0B3F90630834265
:103CB00001DA934202DBA64200D22646641CE4B23B
:103CC000052CE5D3CCB24F460FE000BF07EB041143
:103CD000294AB1F90A002830CDE9000531F9083F39
:103CE00050460DF01BFD641CE4B2B442EED9B8F8A6
:103CF0003610A8F83410D8F84810B8F93000444607
:103D0000B1F90220824213DBB1F90620B4F9341074
:103D10008A420DDCE27E002A08D100F07BF8A5740F
:103D2000A4F830B06FF05900A0866571BDE8FC9F23
:103D30000B2088F81B00F9E725723220E076F5E7C2
:103D40000649B1F93000B1F934101AB100F062F847
:103D5000A576EBE7E27E002AF8D0E7E7B41B002067
:103D6000041B0020AE1B0020031B0020F81E0308CC
:103D7000EA2F130085F70208ADF7020810B50446D4
:103D80000A2803D319491A4811F0A6F8082C0BD3B6
:103D9000A0230B221749184802F004FDA023D122CA
:103DA0001649154802F0FEFC062C0BD3B8230B2253
:103DB0001349114802F0F6FCB823CA2211490E48F3
:103DC00002F0F0FC032C09D3D5221E210E481CF072
:103DD0000FFBD52299210D481CF00AFBE822BDE813
:103DE000104055210A481CF003BB00006AB21500C0
:103DF0002AA5170042941700718C01087AFA17005F
:103E0000F299170072001800A2DF17000EED1700DC
:103E1000AA0B18002DE9FC471F4DDFF88080DFF862
:103E200080A00E46074604244FF00009686C00EBA2
:103E3000C401B1F90210B94210DB30F83400288611
:103E4000698608EB0411174AB1F902002830CDE960
:103E50000009B1F9003050460DF060FC686C00EBD1
:103E6000C400B0F90410B1420FDC2986C08808EB09
:103E700004116886B1F90A000A4A2830CDE9000920
:103E800031F9083F50460DF049FC641E64B2002C25
:103E9000CCDABDE8FC870000B41B0020501F0308EB
:103EA000E296110071BB0208024800218160416066
:103EB00070470000801B0020F0B500230A4C3F250E
:103EC00006E0067866B1D718401CE6555B1CDBB2ED
:103ED0008B42F6D3F0BDD6185B1CA555DBB2401C57
:103EE0008B42F8D3F2E700002C270020F0B5002326
:103EF0000C4C3F250AE00C2B01D12032D2B20678BF
:103F000066B1D718401CE6555B1CDBB28B42F2D37E
:103F1000F0BDD6185B1CA555DBB2401C8B42F8D314
:103F2000F2E700002C270020084910B5098841431A
:103F30000A2091FBF0F01DF041FA0549054A08807E
:103F40001288904200D90A8010BD0000141B002086
:103F50001C1B0020381D002030B5C278417802F5C6
:103F6000FA62032903D20C31521EC9B292B2642400
:103F7000B2FBF4F3B2FBF4F504FB1522491C01EB90
:103F8000810404EBC1010524B1FBF4F1DBB29C0810
:103F90005B4204EB430302EB92021A448078114423
:103FA0000844401E00E0C01D00B20028FBDB0721D2
:103FB00090FBF1F201FB120000B90720C0B230BD46
:103FC0000348428C818B8A4200D9418470470000AB
:103FD000F81A0020174810B50078174C09280ED899
:103FE0001649096831F8100015492080097831B167
:103FF000203800EB8000092190FBF1F0208011486F
:10400000017861B10021017012F0B6FF0E480188FD
:1040100020880EF00DFAFFF7D3FF02F0BBFC0EF084
:1040200039FC08B1FFF7CCFFBDE81040012017F0C4
:1040300045BA0000281D0020541B00202C1D002024
:10404000A81B0020071B00202A1B00202DE9F0419F
:10405000334835490578334809782DB179B1334A69
:1040600001290FD068320EE021B1304A012904D075
:104070002C3208E02D4A403205E0543203E02B4A4E
:104080007C3200E090320260294A52F82140294AED
:1040900061881180284A002164231170274A117019
:1040A000227812FB03F3264A264F13803E88B34240
:1040B00001D23B8000E01680234B12881A800068F2
:1040C000224A00882DB1203800EB8000092390FBA4
:1040D000F3F010801E4842F2107305781D485DB160
:1040E0001288DC2A08D2C2F1DC026FF018056A439C
:1040F00003EB4202028000E0038022780088424302
:104100004FF49670B2FBF0F0134A10801348017020
:104110000EF074F9134912480860BDE8F081000000
:10412000A81B00202C1D0020A91B0020001A002025
:1041300064190020561B0020281D0020291D002086
:10414000141B0020161B0020181B0020541B0020ED
:10415000501B0020421D00201A1B0020581B00206D
:10416000D53F01084C1B00202DE9F0411C481D4D96
:104170001D4E00780A271D4C09281ED81C4A1D49CF
:10418000137809788B4218D011701B49096831F8EF
:1041900010002080404300EB80002988400090FB05
:1041A000F1F082B2154802803088824205D9484336
:1041B00090FBF7F01DF002F920800EF06BFB50B180
:1041C00030882988484390FBF7F01DF0F7F82188E4
:1041D000814200D92080BDE8F041012015F056BD94
:1041E000281D002044190020141B00201C1B002047
:1041F000441D0020291D00202C1D00201A1B00201A
:1042000070B517481749194A008808801649116087
:10421000174A0024194D1470164A1470098801FBBE
:1042200001F202EB82025300134A128893FBF2F36D
:104230009BB22B80124D834207D950430A2190FB39
:10424000F1F01DF0BBF8288000E029800D480F49EF
:1042500004700D480860BDE87040FFF7DBB900004E
:10426000161B0020141B0020181A00202C1D0020F3
:10427000281D0020291D0020441900201A1B0020A1
:104280001C1B0020441D0020694101084C1B00201C
:104290002DE9F04109F09CFC2848294D01240178C2
:1042A00079B100260670012015F0ECFA00F066F8EE
:1042B0002448264904702448AE70008808802449A8
:1042C0000880DFF89080244E98F80000032807D07B
:1042D0000C2807D0A878214F40B13888E8B11FE0FA
:1042E0001F4800E01F4817F06BF81BE0FFF700FACB
:1042F0001D480078042807D1AC7034700520388040
:1043000001211AA001F0AAFA0120FCF71FFD0120EB
:1043100002F0F4FF10F014FE02E0154817F058F810
:10432000FDF780FF1348144900680968884200D0EF
:1043300034700D2188F80010BDE8F0818C1B00203E
:10434000941C0020ED1A0020A41B0020921B0020CA
:10435000901B0020AB1B0020FC190020AE1B00208E
:10436000B9230108098F0208F31A00204F4B0000FF
:10437000AD0F0208981B0020941B002070B51B4D48
:1043800019481B4E00246860204602F057FD305546
:10439000641CE4B2092CF7D9002028706978092937
:1043A00000D96870022006F037FD0EF055FA36216C
:1043B00010A000F00BFA6FF07F4006F0EDFC0F4804
:1043C00006F0F4FC3A221521572004F0A9F9697887
:1043D000686830F8110000F013F8687800F0F0F821
:1043E000BDE870400EF046BA041A0020941C00206C
:1043F000942600204343572053455400687E030809
:1044000030B585B08822ADF8082050220446ADF8BA
:104410000A2066200122ADF8040041210092ADF887
:1044200006101023232205F0D3FC054605F0A2FE5A
:10443000002006F0AFFC04F055F86FF07F4006F066
:10444000ABFC0F4806F0B2FC22460EA103A81BF0FD
:1044500089FA00208DF810000E2201A903A804F0AB
:1044600051FA002005F086FEBDF90620BDF90410C2
:10447000284605F0D5FE284605F006FD05B030BDFE
:10448000687E0308256400001FB5002006F084FC48
:1044900000212D23EF22084604F01CFC2E220021CF
:1044A00011481BF0A5FF27224A2110481BF0A0FF4E
:1044B00000200BF0E5FD0DF0F5FDFCF799FB0C4934
:1044C00000200C4B887564220521DC208DE80F004C
:1044D000094A7221131D3A20121D00F0FBFEBDE8AF
:1044E0001F4015F053B900003AC70D00F6B30D0098
:1044F000B41B002081FC0208001A002010B50EF049
:10450000C9F908B1FFF75CFD0C480D4B4FF6FF727F
:1045100001784068092902D830F8110000E0408A8B
:1045200000EBC00101EB001002EA80001880FFF7E9
:1045300047FDBDE81040012016F0C0BF281D002037
:104540001A1B002070B586B0064601200022CDE976
:1045500001206421CDE903010920164D0090FF23BD
:1045600001226978144809F0FFF969780446884205
:1045700011D0E0B200F024F86978E2B2084600F009
:104580009DF8E2B2E1B2E0B200F098F8686830F865
:104590001400B0476C70094C29782078814206D00D
:1045A000012800D0002001F035FD2078287006B0E9
:1045B00070BD0000941C0020E31A0020BC1A0020EB
:1045C000F8B500EB8000401DC5B201206A26C9275E
:1045D000009010231D223946304605F0F9FB0446B1
:1045E00005F0C8FD002006F0D5FB03F07BFF6FF05F
:1045F0007F4006F0D1FB0C4806F0D8FBC6216B20AB
:1046000005F0C8F901220321284604F0B0F8002083
:1046100005F0B0FD3A463146204605F001FE204641
:10462000BDE8F84005F030BC687E03082DE9F04194
:104630001F4C2078002817D01E4D2878002813D151
:10464000052028700026271D26704FF0A530386001
:1046500019480AF009FF2821201DFFF709FAD7F8A9
:10466000A410814202D12E70BDE8F081C7F8A400E9
:1046700060884FF4804707EB8000002110F07AF942
:1046800060882A3080B260802A30B0F5806F03D312
:104690006680384615F08EFB6088054907EB800080
:1046A0002A22091D10F0A2F910F064FADBE70000DD
:1046B000FC1900204A1D0020003002402DE9F74F70
:1046C000064629208B4600EB0614332282B002EB0B
:1046D0000B1001220092021B64F30F05592161F3B4
:1046E0001F4562232046521C05F072FB009005F026
:1046F00041FD002006F04EFB03F0F4FE64F30F07CB
:104700000A3464F30F08BA46C1462EE00498864284
:1047100002D16FF07F4000E01C4806F03DFB00270F
:104720000FFA8AF80FFA89F40EE0784200EB800065
:10473000BA2101EB4003B32101EB40012246404680
:1047400004F0C8FA7F1CFFB21148805DB842ECD873
:1047500008F11000514660F30F011034484664F32D
:104760000F00761C8A468146F6B25E45CED90020FF
:1047700005F000FD2A1429B2009805F051FD0098BB
:1047800005B0BDE8F04F05F07FBB000000EFFF0073
:1047900094260020074808490088088008480749EF
:1047A000416000210170417007490648086000F02F
:1047B000B1B80000161B0020141B0020041A0020B2
:1047C000281D0020FD4401084C1B002070B586B058
:1047D0000DF07EF9002145A001F040F8444806F0B4
:1047E000DBFA032003F082FB0E2000904FF482736B
:1047F000C322E8212D2003F0E1F93E4806F0CCFA6F
:104800000C2000904FF481739522EA215B2003F085
:10481000D5F9394CD4E90001CDE904016FF07F40AE
:1048200006F0BAFA354806F0C1FA0E2204A934A0FF
:1048300004F068F8002001F02BF9002001F0EAFBF9
:10484000314806F0B3FAB722D921532003F068FFAC
:10485000032003F04BFB2D4806F09EFA2C34502326
:1048600094E8070001AC84E807001B22032101A89B
:1048700003F0A4F80020ADF80400ADF80600ADF890
:1048800008000620ADF80A000920ADF80C0003204E
:10489000ADF80E000146C023CB2201A803F08EF82C
:1048A00000245B255FF0590605EBC40206EBC4014A
:1048B0001E2004F0E7F9641CE4B20E2CF4D30024AB
:1048C0002625242605EBC40206EBC401C32004F010
:1048D00061F9641CE4B2152CF4D30D480921427827
:1048E0000020FFF7EBFE06B070BD00004F4B00004C
:1048F0004E5357003C86B5001C2203083CBA0308FF
:104900004649524500000000687E03081631360013
:10491000941C00202DE9F047274C27880420208094
:10492000DFF89880264E274D40E000BF0EF01EFEB7
:10493000A8F800000EF05CFE234800883080234871
:10494000008880B22880B0F5AF5F02D9052002F060
:104950000FF930882988642300FB01F292FBF3F2FF
:104960001B4B92B21A801B4B5B681B8803EB031333
:1049700003EB830393421CD9B8F80020B2F58F7F74
:1049800017D340F26632904213D2B1F56B6F10D25A
:104990000DF080FF8146FFF713FB0A2016F08EFD15
:1049A000052000F0D9FBB9F1000F02D120880028C2
:1049B000BCD12780BDE8F087461900202C1B0020C1
:1049C000301B0020321B00202C1900203019002041
:1049D0002E1B0020281D002030B4084B884201D136
:1049E000074A01E01A46074B074C0749083C01EB10
:1049F000C00154F8200030BC0DF094BF4E53570056
:104A000000EFFF003C86B5004821030830B4084B96
:104A1000884201D1074A01E01A46074B074C074973
:104A2000843C01EBC00154F8200030BC0DF07ABF8B
:104A30004E53570000EFFF003C86B50010230308DB
:104A400030B4084B884201D1074A01E01A46074BAF
:104A5000074C0749083C01EBC00154F8200030BC6A
:104A60000DF060BF4E53570000EFFF003C86B500CD
:104A70006422030830B4084B884201D1074A01E0A0
:104A80001A46074B074C0749843C01EBC00154F818
:104A9000200030BC0DF046BF4E53570000EFFF0022
:104AA0003C86B5000023030830B4084B884201D18E
:104AB000074A01E01A46074B074C07498C3C01EBBB
:104AC000C00154F8200030BC0DF02CBF4E535700ED
:104AD00000EFFF003C86B5002023030810B509F065
:104AE00077F81948017879B100210170012014F09C
:104AF000C9FE0DF021F91549012008701448154927
:104B00000088088014490880144C2078032810D0AD
:104B10000C2812D00CF00EFC0120FCF717F9012034
:104B200002F0ECFB10F00CFAFDF77CFB0D2020707E
:104B300010BD0B4816F044FCF8E70A4816F040FC9C
:104B40000A4909480860F1E78C1B0020ED1A002093
:104B5000A41B0020921B0020901B0020AB1B0020F8
:104B6000B9230108098F020849900208241C00207B
:104B7000704710B500231A4604E030F81240521C6A
:104B80002344D2B28A42F8D3B3FBF1F080B210BD15
:104B90002DE9F04768486A4C01786848007801437D
:104BA0004FF0320002D0A070BDE8F087A178002954
:104BB000FAD1A070A5202070FF2060700020614E07
:104BC000614FDFF888814FF005094FF4805A0546A0
:104BD00056F820103A5C097891422BD098F80010D2
:104BE0000029E1D188F80090A08800F540500FF02E
:104BF000DFFEA088343080B2A0803430504504D32A
:104C0000A5804FF4405015F0D5F8002056F820103C
:104C100009783954401CC0B23428F7D3A088342214
:104C2000494900F540500FF043FF0FF0A3FF88F80B
:104C3000005003E0401CC0B23428C9D3414E424F5B
:104C40000020D03617F1340756F820103A5C097866
:104C500091422CD098F800100029A5D188F8009036
:104C6000E08800F5A0400FF0A3FEE0880C3080B291
:104C7000E0800C30504504D3E5804FF4A04015F09F
:104C800099F8002056F8201009783954401CC0B219
:104C90000C28F7D32C49E0880C22343100F5A040D1
:104CA0000FF006FF0FF066FF88F8005003E0401C8D
:104CB000C0B20C28C8D3224F0020254E17F10A0796
:104CC00056F820103A5C097891422CD098F80010E0
:104CD000002986D188F80090208900F5C0400FF0A7
:104CE00067FE2089083080B220810830504504D307
:104CF00025814FF4C04015F05DF8002056F82010D3
:104D000009783954401CC0B20828F7D30C492089CF
:104D100008220A3100F5C0400FF0CAFE0FF02AFF4A
:104D200088F8005003E0401CC0B20828C8D3BDE892
:104D3000F047FFF77BBC0000041B0020BC1A0020DA
:104D4000AA1A00208C1C0308FC2500204A1D002004
:104D50008C1D03081AF06AFEF0B51F484FF4CF759A
:104D60000146847C2E1F4B8E4F7C8A8E00212CB9ED
:104D7000AB4205D903F1030C944501D3B34211D8DA
:104D800090F809C0BCF1050F04D20CF1010C80F8B9
:104D900009C008E027B11CB1A0F84810A0F84A10DB
:104DA000417401E0417227B9AA4204D9D51C9D4241
:104DB00001D3B2420ED8827A052A02D2521C8272E4
:104DC000F0BD427C22B11CB1A0F84810A0F84A10F6
:104DD0008174F0BD8172F0BD881900202DE9F04387
:104DE000464900204FF0020808704549464A4B4B9F
:104DF00081F8008043494C4C504D087001211170DE
:104E0000424A4F4F4F4E1170414ADFF83CC110707B
:104E1000404A1070404A1070B4221A80404B9622CB
:104E20001A80404B64221A704FF4B47323803F4CB5
:104E3000322323803E4CCD2323803E4C930023809D
:104E40003D4C62806A8040F226227A804FF4A07244
:104E500072806922ACF802204B223A7032707326BD
:104E60008CF800602270394C2A702270384A3B4C12
:104E70001170384A1080384A10700A222270384C5B
:104E800008222270374A394F4FF078091060364AAD
:104E90004FF0C80C10600022544204EB840509EB6B
:104EA000450607EB420405F5D275A68002EB8206A3
:104EB00025830CEB4605A585A4F84050A4F8545072
:104EC00003EB8605A4F86850521CA4F87C50D2B2BB
:104ED000A4F890500A2ADFD3254A1070254A117091
:104EE000254A1070254A1080254A1170254981F8FD
:104EF000008025490870BDE8F0830000A71B002052
:104F0000A91B0020AA1B0020A81B00203C1D00207C
:104F100038190020F41C0020D41C0020D61C0020CE
:104F2000A41B00205A1D0020381D00203E1D00201B
:104F3000321D0020341D002070190020741900203B
:104F4000581900205C1900206019002078190020F1
:104F5000501B00203A1C00203A1D0020841D002018
:104F60008A1D0020841B0020881B0020001A0020BE
:104F7000F91C0020FC190020031B0020101B00203E
:104F8000421C0020431C0020441C002010B508F0E7
:104F90001FFE1748017879B100210170012014F03B
:104FA00071FC00F077F8134901200870124813498A
:104FB0000088088012490880124C2078032810D0FD
:104FC0000C2810D000F024F80120FBF7BFFE0120D0
:104FD00002F094F90FF0B4FFFDF724F90D202070D2
:104FE00010BD094800E0094816F0EAF9F6E70000AC
:104FF0008C1B0020ED1A0020A41B0020921B002017
:10500000901B0020AB1B0020B9230108098F020868
:1050100010B586B001200022CDE901206421CDE940
:105020000301164C009002230822A178144808F0CE
:105030009BFCA178884208D0C1B2A1700020FFF784
:10504000E5FCA1780120FFF7E1FC0E480078042878
:1050500004D1A07860B10C4816F0BAF90B4800787A
:10506000012809D106B00A48BDE8104016F0B0B9D1
:10507000FFF7B4FE0648EFE706B010BDA41C002001
:10508000E31A0020F41A002065620208E11A0020E9
:10509000AD0F020838B524482449254C00688842E1
:1050A00002D02449884204D12348007808B1012065
:1050B000A070022005F0B0FE0DF0CEFB26211F48A7
:1050C0000CF006FDE62202211D481BF091F9672233
:1050D00053211C481BF08CF96FF07F4005F05CFEFB
:1050E000194805F063FEC822782118A003F0F0FBF0
:1050F000184805F051FE032002F0F8FE122000903F
:1051000040F22F13E12240F20B110F2002F056FD66
:10511000A1780020FFF77AFCA1780120FFF776FC48
:10512000BDE838400DF0A6BB9C1B0020656202085C
:10513000A41C0020AD0F02088D1B00202C1D0208AE
:10514000DBBB02009AAD0600F8E103084445464186
:10515000554C54004E53570003E01821491EC9B264
:10516000FCD2401EF9D270472DE9FF4F002081B0DC
:10517000DFF858E10090DDF838909EF80A500146BB
:105180006D1CEDB2044606468EF80A50052D04D972
:1051900000258EF80A5001200090D71A0020DFF871
:1051A00030A164225743019A32F81020D21A02FB30
:1051B00009F202EB8202520092FBF7F2521C95B206
:1051C000029A32F81020D21A02FB09F202EB820294
:1051D000520092FBF7F2521C1204120C00D1012271
:1051E00085B10A2D00D90A250A2A00D90A22DFF83A
:1051F000E080A8F1140838F810C0AC4504D228F8B3
:10520000105005E00125EFE7944504D228F810205E
:105210004FF0010107E009D9009A22B1ACF1010C6D
:1052200028F810C0F4E704F10104E4B2284D38F87E
:105230001020A5F1280535F810C0624508D9761C64
:1052400025F810204FF00F0C0AF800C0F6B201212B
:1052500035F810C0E346944501D9761CF6B21AF829
:1052600000C0BCF1000F04D0ACF1010C0AF800C082
:105270000AE04FF005080AF80080934504D9ABF125
:10528000010125F810100121401C80B20A288AD3A0
:1052900011B1DEF84000804700210D4A0846143A5B
:1052A00035F8103032F81070BB4201D0012103E014
:1052B000401C80B20A28F3D32143314303D000209D
:1052C00005B0BDE8F08F0120FAE70000B41B002014
:1052D0007C2600202DE9F84F93460BAA9A4692E8C7
:1052E0000811104D0022DDF82890144605F114062F
:1052F00005F1280725F8124026F81240BC54521C2C
:10530000D2B20A2AF6D3084AC2F840C010875187A1
:105310004A4651465846CDF80080FFF725FFBDE8C4
:10532000F88F000054260020B41B002000B5084868
:1053300087B000210171074801228261CDE9022175
:1053400004910092019269460AF022FA07B000BD6A
:1053500038190020000402402DE9FF476D4A6E4DC8
:10536000002413784FF4B4725043B0FBF1F0C0F551
:10537000EB7001B20826B5F92A20082BE985A9852A
:1053800020460B4631D0654F07EB800CBCF902C0BC
:105390009C4501DD944502DC864200DDC6B237F94A
:1053A00020C09C4501DA944502DB844200DAC4B295
:1053B000401C40B20928E7DB584F483F914209DDC5
:1053C00064B2B44269DB07EBC401554815F022FF13
:1053D000641EF5E761DA76B2A6425EDC07EBC60131
:1053E0004F4815F017FF761CF5E74C4F17F16C0787
:1053F00007EB800CBCF902C09C4501DD944502DC42
:10540000864200DDC6B237F920C09C4501DA9445DA
:1054100002DB844200DAC4B2401C40B20928E7DB58
:105420003E4F4FF000082437914237DD64B2DFF879
:10543000F49030E02879052803D1032C0DDB072CEC
:105440000BD007EBC4014846B1F902207A32CDE90E
:10545000002837F93430344A18E037F93430A3F1F2
:105460000C00ADF8080007EBC400B0F90210ADF86D
:105470000A1082880C3AADF80C20C0887A31CDE948
:105480000018ADF80E00284A284802A90B330CF08A
:1054900045F9641E64B2B442CCDA37E036DA76B24B
:1054A000DFF88C9030E02879052803D1032E0DDB3E
:1054B000072E0BD007EBC6014846B1F902207A321D
:1054C000CDE9002837F936301A4A18E037F9363076
:1054D00007EBC601A3F10C00ADF80800B1F902001A
:1054E000ADF80A008A880C3AADF80C20C9887A30E9
:1054F000CDE90008ADF80E100E4A0F4802A90B3393
:105500000CF00CF9761C76B2A642CCDDA88D68852D
:10551000BDE8FF87A71B0020B41B00206020030804
:105520000D0C0108E2EC1500B10C01087A3D1500E4
:1055300092C01600890C0108F27715003EB52C497F
:10554000D1E90201CDE9010101200090BDF90A0075
:10555000BDF90610BDF90820431ABDF904005B1C13
:10556000121A521C04F034FC054604F003FE2148D4
:1055700005F012FCBDF90A30BDF90820BDF906108E
:10558000BDF9040003F0A6FB1B4C207888B9042069
:1055900002F0ACFC194805F0FFFB0E200090BDF9AD
:1055A0000A30BDF90820BDF90610BDF9040002F06B
:1055B00005FB134805F0FAFB6FF07F4005F0ECFBAC
:1055C0000B48617820300E2250F8210001A903F029
:1055D00099F9002004F0CEFDBDF90620BDF90410B4
:1055E000284604F01DFE284604F04EFC3EBD000097
:1055F000D42103084E535700781C00203C86B50088
:10560000D8D8030830B50446C72285B0DA20E9B3FC
:105610007A21ADF80410ADF80620ADF8080000BFFF
:10562000ADF80A0001200090BDF90A00BDF906108E
:10563000BDF90820431ABDF904005B1C121A521C64
:1056400004F0C6FB054604F095FD002005F0A2FB22
:1056500002F048FF164805F09FFB164805F0A6FB30
:10566000224615A103A81AF07DF900208DF812003A
:105670000E2201A903A803F045F9002004F07AFDE9
:10568000BDF90620BDF90410284600E006E004F04C
:10569000C7FD284604F0F8FB05B030BD1521ADF874
:1056A00004107521ADF80620ADF80810B8E7000029
:1056B0003C86B5007482030825644D494E00000005
:1056C0000848016990F9012090F9020091F9001051
:1056D0001044401E814201D1012100E0002102A0BE
:1056E00000F0BCB8081D00204558495400000000D7
:1056F000F8B51B4907460122D1E90E010514C5EB97
:10570000214304B209B200920A1B29462046521CCA
:105710005B1C04F05DFB064604F02CFD002005F048
:1057200039FB02F0DFFE6FF07F4005F035FB0D48DE
:1057300005F03CFB7A21512004F02CF902220421CF
:10574000384603F014F8002004F014FD2A462146E0
:10575000304604F065FD3046BDE8F84004F094BBE7
:10576000C81D0308DC9103082DE9F04186B0074607
:105770000C4601201546002100902623D822084619
:1057800004F026FB804604F0F5FC002005F002FB47
:1057900002F0A8FE032002F0A9FBA54201D1234894
:1057A00000E0234805F0F8FA122500212523D7222E
:1057B0000846009502F002FA1E4E01A9B06850F8A2
:1057C000240001F0E3FA019800EBD070A5EB600033
:1057D000C2B2029800EBD070A5EB6000C3B2B06813
:1057E00050F82410144800F0DDFF144805F0DEFAEC
:1057F0006FF07F4005F0D0FA70680A22242150F83B
:10580000240003F05DF8002004F0B4FC07EBC700AF
:10581000C0EB87120C2140463C3204F001FD4046AB
:1058200004F032FB06B0BDE8F08100003C86B50014
:10583000585C5F00081D0020718C01083CBA030809
:1058400070B5054D286D80470446E86C80472146B9
:10585000BDE87040FFF780BDB41B0020F8B50746D7
:1058600001200D464FF48C76009025236D223146A1
:10587000422004F0ADFA044604F07CFC32464FF0BE
:1058800042012DB110481AF03DFD6FF07F4003E05A
:105890000E481AF037FD002005F07EFA0C4805F09E
:1058A00085FA40F227127821384603F011F80020DB
:1058B00004F060FC32464221204604F0B1FC204650
:1058C000BDE8F84004F0E0BAB37B0200C79B0200D9
:1058D000687E03083EB54A483223417A8DF80010AD
:1058E000817A8DF8011002783021462A16D0D2B282
:1058F000532A16D0D4B231224F2C16D0E4B24E2CFB
:1059000018D0E4B2442C18D0E3B24A2B1AD0DAB241
:105910004D2A26D0D2B2412A2CD033E08DF8021085
:105920000DE08DF8021039222AE08DF802208DF862
:10593000031027E08DF8022022E08DF802208DF878
:1059400003301FE04378612B06D082788DF8021077
:105950006E2A04D0372213E08DF8021010E03622B0
:105960000EE082788DF80210722A01D0352207E00D
:10597000332205E042788DF80210702A08D03822D0
:105980008DF8032002798DF80420202A02D003E04C
:105990003422F5E78DF8041040798DF80500194898
:1059A00001788DF8061041788DF80710C1788DF8D0
:1059B000081000798DF8090000208DF80A0005F024
:1059C0002BFA6FF07F4005F0E7F9002005F0E2F9CF
:1059D0000D4805F0EBF9192232210CA002F070FFFE
:1059E0002B223221684602F06BFF0C480078002819
:1059F00004D1C8225F210AA002F062FF3EBD000070
:105A0000A0240308AC240308F8570308535457395B
:105A10003232385F56312E3000000000661B002005
:105A20004E47000038B50446012000901C231F2279
:105A30005F21232004F0CCF9054604F09BFB1048BD
:105A400005F0AAF97A2341225F21232003F042F9CD
:105A50004FF05F034FF023020CB10A4900E00A49FE
:105A60000A4800F09FFE002004F084FB5F222321FF
:105A7000284604F0D5FB2846BDE8384004F004BAB7
:105A80004E53570083EF05005FDB0500718C010862
:105A900038B504460120009015231922EC21362048
:105AA00004F096F9054604F065FB114805F074F919
:105AB0004FF480734E22EC21362003F00BF94FF0A7
:105AC000EC034FF036020CB10A4900E00A490B48DA
:105AD00000F068FE002004F04DFBEC223621284641
:105AE00004F09EFB2846BDE8384004F0CDB9000024
:105AF0004E535700690E0600FB010600718C010829
:105B000038B50446012000901C231F224721232082
:105B100004F05EF9054604F02DFB104805F03CF951
:105B2000622341224721232003F0D4F84FF047039A
:105B30004FF023020CB10A4900E00A490A4800F07C
:105B400031FE002004F016FB47222321284604F0F2
:105B500067FB2846BDE8384004F096B94E5357001D
:105B600083EF05005FDB0500718C01082DE9F04132
:105B7000334D064600242A78E86820E010F81430F7
:105B8000B3421ADC00EB44035B78B34215DB10F838
:105B900014308B4215DC00EB440252788A4210DB51
:105BA00095F9020081421FDAC8B2C91ACBB2014688
:105BB000F2B21846FFF7D8FD18E0641CE4B2944234
:105BC000DCD310F81480002795F9021088451CDA00
:105BD000E86800EB44004078404516D3F2B24146F5
:105BE0003846FFF7C1FD1EE0FFF76AFD95F9020098
:105BF000864220DAE868F2B2F1B210F81400301AE6
:105C0000BDE8F041C0B2FFF7AFBD002005F0C4F819
:105C100007EBC700C0EB871101F16103E3220C2001
:105C20003C3103F057F87F1C08F10108FFB208F07F
:105C3000FF08042FC8D3BDE8F041FFF741BD0000C5
:105C4000081D002010B500F055FCFBF75FF800F0D0
:105C500003FC00F0A7FB00F03DF919480078092883
:105C60002DD2DFE800F0050A070D16101C1C2400D9
:105C70000FF026FE14F040F815E00FF0AFFD10E035
:105C80000FF098FC07E00FF063FCBDE8104014F043
:105C900033B80FF02FFCBDE8104015F06FBC0FF0CB
:105CA00085FD15F06BFCBDE81040FDF74FBF0FF010
:105CB0006DFD14F021F8BDE810400FF0C3B810BD21
:105CC000A71B00202DE9F84F4D48D0E906540120CC
:105CD0000090291422B228B2C1EB2443121A521C9C
:105CE0005B1C04F075F8814604F044FA002005F0CE
:105CF00053F802F0F7FB434F6FF07F4838780228E3
:105D00003ED0404605F048F83F4805F04FF8D42211
:105D100017213EA002F0D4FDD421A62003F03AFEC4
:105D20007868007802F017FD3A4C204605F034F808
:105D3000772002F0F3FC78684FF42F710078401F51
:105D400010FB01F040F6660190FBF1F086B2387866
:105D5000022825D04FEA040005F01EF8DFF8B8A0AD
:105D6000002400BFC4EBC400811DB1421AD800BF9B
:105D700004EBC40000F15202E623D7214C3028E0A6
:105D8000042002F0B3F8254805F006F80E20009034
:105D9000231422B2291428B201F010FF0020B1E729
:105DA0004046D9E7B04227D806EB440804EBC407C5
:105DB00008F14C0207F14C00E623D72102F08AFFDC
:105DC000504604F0E9FF07F1520208F14D00E623C6
:105DD000D72102F07FFF641CE4B20A2CC2D300205A
:105DE00004F0C8F92A1429B2484604F019FA4846C2
:105DF000BDE8F84F04F048B8504604F0CDFFB7E7CF
:105E0000D4210308781C0020687E03085057523ABA
:105E10000000000000EFFF004E5357003C86B50025
:105E200030B504469E2085B0B122E9B38521ADF896
:105E30000410ADF80600C920ADF80800012000905C
:105E400010B2BDF90610ADF80A20431ABDF90820BA
:105E5000BDF904005B1C121A521C03F0B9FF054681
:105E600004F088F9002004F095FF02F03BFB6FF08E
:105E70007F4004F091FF144804F098FF224613A1DC
:105E800003A819F06FFD00208DF810000E2201A963
:105E900003A802F037FD002004F06CF9BDF90620DC
:105EA000BDF90410284600E006E004F0B9F92846E0
:105EB00003F0EAFF05B030BD2521ADF80410ADF8C0
:105EC00006006920B8E700007482030825642525D0
:105ED000000000002DE9F8432F4D304C01272879B0
:105EE000E17DDFF8BC80884226D0E0750E231622C3
:105EF0000721B620009703F06BFF064604F03AF93D
:105F0000002004F047FF02F0EDFA404604F044FFA1
:105F1000244804F04BFF02230322B621E07D02F067
:105F200007FC002004F026F90722B621304604F0D1
:105F300077F9304603F0A8FF6879217E884228D09F
:105F400020760E2316220721D220009703F040FF6F
:105F5000054604F00FF9002004F01CFF02F0C2FA1D
:105F6000404604F019FF0F4804F020FF02230322EB
:105F7000D221207E02F0DCFB002004F0FBF8072297
:105F8000D221284604F04CF92846BDE8F84303F036
:105F90007BBFBDE8F8830000701B0020B41B00200D
:105FA0003C86B500687E030838B5044601200090A1
:105FB0001C231F225F21AF2003F00AFF054604F0D7
:105FC000D9F8104804F0E8FE7A23CD225F21AF20F3
:105FD00002F080FE4FF05F034FF0AF020CB10A49B0
:105FE00000E00A490A4800F0DDFB002004F0C2F896
:105FF0005F22AF21284604F013F92846BDE8384057
:1060000003F042BF4E53570047E5050023D105007A
:10601000718C010838B5044601200090152319221F
:10602000EC21A22003F0D4FE054604F0A3F81148A9
:1060300004F0B2FE4FF48073BA22EC21A22002F0E9
:1060400049FE4FF0EC034FF0A2020CB10A4900E008
:106050000A490B4800F0A6FB002004F08BF8EC2264
:10606000A221284604F0DCF82846BDE8384003F0B9
:106070000BBF00004E53570032080600C4FB05005A
:10608000718C010838B50446012000901C231F22A2
:106090004721AF2003F09CFE054604F06BF8104842
:1060A00004F07AFE6223CD224721AF2002F012FED7
:1060B0004FF047034FF0AF020CB10A4900E00A4924
:1060C0000A4800F06FFB002004F054F84722AF218B
:1060D000284604F0A5F82846BDE8384003F0D4BEB1
:1060E0004E53570047E5050023D10500718C010888
:1060F0002DE9F0411B481C4C01260278A1880A209A
:1061000000259AB1194A1288B2FBF0F38B4204D0F1
:10611000B2FBF0F0A0800DF0BDFE607800B96670B3
:106120002078002800D02570BDE8F081104F3A8813
:10613000B2FBF0F38B4204D0B2FBF0F0A0800DF084
:10614000A9FE607800B16570388841F25731323865
:106150008842E5D3A0780028E2D120780028E3D156
:106160002670E1E7381900209C1C0020421900200D
:106170004019002070B504460A281AD2104800EBD6
:10618000840510F824206B78A0F150060D4856F8CD
:1061900034100B327A3300F005FB06EBC400AA780A
:1061A000EB784168BDE870400B3206487A3300F066
:1061B000F9BABDE87040044904480EF08DBE0000F5
:1061C000F01F0308718C0108F27715007A3D150065
:1061D000F8B51A4907460122D1E90C010514C5EBAF
:1061E000214304B209B200920A1B29462046521CE0
:1061F0005B1C03F0EDFD064603F0BCFF002004F03D
:10620000C9FD02F06FF96FF07F4004F0C5FD0C4846
:1062100004F0CCFD032374224C21384602F088FAA6
:10622000002003F0A7FF2A462146304603F0F8FF7E
:106230003046BDE8F84003F027BE0000C81D030843
:10624000E4A0030800BF70472DE9F84F4D48D0E99E
:10625000045601200090291432B228B2C1EB264323
:10626000121A521C5B1C03F0B3FD814603F082FF3F
:10627000002004F091FD02F035F9434C6FF07F47A8
:106280002078012836D0384604F086FD3F4804F0D7
:106290008DFDA6221D213EA002F012FBA62108467C
:1062A00003F078FB6068408802F055FA354B62785D
:1062B0003433606833F8221003EB8202408852883E
:1062C000401A46267043511A90FBF1F086B22078AE
:1062D00001281FD0304800BF04F05EFDDFF8BCA0ED
:1062E000002400BFC4EBC400811DB14214D804EBEC
:1062F000C4002EE0042001F0F9FD294804F04CFD13
:106300000E200090331432B2291428B201F056FC4A
:106310000020B9E73846DFE7B04215D806EB44085D
:1063200004EBC40708F14C0207F14C00B823A92183
:1063300002F0D0FC504604F02FFDB82307F15202C2
:1063400008F14D00A92109E0504604F025FD04EBB9
:10635000C40000F15202B823A9214C3002F0BAFC6B
:10636000641CE4B20A2CBDD3002003F003FF2A14FE
:1063700029B2484603F054FF4846BDE8F84F03F001
:1063800083BD0000D4210308781C0020687E030828
:106390005443523A0000000000EFFF004E535700F4
:1063A0003C86B500FEB5284D284CE88B21888842F4
:1063B00048D0D622ADF808203222ADF80A20B1200C
:1063C0000122ADF8040025210092ADF806100E233D
:1063D000262203F0FDFC064603F0CCFEBDF9063094
:1063E000BDF9042001A91A480BF0D0FA194804F0AD
:1063F000DDFC6FF07F4004F0CFFCBDF90610BDF965
:106400000400091F03F0C6FA2088B0F57A7F01D294
:10641000022203E00A21B0FBF1F00122042102F084
:10642000A6F9002003F0A6FEBDF90620BDF9041070
:10643000304602F5817203F0F3FE304603F024FD8E
:106440002088E883FEBD0000B41B0020101B002044
:10645000F2C81400687E03083EB52249224C0A8D1A
:10646000206882423DD008853E22ADF808203222C5
:10647000ADF80A2008200122ADF804002521009281
:10648000ADF806100E23372203F0A2FC054603F0F8
:1064900071FEBDF90630BDF9042001A913480BF0C7
:1064A00075FA134804F082FC6FF07F4004F074FC2E
:1064B000BDF80600BDF90410001F02B205232068D4
:1064C00002F036F9002003F055FEBDF90620BDF9B3
:1064D0000410284602F5817203F0A2FE284603F05C
:1064E000D3FC3EBDB41B0020841B0020F2C8140066
:1064F000687E03082DE9F041524CE07BFBF736FB48
:10650000514800250078A8B1E5742575217C607B91
:10651000814203D020740021FAF730FE617CA07B19
:10652000814203D060740121FAF728FEFA20E0735B
:10653000BDE8F081E17B4548454E79B1491EE173E4
:106540000178227C49B252B2914205DC3178627CFA
:1065500049B252B2914205DDE57303E001786173FF
:106560003178A1733B490978A1B3E573617D1E2998
:1065700002D2491C6175DBE7374965750127097847
:106580004FF0040839B1E07CD0B9E7740021052050
:10659000FAF7F4FD14E0E574217C052903D80278AC
:1065A000491C914205D200782074052801D384F853
:1065B00010800021207CFAF7E1FD207C401C207433
:1065C0002648007838B1207D0028B1D101212775F7
:1065D000052032E015E02575607C052803D8317868
:1065E000401C884205D230786074052801D384F8B5
:1065F00011800121607CFAF7C1FD607C401C607451
:1066000096E7E5742575E17B49B1607B217C884282
:1066100003D020740021FAF7B1FDA07B08E00078D8
:10662000217C884203D020740021FAF7A7FD30783E
:10663000617C88429FD060740121BDE8F041FAF787
:106640009DBD0000B41B0020041B0020A2190020E7
:10665000A31900209B190020991900209A190020E5
:106660002DE9F041454C464D21882888814203D0D0
:1066700020800021FEF7C6FF61886888814203D030
:1066800060800121FEF7BEFF3C4C3E480A3CA179E8
:106690000078814203D0A0710021FFF7C1FB3A4886
:1066A000E1790078814203D0E0710121FFF7B8FB66
:1066B0003648384D002601783548A1B3E1782829BD
:1066C00003D2491CE170BDE8F0813349E67001272F
:1066D00009784FF0040839B12079D0B92771002129
:1066E0000520FAF785FD14E026716178052903D8A5
:1066F0000278491C914205D200786070052801D3C8
:1067000084F8018000216078FAF772FD6078401CFF
:1067100060702248007838B160790028D3D1012117
:106720006771052026E015E06671A078052803D87A
:106730002978401C884205D22878A070052801D30A
:1067400084F802800121A078FAF752FDA078401C5D
:10675000A070B8E712490E8061780078814203D0BA
:1067600060700021FAF744FDA17828788142AAD010
:10677000A0700121BDE8F041FAF73ABD041D0020E8
:10678000F81900209E1900209F1900209B19002055
:10679000A2190020A3190020991900209A1900209D
:1067A000C019002010B504460248A047BDE81040BB
:1067B0000EF072B881D4010805484FF48061016081
:1067C000C114016081140160C900016070470000BC
:1067D000143C014070B5402008F0D0FF154C164D18
:1067E00040B91FE0401E208012480BF06FFB0120D3
:1067F000FEF7B2FCB4F900000028F3D10F4988631A
:1068000048630F4A2080890291610E4908700E4941
:106810000520087008481438016821F04001016023
:1068200040202860802008F0A9FF002801D08020A7
:10683000286070BD20190020143C01400000014078
:1068400000000240011B00200E1B002000B507497C
:1068500087B001200871009003200190002004906F
:106860006946034808F094FF07B000BD38190020BE
:106870000004024010B500221146034819F0B8FD8B
:1068800002491E20088010BDF2F60700AE1B002052
:106890001C490868C2061C4805D5C26942F01002AE
:1068A000C26110220A600A68920605D5C26942F0E8
:1068B0000802C26120220A600A68520605D5C26930
:1068C00042F00402C26140220A600A68120605D53D
:1068D000C26942F00202C26180220A600A68D205DF
:1068E00006D5C26942F00102C2614FF480720A60AB
:1068F0000A68920705D5C26942F02002C2610220EF
:10690000086070470C3C0240641F002070B51149BC
:1069100004460020C86105F06FFF06460E4D09E0F1
:10692000601C07D024B105F067FF801BA04201D98D
:10693000032070BD2868C003F2D42868C00701D0C6
:1069400001202860286810F4F970F2D0FFF7A0FF4A
:10695000012070BD641F00200C3C02400C48C17C2B
:10696000491CCAB2C274838F016D142A194401658F
:106970000CD31422B1FBF2F189B242F20F72C1843E
:10698000914200D9C2840021C174016570470000A2
:10699000F81A00201048817C491CCAB28274438EC8
:1069A000C16C0A2A1944C16414D30A22B1FBF2F162
:1069B00089B24FF4FA72C185914200D9C285C18D66
:1069C000052201EBC101B1FBF2F12031018600216A
:1069D000C164817470470000F81A002030B51E4869
:1069E000017C491CCDB20574028F416C8C18446443
:1069F000428F016C8B180364C28E816C0A448264DE
:106A0000417C8D4226D3B4FBF1F4A4B24FF46175FE
:106A10004485AC4200D94585B3FBF1F39BB241F20A
:106A20005C240385A34200D9048501EB81035B004C
:106A3000B2FBF3F292B240F6980382859A4200D9F3
:106A4000838500228264426402640274C82901D2F0
:106A5000C821417430BD0000F81A0020F0B4264966
:106A60008A8B521C92B28A83CC8F0B6D1D190D65D7
:106A70004C8F8B6D1C448C658E8FCB6D3344CB65F6
:106A8000B1F842704E6D3E444FF496774E6558B162
:106A9000B1F844C0086E60440866B1F846C0486E5C
:106AA00060444866384603E00020086648660420D3
:106AB00082421FD3B6FBF2F00886B5FBF2F0C88520
:106AC000B4FBF2F04886B3FBF2F08886086EB0FBA8
:106AD000F2F0C886486EB0FBF2F080B20887B84288
:106AE00001D90F8701E0962801D901200870F0BC78
:106AF00000F004B8F0BC7047881900200448002159
:106B0000818301658165C1654165016641667047A4
:106B10008819002010B50020FAF718F9002818D1BC
:106B20000C480D4900680968884200D10B4814F0F0
:106B30004FFC0B480949006888420AD1094800788F
:106B4000012803D008480078002802D10749012015
:106B5000087010BDA01B0020941B0020AD0F020880
:106B6000981B0020E11A0020BC1A0020D01B002036
:106B700010B504460BF04AFE0020FCF75DFF02480A
:106B800000214172847510BDF81A0020024A0021CC
:106B90005172024908707047F81A0020AC1B00209F
:106BA00010B5022004F038F90BF056FE3C2119A074
:106BB0000AF08EFF194804F0F9F86FF07F4004F0F6
:106BC000EBF84D22782116A001F082FE92223621A8
:106BD000154819F00DFC154804F0E8F8144804F0C5
:106BE000DBF88F22842113A001F06AFE124804F022
:106BF000DDF8124804F0D0F8D722782110A001F077
:106C000067FEEE22782113A001F062FEBDE810407D
:106C10000BF030BE56455253494F4E00E4A00308D6
:106C20004C55584500000000DB120200DC910308BF
:106C300000EFFF00342E3200687E0308A9A9A900E6
:106C4000566572312E303420205350434241543225
:106C500030000000323031392E30312E3039000012
:106C60002DE9F04106F0B4FF1B481C4D1C4C017887
:106C70001C4E79B100210170012012F003FEFFF7D4
:106C80008FFF194901200870652028801748008867
:106C900020803080164F3878032810D00C2810D070
:106CA000288820B1208830801248007810B112481E
:106CB00014F08EFB11480078012806D008E0104837
:106CC00000E0104814F07CFB02E00F4814F080FB59
:106CD0000D203870BDE8F0818C1B0020AE1B002019
:106CE000921B0020901B0020ED1A0020A41B002006
:106CF000AB1B0020E31A002065620208E11A0020A5
:106D0000B9230108098F0208AD0F020810B501462A
:106D1000034801F0A1FB84B20DF0BEFD204610BD7A
:106D2000F5D3010810B50146034801F0A7FB84B272
:106D30000DF0B2FD204610BDF5D3010808B5009353
:106D400013460A460146034802F078F8BDE80840B9
:106D50000DF0A2BDF5D3010813460A4610B5014651
:106D6000034802F0CBF8BDE810400DF095BD0000DF
:106D7000F5D301080A4610B50146034802F0A4F90C
:106D8000BDE810400DF088BDF5D301080A4610B5E6
:106D90000146034802F0B0FDBDE810400DF07CBD97
:106DA00081D4010810B50DF0C1FD0DF0E7FC0349D9
:106DB0000880BDE810400DF0EBBE0000581D00201B
:106DC00010490A781049012A496831F810000DD09D
:106DD000643800EB800040005FF0D70190FBF1F0D9
:106DE000401C40B2012808DA012009E0C83800EB55
:106DF000800040004FF4C871F0E70A2800DD0A2047
:106E0000C0B27047A81B0020941C00200A494968A2
:106E100031F810004FF4617100EB80004000B0FBCE
:106E2000F1F0401C40B2012801DA012002E00A28FA
:106E300000DD0A20C0B27047941C00200A4949684E
:106E400031F81000D721401F00EB8000400090FB7C
:106E5000F1F0401C40B2012801DA012002E00A28CA
:106E600000DD0A20C0B27047941C002010B5044613
:106E70000D480A2C01680FD00D2C08BF10BDC86941
:106E800001682046884709480168002908BF10BDED
:106E90002046BDE810400847C8698A8C407E1044EF
:106EA0008884088C488410BDE81D0020081E00203E
:106EB0002DE9F04F85B08A468346DDE90E0100F5E5
:106EC000B4749846914601F5B475B4F5B47F0FDB00
:106ED00061424FF4B47091FBF0F04042002807DDAE
:106EE000A0EB001000EB400004EBC00405EBC00574
:106EF0004FF0FF360127002DDCBF05B0BDE8F08F55
:106F00005A2C0FDA002C63DB5A2DB4BF28465A20C6
:106F10004346CDE90040CDE902764A4651465846FF
:106F200014F07EFE5A3C5A3D002DDCBF05B0BDE892
:106F3000F08F5A2C13DA002C4CDB5A2DB4BF2846A4
:106F40005A20C4F15A01C0F15A000090CDE901164F
:106F500043464A4651465846039614F061FE5A3C51
:106F60005A3D002DDCBF05B0BDE8F08F5A2C0FDA7A
:106F7000002C31DB5A2DB4BF28465A204346CDE9B8
:106F800000404A4651465846CDE9026714F048FE93
:106F90005A3C5A3D002DDCBF05B0BDE8F08F5A2C9D
:106FA00013DA002C1ADB5A2DB4BF28465A20C4F13C
:106FB0005A01C0F15A000090CDE9011743464A46F4
:106FC00051465846039714F02BFE5A3C5A3D92E71F
:106FD000002499E70024B0E70024CBE70024E2E78F
:106FE0002DE9F0430446C56887B01746884600205F
:106FF00003F0DAFE0646002D1BBF2879002826F094
:10700000020046F0020003F0CFFE2069012568B1BE
:10701000D4E902120091CDE901250395D0F800C012
:107020006388228839464046E04719E0DFF84C90F3
:10703000134B2146D9F800001B68427CE068984752
:10704000A0B1A188E388A2680095CDE90231CDE91D
:1070500004200195638822883946404606F0CCFF1B
:1070600007B03046BDE8F04303F09EBEE08801283B
:1070700012BF0020D9F80000806BE2E7E81D002075
:10708000E01D00202DE9FF4F83B0074643F6FF7453
:10709000C4F1000090460E1E0090C4BFB91C3246D9
:1070A0000DDD00BFB1F90000A042D8BF0446009B2F
:1070B0009842D8BF1846091D0090521EF2D18C4943
:1070C0000868406978B1B0F90630069A9B1A009AB0
:1070D0009342C0F2018100BFB0F90230069A9A1AB9
:1070E000A24200F3FF8000988442D2BFA6F10109BA
:1070F00007B0BDE8F08F00207E490546002E0860ED
:10710000C4BF069804EB000A7EDD4D45B4BF05F10F
:10711000010C4FF0000C07EB850207EB8C01B2F974
:107120000200B1F90230A04253D1A34213D137F982
:107130002C2037F9250002EB08036D4A40445146E4
:1071400012689842526ED2F800C0B2BF1A46024688
:107150001846E04783E000222946B9F1000F0CDD14
:10716000002914BF491E711E07EB8100B0F902000F
:10717000A04203D1521C4A45F2DB2046A0426ED009
:10718000001B37F925101A1B90EA020F09D4584A40
:1071900001EB080051461268526E13680246984788
:1071A0005DE0DFF850B1DBF800C0BCF10C0F56DA3F
:1071B0005FEA0C0018BF504A4AD000BF02EB400300
:1071C00033F9023C8B4243DB22F81030401EF5D1EC
:1071D0003EE0A34243D0A8BF844203DAA042A8BF46
:1071E0009C423CDB98424DDC8446A042DFBF1846FF
:1071F0008442B2F90030B1F9001030DCCA1AA4EBB5
:107200000C015143002900E02DE0A0EB0C02CEBFA1
:1072100001EB6201A1EB6201491CA0EB0C0091FBA8
:10722000F0F0DFF8D0B0C118DBF800C0BCF10C0FF3
:1072300015DA5FEA0C0018BF2F4A09D002EB4003B1
:1072400033F9023C8B4203DB22F81030401EF5D1AB
:10725000294A22F810100CF10100CBF800006D1C37
:10726000B542FFF652AF06982249204401900868C3
:107270004FF0000B5D460028C4BF1F48B0F900A0C6
:1072800022DD19E09C46A342DEBF8442B1F9003002
:10729000B2F90010B2DDE2E71748BBF1000F30F998
:1072A00015A009D008EB0100114908EB0A02096892
:1072B000496E0B68019998470E486D1C8BF0010BC5
:1072C00000685146A842E7DC0098641C84427FF7BE
:1072D00012AF07B0BDE8F08FB0F90630069A9A1ADF
:1072E0000092F9E6B0F902200698141AFBE60000B5
:1072F000E81D0020E81E00205430002000207047C8
:107300002DE9F04F4B4989B00968B1F92220069266
:10731000D1F81CC0B1F92470DCF81C40A28982426B
:107320009CBFE389984205D8A0EB02094FF0FF38D3
:10733000266812E0D4E90162002A71D013888342E2
:107340009CBF5588A8426BD8C01A526880B202EB25
:107350008000B0F90090B0F90280B9F1FF3F5FD032
:107360009CF81800A27C10FB02FB94F810A0079078
:10737000B1F92A50284607F095FBC0B208902D4875
:1073800009FB0B620068A37C4FF00109816BCDE91A
:107390000293CDE90421C0695246C17E807ECDE9C9
:1073A0000001DDE90603394606F026FEB8F1FF3F8D
:1073B00018D045F0020007F075FB1E48A37C08FBBF
:1073C0000B620068816BCDE90293CDE90421C069AD
:1073D0005246C17E807ECDE90001DDE906033946D3
:1073E00006F00AFE134E3068C069417E007E81427D
:1073F00013D9022D11D085F0040007F053FB30683B
:10740000C069017EC27E11FB0271427ED319827E69
:1074100006981AFB020206F0C9FF089807F042FB23
:107420000448627C0068418C1144418409B0BDE885
:10743000F08F0000E81D0020044800290068C069A2
:10744000C0691CBF027C0A60407C7047E81D0020B8
:10745000022008807047C06982898A429CBFC28925
:10746000914210D9806880B102888A429CBF4388CB
:1074700099420AD8406800EB8100A0EB8200B0F985
:107480000000002801DB0120704700207047000049
:10749000F0B52D4D044687B028682146B0F92A7012
:1074A000C069C06900F05EF9002804BF07B0F0BDF4
:1074B00041680088201A00EB400001EB800420782E
:1074C000C01C8608384607F0EDFA07461F48D0F87A
:1074D00000C0BCF1000F1AD0A06800210222CDE943
:1074E0000401012003960090CDE90102286894F977
:1074F0000320DCF800C0B0F92410B0F922001144D8
:1075000094F90220637810442278E04711E0A068E3
:10751000CDE90060286894F903206378B0F924105D
:10752000B0F92200114494F902201044227800F0AE
:10753000FBFC384607F0B6FA28682279418C1144E2
:10754000418407B0F0BD0000E81D0020181E002097
:107550000346184810B40068C4691846E2692AB3A3
:10756000B2F800C084459CBFB2F802C0604503D9A0
:107570009268002AF4D119E0C2B11088D2F804C090
:10758000181A00EB4003042000EB8300A27E1CF8D5
:10759000000010FB02F0002904BF10BC70471CF86B
:1075A000233013FB02F20A6010BC704710BC0020AD
:1075B00070470000E81D0020034612480068C069BB
:1075C000C2691846E2B100BFB2F800C084459CBF52
:1075D000B2F802C0604503D99268002AF4D10FE0E6
:1075E00072B1506812889A1A02EB420200EB8200D4
:1075F000D0E9002380680A60C1E9013000207047AB
:1076000001207047E81D0020012008807047C069F4
:1076100068B102888A429CBF4288914203D980683F
:107620000028F6D103E000281CBF0120704700208D
:10763000704700002DE9F341354C82B000252068E9
:10764000C069427EC07E12FB00F84F1E24D402A8FF
:1076500003F006FC064620683146C069C06900F0A8
:1076600081F890B141680088301A00EB400001EBCE
:10767000800090F90210007908442168C969897E68
:1076800010FB01F00028C8BF05447F1EDFD51EB1E6
:10769000304604F037FB054420686A1E418CADF883
:1076A0000010808C1144ADF80410ADF80200A8F170
:1076B00001010844ADF806001648006800281FBF05
:1076C000816800296846884702F0C1F805462068AD
:1076D00090F82A0010F0040F02D002F0B8F801E090
:1076E00002F098F803F058FBBDF90630BDF904200C
:1076F000BDF90210BDF9000006F058FE284603F05F
:107700004BFB05490120087004B0BDE8F081000082
:10771000E81D0020181E0020201E00202DE9F34146
:107720000E4C0F4F0D462068B0F92A6016F0030F7B
:1077300002D17A68009890476D1E08D4684603F01D
:107740008FFB2168C969096888476D1EF6D500203E
:1077500038702068468502B0BDE8F081E81D002041
:10776000201E0020002808BF704702888A4203D8E4
:1077700042888A4228BF704780680028F5D1704748
:1077800002490020096881F869007047E81D00205F
:107790002DE9FF4F85B00C46DDE912BA054613F01E
:1077A0003DF800EB050913F047F800EB0408002052
:1077B00013F064F8002804BF09B0BDE8F08F00BFE3
:1077C000DDE9077502F062F804461948016891F88E
:1077D0006900002814BF012091F8680009FB00F639
:1077E00008FB00F247436843CDE9022091F86800A6
:1077F00010FB04F5F0194119F01B401B00F06AFB67
:10780000E8B203F0F7FACDE900BADDE902133A462F
:107810003046FFF74DFB204603F0ECFA00F012F87B
:1078200012F05EFE0028CBD109B0BDE8F08F000059
:10783000E81D002002490120096881F869007047AD
:10784000E81D002010B516F009FD0448016A04483F
:107850000068416600F10801416110BD981D0020DB
:10786000E81D00202DE9F04F89B017460C4605466B
:1078700012F0D4FF00EB050812F0DEFF00EB040964
:107880004D4C206890F8691031B990F8680000FB01
:1078900008F800FB09F94743A8EB0700059000F042
:1078A00095FAADF8180008EB0700049000F08EFA86
:1078B000ADF81C00A9EB0700039000F087FAADF8C3
:1078C0001A0009EB0700029000F080FAADF81E00E4
:1078D00006A812F0D3FF002804BF09B0BDE8F08F5E
:1078E00007FB07F0019007EBD7700090DDE904106B
:1078F00000F0F0FADDE9000101EB60062E48DDE959
:1079000002BA0068406938B1B0F9061059454DDB3C
:10791000B0F9021051454CDC01253C46012F1CDD1D
:10792000A9EB05015145A8BF8B4513DB05FB05F00D
:1079300004FB0402B24204DD641E04FB0402B242F2
:10794000FADC1D4B08EB0402A8EB04001B685B6E1D
:107950001B6898476D1CBD42E2DB00243D1E1CDD08
:1079600009EB04015145A8BF8B4513DB04FB04F070
:1079700005FB0502B24204DD6D1E05FB0502B242A5
:10798000FADC0D4B08EB0502A8EB05001B685B6EEB
:107990001B689847641CBC42E2DBFFF753FF12F000
:1079A0009FFD0028A2D109B0BDE8F08FB0F906B064
:1079B000AEE7B0F902A0AFE7E81D00202DE9FF4FC8
:1079C00083B01C4615460E4612F028FF471912F0E8
:1079D00033FF00EB0409002012F050FF002804BF21
:1079E00007B0BDE8F08F701E724D02902868417C90
:1079F000714850F8210001901221C068426A01A824
:107A000090475FEA000C07D03B463246CDF8009025
:107A100003990198E047C4E02968DDF80C8091F8EB
:107A20006920002A14BF4FF0010A91F868A0B8F944
:107A300000C0029864460028C4BF08F1040BA6F1F8
:107A4000010E0DDDBBF90000A042D8BF0446604521
:107A5000D8BF604684460BF1040BBEF1010EF1D194
:107A6000002A04BF0CEB0701E01908D091F8680068
:107A70000CEB070292FBF0F1E21992FBF0F000F040
:107A8000B1F900287DD12A6892F86900E0BB002E88
:107A90003ADDA8F10401881C16F0010F0ED031F870
:107AA000043F92F8682013FB02F20A802B6830F83A
:107AB000042F93F8683012FB03F202805FEA660C31
:107AC00018BF2A6820D000BF30F8044F31F804BF37
:107AD00092F868E01BFB0EF321F8043B92F8683043
:107AE00013FB04F320F8043BB1F800B0048892F8CB
:107AF00068E01BFB0EF30B8092F8683013FB04F375
:107B00000380BCF1010CDFD109FB0AF307FB0AF289
:107B100031464046FFF7B6FA2A6892F8690080BB02
:107B2000002E3CDDA8F10400811C16F0010F0ED0E0
:107B300030F9043F92F8682093FBF2F202802B6840
:107B400031F9042F93F8683092FBF3F20A80721037
:107B500018BF2B6823D000BF30F9044F93F868801A
:107B600031F904CF94FBF8F420F8044B93F8684003
:107B70009CFBF4FC21F804CBB0F90040B1F900C043
:107B800000E00CE093F86880521E94FBF8F4048047
:107B900093F868409CFBF4FCA1F800C0DCD1FFF72F
:107BA00051FE12F09DFC00287FF420AF07B0BDE825
:107BB000F08F0000E81D0020001E00202DE9FF4F7F
:107BC0008BB0054618980C464000511B1F46904646
:107BD000091A44BF0FB0BDE8F08F391B081A44BF23
:107BE0000FB0BDE8F08F0020774E0490306890F819
:107BF000691029B990F868100491042180F8681080
:107C000012F00CFE28440B9012F016FE051912F02B
:107C100005FE00EB080412F00FFE3268C11992F85D
:107C2000690050B992F868000B9B454343430B939E
:107C3000189B4443414358431890681E0C9092F897
:107C40006800621E02440844CDE90D200B9800F044
:107C5000BDF8ADF818000D9800F0B8F8ADF81C00AC
:107C60000C9800F0B3F8ADF81A000E9800F0AEF8DA
:107C7000ADF81E0006A812F001FE00287ED018986C
:107C800040430390189800EBD0700290DDE90C742B
:107C90000B9D21462846DDF83880189E00F01AF921
:107CA000DDE90201059501EB6009CDE90048464890
:107CB000BA460068406938B1B0F9061041457DDB2D
:107CC000B0F90210B9427CDC0025341E25DD009895
:107CD0000AEB060B801B099005983044CDF8200074
:107CE000ABEB0501B942A8BF884513DB05FB05F0E6
:107CF00004FB04024A4504DD641E04FB04024A45F9
:107D0000FADC314B09981B68021908985B6E001B5E
:107D10001B6898476D1CB542E2DB0AEB0600441C69
:107D20000198A0EB060A5445B8BF274D09DA286828
:107D30002146009A406E036805989847641C544594
:107D4000F5DB0024351E24DD0098801B009005988B
:107D500000EB060B0AEB0401B942A8BF884515DB0E
:107D600004FB04F005FB05024A4504DD6D1E05FB1E
:107D700005024A45FADC0098421900E010E0124B77
:107D8000ABEB05001B685B6E1B689847641CB44234
:107D9000E0DBFFF757FD12F0A3FB00287FF476AF7E
:107DA0000948006890F86910002904BF049980F818
:107DB00068100FB0BDE8F08F00E002E0B0F9068077
:107DC0007EE7B0F902707FE7E81D002004490968EA
:107DD00091F86810002918BF90FBF1F000B27047CD
:107DE000E81D00202DE9F041304C05460E46206884
:107DF000002798B92E480068E06110B906F0D1FB61
:107E0000E06100F0B5F92060002808BF012705D027
:107E1000294928480860084604F030F927480068D6
:107E200085423FDBE069711B421E9142C4BF28447A
:107E3000461EAE42BCBF2E460127DFF88480D8F82C
:107E40000000416E4A68A26321621F491D4A0A6010
:107E500041662068E660C4E90105711B4A1C0021E7
:107E600004F08CF91948810CC4E90401A061D8F828
:107E70000000018990F8682011FB02F314490B807F
:107E8000438913FB02F34B8083895B1C53435B1EC6
:107E90008B80C3895B1C5A43521ECA80416138469D
:107EA000BDE8F08105480568BCE70000981D00208A
:107EB0000C1E0020B5EF0208BC1D0020101E002083
:107EC000E81D0020B1D50208CC1D002001C0FFFF35
:107ED000C41D0020044A126892F8682090FBF2F05A
:107EE00091FBF2F1FFF77EBFE81D0020C1B20C4804
:107EF000006880F86810028912FB01F3094A1380B8
:107F0000438913FB01F3538083895B1C4B435B1E46
:107F10009380C089401C4843401ED08070470000B9
:107F2000E81D0020C41D00202DE9F04F8FB0DFF8C0
:107F300080C1DDE91889DCF800C09CF8104014F01D
:107F4000020F6CD0CDF814900A930E920746CDE93B
:107F50000B8158A04FF0000B00680790002BCEBF9C
:107F600007AD0FB0BDE8F08F00260C980E9C58446A
:107F7000DDF814800090042C31DB00BF18F801AB51
:107F800006EB070905EB9A1000990278484606F0BF
:107F9000A5FD4FEA8A604FEA106A05EB9A10009936
:107FA000027809F1010006F099FD4FEA8A604FEA74
:107FB000106A05EB9A100099027809F1020006F0A8
:107FC0008DFD4FEA8A6005EB90700099027809F107
:107FD000030006F083FD241F361D042CCEDA002C8E
:107FE0001CBF98F80080641E0DD005EB9811F019A5
:107FF0000A78761C009906F071FD4FEA88604FEA16
:108000001068641EF1D20B9905980BF1010B08441E
:1080100005900A988345A7DB0FB0BDE8F08FCDE946
:108020000210DCF8380016461D46D0F800B0DCF827
:108030003C00D0F800A020480068504503D11E48FD
:108040004068584520D0584606F0BAFB009050468C
:1080500006F0B6FB194F019000980124C7F8000004
:1080600004EB8400C2B2DDE9001005F06FFF47F8B1
:108070002400641C032CF3DB0198F860104806F020
:1080800075FB0D48C0E900AB0E480D4906804580E0
:10809000A0F80480C0F808900B480078087101F13E
:1080A0000C00DDE902210FB0BDE8F04FFEF798BFEC
:1080B000E81D002000050A0FA41E00204430002007
:1080C000AC1E0020B81E0020201E0020002808BF83
:1080D000704713F041BB38B50546FFF7F7FF0400C2
:1080E00009D000F0BFF82A460021009004F046F8BD
:1080F000684600F005F9204638BD0000024A1060CD
:1081000021F0030050607047B02E0020002808BF07
:10811000704770B50E4C0546606B10F8351000299D
:1081200018BF022928BF70BD042101EBC506815983
:10813000486813F0B3FA6068401C6060616B606A65
:108140008851616B002001F83500656270BD000048
:10815000F02D0020002808BF7047044AD16B016051
:10816000002918BF4860D06370470000F02D002040
:108170002DE9F041044616F0FDFBE01C274E20F0EF
:108180000300051D306CA84288BF0546F46BBCB1E6
:1081900054F8041CA94210D19CB1206800281CBFCF
:1081A00061684160606800281CBF21680160F16B54
:1081B000A14204BF2068F0632DE02468002CE7D1C1
:1081C0000024F168B06B00EB010858F8040CA8EB30
:1081D0000007386840B1002017F0F2F858F8040C96
:1081E000A8EB00073868B0B97868A84213DB3844B8
:1081F000401B041D384617F0B5F8F068401BF060CE
:108200007069284470617868401B1CBF394613F0C0
:1082100045FA44F8045C2046BDE8F081F02D0020CA
:1082200010B5002416F0A6FB0D490F2001EBC0028B
:10823000526C8AB101EBC000406C806848B1416863
:10824000A14288BF0C46806800281CBF80680028B7
:10825000F5D1A4F10C0010BD401EE7D5F9E70000F0
:10826000F02D00200949CA69521CCA614A6B02EB11
:10827000C00213785B1C1370002808BF7047496B5D
:10828000042202EBC000085808307047F02D00208F
:1082900010B5002416F06EFB174B184A0F2000BFD4
:1082A00002EBC001496CD9B102EBC000406C8068A0
:1082B000C0B14168A14288BF0C46806800281CBF3D
:1082C00080680028F5D1A4F10C00B0F5800F0CD91E
:1082D00083FB00104111A1EBE070116A484310BD0F
:1082E000401EDDD5A4F10C00F2E7116A4843A3FB60
:1082F0000010400910BD00001F85EB51F02D00203B
:108300000A4902684B6B52F8082C03EBC20213783F
:10831000022B04D3CB69002B1CBF5B1ECB611178F1
:10832000491E11700021016008467047F02D0020A1
:10833000002808BF70470449042202EBC000496BC3
:108340000858083070470000F02D002070B50C462A
:10835000054601F0A7FBC1B223462846BDE87040A0
:10836000002200F001B800002DE9F0012D24D3F81F
:1083700000C0B0F1004F34D000250028A8BF4FF056
:10838000000C07DA0CF101061E608CF80040404238
:108390004FF0010CA1EB0C01C9B2002A1CBF491E11
:1083A000C9B200291CBF234F234E3DD08C46491E25
:1083B000C9B2944508D1D3F800C03C780CF101084B
:1083C000C3F800808CF8004056F8214090FBF4FC84
:1083D0000CF0FF0CBCF10A0F26D80CFB140081B97D
:1083E00009E00CF1010601251E606FF000408CF8D9
:1083F0000040491ED0E7002D1CBF0CF1010C0CF011
:10840000FF0CBCF10A0F03D1491C4FF0010CC9B29B
:108410000CF13004D3F800C000290CF10108C3F8B6
:1084200000808CF80040C1D1196800200870BDE8B8
:10843000F0017047DC1D0020ACEE03080028D8BF17
:1084400070472B230A6802F1010CC1F800C01370B9
:10845000096800220A70704708B5844608461A2247
:1084600069460023E0471A281CBF012008BD009878
:1084700012300090684603F0CBFD08BD08B5844675
:1084800008461A2269460023E0471A281CBF01202B
:1084900008BD009816300090684603F0B9FD00282A
:1084A000B8BF404208BDC2B2CBB2D21A48BF524296
:1084B00092B202FB02F3C0F30722C1F3072CB2EB26
:1084C0000C0248BF524292B2000CA0EB114002FBDA
:1084D000023200B20028BCBF404200B280B200FBB2
:1084E000002070472DE9F041002182B0084601F0DC
:1084F00051FA43F6FF763746042006F0D3FA804659
:108500001148C068C16C006D8D1B841B0E4407446C
:10851000ADF80050ADF80460ADF80240ADF806705B
:10852000684612F0ABF948B13B4632462146284630
:1085300005F03CFF11F0D4FF0028F5D1404606F0CD
:10854000B1FA02B0BDE8F081DC1D0020022BA4BF0F
:10855000002070472DE9F04106461C4615460F469F
:108560001C20FFF705FE002808BFBDE8F081002FA2
:1085700018BF07610BD10A4A52F8241039B10A68B2
:108580001AB111461268002AFBD1096901618461A0
:108590008582002101604160C0E90216BDE8F081DA
:1085A000001E00202DE9F04100241D4607468846A4
:1085B0001646022B27DA1C20FFF7DAFD18B3B8F1B4
:1085C000000F18BFC0F810800BD1104A52F82510C8
:1085D00039B10A681AB111461268002AFBD109693B
:1085E00001618561868204604460C0E9024704003D
:1085F00009D000F011F8E068006820B9044800686C
:1086000000EB850084652046BDE8F081001E002057
:10861000E81D0020FFF79EBD00281CBF8269022ACA
:10862000A4BF0120704710B4244C54F82210002934
:1086300008BF44F822003AD04B682BB119465B685A
:10864000002BFBD1002935D0C3681B68D1F80CC0C2
:10865000DCF800C09C4503DD09680029F6D129E05B
:1086600041B3D1F80CC0DCF800C09C4504BFB0F8A1
:1086700014C0BCF1010F0DD1D1F800C0BCF1000F46
:1086800007D06146DCF80CC0DCF800C09C45F3DA8A
:1086900000E079B14B68002B1DBF18604A6842604A
:1086A00044F822004860884208BF0021016010BCE5
:1086B0000020704710BC012070470000001E002001
:1086C0000B4A816952F82130834204BF036842F8A3
:1086D0002130416800291CBF02680A600168002936
:1086E0001CBF42684A600021016041607047000081
:1086F000001E00200228A4BF00207047064951F840
:108700002000002808BF7047C168096800291CBF05
:1087100000680028F8D17047001E0020FBF742B91E
:10872000024B1B6859849A84FBF73CB9E81D002072
:1087300070B584B01C4615460E46CDF80CD003AB80
:1087400000222146FFF710FE2A463146684600F017
:10875000B7F804B070BD00B585B003A9CDF80CD052
:10876000FFF7F4FD684600F029F805B000BD00B53C
:1087700085B003ABCDF80CD0FFF7F6FD684600F0EE
:108780001DF805B000BD002213F006BA30B585B063
:108790000C461546CDF80CD003A9FFF74FFE002874
:1087A000C4BF611ECCB203AB2A462146FFF7DCFDF5
:1087B000684600F003F805B030BD0000002808BF8F
:1087C00070472DE9F04F83B0054601F047F83B4C68
:1087D00080462068B0F9227001F0B4F88246206823
:1087E000818CA1EB0A0181842878002818BFA8F1A8
:1087F000010946D047F6FF71284603F061FA834627
:108800000146284603F022FA2168064691F82C001A
:1088100000F00300012808BF304605D0022812BF2F
:10882000002006EBD67040104A8C101A4884ADF830
:108830000000721E1044ADF80400888CADF80200F0
:108840004844ADF806006A465946284602F054FDF1
:108850002168BDF8020088845946284602F016FBBC
:10886000054428780A2818BF0D2815D0BDF8000047
:10887000216830444884287818B115F8010F002881
:10888000B8D12068818C51448184818D21F003010D
:10889000818503B0BDE8F08F206890F82C1001F0BE
:1088A000030101291DBF0229018C418447842978D5
:1088B0000A29E0D1818C41448184DCE7E81D002055
:1088C000024B1B6859849A84FFF778BFE81D00208B
:1088D0002DE9F04106460A4814460D460068B0F9F5
:1088E0002C0040F0020002F08DFA0746224629468D
:1088F0003046FFF7E5FF3846BDE8F04102F082BAA6
:10890000E81D00202DE9F04182B006000D46174613
:1089100047F6FF784FF0000404BF02B0BDE8F081D5
:1089200065B1084611F00EFD040007D00246294645
:10893000684603F020FA684611F004FD43463A46C3
:108940002946304602F0A6FD204611F0FBFC02B09D
:10895000BDE8F0812DE9FF4F524A87B01268DDE98A
:10896000148BD36C03EB000A106D00EB010900209F
:1089700011F084FF002804BF0BB0BDE8F08F08F5AC
:10898000B47040424FF0FF360127069009980590D9
:108990000A9808F5B4740BF5B4750490B4F5B47F77
:1089A0000FDB06984FF4B47190FBF1F040420028C1
:1089B00007DDA0EB001000EB400004EBC00405EB6A
:1089C000C005002D5EDD5A2C0FDA002C62DB5A2D1B
:1089D000B4BF28465A20CDE90040CDE90276DDE952
:1089E00004324946504613F01BF95A3C5A3D002DBB
:1089F00048DD5A2C13DA002C4EDB5A2DB4BF284622
:108A00005A20C4F15A01C0F15A000090CDE9011674
:108A1000DDE9043249465046039613F001F95A3C09
:108A20005A3D002D2EDD5A2C0FDA002C36DB5A2D44
:108A3000B4BF28465A20CDE90040DDE90432CDE933
:108A400002674946504613F0EBF85A3C5A3D002D58
:108A500018DD5A2C13DA002C22DB5A2DB4BF28461D
:108A60005A20C4F15A01C0F15A000090CDE9011713
:108A7000DDE9043249465046039713F0D1F85A3CD9
:108A80005A3D9EE711F02CFD00287FF47FAF0BB01C
:108A9000BDE8F08F00249AE70024AEE70024C6E783
:108AA0000024DAE7E81D00202DE9F04F374F044697
:108AB00089B03868C36C006D5E1885182088711EF7
:108AC0000844ADF81860ADF81C006088691E0844C1
:108AD000ADF81E00ADF81A5006A811F0CFFE002820
:108AE00019BFDFF8ACB04FF0010A09B0BDE8F08F54
:108AF0000020D4F80C9002F057F98046B9F1000F2D
:108B00001BBF99F80400002828F0020048F002007A
:108B100002F04AF9206970B1D4E902120091CDE95E
:108B2000012ACDF80CA0D0F800C06388228829461D
:108B30003046E04718E03868DBF800302146427CD8
:108B4000E0689847D0B1A288E388A168CDF800A07A
:108B5000CDE90410CDE90232CDF804A06388228863
:108B60002946304605F048FA404602F01DF911F05A
:108B7000B7FC0028BCD109B0BDE8F08FE08801281F
:108B800012BF00203868806BDDE70000E81D002080
:108B9000E01D0020F0B5134C844683B02368D86CE8
:108BA0004618196D851801EB0C07ADF80060ADF89B
:108BB0000450ADF80270ADF80670684611F05EFE24
:108BC000002804BF03B0F0BD20682A463946406E35
:108BD00003683046984711F083FC0028F4D103B0B5
:108BE000F0BD0000E81D0020F0B5DFF880C083B0C4
:108BF000DCF80040E76C94F818C03E18206DACF12A
:108C0000010C4518C418A6EB0C001744ADF8000081
:108C100007EB0C00ADF80400A5EB0C00ADF802006A
:108C200004EB0C00ADF80600684611F027FE0028A2
:108C300004BF03B0F0BD3A462946304605F01AFBA2
:108C40003A462146304605F015FB621E691C304647
:108C500005F07AFB621E691C384605F075FB11F0C1
:108C60003FFC0028E7D103B0F0BD0000E81D002064
:108C700008B5DFF80CC0CDF800C014F053FD08BDF6
:108C8000D4EE030870B5124B82B01B68D3F84CC009
:108C90000CEB0006186DADF8006045188418ADF8AF
:108CA0000460ADF80250ADF80640684611F0E6FDEC
:108CB000002804BF02B070BD22462946304605F0A8
:108CC00043FB11F00DFC0028F6D102B070BD00008E
:108CD000E81D0020F0B5DFF850C083B0DCF800409C
:108CE000D4F84CC00CEB0007206D0CEB02054618C5
:108CF000C418ADF80070ADF80450ADF80260ADF8DE
:108D00000640684611F0BAFD002804BF03B0F0BD6C
:108D100023462A463146384605F048FB11F0E0FB71
:108D20000028F5D103B0F0BDE81D0020B0F90630F1
:108D3000B0F90420B0F90210B0F90000FFF7CABF83
:108D40002DE9FF4FDFF8F0C08BB0DCF80040D4F81D
:108D50004CC060440B90256D0CEB02000D90E818A0
:108D60000E900B98ADF820000D98ADF824000E98E9
:108D70006C18ADF82600ADF8224008A811F07EFD71
:108D8000002804BF0FB0BDE8F08F0E980D99001BAE
:108D9000401C07900B98081A401C069018984043F6
:108DA0000590189820440A900B9804900D98039011
:108DB000189807990E9F0090B1EB400F34DB009993
:108DC0000698B0EB410F2FDBDDF82880DDF814901A
:108DD0000E46254644451FDC049800EB010B08466F
:108DE0000399A1EB000A00BF06FB169003F081FA7D
:108DF000ABEB00015044CDE901010246294602983F
:108E000005F038FA281B391ADDE9012005F032FA9D
:108E10006D1C761EA845E7DA00982946381A431ECD
:108E2000DDE9032005F0C2FA11F05AFB0028BBD19E
:108E30000FB0BDE8F08F0000E81D00202DE9F04FD5
:108E40008BB007461D4691460E46012444F2081099
:108E5000DDF850B0FFF73FF95FEA000844D0FFF7B4
:108E600001FA0490C0E9027608AA0AA915F07BFB72
:108E7000002833D105F0E8FA09901D480068C16C5C
:108E8000006D01EB090746190A98ADF818703844CF
:108E9000401EADF81C000898ADF81A603044401E22
:108EA000ADF81E0006A811F0E9FCA0B1DFF844906F
:108EB000DFF844A00025CDF80C900095CDE9015ACB
:108EC0005B4632463946049800F0C0F9044611F07A
:108ED00007FB0028EFD1099805F0D2FD04A8FFF7A1
:108EE0000FFA4046FFF712F90BB02046BDE8F08FAD
:108EF000E81D002055B902085DD302082DE9F04FA6
:108F0000054685B0994617460C464FF0010B44F2D2
:108F10000810FFF7E0F80190002874D0FFF7A2F9DD
:108F20000290C0E902540022044603AB114615F03A
:108F300023FC002808BF4FF000087CD1D4E90303CC
:108F4000D4F808C001226946E047012873D120699E
:108F5000431C2361009890F800A0BAF1210F75D04E
:108F6000BAF12C0F03D0BAF13B0F62D063E0C145D8
:108F70001CD1D4E902C008226946E04708285AD12A
:108F800020694FF0000B08302061684603F036F886
:108F90003860684603F032F83860684603F02EF80F
:108FA000B860684603F02AF8F86044E0D4E902C0EB
:108FB000092204A9E047092830D1206900F10903FA
:108FC00023610498007A10F0800F1DD000F0070193
:108FD0000220884000EB4000451C1FD0B5F5807F83
:108FE000CCBF4FF480762E4604A9D4E90303D4F80D
:108FF00008C03246E047B04210D12169881920618B
:10900000AD1BEBD10AE01CE0D4E902C0012204A9A7
:10901000E047012802D12069401C20610021204640
:1090200015F0DFF90028F9DC08F10108BAF13B0F6F
:1090300084D14FF0000B02A8FFF762F90198FFF707
:1090400065F805B05846BDE8F08FFFE7C14514BF8D
:1090500000253D460122D4E902C004A9E0470128C9
:10906000E9D12069411C216104980078012805D0CC
:10907000F9280AD0FE2818BFFF28DCD11149204664
:1090800015F0AFF90028F9DC58E70E49204615F035
:10909000A8F90428CFD11DB10A48B0F80100286111
:1090A000D4E90303D4F808C0012204A9E047012849
:1090B000C1D12069411C21610498007800283FF447
:1090C0003DAFB8E72C2F00202DE9F04F054685B0C5
:1090D00090460C46012744F20810FEF7FCFF009072
:1090E000002878D0FFF7BEF80190C0E9025404468A
:1090F00003AB08F10402414615F03EFBBA4668B9DD
:1091000000274FF0020BC8F80870D4E90303D4F825
:1091100008C0012202A9E047012801D0574654E0C7
:109120002069431C2361029890F80090B9F1210F47
:1091300055D0B9F12C0F03D0B9F13B0F45D0EDE775
:10914000D4E902C0092204A9E04709282FD12069E7
:1091500000F1090323610498007A10F0800F1CD0FD
:1091600000F007000BFA00F000EB4000451C1ED099
:10917000B5F5807FCCBF4FF480762E4604A9D4E9A4
:109180000303D4F808C03246E047B0420FD121694A
:1091900088192061AD1BEBD109E0D4E902C001229E
:1091A00004A9E047012802D12069401C2061002168
:1091B000204615F016F90028F9DCD8F80800401C04
:1091C000C8F80800B9F13B0F9FD101A8FFF798F844
:1091D0000098FEF79BFF05B03846BDE8F08FD4E954
:1091E00002C0012204A9E047012897D12069411C4F
:1091F000216104980078012805D0F9280AD0FE28BA
:1092000018BFFF288AD11049204615F0EAF8002837
:10921000F9DC7AE70C49204615F0E3F804287FF4DE
:109220007DAFD4E90303D4F808C0012204A9E047C4
:1092300001287FF473AF2069411C216104980078F4
:1092400000283FF462AF69E72C2F00202DE9FF4F83
:109250009DB004460020DDE92ABA8DF810000C907C
:109260000D900E900F901090119005900690079021
:10927000089007460990401E9846029011AB1AAA22
:1092800019A9204615F078FA002804BFA8F10100BA
:1092900012907DD1D4E90303D4F808C001220AA9B1
:1092A000E047012874D12069431C23610A9890F893
:1092B0000090B9F1210F6CD0B9F12C0F03D0B9F1A6
:1092C0003B0F67D08CE0D4E902C009220AA9E0472D
:1092D00009285DD12069093020610AA802F08EFEBC
:1092E0000C900AA802F08AFE0D900AA802F086FEF1
:1092F0000E900AA802F082FE0F900A980078109053
:1093000010F0800F26D010984FF0000500F00701F4
:10931000022088401190061E1CDDD4E90303D4F816
:1093200008C003221BA9E047032859D12069C11CAA
:1093300021611B9802784178807842EA012141EA54
:10934000004104EB850000F540506D1CC0F8081D7D
:10935000B542E2DB1298874207D10C9805900D9830
:1093600006900E9807900F980890B8452FD19DF859
:109370001000022808D1CDE900BADDE91E01DDF8B0
:10938000B4C005AB0CAAE0479DF81010029802E0AB
:1093900026E03BE036E0CDE90001CDE902BADDE9A7
:1093A0001E23DDF8B0C00CA92046E047C0B9D4E9BF
:1093B0000303D4F808C001220AA9E04701280FD10D
:1093C0002069401C206121B00020BDE8F08FD4E965
:1093D0000303D4F808C001220AA9E047012803D0FA
:1093E00021B00120BDE8F08F2069401C20610021E0
:1093F000204614F0F6FF0028F9DC7F1CB9F13B0F82
:109400007FF448AF21B00020BDE8F08FB84513BF0E
:10941000002605AE04AD00254FF00102D4E902C0DC
:1094200016A9E0470128DBD12069411C216116986B
:109430000078012805D0F9280AD0FE2818BFFF2897
:10944000CED11849204614F0CCFF0028F9DC21E7E2
:109450001449204614F0C5FF0428C1D11EB111489B
:10946000B0F80100306125B10E480078C0F38200E9
:1094700028700C48017811F0010F1CBFC0780290D1
:109480000122D4E90303D4F808C016A9E047012853
:10949000A6D12069411C21611698007800283FF46C
:1094A000F9AE9DE72C2F00202DE9F05F054600F175
:1094B000120800F11307DFF844A343F21610002648
:1094C0004FF0FF3B05EB000905F54054D4F8E40CE0
:1094D00000281CBFC4F8E46CD4F8F80C57D1D4F8B9
:1094E000D41CD4F8E80C0844D4F8D81C814230DCF1
:1094F000D4F8DC0C10B15846BDE8F09FD4F8E00C6D
:1095000010F808102975D4F8E00CC15D697528467B
:1095100005F1160114F065FF002804BF0121C4F80D
:10952000DC1CE8DB00F10202C4F8E02CD4F8D42CF7
:10953000D4F8D81C4FEAC000A2EB010101F11002DF
:1095400000F11001C4F8D42CC4F8D81CD4F8E80CED
:109550001044D4F8D41C4FEAE0024FEAE1009042F4
:1095600004BF2844007D07D0431C934228440EBF0B
:10957000808A406920F07F4001F007021041D4F852
:10958000E82C5AF822300A441840C4F8D42C002899
:10959000B8BFBDE8F09FD4F8F81C81427DD1B1F589
:1095A000805FA4BF4FF0FF30BDE8F09F4FF4005242
:1095B000002105F58B7002F0E1FDD4F8F82C002AAB
:1095C0001ADD002012F0010103D042F216104655B8
:1095D00001208A4210DD2A1802F50052891C82F807
:1095E0001601401C2A1802F5005282F81601D4F820
:1095F000F82C401C8A42EEDCD4F8EC0C401CC4F879
:10960000E80CD4F8F80CC4F8D09C4100801CC4F8D5
:10961000F41CC4F8F00C4FF0010900BFD4F8E40CBE
:1096200000281CBFC4F8E46CD4F8F80C57D1D4F867
:10963000D41CD4F8E80C0844D4F8D81C814230DC9F
:10964000D4F8DC0C08B1584649E0D4F8E00C10F826
:1096500008102975D4F8E00CC15D6975284605F13C
:10966000160114F0BEFE002808BFC4F8DC9CEADB3B
:1096700000F10202C4F8E02CD4F8D42CD4F8D81CA1
:109680004FEAC000A2EB010101F1100200F110014C
:10969000C4F8D42CC4F8D81C00E02AE0D4F8E80CB4
:1096A0001044D4F8D41C4FEAE0024FEAE1009042A3
:1096B00004BF2844007D07D0431C934228440EBFBA
:1096C000808A406920F07F4001F007021041D4F801
:1096D000E82C5AF822300A441840C4F8D42CC4F8B4
:1096E000000DD4F8F81C884298D0C4F8040DBDE8E9
:1096F000F09FD4F8FC1C814203D16FF00100BDE85B
:10970000F09FD4F8F01C0346814209DCD4F8D00C59
:1097100094F8001D421CC4F8D02C0170D4F8040D3C
:10972000D4F8F81C8142D8BF40F6B83225DC29189D
:1097300001F5005191F816C1D4F8D01C01F1010EC9
:10974000C4F8D0EC81F800C005EB4001B1F9161166
:10975000814208BFBDE8F09FD4F8D0CCACEB050C3B
:10976000ACF5405CACF58B7C944528BFBDE8F09F20
:109770000846D4F8F81C8142D9DD284400F5005091
:1097800090F81611C4F8001DD4F8D00C421CC4F88F
:10979000D02C0170D4F8F00CB0F5805F20DA05EB26
:1097A0004002B4F8041D2844A2F8161100F5005038
:1097B00094F8001D80F81611D4F8F00C401CC4F881
:1097C000F00CD4F8F41C8142D8BFB1F5805F07DA01
:1097D0004800C4F8F40CD4F8E80C401CC4F8E80CB9
:1097E000C4F8043DD4F8D00C48457FF66FAE401E57
:1097F000C4F8D00C0078BDE8F09F000040E20308F8
:10980000034951F82000C1688A6A08211047000006
:10981000001E002010B504F00FFEBDE8104004F05B
:10982000CFBF000002490968C9694A680021104792
:10983000E81D0020024A1268D269526810470000F1
:10984000E81D0020002808BF704710F0F1BB10B5DC
:1098500004F0FAFDBDE8104004F0B2BF0248006811
:10986000C069407E70470000E81D002002F0E4B9A6
:10987000044AB2F9002002600348B0F90000086011
:10988000704700001C1E00201E1E002001480068BA
:10989000007E7047E81D0020F0B5154E0546154FB7
:1098A00030680C4683B0407C57F82000C1680A6BD2
:1098B00069469047BDF900100020A942D9BFBDF903
:1098C00004108D4203B0F0BDBDF90210A142D9BF12
:1098D000BDF906108C4203B0F0BD30682246407CD2
:1098E00057F82000C1684B692946984703B0F0BD7E
:1098F000E81D0020001E002030B58BB0144606AADB
:10990000844600230846009269461022E04710284A
:1099100018BF012513D1002502A8009902F08AFB87
:10992000BDF81200A060BDF816002061BDF814005B
:10993000E060BDF80C002060BDF80E0060600BB068
:10994000284630BD0A490020096891F82C2002F011
:109950000C02042A07D0082A1CBF0C2A7047C869C9
:10996000007E40087047C869007E401E70470000B6
:10997000E81D0020024951F8200000690068704786
:10998000001E0020024951F820000069406870471D
:10999000001E0020024A1268508400209184704703
:1099A000E81D00202DE9F0413448016821F0010153
:1099B00001603348012686603249016000683249FF
:1099C000884200D0FEE7314DA86960B9AE6101F070
:1099D00079FB05F0CBF905F11C012D48086008461C
:1099E0006969416068612E20287001F07CFBE8689D
:1099F000284C011DC0E90E010064091D6161417C14
:109A0000254850F82100C1680A6B04F1080190470D
:109A100022486066A868E061E868083060612676E0
:109A200010F020FBA064032084F868006FF0704001
:109A300020636063002004F0E3FF6FF07F4005F0D7
:109A400019F81748286116F089FD044604F0D2FD84
:109A500010B104F0FFFD38B904F011FE074604F020
:109A6000DEFD394605F018F80021084601F0A8F996
:109A700010F014FB6E702046BDE8F081002000E07D
:109A800000300240C2A507F4CDB5E8B5DC1D0020CA
:109A9000FDEF0208BC2E0020001E00201CE203087F
:109AA000E4EE030810B4021ECCBF0346534201206B
:109AB000DFF820C0014600BF5CF820409C4203D87C
:109AC000401C491C0929F7DD002AB8BF401C10BC06
:109AD00070470000ACEE0308002808BF704708B5C7
:109AE000FEF7C0FB43F6FF7100908180C1804942C0
:109AF000018141816846FEF703FC08BD30B5194875
:109B000083B000220068437C174850F823000169A5
:109B10001648FEF71BFD050004BF03B030BD18203A
:109B2000FEF7D9FA040017D02046AC60FEF79AFB86
:109B3000029005602046FEF795FB43F6FF7100900A
:109B40008180C1804942018141816846FEF7D8FB8E
:109B500002A8FEF7D5FB02E02846FEF75BFD03B046
:109B6000204630BDE81D0020001E002018F003082C
:109B700038B504460C480068006EA04208BF01F0EA
:109B8000E7F82046FEF76EFB009005686846FEF792
:109B9000B7FB2046FEF7BAFA2846FEF791FD2846A5
:109BA000FEF738FD38BD0000E81D0020002814BF76
:109BB0000029704738B50C46FEF754FB00908188A9
:109BC0002180C18861800189A1804089E080684648
:109BD000FEF796FB38BD000038B5040014D010F035
:109BE000F9F90B4D286804662046FEF73BFB009010
:109BF0000068FEF711FD2968002048616846FEF7FD
:109C00007FFB04F029FF38BD01F0A2F838BD000049
:109C1000E81D002010B582B030B90F480068006E12
:109C2000002804BF02B010BDFEF71CFB0090446981
:109C30006846FEF765FB002C04BF02B010BD20464D
:109C4000FEF710FB019081688968884701A8FEF73C
:109C500057FB02B010BD0000E81D002001490A4674
:109C600000F002B801F0FFFF002808BF70472DE99F
:109C7000F047814686B016460C46002001F094F865
:109C80002E4D80462868076E4846FEF7EBFA009096
:109C90000068806901F066F8824640F6FF70C442B1
:109CA00004D10098B0F90440B0F906600098621E33
:109CB0000189ADF808401144ADF80C104089711EBF
:109CC0000844ADF80A60ADF80E0010F08DF8684653
:109CD000FEF716FB02A810F0D1FD40B13246214636
:109CE000484600F071FB10F0FBFB0028F6D150460F
:109CF00001F038F828683C00006E1BD0002818BF1F
:109D000001F026F810F066F92046FEF7ABFA019054
:109D100029680C660068FEF77FFC01A8FEF7F0FAE0
:109D200004F0B6FF04F098FE404601F03DF806B09E
:109D3000BDE8F08701F00CF8F6E70000E81D002010
:109D40002DE9F04F83461D488A460025006883B000
:109D50009146417C1A4898462E4650F82140E068CA
:109D60000068042803D02468002CF8D100E03CB936
:109D70000846FEF7BFFC041E04BF03B0BDE8F08F29
:109D8000E0680121C26A20469047070012D024698A
:109D9000A0688047B0F1FF3F04BF0A4C45F00105C1
:109DA00043460095CDE901744A465146584600F0B5
:109DB0006DFA064603B03046BDE8F08FE81D00207E
:109DC000001E0020F4EE03080121017400207047FA
:109DD0002DE9F04F82461E48894683B000680C9EEC
:109DE0001F46417C1B4890464FF0000B50F8214025
:109DF000E0680068042803D02468002CF8D100E053
:109E00003CB90846FEF776FC041E04BF03B0BDE86B
:109E1000F08FE0680121C26A20469047050012D009
:109E20002469A0688047B0F1FF3F04BF0A4C46F0A8
:109E300001063B460096CDE901544246494650464C
:109E400000F024FA834603B05846BDE8F08F0000C6
:109E5000E81D0020001E0020F4EE030870B584B059
:109E60000646DDE90854DDF828C00020BCF1000FEB
:109E700004BF04B070BD30460095CDE9014C00F040
:109E800005FA04B070BD0000002808BF704738B55F
:109E900004460D480068006EA04208BF00F058FF5D
:109EA0002046FEF7DFF900904069002818BF01F056
:109EB000F7F800980068FEF7ADFB6846FEF720FA59
:109EC0002046FEF723F938BDE81D0020704700004A
:109ED0002DE9FF4F0546504883B01F460068DDF866
:109EE00040A08946447C4D4800570128204606DDA5
:109EF00004F086FB8346204604F0B2FB05E004F044
:109F000041FB8346204604F066FB04462DB302A9BC
:109F100001A8FFF7ADFCB5F90080B8F1000FB8BF9C
:109F20004FF00008B5F90260002EB8BF0026B5F961
:109F3000041001985844401E8142C8BF0146B5F93B
:109F40000600029A2244521E9042C8BF1046A1EB5E
:109F500008014A1C801B441C03E04FF000084646E1
:109F60005A46002F08BF6742002AC8BF002C49DDAF
:109F70003B4631464046CDF800A0FFF729FF5FEA97
:109F8000000A43D000F0CAF80746A04207D0224892
:109F90000068806C00281CBF322110F003FE504680
:109FA00000F0E8F8DFF878B00025611BB942BCBFCB
:109FB000504600F0C7F83DB172194146504600F0D6
:109FC000FDF85046FFF726FE0598C847DBF800105D
:109FD00000291CBF002088475046FFF73FFE3D4444
:109FE000A542E2DB5046FFF74FFF002000F0C2F829
:109FF000A74207D008480068806C00281CBF3321A6
:10A0000010F0D0FD002007B0BDE8F08F0598C847DC
:10A0100007B00120BDE8F08FE81D0020141E0020CD
:10A020003C1E00202DE9FF4F81B016460D46044628
:10A03000FFF764FD0090002846D0FFF7CDFD4FF0FC
:10A04000010885F80180207CA0B185F80080049883
:10A05000B04721460098FFF7A9FD0098FFF73CFDA7
:10A06000002028700498B04704F108010098FFF719
:10A070009DFD19E00498B04721460098FFF796FD32
:10A080002146B4F800B0B4F804A0B4F80290E78810
:10A0900004F10802084600F0A5FDA4F808B0A4F8F1
:10A0A0000CA0A4F80A90E7810098FFF761FD002753
:10A0B0006F7085F800803B46CDF800803146204621
:10A0C000049AFFF705FF18B105B00120BDE8F08F35
:10A0D0002F70277405B00020BDE8F08F38B500243C
:10A0E00060B1FEF7BFF800900068006980688047A3
:10A0F00004F093FF04466846FEF702F9204638BD97
:10A10000002808BF704738B5FEF7ACF800F1180416
:10A1100000906846FEF7F4F8204638BD38B50024B4
:10A1200018B907480068006E38B1FEF79BF8009038
:10A13000B0F90A406846FEF7E3F8204638BD000053
:10A14000E81D002038B50C4628B909480068006EA3
:10A15000002808BF38BDFEF785F80090B0F90A1056
:10A16000A142B8BF0C4644816846FEF7C9F838BD25
:10A17000E81D0020F8B5104E04003068056E17D0B9
:10A18000002D18BF00F0E4FD0FF024FF2046FEF77D
:10A1900069F8009031680C660068FEF73DFA684681
:10A1A000FEF7AEF804F074FD04F056FC2846F8BD46
:10A1B00000F0CEFDFAE70000E81D002030B583B0C6
:10A1C00015460C4630B915480068006E002804BFDB
:10A1D00003B030BDFEF746F82DB20090C58024B222
:10A1E000848004F039FC0098406988B1FEF73AF8A1
:10A1F000009A0190B2F908108180B2F90A20C28059
:10A2000000291EBF002A0480458001A8FEF778F8C7
:10A210006846FEF775F803B030BD0000E81D002069
:10A22000002808BF704770B584B015460C46064636
:10A23000FEF718F840F6FF710090CC4204BFB0F969
:10A240000440B0F906500189621E1144ADF80C10AB
:10A25000ADF808404089691E0844ADF80E00ADF81D
:10A260000A506846FEF74CF802A810F007FB0028D9
:10A2700004BF04B070BD2A462146304600F08AF87B
:10A2800010F02EF90028F6D104B070BD2DE9FF4F73
:10A29000DFF8FCB083B01C46DBF80000DDE9108C71
:10A2A00092460027437C3A4660461299FEF74EF9E3
:10A2B000050068D028698068804704F0AEFE8146BA
:10A2C0000AFB09F0C01DC608FDF7E2FF18F0010FF8
:10A2D00005D1C11700EB9170801000EB4000002CFD
:10A2E00009DC002E1ABF1838B0FBF6F000206442DB
:10A2F000A042D8BF044618F0010F08D100200090FA
:10A30000DDE903012346524600F044FE0746002CD7
:10A3100006DC2846FEF77EF907B00020BDE8F08F86
:10A3200004FB06F0183018F0010F02D0FDF7CEFE46
:10A3300001E0FDF7D0FE5FEA00081CD0FDF792FFB8
:10A3400001900560039981800499C180A0F808A05C
:10A3500044814761C0E9036901A8FDF7D1FF129864
:10A36000C5F808802861DBF80000407CA86107B0D0
:10A370004046BDE8F08F2846FEF74CF9002F1CBF81
:10A380003846FDF7C3FE002007B0BDE8F08F00009F
:10A39000E81D0020F8B515460E460746FDF762FF9A
:10A3A000009000681621C068436A00209847044660
:10A3B0006846FDF7A5FF002C08BFF8BD2A463146C8
:10A3C0003846A047F8BD0000002808BF70472DE9B7
:10A3D000F04FA1B090460E460746FDF743FF199097
:10A3E000D0F8149019A8FDF78BFF3846FFF776FEDA
:10A3F000F84D082803DDB9F1000F00F02782F64977
:10A40000CDE91586D1E90001CDE91C013C4638466D
:10A41000FDF728FF1790D0F81490C1681291B0F999
:10A42000081007691491B0F90A100B9100680069CF
:10A43000406811902868407CFFF7E2F91B9028687B
:10A44000407CFFF79FFA064617A8FDF759FF082F33
:10A450009CBF01200A9004D9102F94BF0220042031
:10A460000A90012F0CBF0DF170084FF000081198F1
:10A47000B04200F031812868407CFFF77BFA1E90E3
:10A4800014988000FDF722FE1890002804BF21B028
:10A49000BDE8F08F2046FFF733FE0890B9F1000FBA
:10A4A00000F008814846FDF7DDFE1A9000200D906F
:10A4B0000B98002840F3FA80002009901A980D9A12
:10A4C00081684B6909A998470646149886424FD17E
:10A4D0001898FDF7C7FE089D04461390082F2ED943
:10A4E0000296DDF86CB0DDF844A0DDF878900694B3
:10A4F00035F8020BD047C84744F8040B761EF7D155
:10A50000BBF1200F04D25A460299069800F0ECFDE8
:10A51000139900201B9ACDF81480CDE90301012086
:10A520000090CDE901020D99159801230144149A78
:10A53000169803F061FD13A8FDF7E2FEABE0DDF82D
:10A540006CB0DDF844A0DDF878900396CDF81040AB
:10A5500015F8010BD047C84744F8040B761EF7D115
:10A56000BBF1200F3CBF5A46DDE90310D0D2CDE746
:10A57000012F28D0002E4FD015990D9808441F9018
:10A580001898FDF76FFE04461390DDE908010A9A5A
:10A59000082F42D901FB02091B98DDF844B0DDF811
:10A5A00078A001903546059439F8020BD847D0477A
:10A5B00044F8040B6D1EF7D10198202849D20246B9
:10A5C0003146059843E0002E65D015990D980D1879
:10A5D000012409980094C11700EB5173089900F009
:10A5E000070201EBE301129BCDE90331CDE90582BE
:10A5F000CDE90147169A294610440123324604F05A
:10A60000D7FB09980D9A304409901A9881684B69D4
:10A6100009A998470600DCD13DE001FB02051B9823
:10A62000DDF844B0DDF878A00390B146CDF81040D5
:10A6300015F8010BD847D04744F8040BB9F10109CC
:10A64000F6D10398202804D202463146049800F03F
:10A650004BFD139900201B9ACDF81480CDE903011E
:10A6600001200090CDE90102099A169801231044B7
:10A6700032461F9903F0C0FC13A8FDF741FE09986C
:10A680000D9A304409901A9881684B6909A9984736
:10A6900006007FF475AF08991298084408900D9849
:10A6A0000B99401C0D908842FFF606AF1AA8FDF7E3
:10A6B00027FE0EE01299CDF81480CDE90310012099
:10A6C0000090CDE90107DDE915100B9B149A03F00A
:10A6D00093FC189800F080BA2046FFF711FD06465B
:10A6E000B9F1000F75D04846FDF7BCFD1A900B98E4
:10A6F00000250028C4BF4FF0000B4FF0010962DDB8
:10A700001A98CDF824B02A4681684B6909A9984760
:10A7100014990446884229D11A98AA466A1C81686D
:10A720004B6909A99847A04208D11A98AA1C6D1C28
:10A7300081684B6909A99847A042F6D0CDF80090EE
:10A740001298CDF81480CDE90306CDE9019715984C
:10A75000A5EB0A0400EB0A01631C149A169803F097
:10A760004BFC1298611C01FB006628E0012F35D0DC
:10A77000002C1CBF159800EB050A1ED0DDE909016D
:10A7800000FB0162CDF800901299CDF81480CDE95C
:10A790000312CDE90197169A51461044012322462F
:10A7A00003F02AFC09982A46204409901A988168E7
:10A7B0004B6909A998470400E0D1129806440B9808
:10A7C0006D1C85429CDB1AA8FDF79AFD21B0BDE8FF
:10A7D000F08F2DE0E81D002064F00308002C1CBF62
:10A7E000159800EB050AE8D00998129B00F00701C4
:10A7F000CDF80090CDE90581C21700EB527206EB4F
:10A80000E202CDE90332CDE90197169A5146104490
:10A810000123224604F0CCFA09982A4620440990E4
:10A820001A9881684B6909A998470400DCD1C4E7EC
:10A830001298CDF81480CDE9030601200090CDE9EF
:10A840000107DDE915100B9B149A3BE004970446C1
:10A850000C9647460498FDF705FD1290B0F90810D4
:10A860000691B0F90A90C168039100F118010291B4
:10A870000068D0F810A012A8FDF742FD2868D8495A
:10A88000DAF804B0407C51F820100D692E68FEF70C
:10A89000B7FF082898BF4FF0010805D9102894BFCA
:10A8A0004FF002084FF00408AA450ED1002002998B
:10A8B000CDE9041001200090CDE901044B46394652
:10A8C000069A0C9803F098FB80E7202C3ED0102CC1
:10A8D0007FF47CAF069818FB00F0FDF7F7FB1490AF
:10A8E00000283FF473AFFDF7BDFC13900498FDF70B
:10A8F000B9FC1290296900F11804002919BFDAF88F
:10A90000141000294FEAC800109000F01C81B0F923
:10A9100008008000FDF7DAFB0E90002808BF0890C1
:10A9200000F05381FDF79EFC0890002818BF4FEA05
:10A93000C80600F04A8100BFB8F1010F76D0B8F127
:10A94000020F74D0B8F1040F72D0E1E0069818FB42
:10A9500000F0FDF7BBFB149000283FF437AFFDF784
:10A9600081FC13900498FDF77DFC00F1180412900F
:10A970002869002808BF4FEAC80B43D04FF0000AEF
:10A980004FF0010B4FEAC806B8F1010F06D0B8F13D
:10A99000020F0ED0B8F1040F16D01FE0D5F810C08A
:10A9A000139901232046069AE047069804EB800499
:10A9B00014E0D5F810C0139902232046069AE04708
:10A9C000069804EB800409E0D5F810C0139904231D
:10A9D0002046069AE047069804EB8004139839460F
:10A9E000CDE903A0CDF800B0CDF814A0CDE901B6B3
:10A9F0007F1C0123069A0C9803F0FEFAB9F10109B5
:10AA0000C2D140E0069DB8F1010F08BFDDF84CA0AF
:10AA10000FD0B8F1020F08BFDDF84CA011D0B8F18B
:10AA2000040F08BFDDF84CA013D019E035E048E072
:10AA30005BE054F8040BB0470AF8010B6D1EF8D127
:10AA40000EE054F8040BB0472AF8020B6D1EF8D143
:10AA500006E054F8040BB0474AF8040B6D1EF8D119
:10AA600013990020CDE90301059001200090CDE964
:10AA7000010B394603467F1C069A0C9803F0BCFA7A
:10AA8000B9F10109BED112A8FDF73AFC13A8FDF7F0
:10AA900037FC1498FDF73AFB98E6DAF814C0DDF8B5
:10AAA0004CB002232046069A0899E047D5F810C01A
:10AAB00001235946069A0898E047069804EB40049B
:10AAC00026E0DAF814C0DDF84CB002232046069ADE
:10AAD0000899E047D5F810C002235946069A08980D
:10AAE000E047069804EB400412E0DAF814C0DDF801
:10AAF0004CB002232046069A0899E047D5F810C0CA
:10AB000004235946069A0898E047069804EB400447
:10AB100013990020CDE90301059001200090CDE9B3
:10AB20000106394603467F1C069A0C9803F064FA26
:10AB3000B9F101097FF400AF08A8FDF7E1FB0E9819
:10AB4000FDF7E4FA41E0069DB8F1010F08BFDDF81A
:10AB50004CA00CD0B8F1020F08BFDDF84CA00FD00C
:10AB6000B8F1040F08BFDDF84CA012D019E034F89A
:10AB7000020BD847B0470AF8010B6D1EF7D110E061
:10AB800034F8020BD847B0472AF8020B6D1EF7D1F4
:10AB900007E034F8020BD847B0474AF8040B6D1EA3
:10ABA000F7D100201099CDE90210139ACDE90420C5
:10ABB000012001900090394603467F1C069A0C98AC
:10ABC00003F01AFAB9F10109BDD112A8FDF798FBFB
:10ABD00013A8FDF795FB1498FDF798FAF6E5000029
:10ABE000001E0020002808BF704700290CBF114636
:10ABF000002A20D0B1F900C0B2F900309C45B8BF9E
:10AC000063460380B1F902C0B2F902309C45B8BF77
:10AC100063464380B1F904C0B2F904309C45C8BF13
:10AC200063468380B1F90610B2F906209142D8BF7D
:10AC30001146C18070470A684968026041607047E8
:10AC4000002808BF704703880B4403808388194499
:10AC50008180418811444180C1881144C18070477E
:10AC60002DE9F0471F461446884682460026DDF847
:10AC7000209013E0A1B21FFA88F003F083FE1FFAC0
:10AC800088F507E003F038FE6D1C2AF81600761CE4
:10AC9000ADB2B6B2BD42F5DD641C24B24C45E9DD6F
:10ACA000BDE8F087B0F90220B1F906309A4213DC12
:10ACB000B1F90220B0F906309A420DDCB0F900205B
:10ACC000B1F904309A4207DCB1F90010B0F9040080
:10ACD0008842A4BF0120704700207047DFED1A0AA8
:10ACE0002DE9F04120EE200ADFED180A0446164651
:10ACF00080EE201A0D46BDEEC10A10EE108A4046C5
:10AD000000F0B8FA0746404601F0F8F9002EC6BF39
:10AD1000AB1CA11CBDE8F08135F9042B33F904CB41
:10AD200002FB07F80CFB00880CFB07FC02FB10C2BF
:10AD30004FEA2848121424F8048B21F8042B761EBD
:10AD4000EAD1BDE8F081000000C82F48DA0F494081
:10AD500010B503F031FE03F09BFFBDE810400FF08B
:10AD600043B8000070B5094D0446022C2868467CA3
:10AD700009D22046FDF7BEFC28B128684474FFF7CD
:10AD8000E7FF03480460304670BD0000E81D002066
:10AD90004C1E002003F034BE03F06CBE01498860F5
:10ADA00070470000DC1D002003F07CBE0349002832
:10ADB0000968CA6918BFC86110467047E81D0020BD
:10ADC000084A1080084A1180084A1268537C084AD1
:10ADD00052F82330DA68D2F820C00A4601461846F5
:10ADE000604700001C1E00201E1E0020E81D0020E1
:10ADF000001E0020024909680A7E08761046704746
:10AE0000E81D002003490968B1F92C208885104607
:10AE100070470000E81D002003490968B1F92A20A5
:10AE20004885104670470000E81D00200248006871
:10AE3000002808BF70470047FC1E002003498A68AD
:10AE4000002A08BF8860FFF7F1BF0000EC1E002059
:10AE50000249014808607047A0E20308EC1D002089
:10AE60002DE9F041084E044605683068016828461F
:10AE7000884707463068416828468847284420604C
:10AE80003846BDE8F0810000EC1D00202DE9F041BE
:10AE9000002406464D1E28BF064F07D33868416878
:10AEA00030468847064404446D1EF7D22046BDE86C
:10AEB000F0810000EC1D00202DE9F0411F46069DA9
:10AEC0001446884606462246B068641C3B46D0F8C5
:10AED00004C041463046E0476D1EF4D1BDE8F08124
:10AEE00070B5B0F900C0A1EB0C01B0F904C08C45FD
:10AEF000D8BF70BD00F1140CB0F902400069121BFC
:10AF000002FB00C000EBE104C818421ED010B0EBF9
:10AF1000E1004FF0FF0302F00702C2F1070201F067
:10AF2000070103FA02F223FA01F1D5B210D0227818
:10AF3000461E114304F8011B002E05DDFF22314699
:10AF40002046F5F763F9344420782843207070BD1B
:10AF5000207829400843F9E7B0F90030B0F902C081
:10AF6000C91A00F114030069A2EB0C0202FB0030C5
:10AF700000EBE10001F007010278802323FA01F1E0
:10AF8000114301707047B0F9061002695143143043
:10AF9000F5F743B92DE9F843804602F10F0000119F
:10AFA000460003FB06F01C4615460F461430FDF71D
:10AFB00092F85FEA000908BFBDE8F883FDF752F98F
:10AFC0000090A0F8008047808580C480054981609A
:10AFD0000121818106616846FDF792F94846BDE886
:10AFE000F88300004CF0030830B4B0F90650B0F913
:10AFF00004400B6800F1140C954220DD00699C426E
:10B0000002FB00C000EBE30C19DD601EC010A0EBDA
:10B01000E3041CF8010B03F00702904010F0FF005E
:10B0200009D164B11CF8010B03F10802641E22F07F
:10B0300007030028F5D010F0800F09D102E030BCE2
:10B04000002070474006000E5B1C10F0800FF9D006
:10B05000FF2816BF1A46DA1D10F0400F05D0400633
:10B06000000E521C10F0400FF9D1072090430ED172
:10B07000641E0CD41CF8010BFF280DD010F0800FBB
:10B0800005D04006000E521C10F0800FF9D10B6065
:10B09000D01A30BC401C70470832641EEAD5F6E76F
:10B0A00038B50546FDF7DEF800908189491E0CB2DF
:10B0B00084816846FDF724F9002C04BF2846FDF77B
:10B0C00025F838BD10B54FF496310448FDF716F851
:10B0D000BDE810400248FFF761BE000000540020A8
:10B0E000D4E903087047704730B4082A1FDC0346D0
:10B0F000012A47D0022A7CD0042A7BD00129D8BF5C
:10B100000121181F5A1E11F0010F03D010F8043F3F
:10B1100002F8013F491007D00379537010F8083F37
:10B1200002F8023F491EF7D130BC01207047102AB7
:10B13000C2BF002030BC70470129D8BF00211CDDF0
:10B14000A1F1010CBCF1000F15DD021F831E11F0EF
:10B15000010F03D132F8044F23F8024F54685FEA1D
:10B160006C0C08D032F8085F5C80546823F8045FE8
:10B17000BCF1010CF6D1491ED6D430F8212020F8BC
:10B180001120D1E710F8042BD207120E491E38D037
:10B1900010F804CB491E0CF0010C42EA8C1230D09E
:10B1A00010F804CB491E0CF0010C42EA4C1228D0D6
:10B1B00010F804CB491E0CF0010C42EA0C1220D00E
:10B1C00010F804CB491E0CF0010C42EACC0218D056
:10B1D00010F804CB491E0CF0010C42EA8C0210D08E
:10B1E00010F804CB491E0CF0010C42EA4C0208D0C6
:10B1F00001E00BE02CE010F804CB0CF0010C4CEA61
:10B20000020203F8012B0029BCD18DE710F8042BB2
:10B210009207120E491E16D010F804CB491E0CF0EE
:10B22000030C42EA0C120ED010F804CB491E0CF0AD
:10B23000030C42EA8C0206D010F804CB491E0CF035
:10B24000030C4CEA020203F8012B0029DED16BE764
:10B2500010F8042B1207120E491E06D010F804CB6A
:10B26000491E0CF00F0C4CEA020203F8012B0029D6
:10B27000EED159E710B4703810F5B03046BF4FF03A
:10B28000FF3140420121194A90FBF2F302FB130007
:10B290005210904201DD4942801A154A9042C4BFC3
:10B2A000C0F5F95000F528304FF47A7390FBF3F2B3
:10B2B0006FF07C0C02FB0CFC00EBCC005A2AA8BF00
:10B2C0004FF480300DDADFF82CC00CEB82045CF810
:10B2D00022206468A4EB020C0CFB00F0B0FBF3F03E
:10B2E00010440029D8BF404210BC7047407E050082
:10B2F000905F010040ED03082DE9F04306466148E8
:10B30000DFF88481614C0068614D85B00F460028EC
:10B3100043D000200FF0B2FA002804BF05B0BDE80A
:10B32000F083E94604970296D8F8002004A9304635
:10B33000904702902068406918B14946FFF7B2FC77
:10B3400020B3012000F040FD2068C069406920B1B1
:10B35000826804990298904715E00498401E049072
:10B3600011D402A8FFF77CFD81462068C0690168FE
:10B3700048468847296800291CBF484688470498E2
:10B38000401E0490EDD5002000F01EFD0FF0A8F83F
:10B390000028C6D105B0BDE8F08351681068CDE93A
:10B3A00000012068BDF80010B0F84C201144ADF841
:10B3B0000010BDF80210B0F850201144ADF8021092
:10B3C000BDF80410B0F84C201144ADF80410BDF8DD
:10B3D0000610B0F850000844ADF8060068460FF0BB
:10B3E0004DFA002840D000BF2068BDF80010E946A3
:10B3F0004184BDF80210818404970296D8F8002099
:10B4000004A93046904702902068406918B1494627
:10B41000FFF748FC20B3012000F0D6FC2068C0698B
:10B42000406920B1826804990298904715E0049819
:10B43000401E049011D402A8FFF712FD8146206837
:10B44000C069026848469047296800291CBF4846E1
:10B4500088470498401E0490EDD5002000F0B4FC0D
:10B460000FF03EF80028BFD12068418CB0F84C2086
:10B47000891A4184818CB0F85020891A818405B0E2
:10B48000BDE8F083181E0020E41E0020E81D002007
:10B49000081E00202DE9FF4F85B09B4690460D46C3
:10B4A000FEF7DCF90026DDF814A00746344625B186
:10B4B00069682868CDE9000102E06846FEF7C2F934
:10B4C00018F00C0F08BFBDF9024033D05FEA0B053E
:10B4D0004FF0000913D0294609F10109059800F041
:10B4E000EFFB2D1A01460598FFF7D0FC059908449B
:10B4F000059005A800F012FC08B9002DEBD108F06A
:10B500000C00042818BF082802D00C2806D011E02F
:10B51000BDF9060009FB1700441C0BE0BDF906103D
:10B52000BDF90200091A09FB1711491C01EBD17181
:10B5300000EB61045FEA0B05CDF814A012BFDFF841
:10B54000A8A009B0BDE8F08F2946059800F0B8FB27
:10B5500081460146A5EB0905059800F077FB18F038
:10B56000030108BFBDF9006012D001290CD00229E7
:10B570000ED1BDF90420BDF90010521A121A02EBC7
:10B58000D27201EB620603E0BDF90410091A4E1CE9
:10B59000DAF80010401E30444E848C84ADF80C0064
:10B5A000E019401EADF80860ADF80E00ADF80A4095
:10B5B00002AA49460598FFF79FFE49460598FFF7FE
:10B5C00065FC059908440590FEF748F9044405A870
:10B5D00000F0A4FB00281CBF09B0BDE8F08F002DCF
:10B5E000B2D109B0BDE8F08FE81D00202DE9FF4F72
:10B5F0008FB01446DDE9206B8846DDF870A01E9FF1
:10B60000FEF725F90A9002F01FFF05461F98CDF8B6
:10B6100000A047EA0001A0484FEA440901294FD0A1
:10B62000002105911299CDF82480002942DD09EB13
:10B63000D97020F0010002901F99099808440D90DC
:10B64000401E0790944801680798B1F90A20824289
:10B6500023DCB1F90E10099888421EDCDDF8009059
:10B66000DDF83C804FF0000B002C16DD39F802AB02
:10B67000AA4504D05046B04703F0FCF9554608EB04
:10B68000070AAAF101024046079B099902F08EFEC3
:10B690000BF1010BD046A345E8DB00990298084462
:10B6A000009005981299401C05900D9809900598F6
:10B6B0008842C1DB0A98FFF76FFB13B0BDE8F08F3B
:10B6C00005460068407CFEF75DF90022B04210D1CB
:10B6D0001020CDE9020901200090CDE904A20190DB
:10B6E00022464146129B0F9802F086FC13B0BDE83B
:10B6F000F08F12984044401E04900F982044A0F10F
:10B70000010A2868B0F90A1041450CDDA1EB0803D5
:10B71000884603FB09F121F0010C00996144009176
:10B720001299C91A1291B0F90E300499C91A002958
:10B73000C3BF129B591A129112990029DCBF13B092
:10B74000BDE8F08FB0F90C10AAEB01010029C8BFC9
:10B75000641AB0F908100F98814208DD081A0099A0
:10B76000241A01EB400100910F9908440F90002C1E
:10B77000DCBF13B0BDE8F08F0020CDE90502BBF1BE
:10B78000000F09D0DBF81400059028B100231A46F9
:10B79000194606A800F0FEF902F05EFE074628688A
:10B7A000407CFEF7E7F88346D7F800C05246414692
:10B7B000049B0F98E04700287FF47CAF0698E8B31D
:10B7C0002868417C354850F821000069D0F810A065
:10B7D0001298B0F1010824BF29F00100079058D356
:10B7E000DDE905C1022322460098E047BAF1000FC7
:10B7F00005D00699042322460846D0470FE0069D4F
:10B800004FF000092E46002C09DD00BF55F8040B4F
:10B81000D84709F1010946F8040B4C45F6DC00262F
:10B82000069D002C07DD00BF796855F8040B88479A
:10B83000761CB442F8DCB868804700E007E0009965
:10B840000798B8F1010808440090C9D221E0129885
:10B85000B0F1010A28BF29F001091AD3009D4FF069
:10B860000008002C0ADD00BF35F8020BB047D847AE
:10B870007968884708F101084445F5DCBAF1000F02
:10B8800007D0B86880470098AAF1010A48440090A0
:10B89000E4E7F86880470DE7E81D0020001E00205F
:10B8A0002DE9FF4F93B00020DDF890B01090209D5F
:10B8B0006FF070400290DDE92201914640EA0106F6
:10B8C000B34C02EB49000D902068407CFEF752F823
:10B8D00080462068407CFDF793FF0890182804BF3D
:10B8E0002020089007D00828D8BF012004DD1028A8
:10B8F000D8BF022000DD04201190012E53D01498EF
:10B90000079000200D9016980028DCBF17B0BDE806
:10B91000F08F239907980844A0F1010A0E909C48E3
:10B920000068B0F90A10514500F32581B0F90E10F6
:10B930000798884200F31F810020DDF84C800590B5
:10B94000B9F1000F40F31781A87869782C7800EBE3
:10B95000012080B2D84702990090884203D003F0BA
:10B9600089F800980290FF2C80F0FB80002C00F0FA
:10B97000F0802298079F4044461EC4F1FF000990C2
:10B98000009808904446B04508DCDDE908323946A5
:10B99000204600F07BFB641CB442F6DD7F1C57455B
:10B9A000F0DD00F0DEB82068407CFDF7EBFF584585
:10B9B00004BF0120109000230CAA1946184600F07D
:10B9C000E9F8002807BF0024274617B0BDE8F08F2C
:10B9D0002E78FF2E01D096B191E0641C4C4509D120
:10B9E000169800247F1C002819BF401E169017B01F
:10B9F000BDE8F08F15F8030FFF28EED0A2E01398F2
:10BA0000002620440F90149838440E901098002877
:10BA100018BF0C980ED0A9786A78641C01EB02213B
:10BA2000ED1C761C20F8021B4C4529D029780029F2
:10BA3000F1D052E0119801280AD0022808BFDDF8A1
:10BA400030A027D0042808BFDDF830A034D044E06F
:10BA50000898DDF830A001281CBF022804283CD03B
:10BA600008283AD1A878697800EB012080B2D8473D
:10BA7000C047641CED1C761C0AF8010B4C4505D12F
:10BA800016980024401E7F1C169026E02878002877
:10BA9000E8D022E0A878697800EB012080B2D8478E
:10BAA000C047641CED1C761C2AF8020B4C45E7D0FD
:10BAB00028780028EED010E0A878697800EB012003
:10BAC00080B2D847C047641CED1C761C4AF8040BB2
:10BAD0004C45D5D028780028EED0DDE90C210DF1B9
:10BAE000080A089800238AE80F0001200090034606
:10BAF0000190DDE90E10324602F07EFA22E0A878CD
:10BB0000697800EB012080B2D847DDF84CC0149969
:10BB1000A4440346C6F1FF023944604600F0B6FA79
:10BB2000641C4C4509D1169800247F1C002819BFBD
:10BB3000401E169017B0BDE8F08F15F8036F701E09
:10BB4000FE28DCD3169800287FF442AF17B0BDE87A
:10BB5000F08F229853464044421E4046079902F017
:10BB600025FC0598ED1C401C059022988044059802
:10BB70004845FFF6E9AE0D98401C0D900E980790D1
:10BB80000D9916988142FFF6C4AE17B0BDE8F08F4C
:10BB9000E81D00202DE9F047244C80469946A06915
:10BBA00016460F46002540B90120A06104F120018E
:10BBB0001F480860084600F061FA606930B91D4806
:10BBC0000068606110B902F0ECFC6061B9F1000F2F
:10BBD00018BFC9F80000B8F1000F0BD0A06838B941
:10BBE00060698000FCF7C4FAA060002808BF012546
:10BBF000C8F8000057B1E06838B960698000FCF708
:10BC0000B7FAE060002808BF0125386056B1206906
:10BC100038B960698000FCF7ABFA2061002808BFE2
:10BC2000012530602846BDE8F0870000241F002071
:10BC300065F002080C1E002003480068C069017E00
:10BC4000C07E11FB00F07047E81D002073B51A4A52
:10BC500082B003A91268029890470024029000283D
:10BC600027D0164900250968C969496900291CBF00
:10BC70000A68002A03D00399904704B070BD039866
:10BC8000401E03900AD402A8FFF7EAF80546FDF724
:10BC9000C9FD04440398401E0390F4D500262846AD
:10BCA00069460096FDF7C6FD00998142C8BF0E1A8D
:10BCB000344404B0204670BDE41E0020E81D00207E
:10BCC00073B50D4600980024B8B10D490968C969DB
:10BCD000496900291CBF4A68002A03D029469047B9
:10BCE00002B070BD002D08DD6846FFF7B9F80028E6
:10BCF0001EBF0A28641CAC42F6DB02B0204670BDB1
:10BD0000E81D002038B5002469460094FDF792FD37
:10BD100000998142C8BF0C1A204638BD016811F84D
:10BD2000012B002A04BF012070470A2A08BF0160C6
:10BD300000207047B0F90030B1F900209342C8BF2D
:10BD40001A460280B0F90230B1F902209342C8BF0E
:10BD50001A464280B0F90430B1F904209342D8BFAA
:10BD60001A468280B0F90620B1F906108A42C8BF8F
:10BD70000A46C280704730B4B1F900C0B2F9003051
:10BD80009C45C8BF63460380B1F90240B2F902C0C6
:10BD90006445C8BFA446A0F802C0B1F90450B2F986
:10BDA0000440A542B8BF2C468480B1F90610B2F910
:10BDB00006209142A8BF1146C1809C42AABF61459E
:10BDC0000020012030BC7047014602480068407CDA
:10BDD00000F002B8E81D00202DE9F843012688464E
:10BDE0000446022818DA354F7A68002A18BF9047AF
:10BDF000334DB8F1000F3FD0B8F1010F03D0B8F1C7
:10BE0000020F23D008E055F82400002818BF401C7A
:10BE100005D000BF45F824003046BDE8F883204631
:10BE2000FCF768FC00900028F6D0C0680D21426A3B
:10BE3000684690470200EFD041460098904755F879
:10BE400024000026401C45F82400E5E72046FCF7C6
:10BE500051FC00900028DFD0C0680D21426A68467E
:10BE600090470400D8D03868002818BF8047414662
:10BE70000098A0470026CFE755F82400012814D1E8
:10BE80002046FCF737FC009078B1C0680D21426A6B
:10BE9000684690475FEA000907D03868002818BF55
:10BEA000804741460098C847002655F824000028DE
:10BEB00014BF01210021401AACE70000CC1E002075
:10BEC000DC1E00204FF07F4333EA010C08BF7047AF
:10BED00070B400F0FF0C1CFB02FC00F47F4400F483
:10BEE0007F0554435543000E10FB02F6C2F1FF00DC
:10BEF000CAB212FB00C201F47F4C0CFB004C01F4EF
:10BF00007F0404FB0054090E11FB00604FF47F41D5
:10BF100001EA1C214FF47F0C0CEA142CC2F3072217
:10BF2000114370BC03EA004041EA0C01084370472A
:10BF30002DE9F84F002300930D9BDDF838A0002B6E
:10BF400086BF4FF0FF0E4FF07F45BDE8F88F0C9C89
:10BF500050F8049B51F8043BAEEB196C0CFB0AFC47
:10BF60000CEBCC1606EBCC3CCCF3C75C35EA0306F5
:10BF700032D009F0FF0616FB0CF609F47F4709F4EE
:10BF80007F0807FB0CF708FB0CF84FEA196919FB4F
:10BF90000CF9CCF1FF0C03F0FF0B1BFB0C6603F458
:10BFA0007F4B0BFB0C7703F47F0B0BFB0C881B0EFA
:10BFB00013FB0C93C6F3072C4FF47F4606EA1726B3
:10BFC0004FF47F0707EA18274CEA060C05EA0343FB
:10BFD0004CEA070C4CEA030929F07F4342F8043B82
:10BFE000641EB5D10A9BDDF834C001EB8301009BD0
:10BFF0005B1C00936345AAD3BDE8F88F016811F874
:10C00000012B11F8013B016042EA03221046704700
:10C01000016811F8012B11F8013B42EA032211F8E3
:10C02000023B42EA034211F8013C016042EA03622A
:10C030001046704713B5044601A8FFF7DFFF2080C4
:10C0400001A8FFF7DBFF608001A8FFF7D7FFA08002
:10C0500001A8FFF7D3FFE08001A8FFF7CFFF208101
:10C0600001A8FFF7CBFF608101A8FFF7C7FFA08100
:10C0700001A8FFF7C3FFE08102B010BD02494A6981
:10C080004260486170470000DC1D00202DE9F0414E
:10C09000184C06460D4620681F469046B0F90A1017
:10C0A000A942DABFB0F90E108D42BDE8F081B0F9B7
:10C0B0000810B142DABFB0F90C008642BDE8F08149
:10C0C0002946304602F026FA014642463846FFF736
:10C0D000F9FE01F075FF034620682A46417C0648B8
:10C0E00050F82100C168D1F818C03146BDE8F041D0
:10C0F00060470000E81D0020001E002010B400284A
:10C10000BABF4FF0FF3140420121194A90FBF2F3D0
:10C1100002FB13005210904201DD4942801A154A79
:10C120009042C4BFC0F5F95000F528304FF47A733F
:10C1300090FBF3F26FF07C0C02FB0CFC00EBCC00EC
:10C140005A2AA8BF4FF480300DDADFF82CC00CEB70
:10C1500082045CF822206468A4EB020C0CFB00F063
:10C16000B0FBF3F010440029D8BF404210BC704728
:10C17000407E0500905F010040ED030870B402E0CE
:10C1800000F8011B521E002A18BF10F0030FF7D150
:10C19000930835D001EB014C02F003020CEB0C2CA0
:10C1A000032B1ADD5C42E51704EB9574A41065427D
:10C1B000002DC4BF04462E460FDD00BF44F804CB5B
:10C1C000761E44F804CB44F808CB44F804CCF5D1EF
:10C1D0006C4200EB051003EB8403002B23DD041FEE
:10C1E00013F0010F18BF44F804CF5D1006D000BF54
:10C1F000C4F804C044F808CF6D1EF9D100EB8300E9
:10C20000002A18DD401E12F0010F18BF00F8011FB0
:10C21000521004BF70BC7047417000F8021F521EDC
:10C22000FAD170BC7047002BEAD000BF40F804CBB5
:10C230005B1EFBD1E4E7002A04BF70BC704700BF5F
:10C2400000F8011B521EFBD170BC704770B410F097
:10C25000020F02D020F8021B521E53083CD001EB03
:10C26000014C042B25DB40F804CB1B1F40F804CB0A
:10C27000032B40F808CB40F804CC1ADD5C42E517EC
:10C2800004EB9574A4106642002EC4BF04463546E4
:10C290000FDD00BF44F804CB6D1E44F804CB44F816
:10C2A00008CB44F804CCF5D1744200EB061003EB44
:10C2B0008403002B16DD041F13F0010F18BF44F890
:10C2C00004CF5D1006D000BFC4F804C044F808CF06
:10C2D0006D1EF9D100EB830012F0010F18BF018031
:10C2E00070BC7047002BF7D040F804CB5B1EFBD12D
:10C2F000F2E7024600204FF08041431893429CBF72
:10C30000D21A581840088908F7D17047642070473E
:10C31000642070470348007810B14FF4CD70704727
:10C32000E1207047A81B00200548007820B105488F
:10C330000088BE3880B27047034800885A38F9E751
:10C34000A81B0020341D0020321D00204FF4617016
:10C35000704700000148008870470000381D002029
:10C3600040F69800704700000148008870470000C0
:10C370003E1D002070B5044600F03EFA0546601CE4
:10C3800002D004480078044400F036FA401BA04272
:10C39000FAD370BD041800200F2101600D490988EF
:10C3A00081600C4AAA21521E1378CC2B0FD0127830
:10C3B000AA2A00D0552101610649891E0A6802F0A7
:10C3C000E0020276097801F00C0141617047CC214E
:10C3D000F1E70000163C02402DE9F0472E490446E3
:10C3E00001200A7E012A11D0012288460A7621788E
:10C3F0004CF2503AC90715D06068284D0128A6684C
:10C40000504606D0FAF782FA48B10BE00220BDE8A8
:10C41000F087FAF77BFA28B92988B14301E0298827
:10C42000314329802178890707D5257C5046FAF7C2
:10C430006DFA10B91949491E0D702178DFF8609026
:10C44000490713D5207E00F0200700F0400500F0DA
:10C4500080065046FAF75AFA40B999F8002002F0DF
:10C460001F02154335433D4389F8005021784FF0B2
:10C47000000209070CD5207D99F8003023F00C0349
:10C4800089F8003099F80030034389F800301046ED
:10C4900088F81820BBE70000641F0020163C02400B
:10C4A000143C02400348016841F000410160002053
:10C4B00070470000103C02400448017841F002013E
:10C4C00001704CF25030FAF721BA0000143C0240DF
:10C4D0000348016841F0010101600020704700003D
:10C4E000143C024006480068C00707D004480549CC
:10C4F0000C3801600449016000207047012070473A
:10C50000143C02403B2A19087F6E5D4C074900200D
:10C510000A68002A09DA054A054B0C3A1360054BF4
:10C5200013600968002900DA01207047103C0240BE
:10C5300023016745AB89EFCD2DE9F04F0022DFF8ED
:10C5400008B101264FF00F0906FA02F401EA0403CC
:10C55000A34273D122F003075F44D7F808889507F8
:10C560004FEA157C09FA0CFA0AEA0805DFF8DC80C4
:10C57000404502D14FF000081DE0DFF8D48040456F
:10C5800002D14FF0010816E0DFF8C880404502D123
:10C590004FF002080FE0DFF8C080404502D14FF0B5
:10C5A000030808E0DFF8B480404502D14FF00408EA
:10C5B00001E04FF0070808FA0CF8A84521D1284DF2
:10C5C000D5F800C02CEA030CC5F800C02D1DD5F825
:10C5D00000C02CEA030CC5F800C02D1DD5F800C022
:10C5E0002CEA030CC5F800C02D1DD5F800C02CEABC
:10C5F000030CC5F800C0D7F8085825EA0A05C7F8A3
:10C600000858056857000323BB409D430560D508C3
:10C6100000EB8505D5F820C057074FEAD76809FA1F
:10C6200008F72CEA070CC5F820C0C5689D43C56013
:10C630004568A543456084689C438460521C102A69
:10C6400082D3BDE8F08F00000030014000000240BE
:10C650000004024000080240000C024000100240AA
:10C66000003C01402DE9F84F00224FF0010803255E
:10C670004FF00F0E0B6808FA02F42340A34271D169
:10C680004E68012E05D0022E03D0112E01D0122E9D
:10C6900015D18668570005FA07FC26EA0C06D1F882
:10C6A0000CC00CFA07FC4CEA060CC0F808C046683F
:10C6B000A6430C79C4F30014944034434460C66824
:10C6C000570005FA07FC8C6826EA0C06BC40344388
:10C6D000C4604C68022C01D0122C13D1D40800EB9A
:10C6E0008404A346D4F8209054074FEAD46A0EFA83
:10C6F0000AF629EA06090E6906FA0AF646EA090662
:10C70000CBF8206004680E7924EA0C0406F00306D6
:10C71000BE40264306604C68E40056D52E4C266881
:10C7200046F480462660246822F0030604F4804420
:10C7300000942A4C3444A446D4F808489607370F8E
:10C740000EFA07F6B443264EB04201D1002615E09A
:10C75000244EB04201D1012610E0234EB04202D156
:10C7600002260BE031E0214EB04201D1032605E064
:10C770001F4EB04201D1042600E00726BE402643EA
:10C78000CCF808681B4E34684F689C43FF0300D503
:10C790001C433460174E361D34684F689C43BF03FA
:10C7A00000D51C433460134E083634684F689C43F0
:10C7B000FF0200D51C4334600E4E0C3634684F68BF
:10C7C0009C43BF0200D51C433460521C102AFFF466
:10C7D00051AFBDE8F88F00004438024000300140FE
:10C7E000000002400004024000080240000C024029
:10C7F00000100240003C0140014880687047000082
:10C800000418002002488168027811448160704752
:10C81000041800200B4810B5016841F40071016054
:10C82000016841F480610160016841F48071016038
:10C83000032000F093F8002000F006F800F024F840
:10C84000002010BD003C024070B50D4D04464FF471
:10C850007A712878B1FBF0F00A490968B1FBF0F071
:10C8600000F071FD48B9102C07D200222146501E5D
:10C8700000F054F800206C6070BD012070BD000015
:10C88000041800200018002010B5032000F066F8FE
:10C89000002211466FF00B0000F040F80022114614
:10C8A0006FF00A0000F03AF8002211466FF009001C
:10C8B00000F034F800221146501F00F02FF800223B
:10C8C0001146101F00F02AF800221146901E00F0B9
:10C8D00025F80022BDE810401146501E00F01EB899
:10C8E00000280DDB00F01F0201219140400980006B
:10C8F00000F1E020C0F88011BFF34F8FBFF36F8FBE
:10C900007047002809DB00F01F0201219140400917
:10C91000800000F1E020C0F800117047F0B40E4B29
:10C920001B680C46C3F30223C3F10705042D00D98D
:10C930000425191D072901D2002300E0DB1E012672
:10C9400006FA05F1491E214099409E40761E164088
:10C950003143F0BC13F038B80CED00E0064900F0AC
:10C96000070208684FF6FF03184040EA0220034A16
:10C9700010430860704700000CED00E00000FA056D
:10C9800070470068416200207047F0B50368586A3C
:10C9900039B19C6A4FF4827600EB144400204D1E9E
:10C9A0000AE040EA024098620FE006EB8007DF5998
:10C9B000401C04EB1744C0B2A842F6D344EA02403C
:10C9C0004FF4807202EB810158500020F0BDD0F886
:10C9D00004040AF059BEC1EBC10200EB8202D0F898
:10C9E0000404926C0AF0B6BDC1EBC10200EB8202F6
:10C9F000D0F80404D2F808220AF001BE10B50400F1
:10CA00000CD0032084F8BD03204600F043FC2046F0
:10CA100000F0A0FB002084F8BD0310BD012010BD74
:10CA2000D0F804040AF032BE70B504460B0601F0DB
:10CA30000F00C0EBC00104EB81014FF001024FF089
:10CA4000000503D581F83D203C3103E081F8FD511C
:10CA500001F5FE71087094F8BC03012808D084F831
:10CA6000BC2320680BF086F984F8BC53002070BD0D
:10CA7000022070BD70B5044601F00F00626890425C
:10CA800001D9012070BD0B0601F00F01C1EBC101FE
:10CA900004EB81014FF001024FF0000503D581F84E
:10CAA0003D203C3103E081F8FD5101F5FE718D70B0
:10CAB000087094F8BC03012808D084F8BC232068CF
:10CAC0000BF06EFB84F8BC53002070BD022070BDDB
:10CAD0002DE9F04104460F0601F00F00C0EBC00144
:10CAE00004EB81014FF001064FF0000503D581F8FA
:10CAF0003D603C3103E081F8FD5101F5FE710870A5
:10CB00008A60CB704A7802B1C880022B00D10D71C7
:10CB100094F8BC03012809D084F8BC6320680BF0AA
:10CB200057F8284684F8BC53BDE8F0810220FBE7A3
:10CB300070B50C4601F00F05C5EBC50100EB810196
:10CB4000C1F81032C1F808220023C1F8143281F86C
:10CB5000FD3181F8FC51036901F5FE71012B00D113
:10CB60000A612207027C006803D00BF071FB0020F1
:10CB700070BD0BF05DFAFAE770B504460D4601F0A2
:10CB80000F006168884201D9012070BD29064FF06D
:10CB900000064FF0010207D5C0EBC00104EB810194
:10CBA00081F83D203C3107E0C5EBC50104EB810174
:10CBB00081F8FD6101F5FE718A70087094F8BC037C
:10CBC000012807D084F8BC2320680BF015FB280748
:10CBD00002D007E0022070BD217C04F5717220684C
:10CBE0000BF0B2FA84F8BC63002070BD70B50C463F
:10CBF00001F00F05C5EBC50100EB81010B658A64EF
:10CC000000234B65012381F83D3001F83C5F036947
:10CC1000012B00D10A612207027C006803D00BF0CF
:10CC200017FB002070BD0BF003FAFAE72DE9FC5F5B
:10CC30000568044628460BF052FC00287ED1206887
:10CC40000BF0FCFF002879D020680BF0F7FF80077D
:10CC500004D52168486900F00200486120680BF0A3
:10CC6000EDFFC10604F57170009034D5206881692C
:10CC700021F0100181612F6A07F00F00C0EBC000A6
:10CC800004EB8006C7F3434006F5FE76022802D087
:10CC9000062811D01AE047F6F070074216D0C7F305
:10CCA0000A1217462846F1680BF0CCFFF0683844AA
:10CCB000F060B069384408E00822284600990BF07B
:10CCC000C1FFB069C7F30A110844B06120688169E7
:10CCD00041F01001816120680BF0B0FF00034FF0BC
:10CCE000010A4FF0080B5BD5002620680BF085FF8A
:10CCF0000746DFF8689351E0F8074DD0F1B220689D
:10CD00000BF094FF8046C00707D005EB4611C1F831
:10CD100008AB3146204605F0B9FA5FEA087022D523
:10CD200005EB4611C1F808BB2068016C00EB46100A
:10CD30000191D0F8082B494507D900E08BE1110497
:10CD400003D54FF40041C0F8081B204600F07AFAE2
:10CD50000198484507D92069012804D1206801219C
:10CD6000009A0BF0F1F95FEAC86004D505EB4611B3
:10CD70001020C1F8080B5FEA886004D505EB461166
:10CD80002020C1F8080B5FEA884005D505EB461066
:10CD90004FF40051C0F8081B7F08761C002FABD160
:10CDA00020680BF04BFF40034FF000095CD5206872
:10CDB0000BF01CFF0746002654E0F80750D0F1B2F4
:10CDC00020680BF021FF8046C00723D006F00F0239
:10CDD0000AFA02F0D5F834288243C5F8342805EB66
:10CDE0004610C0F808A9206901280FD1C6EBC6007B
:10CDF00004EB8000D0E911211144816436B9206D23
:10CE000020B920680121009A0BF09EF9F1B220466A
:10CE1000FFF7E1FD5FEA087003D505EB4611C1F8A5
:10CE200008B95FEAC86004D505EB46111020C1F8C7
:10CE300008095FEA486004D505EB46114020C1F8B7
:10CE400008095FEA887004D505EB46110220C1F895
:10CE500008095FEA086003D53146204605F07CFAF0
:10CE60007F08761C002FA8D120680BF0E7FE002871
:10CE700011DAD5F8040820F00100C5F8040894F888
:10CE8000F403012829D0204600F0C0F92068416948
:10CE900001F00041416120680BF0D0FE00050BD588
:10CEA000D5F80808C00702D0204600F011FA206823
:10CEB000416901F40061416120680BF0BFFEC004CC
:10CEC00068D5D5F8040820F00100C5F80408102141
:10CED00020680BF0C7FA002127E084F8F4930021C2
:10CEE0002046FFF74DFDD1E705EB41104FF67F32AD
:10CEF000C0F80829D0F8003923F40013C0F800392D
:10CF0000D0F8003943F00063C0F80039C0F8082BAE
:10CF1000D0F8002B22F40012C0F8002BD0F8002B20
:10CF200042F00062C0F8002B491C60688842DBD8E0
:10CF3000D5F81C0840F00110C5F81C08206B60B142
:10CF4000D5F8840840F00B00C5F88408D5F84408EB
:10CF500040F00B00C5F844080CE0D5F8141842F274
:10CF60002B000143C5F81418D5F8100840F00B0049
:10CF7000C5F81008D5F8000820F4FE60C5F80008D0
:10CF8000217C2068009A0BF0DFF82068416901F4E9
:10CF90008051416120680BF051FE800415D5206856
:10CFA0000AF056FE20680BF08DFAE06000F0C4F93C
:10CFB0000146227B20680BF07BFE204600F016F92C
:10CFC0002068416901F40051416120680BF036FE90
:10CFD000000707D5204600F01DF92068416901F0DF
:10CFE0000801416120680BF029FEC00208D500212C
:10CFF000204600F035F82068416901F48011416154
:10D0000020680BF01BFE800208D50021204600F0AE
:10D010002BF82068416901F40011416120680BF090
:10D020000DFE400007D52046FFF7D1FC206841697E
:10D0300001F08041416120680BF000FE40070AD5F5
:10D0400020684568680702D52046FFF7E9FC20689C
:10D05000416829434160BDE8FC9F00000A30544FFD
:10D06000D0F804040AF06CBBD0F804040AF06ABBE0
:10D070002DE9F0418AB0040005D094F8BD0326687C
:10D08000002520B108E001200AB0BDE8F08184F855
:10D09000BC53204600F078F8032084F8BD03F06B01
:10D0A000C00500D4256120680AF09CFF04F110013E
:10D0B000282288466846F3F789F894E80F000AF0BA
:10D0C000D5FD0226C8BB002120680BF0C9FD002059
:10D0D00001270EE0C0EBC00104EB810181F83D7037
:10D0E00001F83C0FC880CD708D60CD60401CC0B28F
:10D0F0004D6161688142EDD8002011E0C0EBC001B4
:10D1000004EB810181F8FD5181F8FC0181F8FF51A8
:10D11000C1F80452C1F80852401CC0B2C1F8105204
:10D1200061688142EAD8282241466846F3F74EF802
:10D1300094E80F000AF09CFE10B184F8BD63A2E7EA
:10D1400084F8385084F8BD7320680AF085FE00200A
:10D150009AE7000010B50068B0F1A04F0ED1084862
:10D16000016821F0800101604FF4C0510548FFF7CC
:10D17000E3F9BDE810404320FFF7B2BB10BD00004B
:10D18000343802400000024000B5006887B0B0F1BA
:10D19000A04F25D14FF4C0500090022001900020F4
:10D1A0000290032003900A20049069460D48FFF77F
:10D1B00059FA0D48016841F0800101600A481030B9
:10D1C000016841F4804101600068002200F4804061
:10D1D000059011464320FFF7A1FB4320FFF791FB89
:10D1E00007B000BD000002403438024010B50446CC
:10D1F000C068012100B90021D4F804040AF0F8FA4B
:10D20000D4F80404BDE810400AF0C1BAD0F8040410
:10D210000AF0DCBAD0F804040AF0DEBA10B504460D
:10D2200090F8BC0301280BD0012084F8BC0384F8DB
:10D23000381020680BF02BFD002084F8BC0310BDD3
:10D24000022010BDD0F8042400F5717110460AF0D8
:10D25000E2BA10B50446006894F8BC13012906D060
:10D26000012184F8BC13A16A012902D008E0022040
:10D2700010BDA169012903D0816B41F48031816324
:10D2800020680AF0DDFD20680BF0D6F8002084F855
:10D29000BC0310BD70B5044690F8BC0301280ED045
:10D2A000012084F8BC0320680AF09CFE20680BF083
:10D2B00073FD002528B184F8BC53012070BD022005
:10D2C00070BD20680AF0C8FD84F8BC53002070BD12
:10D2D00010B50446D0F804040AF0FAFA2068D0F831
:10D2E000001E41F00101C0F8001E206A002804D091
:10D2F0000248016841F00601016010BD10ED00E038
:10D300000B4A136823F003030343136009480268C0
:10D3100042F004020260012907D040BF20BF20BFB5
:10D32000016821F004010160704730BFF8E7000098
:10D330000070004010ED00E00148006870470000F8
:10D3400000180020704710B5401EB0F1807F01D357
:10D35000012010BD4FF0E02460610F21601712F032
:10D3600033FB0020A06107202061002010BD10B514
:10D37000FFF7E8FF10BD000010B50020FDF70AFD23
:10D38000FBF7B0F8362238210F4813F031F8882225
:10D3900089210E4813F02CF80D48FDF707FD0D48C4
:10D3A000FDF7FAFCDD2278210BA0FBF791FA6FF074
:10D3B0007F40FDF7F1FCFD22782109A0FBF788FAF8
:10D3C0000A491E20088010BD82A70C00AA1F0D006C
:10D3D00070CA030800EFFF004849474800000000FA
:10D3E00041544F4D495A455200000000AE1B0020E9
:10D3F00012F01CFB2DE9F0411F4C88464FF4F071F0
:10D400001E46154660608A4200D90D461B4F36B154
:10D41000A1683044884202D1E068A8420DD20020C1
:10D42000207007F039FA20782A46C0EB001007EB8D
:10D4300040116068304407F0FFF9606830442844C8
:10D44000A06007F029FA2078C0EB001107EB411229
:10D45000C8F8002068B100202070C0EB001007EB76
:10D4600040112A46A06807F0E7F92846E560BDE8C4
:10D47000F0810120F0E700006C1D0020302A002020
:10D4800010B51446054A184450610968224607F051
:10D49000D3F907F001FA204610BD00006C1D0020F2
:10D4A0002DE9F0413E48414D002406783D48E98889
:10D4B00003783D4802783E48007856B14BB190421F
:10D4C00007D16E88B6F5FA7F04D2761C6E80A980EB
:10D4D00000E06C80374E384F96F800C097F800E0B7
:10D4E0005CEA0E0C0BD0DFF8D4C0A9809CF800E0F9
:10D4F000BEF1000F03D04FF0640E8CF800E0B5F8D9
:10D5000004C0BCF1000F0BD0B3B1A1EB0C0109B208
:10D51000B1F5966F08DD7AB1002009F089FA0BE0C9
:10D5200053B1F4F797FA07E0904205D009F080FA7A
:10D53000307800F001003070F4F76CFA6C70D5E9C7
:10D540000210884204D02961A86001202870687008
:10D55000A86880471A4834703C70047019480470F9
:10D560001948047019480470194804701948047067
:10D570001948047019480470194804701948047057
:10D580001948047019480470194804701948047047
:10D590001948047019480470BDE8F04101F084BDD9
:10D5A000BC1A00205B1D00205C1D00208C1B00208D
:10D5B0005A1D0020E11A0020E21A0020BA1B0020A8
:10D5C000E51A0020E61A0020E71A0020E81A0020D9
:10D5D000E91A0020EA1A0020EC1A0020E31A0020C1
:10D5E000E41A0020EE1A0020EF1A0020F01A0020A2
:10D5F000F11A0020F21A0020F31A0020F41A002079
:10D6000070B5094CA07F00280CD00025A57700F04C
:10D6100049FA00F03BFB0BF0E1FB01206070FFF7E3
:10D620003FFF657070BD0000BC1A002070B5284C2B
:10D63000284E002584F823504FF48051304602F0E4
:10D6400042F928B994F8230040F0010084F823003F
:10D650002148007818B34FF40041204802F033F914
:10D6600028B194F8230040F0020084F823004FF41E
:10D670008061304602F027F928B194F8230040F089
:10D68000040084F823004FF40061304602F01BF9D7
:10D6900028B194F8230040F0080084F8230094F89F
:10D6A000240094F8231088420AD194F822000A2812
:10D6B00003D2401C84F8220005E084F8211002E027
:10D6C00004F8225FA170BDE8704008F035BB00008F
:10D6D000BC1A0020000802405B1D00200000024030
:10D6E00001490020488170471E19002001494881E6
:10D6F000704700001E190020F8B5002107236C2296
:10D700000846FCF71DFB0646FCF734FD0320FAF73C
:10D71000EDFB1448FDF740FB0324002106236B2298
:10D7200008460094FAF74AFA0F4D287868B10F4876
:10D73000FDF732FB009428786B2110FB01F0C20842
:10D74000002106230846FAF739FA0020FCF712FDFB
:10D75000892242213046FCF763FD3046BDE8F8409F
:10D76000FCF792BB4E5357008A1D002000EFFF00CC
:10D770002DE9F04186B000F02BFA41480024414DDC
:10D780000178012661B3047001200CF07BF80220BF
:10D79000FDF742FB05F060F82B213BA004F098F95F
:10D7A000DD2202213B4812F023FE7C221B213A4855
:10D7B00012F01EFE7C22B421384812F019FE00211E
:10D7C0003748F8F74BF8FFF797FF05F053F835485F
:10D7D0003649067034482C70008808803449088027
:10D7E000DFF8D08098F80000032807D00C2807D075
:10D7F0002878314F40B13888A8B338E02F4800E08E
:10D800002F480DF0DDFD34E0CDE901466420CDE97F
:10D81000034008202B4C00900246022321782A481E
:10D8200000F0A2F82178884202D02070FFF764FF50
:10D8300026480078012802D125480DF0C9FD254869
:10D840000078042806D12E7005203880012122A0FE
:10D85000F8F704F80120F3F779FA0120F9F74EFD03
:10D8600007F06EFB03E0FFE71C480DF0B1FDF4F795
:10D87000D9FC0D2188F8001006B0BDE8F081000049
:10D880008C1B0020961C00204B4559204C494748D2
:10D8900054000000DBBB0200FA9A06004AA406000E
:10D8A000A82B0108ED1A0020A41B0020921B0020C9
:10D8B000901B0020AB1B0020AE1B0020B9230108E9
:10D8C000098F02088A1D0020E31A0020E11A0020B7
:10D8D000AD0F0208F31A00204F4B000065620208EA
:10D8E00010B586B001200022CDE901201A4CC821D4
:10D8F000CDE9030160790223401E009020690822CF
:10D900000178164800F030F8C1B2206901706069F2
:10D91000007888421ED06279521E914207D10021C0
:10D9200007F08CFD01210EA0F7F798FF0EE0904262
:10D930004FF0000103D10AA0F7F790FF01E007F0D4
:10D940007DFD20690121007807F078FD206961697B
:10D950000078087006B010BD401C0020E31A0020BB
:10D9600045584954000000002DE9F04FDFF80081D0
:10D97000DDE90954DDE90B76DDF834E0A94201D098
:10D98000A14201D1012E02D04FF0000C07E098F81F
:10D9900025C0944501D09C4503D14FF0010C88F877
:10D9A0001DC090F800C03348DFF8CCA09445008833
:10D9B00006D1A94201DA394407E066B121460AE0FE
:10D9C0009C4508D1A14204DDC91B09B2AAF8000098
:10D9D00001E006B12946C34698F830C0DFF89080D0
:10D9E00094455A4698F81F90A9F1050808F0FF08D9
:10D9F00014D192F820301BBBF14501D982F81F8069
:10DA0000D37F82F82030A94201DA394415E0022E92
:10DA100002D09BF81D0098B121461FE09C4517D10C
:10DA200092F8203063B9F14501D982F81F80D37F85
:10DA300082F82030A14204DDC91B09B2AAF8000017
:10DA40000CE0022E02D09BF81D0038B1294605E0FB
:10DA5000BCF1000F02D196208BF81F00A94201DD16
:10DA6000294602E0A14200DA214688B2BDE8F08FE3
:10DA7000BC1A0020921B0020901B002010B5084CFF
:10DA8000A07F00280AD00020A077607000F0FEF888
:10DA900000F008F805F0F2FF0120607010BD0000F2
:10DAA000BC1A0020F0B549494FF001050B4691F82A
:10DAB000210030F00A00887393F816C01F7DDE7BCA
:10DAC00093F831201C7C4FF0000348D0BCF1000FCC
:10DAD00016D04C7C0F2C09D2641C4C74864203D0A7
:10DAE00081F837008B744D76C8730874CC7BA042E4
:10DAF00027D10E7C864224D167B14E7DA6B11EE0AF
:10DB00008D75A04200D00B76CB750AB981F837002D
:10DB1000C87314E0887C401CC0B28874142802D3F7
:10DB20008B740D750B76F0BDCE7C761CF6B2CE7480
:10DB30000F2E04D3CB744D750AB981F832400874A6
:10DB4000F0BD204202D137B11AB104E0A042F6D1B3
:10DB5000F0BD81F834404B748B74CB74D8E74B74B0
:10DB60008B74CB7437B10B764B750AB981F834607E
:10DB70008B760FE0BCF1000F0CD08D762AB926B160
:10DB8000087E052801D2401C0876487E104301D14A
:10DB900081F838609CB1C87D122802D2401CC8753B
:10DBA0000DE052B9887E40B1087E032801D181F88A
:10DBB000334081F8364081F835000B760B748B7555
:10DBC0000B7502B10B764B76CB73F0BDBC1A0020FF
:10DBD000194810B5808810B11848007808B10020A5
:10DBE00010BDF3F741FF1649002008701549087071
:10DBF00015490870154908701549087015490870CD
:10DC000015490870154908701549087015490870BC
:10DC100015490870154908701549087015490870AC
:10DC2000154908701549087015490870154908709C
:10DC300015490120087010BD8C1B00205B1D0020C1
:10DC4000E11A0020E21A0020E51A0020E61A00205E
:10DC5000E71A0020E81A0020E91A0020EA1A00203A
:10DC6000EC1A0020E31A0020E41A0020EE1A00202B
:10DC7000EF1A0020F01A0020F11A0020F21A0020FA
:10DC8000F31A0020F41A0020ED1A002070B5624C3F
:10DC900094F8210020700BF023FE00F0BFF82078EC
:10DCA00001220021002862D0637ACBB123790F2BA7
:10DCB0000AD25B1C2371A378834203D084F8250029
:10DCC00061712273A070E070A37898423ED1E5782C
:10DCD00085423BD1E579C5B194F831502DB326E0AA
:10DCE0006272E378984200D0E172A172012B05D1F3
:10DCF000E37A042B02D1E17284F82D2094F83110DC
:10DD000009B984F82500A0701EE063795B1CDBB2C2
:10DD10006371142B08D36171E271E17294F83110D0
:10DD2000002901D184F8290070BD84F83030267AAA
:10DD300056B9A679761CF6B2A6710F2E04D3A1713E
:10DD400022720DB984F82A30E07070BD184205D1F6
:10DD5000E27942B194F831201AB104E09842F3D14B
:10DD600070BD84F8283021716171A171CBE72171F8
:10DD70006171A171E07948B1E172217294F83100CA
:10DD800010B9A07884F82800617312E0607A80B13D
:10DD9000627394F8312032B9A07820B1E07A052876
:10DDA00001D2401CE072207B024302D1A07884F8AB
:10DDB0002700E07800B3A27A122A02D2521CA27283
:10DDC0001AE094F83120AAB9627B9AB1E27A012A6A
:10DDD00004D0032A05D0052A08D105E084F82B00D9
:10DDE00004E084F82C0001E084F82D0084F82E0073
:10DDF00084F82F20E172E1706172E17194F83100D2
:10DE000028B184F83110E1722173A17070BDA0783F
:10DE100084F82600F8E70000BC1A00202DE9F04144
:10DE20003848394A394B00780D26394D00244FF0D7
:10DE3000010C002861D1374837490068884217D063
:10DE4000364F3F688F4258D13549884202D1354913
:10DE5000097869B9344988420AD0344988424CD19A
:10DE6000334834490068884202D03349884244D15B
:10DE700032480F27014690F80180097AB8F1000F67
:10DE80002CD0127880460A4303D183F800C004F0F6
:10DE900009F898F80A10404631B1491E81722849A4
:10DEA000097811B9077200E00472417A21B1491E64
:10DEB00088F80910BDE8F08129784A1F072A07D29F
:10DEC000DFE802F004040404040604001D4A117093
:10DED0000D2901D088F808402E70EBE72E7009B1AB
:10DEE000491E01720A214172174987720978C907D0
:10DEF00000D114701C708470DCE782F800C01C70C4
:10DF0000EAE70000B01B0020F91A0020011B0020E6
:10DF1000AC1B0020941B0020AD0F0208A01B0020AA
:10DF2000B92301085B1D002021520208D5AB02086D
:10DF3000241C0020756801088D060208281C00209A
:10DF40003F190020AB1B0020DD1A002010B5FF2375
:10DF5000184CB3EB116F23D1C2F1000202EB021C8B
:10DF60002246030E126813D0FF2B24BF084610BDB3
:10DF70000CF1FF01C1F1FF0C0CFB03F3DFF838C01B
:10DF8000ACFB03C301EBD31161F31F60104010BD64
:10DF90004FF07F4120F07F4001EB0C610843F5E733
:10DFA000064B02EB0212D2B21B6898472168084068
:10DFB00010BD00000C1F002081808080241F0020E5
:10DFC0000449054A0968497C52F821100969096821
:10DFD00008470000E81D0020001E0020C0F30722B3
:10DFE000C0F3074152FA80F0084440F2FD2100F2EC
:10DFF0007F1090FBF1F070472DE9FF4F87B09A48F2
:10E00000DDF850A0169E006890B1DDE91723DDF819
:10E0100064C0CDF814C00296CDE90323159ACDE96A
:10E0200000A2D0F800C0DDE90923079800F0D3B8BA
:10E030000A98099A0844451E07988C4C1044A0F190
:10E04000010C15984AEA0000012826D0C6F1080004
:10E0500002900020009104900A980028DCBF0BB0C9
:10E06000BDE8F08F159900980844411E0191059074
:10E070002068B0F90A208A4200F3E580B0F90E105A
:10E080000098884200F3DF80189803900998079D54
:10E090004FF00008002872DCD5E02268B2F90A309F
:10E0A000581A00280DDD0A99091A0A910029DCBFC7
:10E0B0000BB0BDE8F08F1946DDE9173400FB0340D3
:10E0C0001890B2F90E00281A002807DD0A9B181ACA
:10E0D0000A900028DCBF0BB0BDE8F08FB2F90C004D
:10E0E000ACEB0000002802DD099B181A0990B2F978
:10E0F0000830DDF81CC00020634550DDA3EB0C00A8
:10E10000099B1B1A0993082E32D006DC012E0BD076
:10E11000022E15D0042E1FD041E0102E30D0182E24
:10E1200018BF202E34D03AE0189B20F0070C03EBE8
:10E13000E0031893079B00F00700634407932EE069
:10E14000189B20F0030C03EBA0031893079B00F02F
:10E1500003006344079322E0189B20F0010C03EBBB
:10E1600060031893079B00F001006344079316E0D7
:10E17000189B034460440790189300200FE032E09E
:10E18000189B03EB4003604407901893002006E0BF
:10E19000189B03EB80036044079018930020099BB1
:10E1A000002BDCBF0BB0BDE8F08FDDE91734DDF8E4
:10E1B00064C0CDF814C00293CDE903400A98CDE9BC
:10E1C0000006527C2A48099B50F82200C268D2F807
:10E1D00004C00A460799E0470BB0BDE8F08F00BFC6
:10E1E000B9F1000F05D103984FF0080910F8017B31
:10E1F00003900298A9EB060937FA00F007FA06F136
:10E20000CFB204D12168097C11F0020F15D1216829
:10E21000199AC96B002AD1F800B018BF52F8200033
:10E22000086005EB0A00DDE90013421E284600F0F5
:10E23000BDF82068C06BC0F800B0099808F101086B
:10E2400055448045CCDB0498401C04900598009010
:10E25000DDE91701084418900A9904988842FFF6EE
:10E2600001AF0BB0BDE8F08F181E0020E81D0020A4
:10E27000001E00208C46164930B40968B1F90A30F6
:10E280006345D9BFB1F90E309C4530BC7047B1F938
:10E290000830984215DB00BFB1F90C30934213DB14
:10E2A0008242BCBF30BC70474B7C0A4951F82340C6
:10E2B00013466246E1688D6801462046AC4630BC94
:10E2C0006047B1F90800E7E7B1F90C20E8E7000082
:10E2D000E81D0020001E00200A46194930B40968D4
:10E2E000B1F90A309342D9BFB1F90E309A4230BC2D
:10E2F0007047B1F908308342D9BFB1F90C30984268
:10E3000030BC70470B7C13F0010FDFF838C009D028
:10E31000497C5CF82130D968D1F81CC0014630BC7A
:10E3200018466047CB6B497C1B685CF821C0DCF861
:10E330000C108C6901466046A44630BC6047000062
:10E34000E81D0020001E00208C46164930B40968E4
:10E35000B1F908308342D9BFB1F90C30984230BCD2
:10E360007047B1F90A309C4515DB00BFB1F90E309A
:10E37000934213DB6245BCBF30BC70474B7C0A49FB
:10E3800051F8234013466246E168CD6801462046B5
:10E39000AC4630BC6047B1F90AC0E7E7B1F90E20DE
:10E3A000E8E70000E81D0020001E002038B58C467C
:10E3B00017490968B1F9084084421FDCB1F90C40E3
:10E3C00094421DDB8242B8BF38BDB1F90A406445B2
:10E3D00018DC00BFB1F90E409C4216DB6345B8BFA4
:10E3E00038BD00934B7C0B4951F8234013466246DD
:10E3F000E1680D6901462046A84738BD2046DDE7A3
:10E400002246DFE7B1F90AC0E4E7B1F90E30E5E7EB
:10E41000E81D0020001E002070B5082500240228F9
:10E4200007DAFAF767F920B1C1688A6A2946904786
:10E430000446204670BD000002480068806B0068FA
:10E4400070470000E81D002002480068C06B0068AB
:10E4500070470000E81D0020094808B50068094918
:10E46000407C51F820000090C068426A2AB108211F
:10E4700068469047002818BF08BD034808BD000043
:10E48000E81D0020001E00204C1F002070B5084829
:10E49000092500240068407C022807DAFAF72AF9E7
:10E4A00020B1C1688A6A294690470446204670BD5B
:10E4B000E81D002070B509250024022807DAFAF7C4
:10E4C00019F920B1C1688A6A294690470446204656
:10E4D00070BD70B500252C462046FAF70BF90028D0
:10E4E00018BF6D1C641C022CF6DB284670BD0000B2
:10E4F000074810B50068407CFAF7FCF8002808BF10
:10E5000010BDC168CA6ABDE8104002211047000072
:10E51000E81D002010B500F005F8BDE8104000F03F
:10E520004FB90000F0B5154E0546154F30680C4642
:10E5300083B0407C57F82000C1680A6B6946904759
:10E54000BDF90000A842DCBFBDF90400854207DC2C
:10E55000BDF90200A042DCBFBDF90600844202DD25
:10E5600003B00020F0BD30682246407C57F8200000
:10E57000C1684B692946984703B0F0BDE81D0020EB
:10E58000001E002070B503250024022807DAFAF7E0
:10E59000B1F820B1C1688A6A2946904704462046EE
:10E5A00070BD2DE9F04103270024012500262846EF
:10E5B000022D07DAFAF79EF820B1C1688A6A394657
:10E5C00090470646B44204DB6D1EEFD52046BDE8F9
:10E5D000F0813446F8E770B504250024022807DAF4
:10E5E000FAF788F820B1C1688A6A2946904704463C
:10E5F000204670BD0148006870470000341E0020AE
:10E6000070B501250024022807DAFAF773F820B163
:10E61000C1688A6A294690470446204670BD2DE9A4
:10E62000F041012700243D4600262846022D07DA46
:10E63000FAF760F820B1C1688A6A39469047064601
:10E64000B44204DB6D1EEFD52046BDE8F0813446B0
:10E65000F8E700000148406870470000341E0020C1
:10E6600070B502250024022807DAFAF743F820B132
:10E67000C1688A6A294690470446204670BD2DE944
:10E68000F04102270024012500262846022D07DA42
:10E69000FAF730F820B1C1688A6A394690470646D1
:10E6A000B44204DB6D1EEFD52046BDE8F081344650
:10E6B000F8E700002DE9F04101004FF000001ABF1B
:10E6C0008E68002EBDE8F081104F7A68002A08BFDE
:10E6D000BDE8F0810C68B4F5807FC8BFBDE8F0816B
:10E6E0003868A0420FDB0025002C09DD56F8250014
:10E6F000FFF766FC796841F825006D1CAC42F5DC3B
:10E700007868BDE8F0810446EDE70000101F0020A6
:10E710002DE9F04101004FF000001ABF8E68002E75
:10E72000BDE8F081104F7A68002A08BFBDE8F0818B
:10E730000C68B4F5807FC8BFBDE8F0813868A0429E
:10E740000FDB0025002C09DD56F82500FFF738FC0B
:10E75000796841F825006D1CAC42F5DC7868BDE8AD
:10E76000F0810446EDE70000101F00202DE9F04184
:10E77000002808BFBDE8F081866836B10F4F796880
:10E7800019B10468B4F5807F02DD0020BDE8F08196
:10E790003868A0420FDB0025002C09DD56F8250063
:10E7A000FFF70EFC796841F825006D1CAC42F5DCE2
:10E7B0007868BDE8F0810446EDE70000101F0020F6
:10E7C0000449054A0968497C52F8211009694968D9
:10E7D00008470000E81D0020001E0020084A094BE1
:10E7E00000F01F01C0F3451CC0F3C420515C13F8B6
:10E7F0000C30105C01EB032101EB0040704700007E
:10E80000E0EA030800EB03087047000000F01F0176
:10E81000074A084BC0F3451CC0F3C42013F80C3062
:10E82000105C515C00EB032000EB014070470000DE
:10E83000E0EA030800EB030810B50A4C606870B901
:10E8400020688000F9F794FC6060002804BF012074
:10E8500010BD0548054908600846FDF70FFC00207B
:10E8600010BD0000101F002051F00208181F0020EA
:10E870002DE9F05FFFF72DFE071E4FF00005D8BF12
:10E88000BDE8F09FDFF864A0DFF864B0DFF86480D3
:10E890002846F9F72FFF20B3D8F8000090F8119020
:10E8A00045742846FFF7B8FD082816DC5AF82500FD
:10E8B0000069584511D02846FFF7FCFD061E4FF0B1
:10E8C00000040ADDE0B2FFF77BFF0246E1B2284612
:10E8D00000F0EEF8641CA642F4DCD8F8000080F8E2
:10E8E00011906D1CBD42D3DBBDE8F09F001E0020DF
:10E8F0006CF00308E81D0020F0B520491E480026F2
:10E9000008601F4A16801E4BFF2014331870052024
:10E91000401EFDD24FF400430B600220401EFDD28A
:10E920004FF000440C600820401EFDD2144D1035FD
:10E9300028780B6000F0F80046EA00260120401E0F
:10E94000FDD20C600820401EFDD228780B608008A4
:10E9500046EA40160120401EFDD20C600820401EF1
:10E96000FDD228780B6046EAD0004FF480430B605C
:10E9700045F255511180F0BD003000C0180402402E
:10E980000008024070B505460C462A2000F092F9B6
:10E99000280A00F0BFF9E8B200F0BCF92B2000F023
:10E9A00089F9200A00F0B6F9E0B200F0B3F9BDE849
:10E9B00070402E2000F07EB910B50F4C0F49206832
:10E9C000407C51F8200060B1C16811B10968042988
:10E9D00003D000680028F7D103E0002818BFF9F73A
:10E9E0006FFE00212068016600F108014161BDE869
:10E9F000104000F031B80000E81D0020001E00208B
:10EA00000149096849680847081F00200449096846
:10EA10000A7C12F0040F14BFC96B896B0860704741
:10EA2000E81D002030B50A4C054683B02068417CC3
:10EA3000084850F82100C1680A6B69469047206871
:10EA40006A4629460830FDF796F903B030BD00004C
:10EA5000E81D0020001E00200448016804484A7C8C
:10EA6000083150F82200C268126B1047E81D0020E0
:10EA7000001E00200149096809680847081F002096
:10EA8000044909680A7C12F0040F14BF896BC96B32
:10EA900008607047E81D0020014AC2E90001704784
:10EAA000341E00200149096889680847081F0020B2
:10EAB000F8B515460E460124F9F71CFE009058B132
:10EAC000C0681021426A68469047030004D02A4675
:10EAD00031460098984700242046F8BD002A08BF18
:10EAE00070472DE9F0473B4C07460E462068154617
:10EAF000B0F90A10B142DABFB0F90E108E42BDE88B
:10EB0000F087B0F90810B942DABFB0F90C108F42A3
:10EB1000BDE8F087DFF8C0800F2D0CD3C16B407CBF
:10EB200032460B6858F82000C168D1F818C0394641
:10EB3000BDE8F0476047C06B0068FFF741FE8146C3
:10EB400031463846FFF7E6FC01464846FF22DFF82B
:10EB50008C90B2EB116F24D1C5F10003020E03EBD0
:10EB6000031313D0FF2A28BF084623D203F1FF0165
:10EB7000C1F1FF035A431A4BA3FB023201EBD2113E
:10EB800061F31F60D9F80010084013E04FF07F4197
:10EB900020F07F4001EB03610843D9F800100840E2
:10EBA00008E0104B05EB0512D2B21B689847D9F864
:10EBB00000100840FFF704FA034620683246407C04
:10EBC00058F82000C168D1F818C03946BDE8F047B0
:10EBD00060470000E81D0020001E00200C1F0020E0
:10EBE00081808080241F002013460A46104930B4DB
:10EBF0000968B1F908C08445D9BFB1F90CC06045B6
:10EC000030BC7047B1F90AC09445D9BFB1F90EC004
:10EC1000624530BC704791F811C0064951F82CC0CC
:10EC2000DCF80C108C6901466046A44630BC604795
:10EC3000E81D0020001E0020F8B515460E460124F0
:10EC4000F9F758FD009058B1C0680B21426A684638
:10EC50009047030004D02A46314600989847002484
:10EC60002046F8BDF8B515460E460124F9F742FDD9
:10EC7000009058B1C0680A21426A68469047030074
:10EC800004D02A4631460098984700242046F8BD13
:10EC900010B5074C2068006BFFF792F9FFF7F0FE04
:10ECA0002068406BFFF78CF9BDE81040FFF7AEBE5F
:10ECB000E81D00200649054A0A60064A10704FF414
:10ECC000005008604000086070470000008000703D
:10ECD000180402401408024001B50C480A490160BA
:10ECE0000B499DF801200A704FF40052026000BFEA
:10ECF0004FF000530360BDF800300B7002604FF41A
:10ED00008041016008BD00000090006018040240CE
:10ED1000140802400649054A0A60064A10704FF47A
:10ED200000500860400008607047000000900060DC
:10ED3000180402401408024070B505460C462A200B
:10ED4000FFF7B8FF280AFFF7E5FFE8B2FFF7E2FF99
:10ED50002B20FFF7AFFF200AFFF7DCFFE0B2FFF741
:10ED6000D9FFBDE870402C20FFF7A4BF10B50023E9
:10ED70001A4609490948F9F715FC4FF4A0742246D0
:10ED8000F0210020FFF758FF2246F021BDE8104097
:10ED90000020FFF767BF0000C8E203084025030812
:10EDA000012902D04FF0FF3070470020704700006B
:10EDB0002DE9FF4F8DB07A4ADDF868A01C9E20989F
:10EDC0001268A2B1DDE91D03DDF87CC0CDF814C0E6
:10EDD0000296CDE903031B98CDE900A0D2F800C04C
:10EDE000DDE90F230D98E04711B0BDE8F08F109AD0
:10EDF0000F9B0A44551E0D9A6A4C1A44A2F1010C4D
:10EE00001B9A4AEA0202012A24D0C6F108000590A2
:10EE100000200890109802910028DCBF11B0BDE8D6
:10EE2000F08F1B99029808440990401E00902168B9
:10EE3000B1F90A2082427DDCB1F90E1002988842B5
:10EE400078DC1E980B900F980D9D4FF0000800285D
:10EE500063DC94E02268B2F90A40631A002B0DDDEE
:10EE60001099C91A10910029DCBF11B0BDE8F08FCC
:10EE70002146DDE91D4703FB04731E93B2F90E30F2
:10EE8000EB1A002B07DD109CE31A1093002BDCBF5C
:10EE900011B0BDE8F08FB2F90C30ACEB0303002BDE
:10EEA00004DDDDF83CC0ACEB03030F930D9BA3EB3B
:10EEB000000CB2F9083063450FDDA3EB0C040F9D85
:10EEC00023182C1B0F941E9C181A20F0070004EB2B
:10EED000E304844403F007001E940F9B002BDCBF67
:10EEE00011B0BDE8F08FDDE91D341F9D059502933B
:10EEF000CDE903401098CDE90006527C2A480F9BCB
:10EF000050F82200C26854680A466146A04711B012
:10EF1000BDE8F08FB9F1000F05D10B984FF008094B
:10EF200010F8017B0B90059837FA00F007FA06F10C
:10EF3000CFB200E023E0A9EB060904D12168097CE7
:10EF400011F0020F15D121681F9AC96B002AD1F860
:10EF500000B018BF52F82000086005EB0A00421EFE
:10EF60002846009B0299FFF721FA2068C06BC0F881
:10EF700000B00F9808F1010855448045CADB089895
:10EF8000401C089009980290DDE91D1008441E906D
:10EF9000089910988142FFF644AF11B0BDE8F08F98
:10EFA000181E0020E81D0020001E0020002808BFB9
:10EFB000704730F0010104BF0120704730F00301B9
:10EFC00004BF0220704730F0070104BF03207047E0
:10EFD00030F00F0104BF0420704730F01F0104BF60
:10EFE0000520704730F0FF0104BF08207047410A38
:10EFF00018BF5FEA10310ED0C10B18BF5FEA104195
:10F0000009D0810C04BF1220704710F07F4F0CBF55
:10F01000182020207047102070470021002830D091
:10F0200030F0010208BF01213AD030F0030208BFDE
:10F03000022026D030F0070208BF032021D030F094
:10F040000F0208BF04201CD030F01F0208BF0520AB
:10F0500017D030F0FF0208BF082012D0420A18BFB4
:10F060005FEA10321ED0C20B18BF5FEA104219D0FF
:10F07000820C08BF122004D010F07F4F18BF202050
:10F080000DD0821E062A98BF082109D9A0F10902D5
:10F09000072A98BF102103D911380F2800D8202142
:10F0A000084670471020ECE72DE9F0413748384C0E
:10F0B000384E0078A27900254FF4917190420CD01F
:10F0C000227A521CD2B22272012A07D92572A0716B
:10F0D00008B1618103E0658118E0257238B12E48DE
:10F0E00062790078824202D06071618101E06089BA
:10F0F00060B12A480078022808D0207861788842D8
:10F1000007D06070305CFEF7F1FA02E06570FEF740
:10F11000E7FA2078A8B32249097831B32149097860
:10F1200031B12149097819B1E570618919BB28E02D
:10F13000E1781E4D1E4F41B90121E170296864221A
:10F1400051433A88B1FBF2F12171A17888420AD08B
:10F15000A070305C01F05CF928686421484339886C
:10F16000B0FBF1F02071BDE8F081E570618941B13B
:10F17000A1788842F7D0A070305CBDE8F04101F082
:10F1800047B9A570BDE8F04101F03CB95B1D002016
:10F190008A1D00208A250308BC1A0020B01B00200D
:10F1A0009B190020991900209A190020344401402D
:10F1B0002A1900200548016841F480710160016846
:10F1C00021F4807101600020704700002438024063
:10F1D000074B024600209B6813F0010F01D001206D
:10F1E00070470968536823F440330B4353607047FA
:10F1F000002001408268002112F0010F0BD08268CC
:10F2000022F070628260826822F4702282608268DA
:10F2100022F0010282608268D2073FD1026822F0A8
:10F220003F02026042681E4B1A40426082681D4BDA
:10F230001A408260C26802F07842C260026902F03D
:10F240004042026142696FF30B02426182696FF3CF
:10F250000B028261C2696FF30B02C261026A6FF333
:10F260000B020262426A40F6FF731A434262826AEC
:10F270006FF30B028262C26A02F07F42C262026BCB
:10F2800002F040420263826B6FF31502826306480C
:10F29000D0F8042322F40302C0F804230846704780
:10F2A00000003FF8FCF080800020014030B583680A
:10F2B000002213F0010F02D00122104630BD8C68ED
:10F2C0000B6823434468054D2C4023434360836807
:10F2D000496823F400630B438360EEE7FFFEFFFC05
:10F2E00030B54B688468002214F0010F02D001226F
:10F2F000104630BD002B436823F4684301D08C686E
:10F3000023434360D1E9033423438468074D2C40F1
:10F310000D6805F070652C43234383604968C36A18
:10F3200023F470030B43C362E2E70000FDFCFFC05F
:10F3300010B54FF4407494FAA4F401F44073B4FA95
:10F3400084F4E34000EB8300C36A01F01F011F2433
:10F350008C4002F01F02A3438A401343C36210BDD6
:10F3600070B54FF0007494FAA4F401F00073B4FA8D
:10F3700084F4E34000EB8300C3684FF0F87494FA20
:10F38000A4F501F0F871B5FA85F521FA05F507261F
:10F39000AE4094FAA4F4B4FA84F4E140B3438A4052
:10F3A0001343C36070BD000002490A6882430A60CB
:10F3B0007047000030380240044908B50A6802432B
:10F3C0000A6009680140009108BD00003038024021
:10F3D000044908B50A6802430A60096801400091BF
:10F3E00008BD000030380240044908B50A680243ED
:10F3F0000A6009680140009108BD000040380240E1
:10F4000002490A6802430A6070470000203802403F
:10F4100002490A6882430A607047000020380240AF
:10F4200002490A6882430A6070470000443802407B
:10F43000044908B50A6802430A600968014000915E
:10F4400008BD00004438024002490A6802430A60CD
:10F45000704700002438024002490A6882430A606B
:10F4600070470000243802400146084A00209142BB
:10F4700009D107490A6842F480520A600A6822F4F6
:10F4800080520A607047012070470000003002403F
:10F49000103802402DE9F041564A0C4605465548C1
:10F4A00000265549103A14F5803F17D0534B1B5D89
:10F4B000EF5827F00107EF50954225D1ACB3012C4E
:10F4C0005CD0022C60D0032C64D0042C68D0052CB6
:10F4D00070D0062C74D0072C78D024E04848954290
:10F4E00007D1016841F400110160016821F40011A5
:10F4F00008E08D423AD1016841F480010160016861
:10F5000021F48001016032E08D420CD194B3012CD2
:10F5100037D0022C3BD0032C3FD0042C47D0052CF5
:10F520004BD0062C4FD03448B830002101604160E8
:10F530008160C1600161212141610022214628468C
:10F5400000F0AEF83F2074B34FF47461012C42D048
:10F550000204022C41D00B04032C40D0042C40D0D8
:10F56000052C40D0062C40D0072C40D00126304638
:10F57000BDE8F081FFE720481030D6E71D4818307D
:10F58000D3E71D482830D0E71A483030CDE71A4875
:10F590004030CAE717484830C7E717485830C4E733
:10F5A00014486030C1E714E004E009E00EE01248BE
:10F5B0007030BAE70F487830B7E70F488830B4E7C3
:10F5C0000C489030B1E70C48A030AEE70948A830AD
:10F5D000ABE7A860CBE7A960C9E7AA60C7E7AB6063
:10F5E000C5E7E860C3E7E960C1E7EA60BFE7EB6051
:10F5F000BDE7000010600240006402405C14030894
:10F60000103802402DE9F041D2E902431C43D2E90F
:10F6100004352B431C4393691C43D3691C43936AF1
:10F620001C431D4B5D5C46591C4F3E4026434651D2
:10F63000D56AD5B15E5C00F11404176B56F804C0AE
:10F640003D432CF0070C4CEA050C46F804C05C5C0A
:10F65000556B065926F0C0762E4306515D5C946BBF
:10F66000465926F4C006264346515E5C00F10C055F
:10F67000546874515E5C2D1F146874515B5C051DE9
:10F68000146A5E596FF30F0626435E51526A00F00A
:10F6900007F80020BDE8F0815C1403081F80FCFF20
:10F6A000034B595C435823F0606313434350704746
:10F6B0005C140308084900200860091D0860091D42
:10F6C0000860091D0860091D0860091D6FF07F4072
:10F6D0000860002070470000003C014030B5264A19
:10F6E000002405790168131F85B371B345798DB185
:10F6F000012D17D0022D18D0012483792BB31E4978
:10F7000008310A1F012B18D0022B20D0032B22D046
:10F71000012428E015688D43156001681A680A43C2
:10F720001A60EAE71D688D4301E01D680D431D6006
:10F73000016813680B431360DFE703680D689D439E
:10F740000D6000681168014311600CE00DE0036872
:10F7500015689D4302E0036815681D431560006845
:10F760000A6802430A60204630BD1D688D431D6053
:10F77000006811688143E7E7043C014003490968D8
:10F78000884301D00020704701207047143C01409D
:10F79000F0B50A680F2692FAA2F2B2FA82F30324B5
:10F7A0008AE001279F4015EA07027DD04D68012DB0
:10F7B00001D0022D1BD18D68876892FAA2FCBCFA99
:10F7C0008CFC4FEA4C0C04FA0CFC27EA0C0792FA6A
:10F7D000A2FCBCFA8CFC4FEA4C0C05FA0CF52F434A
:10F7E0008760CD684768554397432F4347600F694B
:10F7F000D0F80CC092FAA2F5B5FA85F54FEA450E9D
:10F8000004FA0EF52CEA050C92FAA2F5B5FA85F584
:10F810006D00AF404CEA070CC0F80CC04D68022DDB
:10F8200033D192FAA2F5B5FA85F5082D15D2D1F8A3
:10F8300014C0056A92FAA2F7B7FA87F7BF0006FA72
:10F8400007F7BD4392FAA2F7B7FA87F7BF000CFAA1
:10F8500007FC45EA0C05056217E0D1F814E0476A99
:10F86000150A95FAA5FCBCFA8CFC4FEA8C0C06FA3A
:10F870000CFC95FAA5F5B5FA85F5AD0027EA0C075D
:10F880000EFA05FE47EA0E0747624D68076892FACE
:10F89000A2FCBCFA8CFC4FEA4C0C04FA0CFE27EAE2
:10F8A0000E0792FAA2F200E005E0B2FA82F25200EC
:10F8B00095402F4307605B1C0A681546DA407FF4C9
:10F8C00070AF0020F0BD0069814301D00020704777
:10F8D000012070474FF47A71B0FBF1F14FF0E02056
:10F8E000491E4161002181610521016170470000CD
:10F8F00003490A6822F4407202430A60704700001C
:10F9000070380240503050F821007047503040F8B5
:10F910002120704710B54903029CDBB2E4B241EAF2
:10F92000044141EA0321D2B211434268024B1A401A
:10F930000A43426010BD0000C00000FFF8B5144645
:10F940000F0005464FF0010606D16078C10603D5C9
:10F9500020F010000A306070CA206862532068628C
:10F96000284600F03FF8012831D0E0781FB1009020
:10F970006378A2781EE00A21B0FBF1F201FB1202CB
:10F98000B0FBF1F042EA00106278C0B2B2FBF1F3D2
:10F9900001FB1323B2FBF1F243EA0212D3B2A278C5
:10F9A0000090B2FBF1F601FB1626B2FBF1F146EA3C
:10F9B0000111CAB221782846FFF7ACFF08496FF061
:10F9C0008000C860A868C0F3401020B10026FF2066
:10F9D00068623046F8BD284600F0B4F80646F6E7FF
:10F9E0000028004018B54FF47A710091C1680022D8
:10F9F000C1F38011A9B9511EC160C1684FF0E02365
:10FA0000C1F380110BE01969C1F3004111B10099F4
:10FA1000491E0091C168009CC1F380111CB10029EE
:10FA2000F1D0104618BD0122FBE770B5044601264F
:10FA3000CA200D466062532060622046FFF7D2FF65
:10FA4000012816D02868A16821F040010143A16077
:10FA5000A86821696FF30E0101432161A88821691B
:10FA600021F4FE0141EA004020616FF08000E06077
:10FA70000026FF206062304670BD000010B5D2B293
:10FA800041EA0241DAB2029C41EA0221E2B21143A8
:10FA90000268024B1A400A43026010BD808080FF5A
:10FAA000F8B505460F460126A9681446002011F056
:10FAB000400F00D12060CA20686253206862284647
:10FAC000FFF790FF012832D027B1A0790090637929
:10FAD00022791FE0A1790A20B1FBF0F200FB12129B
:10FAE000B1FBF0F142EA01116279C9B2B2FBF0F365
:10FAF00000FB1323B2FBF0F243EA0212D3B22279E5
:10FB00000091B2FBF0F600FB1626B2FBF0F046EADD
:10FB10000010C2B228462168FFF7B0FF08496FF015
:10FB20008000C860A868C0F3401020B10026FF2004
:10FB300068623046F8BD284600F004F80646F6E74D
:10FB40000028004038B54FF47A740094C268002150
:10FB500002F0800262F0A002C260C2684FF0E023AF
:10FB6000C2F340120BE01A69C2F3004212B1009ACC
:10FB7000521E0092C268009DC2F34012B5B1002A25
:10FB8000F1D189B90094C268C2F340120AE01A693F
:10FB9000C2F300420AB1621E0092C268009CC2F326
:10FBA00040121CB1002AF2D0084638BD0121FBE703
:10FBB00070B502461A4B01201A491B4D1B4E1C4CB6
:10FBC0009A4207D1086840F480500860086820F421
:10FBD000805021E0134B1B1FAA4209D1186840F442
:10FBE00080401860186820F48040186000200AE007
:10FBF000B24208D1186840F400401860186820F438
:10FC00000040186009E0A24208D1086840F40050A2
:10FC10000860086820F400500860002070BD0000F3
:10FC2000003001402438024000380040003C0040D1
:10FC30000034014010B503680122C3F380132BBBCD
:10FC4000D1E900231A43D1E9023423431A430B6953
:10FC50001A434B691A438B691A43CB691A430B6ADF
:10FC60001A4303684FF6BF74A3431A430260426805
:10FC70004B6922F0040242EA134242600A6AB2F57A
:10FC8000005F02D1898C89B201610022C16921F42F
:10FC90000061C161104610BD0A06930D074A1A445F
:10FCA000D2F8083823EA1143090C91FAA1F1B1FA0C
:10FCB00081F188400343C2F80838704700300140A2
:10FCC0000149086070470000001800200A7B8B681B
:10FCD0001A434B6822F480621A430B6822F40062D4
:10FCE0001A43CB8922F480521A430B6922F4005242
:10FCF0001A434B6922F480421A4322F4004119430B
:10FD0000416400207047000070B5234900248842F8
:10FD100004D10120FFF798FB012036E0B0F1804FBD
:10FD200007D01E49884209D10220FFF769FB022053
:10FD300013E00120FFF764FB01200EE01849884220
:10FD400004D10420FFF75CFB042006E0154988423B
:10FD500006D10820FFF754FB0820FFF759FB18E0F5
:10FD60001149884202D14FF480350AE00F49884298
:10FD700002D14FF4003504E00D49884208D14FF418
:10FD800080252846FFF760FB2846FFF765FB00E06B
:10FD90000124204670BD0000000001400004004026
:10FDA00000080040000C00400040014000440140B9
:10FDB00000480140F0B502681D4B1E4C9F031E4DCC
:10FDC0001E4E984207D0B84205D0A04203D0A842A8
:10FDD00001D0B04205D1D1F804C022F0700242EA4D
:10FDE0000C02984210D0B8420ED0A0420CD0A842CB
:10FDF0000AD0B04208D0124CA04205D0114CA0420B
:10FE000002D0114CA04203D1CC6822F440722243AC
:10FE100002608A68C2620A888262984201D1097CC3
:10FE20000163416941F0010141610020F0BD000022
:10FE3000000001400004004000080040000C0040A9
:10FE4000004001400044014000480140012919D010
:10FE5000042919D0102919D0402919D0B1F5807F73
:10FE600018D0B1F5806F17D006210C4A1830525CBB
:10FE700010440268094BDB1D5B5C042199408A43F6
:10FE8000026070470021F0E70121EEE70221ECE774
:10FE90000321EAE70421E8E70521E6E7681C0308F7
:10FEA000012919D0042919D0102919D0402919D0B5
:10FEB000B1F5807F18D0B1F5806F17D006210C4ABC
:10FEC0001830525C10440268094BDB1D5B5C082152
:10FED00099400A43026070470021F0E70121EEE7F4
:10FEE0000221ECE70321EAE70421E8E70521E6E740
:10FEF000681C0308F0B501250023604C012908D0D7
:10FF0000102933D0B1F5807F64D0B1F5805F5FD127
:10FF100090E0016A21F001010162016A4568866989
:10FF2000176826F073063E43176921F00201394332
:10FF3000576821F001013943A04212D1546921F0E0
:10FF4000080141EA8401946821F0040141EA840136
:10FF500025F4807495692C43D56924F4007444EA2F
:10FF6000450545608661D26842632FE0016A21F051
:10FF700010010162016A45688669176826F4E64641
:10FF800046EA0726176921F0200141EA0711576860
:10FF900021F0100141EA0711A04213D1546921F068
:10FFA000800141EA8411946821F0400141EA841102
:10FFB00025F48064956944EA8504D56924F40064D5
:10FFC00044EAC50545608661D268826301621D46C8
:10FFD0002846F0BD016A21F480710162016A45681A
:10FFE000C669176826F073063E43176921F400714D
:10FFF00041EA0721576821F4807141EA0721A042B4
:020000040802F0
:1000000013D1546921F4006141EA8421946821F4F8
:10001000806141EA842125F48054956944EA0514FD
:10002000D56924F4005444EA45154560C661D26898
:10003000C263CBE7016A21F480510162056A41681D
:10004000C669176826F4E64646EA0726176925F4C6
:10005000005545EA0735576825F4805545EA0735C8
:10006000A04204D1946921F4804141EA84114160A5
:10007000C661D16801640562A9E700000000014083
:100080000E4910B5097849B140B1BDE810404FF4B0
:10009000897332220A490B48F6F784BB6FF07F4020
:1000A000FAF77AFE0848FAF781FE3221BDE81040DF
:1000B00040F20F122620F8F733BB00003819002059
:1000C0006BF90500718C0108687E03081CB590B1BE
:1000D0003620ADF800001420ADF802004220ADF843
:1000E00004001920ADF806008723882269460748D6
:1000F00001F04CFC1CBD0020FAF74EFE8C2394222C
:1001000087218820F8F7E6FD1CBD000092E6060076
:10011000F8B52A482A492B4D0068002601272A4CA9
:10012000884207D12948007820B1287808B1A67004
:1001300000E0A7700220FAF76FFE02F08DFB242189
:1001400023A001F0C5FC73225221244810F050F97D
:1001500028780A2510B16770214E01E06670214EA3
:100160003088B0FBF5F003F095FE3088B0FBF5F079
:10017000A080A07800B30020FFF7A8FF1A48FAF784
:100180000BFE0320F7F7B2FE1220009040F22F136F
:10019000E12240F20B110F20F7F710FDA1780020AB
:1001A000F4F74EFCA1780120F4F74AFC02F062FB60
:1001B000BDE8F84002F05EBB0120DDE79C1B00209B
:1001C0007D940208381900209C1C00208D1B002003
:1001D0004C4F434B205245534953000092E60600D2
:1001E00042190020401900204E53570010B5FDF76A
:1001F000EFFC1848017879B100210170012009F065
:1002000041FBFFF785FF144901200870134814498A
:100210000088088013490880134C2078032812D0E6
:100220000C2812D000F026F80120F0F78FFD0120F5
:10023000F7F764F804F084FEF1F7F4FFF5F758FFE0
:100240000D20207010BD094800E009480BF0B8F8F7
:10025000F4E700008C1B0020ED1A0020A41B0020F6
:10026000921B0020901B0020AB1B0020B92301082B
:10027000098F020870B586B001250026CDE9016519
:100280006420CDE90350324C009502230822A17866
:100290003048FDF769FBC1B2A07881420CD0A17053
:1002A0000020F4F7CDFBA1780120F4F7C9FBA0787A
:1002B00038B10020FFF70AFF27480078042802D051
:1002C00039E00120F6E7254A25491078042806D0B0
:1002D0002448007803280CD2062313700DE0224A2C
:1002E0001078012801D9801E07E004201070022038
:1002F00003E0072111701D49C01E0870A1781C4839
:1003000009B106700AE01B4941F256330988A1F190
:1003100032029A4206D805701748018017480BF040
:1003200057F808E016480BF04BF8174915480860D5
:1003300016491248086016480078012805D106B011
:100340000E48BDE870400BF043B806B070BD000029
:100350009C1C0020E31A0020F31A0020A71B002099
:10036000A91B0020431C0020441C0020AA1B0020C5
:10037000381900204019002042190020AD0F020852
:10038000D5AB0208FD1F0208241C0020A01B002082
:10039000E11A002070B51849164800250B88C2786C
:1003A00016490124BAB10246C67912792EB1642ADF
:1003B00001D2521C03E0C57104E012B1521E027159
:1003C00000E0C4710E4A0079105C58436422B0FB0F
:1003D000F2F0086070BD0A689A420A6803D9521E9A
:1003E0000A60C57170BD9A42FCD20A68521C0A604C
:1003F000C47170BD8A1D00202A1900203C040040F1
:100400009325030801490020888170471E190020A8
:1004100001498881704700001E1900201CB50E4854
:1004200040F22312407E20B16E210C480FF0E0FF15
:100430001CBD6E20ADF800002120ADF80200802028
:10044000ADF804003120ADF8060013466E2269466F
:10045000034801F09BFA1CBDB41B0020F29311006D
:10046000F2C8140010B50020FAF794FCF8F73AF837
:10047000362238210F480FF0BBFF882289210E4811
:100480000FF0B6FF0D48FAF791FC0D48FAF784FC1F
:10049000DD2278210BA0F8F71BFA6FF07F40FAF706
:1004A0007BFCFD22782108A0F8F712FA09491E20EA
:1004B000088010BD82A70C00AA1F0D0070CA030897
:1004C00000EFFF004C4F570041544F4D495A4552E1
:1004D00000000000AE1B002010B50020FAF75AFC07
:1004E000F8F700F8372255210F480FF081FF9922C5
:1004F00075210E480FF07CFF0D48FAF757FC0D48A8
:10050000FAF74AFCDD2278210BA0F8F7E1F96FF049
:100510007F40FAF741FCFD22782108A0F8F7D8F9CE
:1005200008493220088010BDAE97070072D307003B
:1005300070CA030800EFFF004C4F5700424154546B
:1005400045525900AE1B00202DE9F047454C0646A8
:1005500000276083E078A8B143480088B0F5897F20
:1005600017D3424D42F20F784FF001092888B0426C
:100570002AD3404528D2F6F769F9E07D217908436E
:1005800009D021E03A48007818B13A4800780028AC
:10059000E7D1092030E084F8179003F069F900EB07
:1005A000800149000922B1FBF2F229888A420BD26C
:1005B0000A30884208D23049042008702F4932207E
:1005C00008800020BDE8F0872888B0EB560F01D2E4
:1005D000052011E0B04201D208200DE0404501D3D2
:1005E000062009E041F28831884201D9072003E062
:1005F00001F0F8FD18B10B20F6F7C8FA2FE06421DE
:10060000217145F2F050E0830020A072E072208357
:100610006073A073E073A0702A88E28420856085EF
:10062000A085E085208620646064A06420740A228E
:100630006274E064A074124A2065E07410805080F7
:10064000104A1070104A107021750D20A07502F02C
:10065000FBF80120F3F7F0F984F80C9001273846F5
:10066000B0E70000F81A0020B61900204419002055
:10067000A2190020A31900203F19002046190020CC
:10068000F0190020991900209A19002010B50022B5
:10069000114603480FF0ACFE02491E20088010BD31
:1006A0003A4F0A00AE1B0020014900200881704724
:1006B0001E19002001490881704700001E19002002
:1006C000F8B5134C00251349A575642601230A22A9
:1006D00008460096F4F748FD6078401CC0B2607090
:1006E000142813D965702078401CC0B220700628E9
:1006F00000D3257000962078074900EB800001EBBD
:10070000800001230A220349F4F72EFDF8BD000002
:10071000B41B0020F0200308081E0308F0B53F4D6D
:1007200091B02846FEF766FD3D48016841F48071AE
:1007300001600068032600F480700F901E20CDE950
:1007400000060024694604943648FFF721F8009615
:100750006946354801960494FFF71AF80B940C94F7
:100760000BA928460D94FEF7A1FD304E706820F4C9
:10077000400040F4000070602D4F69153A4628464D
:10078000FEF7D6FD022239462846FEF7E9FD022291
:1007900028492846FEF7E4FD022227492846FEF7AD
:1007A000DFFD022225492846FEF7DAFD0222244910
:1007B0002846FEF7D5FD022222492846FEF7D0FD45
:1007C000022221492846FEF7CBFD02221F49284676
:1007D000FEF7C6FD04221E492846FEF7C1FD04228D
:1007E0001C492846FEF7BCFD06940794089409941A
:1007F00006A928460A94FEF773FDA86820F48060D5
:10080000A860F8030E900EA93046FEF7E1FCA86838
:1008100040F00100A86011B0F0BD000000200140D0
:10082000443802400000024000040240002301401E
:1008300002006002030090020400C0020500F00202
:100840000600200307005003080080030900B003DE
:100850001000208111005081F0B599B00220FEF700
:10086000C3FD4FF47A70ADF8500000246820CDE944
:100870001540314D17948DF8604014A92846FFF7B4
:1008800099FAAE1431462846FFF70AFBAF153946F0
:100890002846FFF705FB602000900120CDE9010408
:1008A0000394049406946A46314628460794FFF759
:1008B00021FB6A46394628460394FFF71BFB314665
:1008C0002846FFF7C3FA39462846FFF7BFFA68689B
:1008D00020F070006860A86820F08000A86008948C
:1008E0006814CDE90C048DF82C4009940A94ADF8F5
:1008F0002E4008A92846FFF7E9F94FF440700E9002
:100900000220CDE90F04CDE912400EA911940B4845
:10091000FEF73EFF286840F001002860686C40F454
:1009200000406864286A40F480502862286A40F4D5
:100930008070286219B0F0BD000400400008024039
:1009400070B594B00420FEF74FFD0126ADF8386075
:1009500000257720CDE90F50254C11958DF8485092
:100960000EA92046FFF726FA01212046FFF798FA44
:1009700060200090CDE90165039504956A46012148
:1009800020460695FFF7B6FA01212046FFF75EFAEA
:1009900010212046FFF784FA6A4610212046FFF70F
:1009A000A9FA10212046FFF751FA606820F0700084
:1009B0006060A06820F08000A060C0200890022045
:1009C000CDE90A05CDE90C50099008A90948FEF7C0
:1009D000DFFE206840F001002060606C40F40040C1
:1009E0006064206A40F01100206214B070BD000005
:1009F0000008004000040240054808B5016841F4C1
:100A000080510160006800F48050009008BD000033
:100A1000303802402DE9F04F044689B00420FEF73B
:100A2000CBFC8020FEF7C8FC0120FEF7C5FC0220AD
:100A3000FEF7C2FC0820FEF7BFFC554E554F564846
:100A4000DFF85881DFF858916CB148F2C10171614B
:100A50004FF23D21796141F6FF4141610421C8F81F
:100A6000141001210CE048F2E101716140F23D21D6
:100A700079614FF4E05141610421C8F8141000215C
:100A8000C9F8141001250024CDE90154690300912F
:100A90000394049469464048FEF77AFE4FF484605C
:100AA0004FF0030A00906946B346CDF808A03046DF
:100AB000FEF76EFE4FF20420009069463846FEF7BE
:100AC00067FEFF20009069463348FEF761FE042070
:100AD000009069464046FEF75BFE69464846CDF801
:100AE00000A0FEF755FE0226CDE90265CDE90054CF
:100AF000694658460495FEF74BFE28030090694668
:100B00002548FEF745FE402769465846009704945D
:100B1000FEF73EFEE8030090694604965846FEF74D
:100B200037FE4FF44060009069461B48FEF730FEE8
:100B30001C48D0F808184FF4706292FAA2F2B2FA88
:100B400082F221F4706104FA02F21143C0F808182D
:100B50008DF81C508DF81D4006978DF81E5006A884
:100B6000FEF7BCFD104880F800444FF0E021E80596
:100B7000C1F800010D48017839B104705FF001003F
:100B800007F082FC09B0BDE8F08F05700020F7E7A0
:100B9000000002400004024000080240000C024035
:100BA000001C02400430014017E000E08C190020D6
:100BB00030B599B04FF40030FEF73AFC4FF47A703C
:100BC000ADF8500000246820CDE91540274D17945A
:100BD0008DF8604014A92846FFF7ECF8012128465B
:100BE000FFF75EF9602000900120CDE90104014685
:100BF0000394049406946A4628460794FFF77AF90A
:100C000001212846FFF722F9686820F0700068602B
:100C1000A86820F08000A86008946814CDE90C044E
:100C20008DF82C4009940A94ADF82E4008A9284666
:100C3000FFF74CF8A8150E900220CDE90F04032011
:100C4000CDE912400EA911940948FEF7A1FD2868CC
:100C500040F001002860686C40F400406864286A35
:100C600040F00100286219B030BD0000004401408E
:100C700000040240F0B599B00120FEF7B5FB40F644
:100C8000B830ADF8500000241320CDE915404FF0E6
:100C9000804517948DF8604014A92846FFF78AF81C
:100CA000AF1539462846FFF7FBF860200090012673
:100CB000CDE901640394049406946A4639462846B3
:100CC0000794FFF717F939462846FFF7BFF8686819
:100CD00020F070006860A86820F08000A860089488
:100CE0006814CDE90C048DF82C4009940A94ADF8F1
:100CF0002E4008A92846FEF7E9FF28150E9002208D
:100D0000CDE90F04CDE912460EA909481194FEF76A
:100D10003FFD286840F001002860686C40F4004006
:100D20006864286A40F48070286219B0F0BD000041
:100D300000040240F0B599B00120FEF779FB0126CE
:100D4000ADF8506000246520CDE915402F4D179473
:100D50008DF8604014A92846FFF72CF80121284699
:100D6000FFF79EF860200090CDE90164039404949D
:100D7000059406946A46012128460794FFF7BAF8BD
:100D800001212846FFF762F810212846FFF788F86E
:100D9000A815022706906A46102104972846FFF7F7
:100DA000A9F810212846FFF751F8686820F0700074
:100DB0006860A86820F08000A86008946814CDE9F5
:100DC0000C048DF82C4009940A94ADF82E4008A923
:100DD0002846FEF77BFF4FF44070CDE90E07CDE9C2
:100DE0001074CDE912460EA90948FEF7D1FC286817
:100DF00040F001002860686C40F400406864286A94
:100E000040F01100286219B0F0BD00000000014060
:100E1000000002403EB50D48016841F40041016008
:100E2000002000907F200190FF20094C029069462D
:100E30002046FEF7FAFD206940F4FE00206120699B
:100E40006FF30E0040F0FF0020613EBD703802409D
:100E5000002800402DE9F041A0B038200226CDE95D
:100E6000190603200024CDE91B040520CDE91D400F
:100E700019A93C48FEF78CFC3B4D2846FEF798FE2E
:100E80003A48016841F48051016000680FA900F4FC
:100E900080501F904FF48270CDE90F40CDE911468C
:100EA0006815CDE91404012613960A201694CDE99D
:100EB00017402846FEF7BEFE686820F01000686004
:100EC000686840F002006860686840F0010068608F
:100ED000286840F040002860DFF8948002214046F6
:100EE000FEF7D8FA03214046FEF7D4FA1F4814381B
:100EF000016841F4800101600068029400F4800000
:100F00001F90CDE90B46184F0D940C37B002079493
:100F1000039400970E94CDE905044FF0C065681264
:100F20000494CDE909506A4602214046FEF76AFB67
:100F3000CDE90B4640200D940794CDE902040594B9
:100F40000E94069400970494CDE909546A4603214F
:100F50004046FEF757FBFF2003F0EEFB20B0BDE854
:100F6000F08100000004024000300140443802409B
:100F70000064024010B500220849094806F0B5FA9D
:100F80000849074806F0D1FC0749054806F0D8F89B
:100F9000BDE81040024806F015BD000014180020FE
:100FA000C41F0020A4180020801800202DE9F04163
:100FB000414C0026207820B940480078012800D113
:100FC0000126FCF705FE20783D4F002510B10EB13B
:100FD00002263D703B483C4C0178C9B105703B4846
:100FE0004FF001080570A07908B984F8198000F065
:100FF00015FB6420A071207F18B9022E01D087F85C
:1010000000803348334925770088088032490880BA
:10101000324E334D3078C01E0A2830D2DFE800F05F
:10102000052F070C17121C21262B2E4824E02E48D2
:101030000AF0C6F92D4803E02B480AF0C1F92C4804
:10104000286031E028480AF0BBF92A48F8E726482A
:101050000AF0B6F92848F3E723480AF0B1F927481F
:10106000EEE721480AF0ACF92548E9E71E480AF006
:10107000A7F92448E4E724480AF0A2F914E0607EC6
:10108000C0B1002008F0FEFB00F08EF905F07EF9FB
:101090000120EFF75BFE0120F6F730F903F050FF77
:1010A000EFF78EFFF1F7BEF8F4F7CCFD0D203070AE
:1010B000BDE8F0810120E5E75B1D0020BC1A00209F
:1010C000ED1A00208C1B0020B41B0020B01B002058
:1010D000A41B0020921B0020901B0020AB1B0020B3
:1010E000241C0020B9230108D5AB0208E1580208EE
:1010F000FD1F02086504020879D30108D90402081B
:10110000555D020831220208098F02081F4810B5F8
:1011100001881F4809B9012101701E49097879BB6E
:101120001D490978042907D01C490978042903D0EE
:101130001B49097821B126E01A480AF049F91DE057
:10114000017821B11849097804291AD01BE0174801
:101150000078042803D116480078032803D11548E5
:10116000007804280FD114481449006888420AD036
:1011700014491348086011480AF022F9012010BDF3
:1011800001E0002101700020F9E70000901B002021
:10119000281C0020CD1B0020EF1A0020EE1A002092
:1011A000041B0020C9110208F31A0020F21A0020C3
:1011B000F11A0020F01A0020941B0020D5AB020881
:1011C0008D060208241C002010B5FCF701FD19480B
:1011D000017879B100210170012008F053FB00F083
:1011E000FFFC154901200870144815490088088043
:1011F00014490880144C2078032810D00C2812D0F1
:1012000000F02CF80120EFF7A1FD0120F6F776F8A9
:1012100003F096FEF1F706F80D20207010BD0B4884
:101220000AF0CEF8F8E70A480AF0CAF80A4909486D
:101230000860F1E78C1B0020ED1A0020A41B0020A1
:10124000921B0020901B0020AB1B0020B92301083B
:10125000098F020849900208241C00202DE9F04162
:10126000FCF73EFB29480078012814D02848007874
:10127000042849D127490024012508690226274A64
:1012800003782548092B3FD2DFE803F0070C0E1A3C
:101290001C3537390500224832E00470887821492E
:1012A0000870F8E708211EE0C978032903D2062355
:1012B00003701170EFE7072202701B48C91E12E08D
:1012C0000570E8E7097959B101290BD004230229F7
:1012D0000BD003290CD00429DDD103701670DAE796
:1012E000032100E005210170D5E703701470D2E7F7
:1012F00003701570CFE70670CDE70C4800E00C488E
:10130000BDE8F0410AF064B8BDE8F081E11A0020C0
:10131000F31A0020401C0020A71B0020A91B00205E
:10132000AD0F02083C1D0020AA1B0020DD4A010869
:101330006562020810B5FCF7D3FA1148007801285D
:1013400012D010480078042819D10F48006800789E
:1013500060B101280FD002280FD003280FD10B480D
:10136000BDE810400AF034B80948F9E70A490948CD
:1013700008600A48F4E70A48F2E70A48F0E710BDB7
:10138000E11A0020F31A0020501C0020C9110208A5
:10139000AD0F0208DD4A01080C1C002075960208FA
:1013A0007D940208593801082DE9F04F85B00120DD
:1013B000EFF7E8FA002610B1FFF730F8F9E08648B9
:1013C000407E0028FAD1FFF7A1FE8448844A0A2310
:1013D000007848B1082807D0142101282CD006280D
:1013E0004BD0072849D0C2E07E4C4FF47A70218858
:1013F00081421DD8814203D17B480078082817D04C
:10140000B1FBF3F003FB101020B9107808280FD0BF
:1014100002280DD001203223CDE9013040F698009A
:101420001E220090CDE903620223082209B21BE0CC
:101430000A20F0E7208098E06C4C2588B5FBF3F09B
:1014400003FB105020B91078082814D0022812D0BD
:101450005FF00100CDE901604FF461700090CDE9CB
:1014600003610223082229B25F48FCF77DFA218834
:101470008842DFD17BE00A20ECE75D4F5D4C5E4D9A
:101480003A784FF0640A012040F23B184FF4167985
:10149000A2B1C822CDE90230CDE9009204912088A2
:1014A000022301B208225048FCF75EFA21888842E4
:1014B0005DD048453ED1C82938D043E00522CDF85B
:1014C0000080CDE901A28346CDE9030128880223EB
:1014D00001B208224448FCF747FA2988884246D0DE
:1014E000404506D164290FD187F800B0A4F80090D8
:1014F00007E0642808D1414506D187F800B0C8202C
:10150000208005F07DFC30E0288000EBC001052044
:10151000B1FBF0F0203080B22080C82801D2C82072
:1015200088E7484521D9A4F800901EE03E70A5F850
:101530000080E6E7C82805D1494503D13E70A5F8EB
:1015400000A0DEE72080203800EB8000092190FB1E
:10155000F1F080B22880642802D2A5F800A004E04F
:10156000B0F59E7F01D3A5F80080F4F769F9234810
:1015700000780A281DD11848184C21498165207827
:1015800030B1032806D0052806D0042806D008E08C
:101590001C4804E01C4802E01C4800E01C4809F01C
:1015A00017FF2078062801D0072802D1194809F032
:1015B0000FFF0A48007808B1082809D116480178B9
:1015C000002905D0067005B0BDE8F04FF4F738B932
:1015D00005B0BDE8F08F0000B41B0020A71B002061
:1015E000EC1A00203E1D0020E31A0020381D0020C8
:1015F000A81B0020341D0020321D0020E51A002009
:10160000AD0F02087596020891420108B532010833
:10161000212E010835650208391C002070B53849B3
:101620000120384C08704FF470453749E58400209C
:10163000207108800220F9F7EFFB01F00DF94FF45B
:101640008172002131480EF0D3FE3148007880B11C
:10165000012811D0022812D0062813D0072814D050
:10166000032815D0052816D0042817D0082818D02C
:1016700019E009F0D1FC16E008F05AF913E0F1F78F
:101680005DFB10E005F02AFB0DE005F023F90AE010
:10169000F2F7FAFE07E0F1F711FF04E0F1F7ACFC16
:1016A00001E003F091FA2584FEF7B8FEE5836FF0C0
:1016B0007F40F9F771FB1748F9F778FB40F22312E6
:1016C000DB215320F7F72CF82585F0F7EFFD1248C2
:1016D000F9F762FB0B23CF220A21CE20F7F7FAFAA3
:1016E0001123CF221021CE20F7F7F4FAF020E07575
:1016F0002076F4F7A7FABDE8704001F0BBB800000F
:10170000281C0020B41B0020AE1B0020F2C81400CF
:10171000A71B0020687E03083C86B5002DE9FF4F1B
:101720009BB00020159016901B989B4614460D46C2
:10173000DDF8A0800A3003F0D1F813901B98123026
:1017400003F0CCF80F901B98163003F0C7F80E90FA
:10175000139846287ED11021ADF81A100021089167
:1017600001208649ADF8160009910F991F2202EB5E
:101770000111490989001491A9882A888A1A02EB63
:101780000B010FB2EA886988521A02EB08017D4A00
:101790000FFA81F9CDE900027949A9EB080302911A
:1017A000A7EB0B0258464146521C5B1CF8F756FB50
:1017B0001890F8F7DFFC0020F9F7EEFA4B463A46AE
:1017C00041465846F7F786FA6FF07F40F9F7E4FA9A
:1017D000A0470FFA88F6BBE06888A6EB080108442A
:1017E00001B21098029161F31F4010900C984FF0D5
:1017F000000A61F31F400FFA8BF40C90A3E031460E
:101800002046F8F749F8BAF1000F05D0BAF1000FF9
:101810000ED001280FD10CE0012809D12988A4EBB2
:101820000B00014410984FF0010A61F30F00109073
:1018300087E0BC427DD12988A4EB0B0008440C99B9
:1018400000B260F30F010C9110994FF0000A09B239
:10185000199100E08EE00F9A914277D80E9A029982
:10186000914273D80F99884204D3481E0C9960F3B3
:101870000F010C910C980114914204D30C99501E45
:1018800060F31F410C910C9801B21998081A1A9034
:101890004000801C0B90199841000298101A139A6E
:1018A000401E0A441B9900B21144149A02FB001016
:1018B0000A901598D8B1002015901698C8B102F07A
:1018C000EBFF1598C0EB00112F4800EB4111DDE94B
:1018D0000A0202F0B1FF2998F8F74CFCDDE9111279
:1018E00005A8F7F7E1F81898F8F744FC0BE0012099
:1018F000E2E71598C0EB0011234800EB4111DDE948
:101900000A0202F099FF1A984FF6FF71401CADF8D9
:10191000140001EA4000ADF8180001201690298853
:101920001998411A01EB0B0000B2CDE91106159888
:1019300001E006E00AE0C0EB0011134800EB4110A3
:101940000790641C24B2BC427FF759AF761C36B2B4
:101950004E457FF741AF2998F8F70CFC169830B147
:1019600002F09AFFDDE9111205A8F7F79DF8189823
:10197000F8F78AFA1FB0BDE8F08F000024E20308F0
:10198000B0E2030838EA0308302A00202DE9FF4FAF
:10199000074687B098460026D1F800904C680A3078
:1019A00002F09CFF824607F1120002F097FF054605
:1019B00007F1160002F092FF0FFA89F2AA4206D848
:1019C0004FEA2941814202D8BAF1460F03D00120E3
:1019D0000BB0BDE8F08F23B2AB4202D36B1E63F3B2
:1019E0000F042314834202D3431E63F31F44A31A3C
:1019F0005B1C9BB2ADF800304FF0010CADF802C09B
:101A00004FF6FF7C0CEA4303ADF804304FF0100CA6
:101A1000ADF806C04FF0000CCDF80CC00593DFF810
:101A2000A4C0CDF810C0C1EB24434FF01F0C5200EE
:101A3000401A0CEB051546326D09401E17444FEA5B
:101A4000850984B25B1C09FB04701FFA83FA1E49E6
:101A5000059A02F0F1FE012520E0641E1A48A4B2A6
:101A6000C6EB061109FB047B00EB4110029036B374
:101A70005FF0000602F010FF1348C6EB061100EB02
:101A800041115846059A02F0D7FE424608F1010876
:101A900068460999F7F708F86D1CADB25545DCD3D7
:101AA0000948C6EB061100EB4110029002F0F4FE6B
:101AB000424668460999F6F7F7FF002088E70126B5
:101AC000D8E7000024E20308302A00200DF0AEFF22
:101AD00070B50C4605460022114616480EF088FCEB
:101AE0000020F9F759F940F23F13EF222921002095
:101AF000F7F7F0F86FF07F40F9F74EF90E48F9F775
:101B000055F90C2278212846F6F7E2FE0B48F9F742
:101B100043F90320F6F7EAF9032215212046F5F7E9
:101B2000A1FEC4F1F000BDE8704003221521F5F7D5
:101B300099BE000063D6020070CA030800EFFF00E0
:101B400070B5224D286969690078087028690178A4
:101B50006879401E814201D1012100E000211CA0D2
:101B6000F3F77CFE00242CE0A86850F82400F5F779
:101B7000CDF886B2A86850F82400F5F7D3F881B202
:101B8000E86800EB440210F814005278A2EB51020E
:101B9000A0EB5601A86850F824000EF029FC286933
:101BA0000078A0420BD1E86800EB440110F8142043
:101BB0004B7809490948253A253BF4F7F3FD641CA5
:101BC000E4B26879401E8442CEDB70BD401C002028
:101BD0004558495400000000B7650500718C0108A4
:101BE00010B51F4C0920607104F11800A0601D4859
:101BF000E06020462061401C606100F02DFE022064
