Component: ARM Compiler 5.06 update 6 (build 750) Tool: armlink [4d35ed]

==============================================================================

Section Cross References

    startup_stm32f401xe.o(RESET) refers to startup_stm32f401xe.o(STACK) for __initial_sp
    startup_stm32f401xe.o(RESET) refers to startup_stm32f401xe.o(.text) for Reset_Handler
    startup_stm32f401xe.o(RESET) refers to stm32f4xx_it.o(i.NMI_Handler) for NMI_Handler
    startup_stm32f401xe.o(RESET) refers to stm32f4xx_it.o(i.HardFault_Handler) for HardFault_Handler
    startup_stm32f401xe.o(RESET) refers to stm32f4xx_it.o(i.MemManage_Handler) for MemManage_Handler
    startup_stm32f401xe.o(RESET) refers to stm32f4xx_it.o(i.BusFault_Handler) for BusFault_Handler
    startup_stm32f401xe.o(RESET) refers to stm32f4xx_it.o(i.UsageFault_Handler) for UsageFault_Handler
    startup_stm32f401xe.o(RESET) refers to stm32f4xx_it.o(i.SVC_Handler) for SVC_Handler
    startup_stm32f401xe.o(RESET) refers to stm32f4xx_it.o(i.DebugMon_Handler) for DebugMon_Handler
    startup_stm32f401xe.o(RESET) refers to stm32f4xx_it.o(i.PendSV_Handler) for PendSV_Handler
    startup_stm32f401xe.o(RESET) refers to stm32f4xx_it.o(i.SysTick_Handler) for SysTick_Handler
    startup_stm32f401xe.o(RESET) refers to stm32f4xx_it.o(i.DMA1_Stream0_IRQHandler) for DMA1_Stream0_IRQHandler
    startup_stm32f401xe.o(RESET) refers to stm32f4xx_it.o(i.ADC_IRQHandler) for ADC_IRQHandler
    startup_stm32f401xe.o(RESET) refers to stm32f4xx_it.o(i.EXTI9_5_IRQHandler) for EXTI9_5_IRQHandler
    startup_stm32f401xe.o(RESET) refers to stm32f4xx_it.o(i.EXTI15_10_IRQHandler) for EXTI15_10_IRQHandler
    startup_stm32f401xe.o(RESET) refers to stm32f4xx_it.o(i.OTG_FS_IRQHandler) for OTG_FS_IRQHandler
    startup_stm32f401xe.o(.text) refers to system_stm32f4xx.o(i.SystemInit) for SystemInit
    startup_stm32f401xe.o(.text) refers to entry.o(.ARM.Collect$$$$00000000) for __main
==============================================================================

Removing Unused input sections from the image.

    Removing system_stm32f4xx.o(.rev16_text), (4 bytes).
    Removing system_stm32f4xx.o(.revsh_text), (4 bytes).
    Removing system_stm32f4xx.o(.rrx_text), (6 bytes).
    Removing system_stm32f4xx.o(i.SystemCoreClockUpdate), (124 bytes).
    Removing system_stm32f4xx.o(.constdata), (16 bytes).
    Removing system_stm32f4xx.o(.constdata), (8 bytes).
    Removing stm32f4xx_hal_flash_ramfunc.o(.rev16_text), (4 bytes).
    Removing stm32f4xx_hal_flash_ramfunc.o(.revsh_text), (4 bytes).
    Removing stm32f4xx_hal_flash_ramfunc.o(.rrx_text), (6 bytes).
    Removing stm32f4xx_ll_gpio.o(.rev16_text), (4 bytes).
    Removing stm32f4xx_ll_gpio.o(.revsh_text), (4 bytes).
    Removing stm32f4xx_ll_gpio.o(.rrx_text), (6 bytes).
    Removing stm32f4xx_ll_gpio.o(i.LL_AHB1_GRP1_ForceReset), (16 bytes).
    Removing stm32f4xx_ll_gpio.o(i.LL_AHB1_GRP1_ReleaseReset), (16 bytes).
    Removing stm32f4xx_ll_gpio.o(i.LL_GPIO_DeInit), (136 bytes).
    Removing stm32f4xx_ll_gpio.o(i.LL_GPIO_StructInit), (22 bytes).
    Removing stm32f4xx_ll_spi.o(.rev16_text), (4 bytes).
    Removing stm32f4xx_ll_spi.o(.revsh_text), (4 bytes).
==============================================================================

Image Symbol Table

    Local Symbols

    Symbol Name                              Value     Ov Type        Size  Object(Section)

    ../Drivers/STM32F4xx_HAL_Driver/Src/stm32f4xx_hal.c 0x00000000   Number         0  stm32f4xx_hal.o ABSOLUTE
    ../Drivers/STM32F4xx_HAL_Driver/Src/stm32f4xx_hal_cortex.c 0x00000000   Number         0  stm32f4xx_hal_cortex.o ABSOLUTE
    ../Drivers/STM32F4xx_HAL_Driver/Src/stm32f4xx_hal_dma.c 0x00000000   Number         0  stm32f4xx_hal_dma.o ABSOLUTE
    ../Drivers/STM32F4xx_HAL_Driver/Src/stm32f4xx_hal_dma_ex.c 0x00000000   Number         0  stm32f4xx_hal_dma_ex.o ABSOLUTE
    ../Drivers/STM32F4xx_HAL_Driver/Src/stm32f4xx_hal_flash.c 0x00000000   Number         0  stm32f4xx_hal_flash.o ABSOLUTE
    ../Drivers/STM32F4xx_HAL_Driver/Src/stm32f4xx_hal_flash_ex.c 0x00000000   Number         0  stm32f4xx_hal_flash_ex.o ABSOLUTE
    ../Drivers/STM32F4xx_HAL_Driver/Src/stm32f4xx_hal_flash_ramfunc.c 0x00000000   Number         0  stm32f4xx_hal_flash_ramfunc.o ABSOLUTE
    ../Drivers/STM32F4xx_HAL_Driver/Src/stm32f4xx_hal_gpio.c 0x00000000   Number         0  stm32f4xx_hal_gpio.o ABSOLUTE
    ../Drivers/STM32F4xx_HAL_Driver/Src/stm32f4xx_hal_pwr.c 0x00000000   Number         0  stm32f4xx_hal_pwr.o ABSOLUTE
    ../Drivers/STM32F4xx_HAL_Driver/Src/stm32f4xx_hal_pwr_ex.c 0x00000000   Number         0  stm32f4xx_hal_pwr_ex.o ABSOLUTE
    ../Drivers/STM32F4xx_HAL_Driver/Src/stm32f4xx_hal_rcc.c 0x00000000   Number         0  stm32f4xx_hal_rcc.o ABSOLUTE
    ../Drivers/STM32F4xx_HAL_Driver/Src/stm32f4xx_hal_rcc_ex.c 0x00000000   Number         0  stm32f4xx_hal_rcc_ex.o ABSOLUTE
    ../Drivers/STM32F4xx_HAL_Driver/Src/stm32f4xx_hal_tim.c 0x00000000   Number         0  stm32f4xx_hal_tim.o ABSOLUTE
    ../Drivers/STM32F4xx_HAL_Driver/Src/stm32f4xx_hal_tim_ex.c 0x00000000   Number         0  stm32f4xx_hal_tim_ex.o ABSOLUTE
    ../Drivers/STM32F4xx_HAL_Driver/Src/stm32f4xx_ll_exti.c 0x00000000   Number         0  stm32f4xx_ll_exti.o ABSOLUTE
    ../Drivers/STM32F4xx_HAL_Driver/Src/stm32f4xx_ll_gpio.c 0x00000000   Number         0  stm32f4xx_ll_gpio.o ABSOLUTE
    ../Drivers/STM32F4xx_HAL_Driver/Src/stm32f4xx_ll_rcc.c 0x00000000   Number         0  stm32f4xx_ll_rcc.o ABSOLUTE
    ../Drivers/STM32F4xx_HAL_Driver/Src/stm32f4xx_ll_utils.c 0x00000000   Number         0  stm32f4xx_ll_utils.o ABSOLUTE
    ../Src/gpio.c                            0x00000000   Number         0  gpio.o ABSOLUTE
    ../Src/main.c                            0x00000000   Number         0  main.o ABSOLUTE
    ../Src/stm32f4xx_hal_msp.c               0x00000000   Number         0  stm32f4xx_hal_msp.o ABSOLUTE
    ../Src/stm32f4xx_it.c                    0x00000000   Number         0  stm32f4xx_it.o ABSOLUTE
    ../Src/system_stm32f4xx.c                0x00000000   Number         0  system_stm32f4xx.o ABSOLUTE
    ../clib/../cmprslib/zerorunl2.c          0x00000000   Number         0  __dczerorl2.o ABSOLUTE
    ../clib/microlib/division.c              0x00000000   Number         0  uldiv.o ABSOLUTE
    ../clib/microlib/division.c              0x00000000   Number         0  uidiv.o ABSOLUTE
    ../clib/microlib/init/entry.s            0x00000000   Number         0  entry11b.o ABSOLUTE
    ../clib/microlib/init/entry.s            0x00000000   Number         0  entry.o ABSOLUTE
    ../clib/microlib/init/entry.s            0x00000000   Number         0  entry8b.o ABSOLUTE
    ../clib/microlib/init/entry.s            0x00000000   Number         0  entry5.o ABSOLUTE
    ../clib/microlib/init/entry.s            0x00000000   Number         0  entry11a.o ABSOLUTE
    ../clib/microlib/init/entry.s            0x00000000   Number         0  entry10b.o ABSOLUTE
    ../clib/microlib/init/entry.s            0x00000000   Number         0  entry2.o ABSOLUTE
    ../clib/microlib/init/entry.s            0x00000000   Number         0  entry7a.o ABSOLUTE
    ../clib/microlib/init/entry.s            0x00000000   Number         0  entry10a.o ABSOLUTE
    ../clib/microlib/init/entry.s            0x00000000   Number         0  entry9b.o ABSOLUTE
    ../clib/microlib/init/entry.s            0x00000000   Number         0  entry7b.o ABSOLUTE
    ../clib/microlib/init/entry.s            0x00000000   Number         0  entry9a.o ABSOLUTE
    ../clib/microlib/init/entry.s            0x00000000   Number         0  entry8a.o ABSOLUTE
    ../clib/microlib/longlong.c              0x00000000   Number         0  llshl.o ABSOLUTE
    ../clib/microlib/longlong.c              0x00000000   Number         0  llushr.o ABSOLUTE
    ../clib/microlib/longlong.c              0x00000000   Number         0  llsshr.o ABSOLUTE
    ../clib/microlib/malloc/malloc.c         0x00000000   Number         0  malloc.o ABSOLUTE
    ../clib/microlib/malloc/malloc.c         0x00000000   Number         0  malloca.o ABSOLUTE
    ../clib/microlib/malloc/malloc.c         0x00000000   Number         0  mallocr.o ABSOLUTE
    ../clib/microlib/malloc/malloc.c         0x00000000   Number         0  mallocra.o ABSOLUTE
    ../clib/microlib/malloc/mvars.c          0x00000000   Number         0  mvars.o ABSOLUTE
    ../clib/microlib/printf/printf.c         0x00000000   Number         0  printf6.o ABSOLUTE
    ../clib/microlib/printf/printf.c         0x00000000   Number         0  printf5.o ABSOLUTE
    ../clib/microlib/printf/printf.c         0x00000000   Number         0  printf4.o ABSOLUTE
    ../clib/microlib/printf/printf.c         0x00000000   Number         0  printf3.o ABSOLUTE
    ../clib/microlib/printf/printf.c         0x00000000   Number         0  printf7.o ABSOLUTE
    ../clib/microlib/printf/printf.c         0x00000000   Number         0  printf2.o ABSOLUTE
    ../clib/microlib/printf/printf.c         0x00000000   Number         0  printf8.o ABSOLUTE
    ../clib/microlib/printf/printf.c         0x00000000   Number         0  printf1.o ABSOLUTE
    ../clib/microlib/printf/printf.c         0x00000000   Number         0  printf0.o ABSOLUTE
    ../clib/microlib/printf/printf.c         0x00000000   Number         0  printfb.o ABSOLUTE
    ../clib/microlib/printf/printf.c         0x00000000   Number         0  printfa.o ABSOLUTE
    ../clib/microlib/printf/stubs.s          0x00000000   Number         0  stubs.o ABSOLUTE
    ../clib/microlib/stdio/fputc.c           0x00000000   Number         0  fputc.o ABSOLUTE
    ../clib/microlib/stdio/semi.s            0x00000000   Number         0  semi.o ABSOLUTE
    ../clib/microlib/stdio/streams.c         0x00000000   Number         0  stdout.o ABSOLUTE
    ../clib/microlib/string/memcpy.c         0x00000000   Number         0  memcpyb.o ABSOLUTE
    ../clib/microlib/string/memcpy.c         0x00000000   Number         0  memcpya.o ABSOLUTE
    ../clib/microlib/string/memcpy.c         0x00000000   Number         0  memmoveb.o ABSOLUTE
    ../clib/microlib/string/memcpy.c         0x00000000   Number         0  memmovea.o ABSOLUTE
    ../clib/microlib/string/memset.c         0x00000000   Number         0  memseta.o ABSOLUTE
    ../clib/microlib/string/strcmp.c         0x00000000   Number         0  strcmp.o ABSOLUTE
    ../clib/microlib/stubs.s                 0x00000000   Number         0  iusefp.o ABSOLUTE
    ../clib/microlib/stubs.s                 0x00000000   Number         0  iusesemip.o ABSOLUTE
    ../fplib/microlib/d2f.c                  0x00000000   Number         0  d2f.o ABSOLUTE
    ../fplib/microlib/f2d.c                  0x00000000   Number         0  f2d.o ABSOLUTE
    ../fplib/microlib/fpadd.c                0x00000000   Number         0  dadd.o ABSOLUTE
    ../fplib/microlib/fpdiv.c                0x00000000   Number         0  ddiv.o ABSOLUTE
    ../fplib/microlib/fpepilogue.c           0x00000000   Number         0  depilogue.o ABSOLUTE
    ../fplib/microlib/fpepilogue.c           0x00000000   Number         0  fepilogue.o ABSOLUTE
    ../fplib/microlib/fpfix.c                0x00000000   Number         0  dfixul.o ABSOLUTE
    ../fplib/microlib/fpfix.c                0x00000000   Number         0  dfixi.o ABSOLUTE
    ../fplib/microlib/fpflt.c                0x00000000   Number         0  dflti.o ABSOLUTE
    ../fplib/microlib/fpmul.c                0x00000000   Number         0  dmul.o ABSOLUTE
    ../mathlib/ceil.c                        0x00000000   Number         0  ceil.o ABSOLUTE
    ../mathlib/floor.c                       0x00000000   Number         0  floor.o ABSOLUTE
    ..\..\..\Utilities\Third_Party\STemWin532_20160205\GUI\AntiAlias\GUIAA_Arc.c 0x00000000   Number         0  guiaa_arc.o ABSOLUTE
    ..\..\..\Utilities\Third_Party\STemWin532_20160205\GUI\AntiAlias\GUIAA_Char2.c 0x00000000   Number         0  guiaa_char2.o ABSOLUTE
    ..\..\..\Utilities\Third_Party\STemWin532_20160205\GUI\AntiAlias\GUIAA_Char2Ext.c 0x00000000   Number         0  guiaa_char2ext.o ABSOLUTE
    ..\..\..\Utilities\Third_Party\STemWin532_20160205\GUI\AntiAlias\GUIAA_Circle.c 0x00000000   Number         0  guiaa_circle.o ABSOLUTE
    ..\..\..\Utilities\Third_Party\STemWin532_20160205\GUI\AntiAlias\GUIAA_FillRoundedRect.c 0x00000000   Number         0  guiaa_fillroundedrect.o ABSOLUTE
    ..\..\..\Utilities\Third_Party\STemWin532_20160205\GUI\AntiAlias\GUIAA_Lib.c 0x00000000   Number         0  guiaa_lib.o ABSOLUTE
    ..\..\..\Utilities\Third_Party\STemWin532_20160205\GUI\AntiAlias\GUIAA_Poly.c 0x00000000   Number         0  guiaa_poly.o ABSOLUTE
    ..\..\..\Utilities\Third_Party\STemWin532_20160205\GUI\Core\GUICC_0.c 0x00000000   Number         0  guicc_0.o ABSOLUTE
    ..\..\..\Utilities\Third_Party\STemWin532_20160205\GUI\Core\GUICC_1.c 0x00000000   Number         0  guicc_1.o ABSOLUTE
    ..\..\..\Utilities\Third_Party\STemWin532_20160205\GUI\Core\GUICC_444_12_1_Index2Color.c 0x00000000   Number         0  guicc_444_12_1_index2color.o ABSOLUTE
    ..\..\..\Utilities\Third_Party\STemWin532_20160205\GUI\Core\GUICC_444_12_Index2Color.c 0x00000000   Number         0  guicc_444_12_index2color.o ABSOLUTE
    ..\..\..\Utilities\Third_Party\STemWin532_20160205\GUI\Core\GUICC_444_16_Index2Color.c 0x00000000   Number         0  guicc_444_16_index2color.o ABSOLUTE
    ..\..\..\Utilities\Third_Party\STemWin532_20160205\GUI\Core\GUICC_555_Index2Color.c 0x00000000   Number         0  guicc_555_index2color.o ABSOLUTE
    ..\..\..\Utilities\Third_Party\STemWin532_20160205\GUI\Core\GUICC_565.c 0x00000000   Number         0  guicc_565.o ABSOLUTE
    ..\..\..\Utilities\Third_Party\STemWin532_20160205\GUI\Core\GUICC_8888.c 0x00000000   Number         0  guicc_8888.o ABSOLUTE
    ..\..\..\Utilities\Third_Party\STemWin532_20160205\GUI\Core\GUICC_8888_Index2Color.c 0x00000000   Number         0  guicc_8888_index2color.o ABSOLUTE
    ..\..\..\Utilities\Third_Party\STemWin532_20160205\GUI\Core\GUICC_888_Index2Color.c 0x00000000   Number         0  guicc_888_index2color.o ABSOLUTE
    ..\..\..\Utilities\Third_Party\STemWin532_20160205\GUI\Core\GUICC_M444_12_1_Index2Color.c 0x00000000   Number         0  guicc_m444_12_1_index2color.o ABSOLUTE
    ..\..\..\Utilities\Third_Party\STemWin532_20160205\GUI\Core\GUICC_M444_12_Index2Color.c 0x00000000   Number         0  guicc_m444_12_index2color.o ABSOLUTE
    ..\..\..\Utilities\Third_Party\STemWin532_20160205\GUI\Core\GUICC_M444_16_Index2Color.c 0x00000000   Number         0  guicc_m444_16_index2color.o ABSOLUTE
    ..\..\..\Utilities\Third_Party\STemWin532_20160205\GUI\Core\GUICC_M555_Index2Color.c 0x00000000   Number         0  guicc_m555_index2color.o ABSOLUTE
    ..\..\..\Utilities\Third_Party\STemWin532_20160205\GUI\Core\GUICC_M565.c 0x00000000   Number         0  guicc_m565.o ABSOLUTE
    ..\..\..\Utilities\Third_Party\STemWin532_20160205\GUI\Core\GUICC_M8888I_Index2Color.c 0x00000000   Number         0  guicc_m8888i_index2color.o ABSOLUTE
    ..\..\..\Utilities\Third_Party\STemWin532_20160205\GUI\Core\GUI_2DLib.c 0x00000000   Number         0  gui_2dlib.o ABSOLUTE
    ..\..\..\Utilities\Third_Party\STemWin532_20160205\GUI\Core\GUI_ALLOC_AllocZero.c 0x00000000   Number         0  gui_alloc_alloczero.o ABSOLUTE
    ..\..\..\Utilities\Third_Party\STemWin532_20160205\GUI\Core\GUI_AddDecMin.c 0x00000000   Number         0  gui_adddecmin.o ABSOLUTE
    ..\..\..\Utilities\Third_Party\STemWin532_20160205\GUI\Core\GUI_AddDecShift.c 0x00000000   Number         0  gui_adddecshift.o ABSOLUTE
    ..\..\..\Utilities\Third_Party\STemWin532_20160205\GUI\Core\GUI_Alloc.c 0x00000000   Number         0  gui_alloc.o ABSOLUTE
    ..\..\..\Utilities\Third_Party\STemWin532_20160205\GUI\Core\GUI_Arc.c 0x00000000   Number         0  gui_arc.o ABSOLUTE
    ..\..\..\Utilities\Third_Party\STemWin532_20160205\GUI\Core\GUI_BMP.c 0x00000000   Number         0  gui_bmp.o ABSOLUTE
    ..\..\..\Utilities\Third_Party\STemWin532_20160205\GUI\Core\GUI_BMP_DrawScaled.c 0x00000000   Number         0  gui_bmp_drawscaled.o ABSOLUTE
    ..\..\..\Utilities\Third_Party\STemWin532_20160205\GUI\Core\GUI_CalcColorDist.c 0x00000000   Number         0  gui_calccolordist.o ABSOLUTE
    ..\..\..\Utilities\Third_Party\STemWin532_20160205\GUI\Core\GUI_Char.c 0x00000000   Number         0  gui_char.o ABSOLUTE
    ..\..\..\Utilities\Third_Party\STemWin532_20160205\GUI\Core\GUI_CharLine.c 0x00000000   Number         0  gui_charline.o ABSOLUTE
    ..\..\..\Utilities\Third_Party\STemWin532_20160205\GUI\Core\GUI_CharM.c 0x00000000   Number         0  gui_charm.o ABSOLUTE
    ..\..\..\Utilities\Third_Party\STemWin532_20160205\GUI\Core\GUI_CharP.c 0x00000000   Number         0  gui_charp.o ABSOLUTE
    ..\..\..\Utilities\Third_Party\STemWin532_20160205\GUI\Core\GUI_CharPExt.c 0x00000000   Number         0  gui_charpext.o ABSOLUTE
    ..\..\..\Utilities\Third_Party\STemWin532_20160205\GUI\Core\GUI_Core.c 0x00000000   Number         0  gui_core.o ABSOLUTE
    ..\..\..\Utilities\Third_Party\STemWin532_20160205\GUI\Core\GUI_Curs1.c 0x00000000   Number         0  gui_curs1.o ABSOLUTE
    ..\..\..\Utilities\Third_Party\STemWin532_20160205\GUI\Core\GUI_CursorArrowM.c 0x00000000   Number         0  gui_cursorarrowm.o ABSOLUTE
    ..\..\..\Utilities\Third_Party\STemWin532_20160205\GUI\Core\GUI_CursorArrowMPx.c 0x00000000   Number         0  gui_cursorarrowmpx.o ABSOLUTE
    ..\..\..\Utilities\Third_Party\STemWin532_20160205\GUI\Core\GUI_CursorPal.c 0x00000000   Number         0  gui_cursorpal.o ABSOLUTE
    ..\..\..\Utilities\Third_Party\STemWin532_20160205\GUI\Core\GUI_Device.c 0x00000000   Number         0  gui_device.o ABSOLUTE
    ..\..\..\Utilities\Third_Party\STemWin532_20160205\GUI\Core\GUI_DispChar.c 0x00000000   Number         0  gui_dispchar.o ABSOLUTE
    ..\..\..\Utilities\Third_Party\STemWin532_20160205\GUI\Core\GUI_DispString.c 0x00000000   Number         0  gui_dispstring.o ABSOLUTE
    ..\..\..\Utilities\Third_Party\STemWin532_20160205\GUI\Core\GUI_DispStringAt.c 0x00000000   Number         0  gui_dispstringat.o ABSOLUTE
    ..\..\..\Utilities\Third_Party\STemWin532_20160205\GUI\Core\GUI_DispStringHCenter.c 0x00000000   Number         0  gui_dispstringhcenter.o ABSOLUTE
    ..\..\..\Utilities\Third_Party\STemWin532_20160205\GUI\Core\GUI_DispStringInRect.c 0x00000000   Number         0  gui_dispstringinrect.o ABSOLUTE
    ..\..\..\Utilities\Third_Party\STemWin532_20160205\GUI\Core\GUI_DrawBitmap.c 0x00000000   Number         0  gui_drawbitmap.o ABSOLUTE
    ..\..\..\Utilities\Third_Party\STemWin532_20160205\GUI\Core\GUI_DrawBitmap_24.c 0x00000000   Number         0  gui_drawbitmap_24.o ABSOLUTE
    ..\..\..\Utilities\Third_Party\STemWin532_20160205\GUI\Core\GUI_DrawBitmap_444.c 0x00000000   Number         0  gui_drawbitmap_444.o ABSOLUTE
    ..\..\..\Utilities\Third_Party\STemWin532_20160205\GUI\Core\GUI_DrawBitmap_555.c 0x00000000   Number         0  gui_drawbitmap_555.o ABSOLUTE
    ..\..\..\Utilities\Third_Party\STemWin532_20160205\GUI\Core\GUI_DrawBitmap_565.c 0x00000000   Number         0  gui_drawbitmap_565.o ABSOLUTE
    ..\..\..\Utilities\Third_Party\STemWin532_20160205\GUI\Core\GUI_DrawBitmap_8888.c 0x00000000   Number         0  gui_drawbitmap_8888.o ABSOLUTE
    ..\..\..\Utilities\Third_Party\STemWin532_20160205\GUI\Core\GUI_DrawBitmap_A16.c 0x00000000   Number         0  gui_drawbitmap_a16.o ABSOLUTE
    ..\..\..\Utilities\Third_Party\STemWin532_20160205\GUI\Core\GUI_DrawHLine.c 0x00000000   Number         0  gui_drawhline.o ABSOLUTE
    ..\..\..\Utilities\Third_Party\STemWin532_20160205\GUI\Core\GUI_DrawVLine.c 0x00000000   Number         0  gui_drawvline.o ABSOLUTE
    ..\..\..\Utilities\Third_Party\STemWin532_20160205\GUI\Core\GUI_EncExt.c 0x00000000   Number         0  gui_encext.o ABSOLUTE
    ..\..\..\Utilities\Third_Party\STemWin532_20160205\GUI\Core\GUI_Exec.c 0x00000000   Number         0  gui_exec.o ABSOLUTE
    ..\..\..\Utilities\Third_Party\STemWin532_20160205\GUI\Core\GUI_FillPolygon.c 0x00000000   Number         0  gui_fillpolygon.o ABSOLUTE
    ..\..\..\Utilities\Third_Party\STemWin532_20160205\GUI\Core\GUI_FillRect.c 0x00000000   Number         0  gui_fillrect.o ABSOLUTE
    ..\..\..\Utilities\Third_Party\STemWin532_20160205\GUI\Core\GUI_FillRectEx.c 0x00000000   Number         0  gui_fillrectex.o ABSOLUTE
    ..\..\..\Utilities\Third_Party\STemWin532_20160205\GUI\Core\GUI_FillRoundedRect.c 0x00000000   Number         0  gui_fillroundedrect.o ABSOLUTE
    ..\..\..\Utilities\Third_Party\STemWin532_20160205\GUI\Core\GUI_GIF.c 0x00000000   Number         0  gui_gif.o ABSOLUTE
    ..\..\..\Utilities\Third_Party\STemWin532_20160205\GUI\Core\GUI_GetBitmapPixelIndex.c 0x00000000   Number         0  gui_getbitmappixelindex.o ABSOLUTE
    ..\..\..\Utilities\Third_Party\STemWin532_20160205\GUI\Core\GUI_GetClientRect.c 0x00000000   Number         0  gui_getclientrect.o ABSOLUTE
    ..\..\..\Utilities\Third_Party\STemWin532_20160205\GUI\Core\GUI_GetColor.c 0x00000000   Number         0  gui_getcolor.o ABSOLUTE
    ..\..\..\Utilities\Third_Party\STemWin532_20160205\GUI\Core\GUI_GetFontSizeY.c 0x00000000   Number         0  gui_getfontsizey.o ABSOLUTE
    ..\..\..\Utilities\Third_Party\STemWin532_20160205\GUI\Core\GUI_GetOrg.c 0x00000000   Number         0  gui_getorg.o ABSOLUTE
    ..\..\..\Utilities\Third_Party\STemWin532_20160205\GUI\Core\GUI_Goto.c 0x00000000   Number         0  gui_goto.o ABSOLUTE
    ..\..\..\Utilities\Third_Party\STemWin532_20160205\GUI\Core\GUI_JPEG.c 0x00000000   Number         0  gui_jpeg.o ABSOLUTE
    ..\..\..\Utilities\Third_Party\STemWin532_20160205\GUI\Core\GUI_JPEG_DrawScaled.c 0x00000000   Number         0  gui_jpeg_drawscaled.o ABSOLUTE
    ..\..\..\Utilities\Third_Party\STemWin532_20160205\GUI\Core\GUI_MergeRect.c 0x00000000   Number         0  gui_mergerect.o ABSOLUTE
    ..\..\..\Utilities\Third_Party\STemWin532_20160205\GUI\Core\GUI_MoveRect.c 0x00000000   Number         0  gui_moverect.o ABSOLUTE
    ..\..\..\Utilities\Third_Party\STemWin532_20160205\GUI\Core\GUI_OnKey.c 0x00000000   Number         0  gui_onkey.o ABSOLUTE
    ..\..\..\Utilities\Third_Party\STemWin532_20160205\GUI\Core\GUI_PID.c 0x00000000   Number         0  gui_pid.o ABSOLUTE
    ..\..\..\Utilities\Third_Party\STemWin532_20160205\GUI\Core\GUI_Pen.c 0x00000000   Number         0  gui_pen.o ABSOLUTE
    ..\..\..\Utilities\Third_Party\STemWin532_20160205\GUI\Core\GUI_PolyRotate.c 0x00000000   Number         0  gui_polyrotate.o ABSOLUTE
    ..\..\..\Utilities\Third_Party\STemWin532_20160205\GUI\Core\GUI_RectsIntersect.c 0x00000000   Number         0  gui_rectsintersect.o ABSOLUTE
    ..\..\..\Utilities\Third_Party\STemWin532_20160205\GUI\Core\GUI_SPRITE.c 0x00000000   Number         0  gui_sprite.o ABSOLUTE
    ..\..\..\Utilities\Third_Party\STemWin532_20160205\GUI\Core\GUI_SaveContext.c 0x00000000   Number         0  gui_savecontext.o ABSOLUTE
    ..\..\..\Utilities\Third_Party\STemWin532_20160205\GUI\Core\GUI_SelectLCD.c 0x00000000   Number         0  gui_selectlcd.o ABSOLUTE
    ..\..\..\Utilities\Third_Party\STemWin532_20160205\GUI\Core\GUI_SelectLayer.c 0x00000000   Number         0  gui_selectlayer.o ABSOLUTE
    ..\..\..\Utilities\Third_Party\STemWin532_20160205\GUI\Core\GUI_SetAlpha.c 0x00000000   Number         0  gui_setalpha.o ABSOLUTE
    ..\..\..\Utilities\Third_Party\STemWin532_20160205\GUI\Core\GUI_SetColor.c 0x00000000   Number         0  gui_setcolor.o ABSOLUTE
    ..\..\..\Utilities\Third_Party\STemWin532_20160205\GUI\Core\GUI_SetColorIndex.c 0x00000000   Number         0  gui_setcolorindex.o ABSOLUTE
    ..\..\..\Utilities\Third_Party\STemWin532_20160205\GUI\Core\GUI_SetDefault.c 0x00000000   Number         0  gui_setdefault.o ABSOLUTE
    ..\..\..\Utilities\Third_Party\STemWin532_20160205\GUI\Core\GUI_SetDrawMode.c 0x00000000   Number         0  gui_setdrawmode.o ABSOLUTE
    ..\..\..\Utilities\Third_Party\STemWin532_20160205\GUI\Core\GUI_SetFont.c 0x00000000   Number         0  gui_setfont.o ABSOLUTE
    ..\..\..\Utilities\Third_Party\STemWin532_20160205\GUI\Core\GUI_SetLineStyle.c 0x00000000   Number         0  gui_setlinestyle.o ABSOLUTE
    ..\..\..\Utilities\Third_Party\STemWin532_20160205\GUI\Core\GUI_SetOrg.c 0x00000000   Number         0  gui_setorg.o ABSOLUTE
    ..\..\..\Utilities\Third_Party\STemWin532_20160205\GUI\Core\GUI_SetPixelIndex.c 0x00000000   Number         0  gui_setpixelindex.o ABSOLUTE
    ..\..\..\Utilities\Third_Party\STemWin532_20160205\GUI\Core\GUI_SetTextAlign.c 0x00000000   Number         0  gui_settextalign.o ABSOLUTE
    ..\..\..\Utilities\Third_Party\STemWin532_20160205\GUI\Core\GUI_SetTextMode.c 0x00000000   Number         0  gui_settextmode.o ABSOLUTE
    ..\..\..\Utilities\Third_Party\STemWin532_20160205\GUI\Core\GUI_Stream.c 0x00000000   Number         0  gui_stream.o ABSOLUTE
    ..\..\..\Utilities\Third_Party\STemWin532_20160205\GUI\Core\GUI_StreamCreate.c 0x00000000   Number         0  gui_streamcreate.o ABSOLUTE
    ..\..\..\Utilities\Third_Party\STemWin532_20160205\GUI\Core\GUI_Time.c 0x00000000   Number         0  gui_time.o ABSOLUTE
    ..\..\..\Utilities\Third_Party\STemWin532_20160205\GUI\Core\GUI_Timer.c 0x00000000   Number         0  gui_timer.o ABSOLUTE
    ..\..\..\Utilities\Third_Party\STemWin532_20160205\GUI\Core\GUI_UC.c 0x00000000   Number         0  gui_uc.o ABSOLUTE
    ..\..\..\Utilities\Third_Party\STemWin532_20160205\GUI\Core\GUI_UC_EncodeNone.c 0x00000000   Number         0  gui_uc_encodenone.o ABSOLUTE
    ..\..\..\Utilities\Third_Party\STemWin532_20160205\GUI\Core\GUI_UC_EncodeUTF8.c 0x00000000   Number         0  gui_uc_encodeutf8.o ABSOLUTE
    ..\..\..\Utilities\Third_Party\STemWin532_20160205\GUI\Core\GUI_Val.c 0x00000000   Number         0  gui_val.o ABSOLUTE
    ..\..\..\Utilities\Third_Party\STemWin532_20160205\GUI\Core\GUI_Valf.c 0x00000000   Number         0  gui_valf.o ABSOLUTE
    ..\..\..\Utilities\Third_Party\STemWin532_20160205\GUI\Core\GUI_WaitEvent.c 0x00000000   Number         0  gui_waitevent.o ABSOLUTE
    ..\..\..\Utilities\Third_Party\STemWin532_20160205\GUI\Core\GUI__Alpha.c 0x00000000   Number         0  gui__alpha.o ABSOLUTE
    ..\..\..\Utilities\Third_Party\STemWin532_20160205\GUI\Core\GUI__CompactPixelIndices.c 0x00000000   Number         0  gui__compactpixelindices.o ABSOLUTE
    ..\..\..\Utilities\Third_Party\STemWin532_20160205\GUI\Core\GUI__DivTbl_15_255.c 0x00000000   Number         0  gui__divtbl_15_255.o ABSOLUTE
    ..\..\..\Utilities\Third_Party\STemWin532_20160205\GUI\Core\GUI__DivTbl_255_31.c 0x00000000   Number         0  gui__divtbl_255_31.o ABSOLUTE
    ..\..\..\Utilities\Third_Party\STemWin532_20160205\GUI\Core\GUI__DivTbl_255_63.c 0x00000000   Number         0  gui__divtbl_255_63.o ABSOLUTE
    ..\..\..\Utilities\Third_Party\STemWin532_20160205\GUI\Core\GUI__DivTbl_31_255.c 0x00000000   Number         0  gui__divtbl_31_255.o ABSOLUTE
    ..\..\..\Utilities\Third_Party\STemWin532_20160205\GUI\Core\GUI__DivTbl_63_255.c 0x00000000   Number         0  gui__divtbl_63_255.o ABSOLUTE
    ..\..\..\Utilities\Third_Party\STemWin532_20160205\GUI\Core\GUI__DrawBitmap16bpp.c 0x00000000   Number         0  gui__drawbitmap16bpp.o ABSOLUTE
    ..\..\..\Utilities\Third_Party\STemWin532_20160205\GUI\Core\GUI__ExpandPixelIndices.c 0x00000000   Number         0  gui__expandpixelindices.o ABSOLUTE
    ..\..\..\Utilities\Third_Party\STemWin532_20160205\GUI\Core\GUI__GetFontSizeY.c 0x00000000   Number         0  gui__getfontsizey.o ABSOLUTE
    ..\..\..\Utilities\Third_Party\STemWin532_20160205\GUI\Core\GUI__HandleEOLine.c 0x00000000   Number         0  gui__handleeoline.o ABSOLUTE
    ..\..\..\Utilities\Third_Party\STemWin532_20160205\GUI\Core\GUI__IntersectRect.c 0x00000000   Number         0  gui__intersectrect.o ABSOLUTE
    ..\..\..\Utilities\Third_Party\STemWin532_20160205\GUI\Core\GUI__IntersectRects.c 0x00000000   Number         0  gui__intersectrects.o ABSOLUTE
    ..\..\..\Utilities\Third_Party\STemWin532_20160205\GUI\Core\GUI__ManageCache.c 0x00000000   Number         0  gui__managecache.o ABSOLUTE
    ..\..\..\Utilities\Third_Party\STemWin532_20160205\GUI\Core\GUI__Read.c 0x00000000   Number         0  gui__read.o ABSOLUTE
    ..\..\..\Utilities\Third_Party\STemWin532_20160205\GUI\Core\GUI__SetPixelAlpha.c 0x00000000   Number         0  gui__setpixelalpha.o ABSOLUTE
    ..\..\..\Utilities\Third_Party\STemWin532_20160205\GUI\Core\GUI__SinHQ.c 0x00000000   Number         0  gui__sinhq.o ABSOLUTE
    ..\..\..\Utilities\Third_Party\STemWin532_20160205\GUI\Core\GUI__memset.c 0x00000000   Number         0  gui__memset.o ABSOLUTE
    ..\..\..\Utilities\Third_Party\STemWin532_20160205\GUI\Core\GUI__memset16.c 0x00000000   Number         0  gui__memset16.o ABSOLUTE
    ..\..\..\Utilities\Third_Party\STemWin532_20160205\GUI\Core\GUI__sqrt32.c 0x00000000   Number         0  gui__sqrt32.o ABSOLUTE
    ..\..\..\Utilities\Third_Party\STemWin532_20160205\GUI\Core\LCD.c 0x00000000   Number         0  lcd.o ABSOLUTE
    ..\..\..\Utilities\Third_Party\STemWin532_20160205\GUI\Core\LCD_AA.c 0x00000000   Number         0  lcd_aa.o ABSOLUTE
    ..\..\..\Utilities\Third_Party\STemWin532_20160205\GUI\Core\LCD_Color.c 0x00000000   Number         0  lcd_color.o ABSOLUTE
    ..\..\..\Utilities\Third_Party\STemWin532_20160205\GUI\Core\LCD_GetColorIndex.c 0x00000000   Number         0  lcd_getcolorindex.o ABSOLUTE
    ..\..\..\Utilities\Third_Party\STemWin532_20160205\GUI\Core\LCD_GetEx.c 0x00000000   Number         0  lcd_getex.o ABSOLUTE
    ..\..\..\Utilities\Third_Party\STemWin532_20160205\GUI\Core\LCD_GetNumDisplays.c 0x00000000   Number         0  lcd_getnumdisplays.o ABSOLUTE
    ..\..\..\Utilities\Third_Party\STemWin532_20160205\GUI\Core\LCD_GetP.c 0x00000000   Number         0  lcd_getp.o ABSOLUTE
    ..\..\..\Utilities\Third_Party\STemWin532_20160205\GUI\Core\LCD_GetPixelColor.c 0x00000000   Number         0  lcd_getpixelcolor.o ABSOLUTE
    ..\..\..\Utilities\Third_Party\STemWin532_20160205\GUI\Core\LCD_Mirror.c 0x00000000   Number         0  lcd_mirror.o ABSOLUTE
    ..\..\..\Utilities\Third_Party\STemWin532_20160205\GUI\Core\LCD_NextPixelAPI.c 0x00000000   Number         0  lcd_nextpixelapi.o ABSOLUTE
    ..\..\..\Utilities\Third_Party\STemWin532_20160205\GUI\Core\LCD_RLE16.c 0x00000000   Number         0  lcd_rle16.o ABSOLUTE
    ..\..\..\Utilities\Third_Party\STemWin532_20160205\GUI\Core\LCD_RLE32.c 0x00000000   Number         0  lcd_rle32.o ABSOLUTE
    ..\..\..\Utilities\Third_Party\STemWin532_20160205\GUI\Core\LCD_RLE4.c 0x00000000   Number         0  lcd_rle4.o ABSOLUTE
    ..\..\..\Utilities\Third_Party\STemWin532_20160205\GUI\Core\LCD_RLE8.c 0x00000000   Number         0  lcd_rle8.o ABSOLUTE
    ..\..\..\Utilities\Third_Party\STemWin532_20160205\GUI\Core\LCD_RLEAlpha.c 0x00000000   Number         0  lcd_rlealpha.o ABSOLUTE
    ..\..\..\Utilities\Third_Party\STemWin532_20160205\GUI\Core\LCD_ReadRect.c 0x00000000   Number         0  lcd_readrect.o ABSOLUTE
    ..\..\..\Utilities\Third_Party\STemWin532_20160205\GUI\Core\LCD_SelectLCD.c 0x00000000   Number         0  lcd_selectlcd.o ABSOLUTE
    ..\..\..\Utilities\Third_Party\STemWin532_20160205\GUI\Core\LCD_Set.c 0x00000000   Number         0  lcd_set.o ABSOLUTE
    ..\..\..\Utilities\Third_Party\STemWin532_20160205\GUI\Core\LCD_SetClipRectEx.c 0x00000000   Number         0  lcd_setcliprectex.o ABSOLUTE
    ..\..\..\Utilities\Third_Party\STemWin532_20160205\GUI\Core\LCD_UpdateColorIndices.c 0x00000000   Number         0  lcd_updatecolorindices.o ABSOLUTE
    ..\..\..\Utilities\Third_Party\STemWin532_20160205\GUI\Font\F6x8.c 0x00000000   Number         0  f6x8.o ABSOLUTE
    ..\..\..\Utilities\Third_Party\STemWin532_20160205\GUI\MemDev\GUIDEV.c 0x00000000   Number         0  guidev.o ABSOLUTE
    ..\..\..\Utilities\Third_Party\STemWin532_20160205\GUI\MemDev\GUIDEV_1.c 0x00000000   Number         0  guidev_1.o ABSOLUTE
    ..\..\..\Utilities\Third_Party\STemWin532_20160205\GUI\MemDev\GUIDEV_16.c 0x00000000   Number         0  guidev_16.o ABSOLUTE
    ..\..\..\Utilities\Third_Party\STemWin532_20160205\GUI\MemDev\GUIDEV_32.c 0x00000000   Number         0  guidev_32.o ABSOLUTE
    ..\..\..\Utilities\Third_Party\STemWin532_20160205\GUI\MemDev\GUIDEV_Auto.c 0x00000000   Number         0  guidev_auto.o ABSOLUTE
    ..\..\..\Utilities\Third_Party\STemWin532_20160205\GUI\MemDev\GUIDEV_Banding.c 0x00000000   Number         0  guidev_banding.o ABSOLUTE
    ..\..\..\Utilities\Third_Party\STemWin532_20160205\GUI\MemDev\GUIDEV_Clear.c 0x00000000   Number         0  guidev_clear.o ABSOLUTE
    ..\..\..\Utilities\Third_Party\STemWin532_20160205\GUI\MemDev\GUIDEV_CreateFixed.c 0x00000000   Number         0  guidev_createfixed.o ABSOLUTE
    ..\..\..\Utilities\Third_Party\STemWin532_20160205\GUI\MemDev\GUIDEV_GetDataPtr.c 0x00000000   Number         0  guidev_getdataptr.o ABSOLUTE
    ..\..\..\Utilities\Third_Party\STemWin532_20160205\GUI\MemDev\GUIDEV_GetPos.c 0x00000000   Number         0  guidev_getpos.o ABSOLUTE
    ..\..\..\Utilities\Third_Party\STemWin532_20160205\GUI\MemDev\GUIDEV_GetXSize.c 0x00000000   Number         0  guidev_getxsize.o ABSOLUTE
    ..\..\..\Utilities\Third_Party\STemWin532_20160205\GUI\MemDev\GUIDEV_GetYSize.c 0x00000000   Number         0  guidev_getysize.o ABSOLUTE
    ..\..\..\Utilities\Third_Party\STemWin532_20160205\GUI\MemDev\GUIDEV_Measure.c 0x00000000   Number         0  guidev_measure.o ABSOLUTE
    ..\..\..\Utilities\Third_Party\STemWin532_20160205\GUI\MemDev\GUIDEV_ReduceYSize.c 0x00000000   Number         0  guidev_reduceysize.o ABSOLUTE
    ..\..\..\Utilities\Third_Party\STemWin532_20160205\GUI\MemDev\GUIDEV_SetOrg.c 0x00000000   Number         0  guidev_setorg.o ABSOLUTE
    ..\..\..\Utilities\Third_Party\STemWin532_20160205\GUI\MemDev\GUIDEV_StaticDevices.c 0x00000000   Number         0  guidev_staticdevices.o ABSOLUTE
    ..\..\..\Utilities\Third_Party\STemWin532_20160205\GUI\MemDev\GUIDEV_Usage.c 0x00000000   Number         0  guidev_usage.o ABSOLUTE
    ..\..\..\Utilities\Third_Party\STemWin532_20160205\GUI\MemDev\GUIDEV_UsageBM.c 0x00000000   Number         0  guidev_usagebm.o ABSOLUTE
    ..\..\..\Utilities\Third_Party\STemWin532_20160205\GUI\MemDev\GUIDEV_Write.c 0x00000000   Number         0  guidev_write.o ABSOLUTE
    ..\..\..\Utilities\Third_Party\STemWin532_20160205\GUI\MemDev\GUIDEV_WriteToActiveAlpha.c 0x00000000   Number         0  guidev_writetoactivealpha.o ABSOLUTE
    ..\..\..\Utilities\Third_Party\STemWin532_20160205\GUI\MemDev\GUIDEV_WriteToActiveOpaque.c 0x00000000   Number         0  guidev_writetoactiveopaque.o ABSOLUTE
    ..\..\..\Utilities\Third_Party\STemWin532_20160205\GUI\WM\WM.c 0x00000000   Number         0  wm.o ABSOLUTE
    ..\..\..\Utilities\Third_Party\STemWin532_20160205\GUI\WM\WM_BringToBottom.c 0x00000000   Number         0  wm_bringtobottom.o ABSOLUTE
    ..\..\..\Utilities\Third_Party\STemWin532_20160205\GUI\WM\WM_CriticalHandle.c 0x00000000   Number         0  wm_criticalhandle.o ABSOLUTE
    ..\..\..\Utilities\Third_Party\STemWin532_20160205\GUI\WM\WM_GetClientRect.c 0x00000000   Number         0  wm_getclientrect.o ABSOLUTE
    ..\..\..\Utilities\Third_Party\STemWin532_20160205\GUI\WM\WM_GetDesktopWindow.c 0x00000000   Number         0  wm_getdesktopwindow.o ABSOLUTE
    ..\..\..\Utilities\Third_Party\STemWin532_20160205\GUI\WM\WM_GetDesktopWindowEx.c 0x00000000   Number         0  wm_getdesktopwindowex.o ABSOLUTE
    ..\..\..\Utilities\Third_Party\STemWin532_20160205\GUI\WM\WM_GetFirstChild.c 0x00000000   Number         0  wm_getfirstchild.o ABSOLUTE
    ..\..\..\Utilities\Third_Party\STemWin532_20160205\GUI\WM\WM_GetOrg.c 0x00000000   Number         0  wm_getorg.o ABSOLUTE
    ..\..\..\Utilities\Third_Party\STemWin532_20160205\GUI\WM\WM_GetParent.c 0x00000000   Number         0  wm_getparent.o ABSOLUTE
    ..\..\..\Utilities\Third_Party\STemWin532_20160205\GUI\WM\WM_GetWindowRect.c 0x00000000   Number         0  wm_getwindowrect.o ABSOLUTE
    ..\..\..\Utilities\Third_Party\STemWin532_20160205\GUI\WM\WM_IsWindow.c 0x00000000   Number         0  wm_iswindow.o ABSOLUTE
    ..\..\..\Utilities\Third_Party\STemWin532_20160205\GUI\WM\WM_Move.c 0x00000000   Number         0  wm_move.o ABSOLUTE
    ..\..\..\Utilities\Third_Party\STemWin532_20160205\GUI\WM\WM_NotifyParent.c 0x00000000   Number         0  wm_notifyparent.o ABSOLUTE
    ..\..\..\Utilities\Third_Party\STemWin532_20160205\GUI\WM\WM_OnKey.c 0x00000000   Number         0  wm_onkey.o ABSOLUTE
    ..\..\..\Utilities\Third_Party\STemWin532_20160205\GUI\WM\WM_PID__GetPrevState.c 0x00000000   Number         0  wm_pid__getprevstate.o ABSOLUTE
    ..\..\..\Utilities\Third_Party\STemWin532_20160205\GUI\WM\WM_ResizeWindow.c 0x00000000   Number         0  wm_resizewindow.o ABSOLUTE
    ..\..\..\Utilities\Third_Party\STemWin532_20160205\GUI\WM\WM_Screen2Win.c 0x00000000   Number         0  wm_screen2win.o ABSOLUTE
    ..\..\..\Utilities\Third_Party\STemWin532_20160205\GUI\WM\WM_SendMessageNoPara.c 0x00000000   Number         0  wm_sendmessagenopara.o ABSOLUTE
    ..\..\..\Utilities\Third_Party\STemWin532_20160205\GUI\WM\WM_SendToParent.c 0x00000000   Number         0  wm_sendtoparent.o ABSOLUTE
    ..\..\..\Utilities\Third_Party\STemWin532_20160205\GUI\WM\WM_SetCapture.c 0x00000000   Number         0  wm_setcapture.o ABSOLUTE
    ..\..\..\Utilities\Third_Party\STemWin532_20160205\GUI\WM\WM_SetSize.c 0x00000000   Number         0  wm_setsize.o ABSOLUTE
    ..\..\..\Utilities\Third_Party\STemWin532_20160205\GUI\WM\WM_SetUserClipRect.c 0x00000000   Number         0  wm_setusercliprect.o ABSOLUTE
    ..\..\..\Utilities\Third_Party\STemWin532_20160205\GUI\WM\WM_Timer.c 0x00000000   Number         0  wm_timer.o ABSOLUTE
    ..\..\..\Utilities\Third_Party\STemWin532_20160205\GUI\WM\WM_Touch.c 0x00000000   Number         0  wm_touch.o ABSOLUTE
    ..\..\..\Utilities\Third_Party\STemWin532_20160205\GUI\WM\WM__GetFirstSibling.c 0x00000000   Number         0  wm__getfirstsibling.o ABSOLUTE
    ..\..\..\Utilities\Third_Party\STemWin532_20160205\GUI\WM\WM__GetOrg_AA.c 0x00000000   Number         0  wm__getorg_aa.o ABSOLUTE
    ..\..\..\Utilities\Third_Party\STemWin532_20160205\GUI\WM\WM__GetPrevSibling.c 0x00000000   Number         0  wm__getprevsibling.o ABSOLUTE
    ..\..\..\Utilities\Third_Party\STemWin532_20160205\GUI\WM\WM__IsAncestor.c 0x00000000   Number         0  wm__isancestor.o ABSOLUTE
    ..\..\..\Utilities\Third_Party\STemWin532_20160205\GUI\WM\WM__IsEnabled.c 0x00000000   Number         0  wm__isenabled.o ABSOLUTE
    ..\..\..\Utilities\Third_Party\STemWin532_20160205\GUI\WM\WM__SendMessage.c 0x00000000   Number         0  wm__sendmessage.o ABSOLUTE
    ..\..\..\Utilities\Third_Party\STemWin532_20160205\GUI\WM\WM__SendMessageIfEnabled.c 0x00000000   Number         0  wm__sendmessageifenabled.o ABSOLUTE
    ..\..\..\Utilities\Third_Party\STemWin532_20160205\GUI\WM\WM__SendMessageNoPara.c 0x00000000   Number         0  wm__sendmessagenopara.o ABSOLUTE
    ..\..\..\Utilities\Third_Party\STemWin532_20160205\GUI\WM\WM__UpdateChildPositions.c 0x00000000   Number         0  wm__updatechildpositions.o ABSOLUTE
    ..\APP\Interface\Alarm_interface.c       0x00000000   Number         0  alarm_interface.o ABSOLUTE
    ..\APP\Interface\Atomizer_inquiry_interface.c 0x00000000   Number         0  atomizer_inquiry_interface.o ABSOLUTE
    ..\APP\Interface\Batt_JZ_interface.c     0x00000000   Number         0  batt_jz_interface.o ABSOLUTE
    ..\APP\Interface\Battery_charging_interface.c 0x00000000   Number         0  battery_charging_interface.o ABSOLUTE
    ..\APP\Interface\Custom_curve_adjustment_interface.c 0x00000000   Number         0  custom_curve_adjustment_interface.o ABSOLUTE
    ..\APP\Interface\DIY_menu_interface.c    0x00000000   Number         0  diy_menu_interface.o ABSOLUTE
    ..\APP\Interface\Firmware_Tim_interface.c 0x00000000   Number         0  firmware_tim_interface.o ABSOLUTE
    ..\APP\Interface\Lock_Resis_Interface.c  0x00000000   Number         0  lock_resis_interface.o ABSOLUTE
    ..\APP\Interface\Main interface.c        0x00000000   Number         0  main interface.o ABSOLUTE
    ..\APP\Interface\Main_menu_interface.c   0x00000000   Number         0  main_menu_interface.o ABSOLUTE
    ..\APP\Interface\One_Power_interface.c   0x00000000   Number         0  one_power_interface.o ABSOLUTE
    ..\APP\Interface\RTC_Set_interface.c     0x00000000   Number         0  rtc_set_interface.o ABSOLUTE
    ..\APP\Interface\Screensaver_interface.c 0x00000000   Number         0  screensaver_interface.o ABSOLUTE
    ..\APP\Interface\System_off_interface.c  0x00000000   Number         0  system_off_interface.o ABSOLUTE
    ..\APP\Interface\System_settings_interface.c 0x00000000   Number         0  system_settings_interface.o ABSOLUTE
    ..\APP\Interface\TCR_adjust_Interface.c  0x00000000   Number         0  tcr_adjust_interface.o ABSOLUTE
    ..\APP\Interface\VT_MODE_Set_interface.c 0x00000000   Number         0  vt_mode_set_interface.o ABSOLUTE
    ..\APP\Interface\WM_Disp.c               0x00000000   Number         0  wm_disp.o ABSOLUTE
    ..\APP\Interface\public.c                0x00000000   Number         0  public.o ABSOLUTE
    ..\APP\KEY_LED\KEY_LED.c                 0x00000000   Number         0  key_led.o ABSOLUTE
    ..\APP\Out_Control\Bypass_MODE_Control.c 0x00000000   Number         0  bypass_mode_control.o ABSOLUTE
    ..\APP\Out_Control\CurveCCT_Mode_control.c 0x00000000   Number         0  curvecct_mode_control.o ABSOLUTE
    ..\APP\Out_Control\CurveCCV_Mode_control.c 0x00000000   Number         0  curveccv_mode_control.o ABSOLUTE
    ..\APP\Out_Control\CurveWatt_MODE_Control.c 0x00000000   Number         0  curvewatt_mode_control.o ABSOLUTE
    ..\APP\Out_Control\SPP_MODE_Control.c    0x00000000   Number         0  spp_mode_control.o ABSOLUTE
    ..\APP\Out_Control\Tempe_MODE_Control.c  0x00000000   Number         0  tempe_mode_control.o ABSOLUTE
    ..\APP\Out_Control\Voltage_MODE_Control.c 0x00000000   Number         0  voltage_mode_control.o ABSOLUTE
    ..\APP\Out_Control\Watt_MODE_Control.c   0x00000000   Number         0  watt_mode_control.o ABSOLUTE
    ..\APP\RTC\APP_RTC.c                     0x00000000   Number         0  app_rtc.o ABSOLUTE
    ..\APP\TFT_Init\Brightness_AUTO.c        0x00000000   Number         0  brightness_auto.o ABSOLUTE
    ..\APP\TFT_Init\TFT_Drive.c              0x00000000   Number         0  tft_drive.o ABSOLUTE
    ..\APP\TFT_Init\TFT_Init.c               0x00000000   Number         0  tft_init.o ABSOLUTE
    ..\APP\Vibrate\Vibrate.c                 0x00000000   Number         0  vibrate.o ABSOLUTE
    ..\Drivers\CMSIS\DSP_Lib\Source\CommonTables\arm_common_tables.c 0x00000000   Number         0  arm_common_tables.o ABSOLUTE
    ..\Drivers\CMSIS\DSP_Lib\Source\FastMathFunctions\arm_cos_f32.c 0x00000000   Number         0  arm_cos_f32.o ABSOLUTE
    ..\Drivers\CMSIS\DSP_Lib\Source\FastMathFunctions\arm_sin_f32.c 0x00000000   Number         0  arm_sin_f32.o ABSOLUTE
    ..\Drivers\STM32F4xx_HAL_Driver\Src\stm32f4xx_hal.c 0x00000000   Number         0  stm32f4xx_hal.o ABSOLUTE
    ..\Drivers\STM32F4xx_HAL_Driver\Src\stm32f4xx_hal_adc.c 0x00000000   Number         0  stm32f4xx_hal_adc.o ABSOLUTE
    ..\Drivers\STM32F4xx_HAL_Driver\Src\stm32f4xx_hal_cortex.c 0x00000000   Number         0  stm32f4xx_hal_cortex.o ABSOLUTE
    ..\Drivers\STM32F4xx_HAL_Driver\Src\stm32f4xx_hal_dma.c 0x00000000   Number         0  stm32f4xx_hal_dma.o ABSOLUTE
    ..\Drivers\STM32F4xx_HAL_Driver\Src\stm32f4xx_hal_dma_ex.c 0x00000000   Number         0  stm32f4xx_hal_dma_ex.o ABSOLUTE
    ..\Drivers\STM32F4xx_HAL_Driver\Src\stm32f4xx_hal_flash.c 0x00000000   Number         0  stm32f4xx_hal_flash.o ABSOLUTE
    ..\Drivers\STM32F4xx_HAL_Driver\Src\stm32f4xx_hal_flash_ex.c 0x00000000   Number         0  stm32f4xx_hal_flash_ex.o ABSOLUTE
    ..\Drivers\STM32F4xx_HAL_Driver\Src\stm32f4xx_hal_flash_ramfunc.c 0x00000000   Number         0  stm32f4xx_hal_flash_ramfunc.o ABSOLUTE
    ..\Drivers\STM32F4xx_HAL_Driver\Src\stm32f4xx_hal_gpio.c 0x00000000   Number         0  stm32f4xx_hal_gpio.o ABSOLUTE
    ..\Drivers\STM32F4xx_HAL_Driver\Src\stm32f4xx_hal_pcd.c 0x00000000   Number         0  stm32f4xx_hal_pcd.o ABSOLUTE
    ..\Drivers\STM32F4xx_HAL_Driver\Src\stm32f4xx_hal_pcd_ex.c 0x00000000   Number         0  stm32f4xx_hal_pcd_ex.o ABSOLUTE
    ..\Drivers\STM32F4xx_HAL_Driver\Src\stm32f4xx_hal_pwr.c 0x00000000   Number         0  stm32f4xx_hal_pwr.o ABSOLUTE
    ..\Drivers\STM32F4xx_HAL_Driver\Src\stm32f4xx_hal_pwr_ex.c 0x00000000   Number         0  stm32f4xx_hal_pwr_ex.o ABSOLUTE
    ..\Drivers\STM32F4xx_HAL_Driver\Src\stm32f4xx_hal_rcc.c 0x00000000   Number         0  stm32f4xx_hal_rcc.o ABSOLUTE
    ..\Drivers\STM32F4xx_HAL_Driver\Src\stm32f4xx_hal_rcc_ex.c 0x00000000   Number         0  stm32f4xx_hal_rcc_ex.o ABSOLUTE
    ..\Drivers\STM32F4xx_HAL_Driver\Src\stm32f4xx_hal_tim.c 0x00000000   Number         0  stm32f4xx_hal_tim.o ABSOLUTE
    ..\Drivers\STM32F4xx_HAL_Driver\Src\stm32f4xx_hal_tim_ex.c 0x00000000   Number         0  stm32f4xx_hal_tim_ex.o ABSOLUTE
    ..\Drivers\STM32F4xx_HAL_Driver\Src\stm32f4xx_ll_adc.c 0x00000000   Number         0  stm32f4xx_ll_adc.o ABSOLUTE
    ..\Drivers\STM32F4xx_HAL_Driver\Src\stm32f4xx_ll_crc.c 0x00000000   Number         0  stm32f4xx_ll_crc.o ABSOLUTE
    ..\Drivers\STM32F4xx_HAL_Driver\Src\stm32f4xx_ll_dma.c 0x00000000   Number         0  stm32f4xx_ll_dma.o ABSOLUTE
    ..\Drivers\STM32F4xx_HAL_Driver\Src\stm32f4xx_ll_exti.c 0x00000000   Number         0  stm32f4xx_ll_exti.o ABSOLUTE
    ..\Drivers\STM32F4xx_HAL_Driver\Src\stm32f4xx_ll_gpio.c 0x00000000   Number         0  stm32f4xx_ll_gpio.o ABSOLUTE
    ..\Drivers\STM32F4xx_HAL_Driver\Src\stm32f4xx_ll_rcc.c 0x00000000   Number         0  stm32f4xx_ll_rcc.o ABSOLUTE
    ..\Drivers\STM32F4xx_HAL_Driver\Src\stm32f4xx_ll_rtc.c 0x00000000   Number         0  stm32f4xx_ll_rtc.o ABSOLUTE
    ..\Drivers\STM32F4xx_HAL_Driver\Src\stm32f4xx_ll_spi.c 0x00000000   Number         0  stm32f4xx_ll_spi.o ABSOLUTE
    ..\Drivers\STM32F4xx_HAL_Driver\Src\stm32f4xx_ll_tim.c 0x00000000   Number         0  stm32f4xx_ll_tim.o ABSOLUTE
    ..\Drivers\STM32F4xx_HAL_Driver\Src\stm32f4xx_ll_usb.c 0x00000000   Number         0  stm32f4xx_ll_usb.o ABSOLUTE
    ..\Drivers\STM32F4xx_HAL_Driver\Src\stm32f4xx_ll_utils.c 0x00000000   Number         0  stm32f4xx_ll_utils.o ABSOLUTE
    ..\Emwin_使用图片\字体\Arial17.c         0x00000000   Number         0  arial17.o ABSOLUTE
    ..\Emwin_使用图片\字体\Arial22.c         0x00000000   Number         0  arial22.o ABSOLUTE
    ..\Emwin_使用图片\字体\Arial27.c         0x00000000   Number         0  arial27.o ABSOLUTE
    ..\Emwin_使用图片\字体\Arial32.c         0x00000000   Number         0  arial32.o ABSOLUTE
    ..\Emwin_使用图片\字体\Arial41.c         0x00000000   Number         0  arial41.o ABSOLUTE
    ..\Emwin_使用图片\字体\Arial47.c         0x00000000   Number         0  arial47.o ABSOLUTE
    ..\Emwin_使用图片\字体\Arial60.c         0x00000000   Number         0  arial60.o ABSOLUTE
    ..\Emwin_使用图片\字体\Arial82.c         0x00000000   Number         0  arial82.o ABSOLUTE
    ..\Emwin_使用图片\字体\Raavi18.c         0x00000000   Number         0  raavi18.o ABSOLUTE
    ..\Emwin_使用图片\字体\Raavi22.c         0x00000000   Number         0  raavi22.o ABSOLUTE
    ..\Emwin_使用图片\字体\Raavi33_16.c      0x00000000   Number         0  raavi33_16.o ABSOLUTE
    ..\Emwin_使用图片\字体\Raavi38B_19.c     0x00000000   Number         0  raavi38b_19.o ABSOLUTE
    ..\Emwin_使用图片\字体\Raavi64B_28.c     0x00000000   Number         0  raavi64b_28.o ABSOLUTE
    ..\Flash\Flahs_Data.c                    0x00000000   Number         0  flahs_data.o ABSOLUTE
    ..\Flash\Flahs_Driver.c                  0x00000000   Number         0  flahs_driver.o ABSOLUTE
    ..\Middlewares\ST\STM32_USB_Device_Library\Class\CustomHID\Src\usbd_customhid.c 0x00000000   Number         0  usbd_customhid.o ABSOLUTE
    ..\Middlewares\ST\STM32_USB_Device_Library\Core\Src\usbd_core.c 0x00000000   Number         0  usbd_core.o ABSOLUTE
    ..\Middlewares\ST\STM32_USB_Device_Library\Core\Src\usbd_ctlreq.c 0x00000000   Number         0  usbd_ctlreq.o ABSOLUTE
    ..\Middlewares\ST\STM32_USB_Device_Library\Core\Src\usbd_ioreq.c 0x00000000   Number         0  usbd_ioreq.o ABSOLUTE
    ..\STemWinLibrary532\Config\GUIConf.c    0x00000000   Number         0  guiconf.o ABSOLUTE
    ..\STemWinLibrary532\Config\GUIDRV_Template.c 0x00000000   Number         0  guidrv_template.o ABSOLUTE
    ..\STemWinLibrary532\Config\LCDConf_FlexColor_Template.c 0x00000000   Number         0  lcdconf_flexcolor_template.o ABSOLUTE
    ..\STemWinLibrary532\Font2\Raavi49B_22.c 0x00000000   Number         0  raavi49b_22.o ABSOLUTE
    ..\STemWinLibrary532\Font\Accidental_Presidency140.c 0x00000000   Number         0  accidental_presidency140.o ABSOLUTE
    ..\STemWinLibrary532\Font\Century45Gothic10_808.c 0x00000000   Number         0  century45gothic10_808.o ABSOLUTE
    ..\STemWinLibrary532\Font\GUI_XBF_Font.c 0x00000000   Number         0  gui_xbf_font.o ABSOLUTE
    ..\STemWinLibrary532\Font\Gill18Sans_MT4_632.c 0x00000000   Number         0  gill18sans_mt4_632.o ABSOLUTE
    ..\STemWinLibrary532\Font\Gill37Sans_MT9_264.c 0x00000000   Number         0  gill37sans_mt9_264.o ABSOLUTE
    ..\STemWinLibrary532\GUI_image_FLASH.c   0x00000000   Number         0  gui_image_flash.o ABSOLUTE
    ..\STemWinLibrary532\OS\GUI_X.c          0x00000000   Number         0  gui_x.o ABSOLUTE
    ..\Src\adc.c                             0x00000000   Number         0  adc.o ABSOLUTE
    ..\Src\crc.c                             0x00000000   Number         0  crc.o ABSOLUTE
    ..\Src\gpio.c                            0x00000000   Number         0  gpio.o ABSOLUTE
    ..\Src\main.c                            0x00000000   Number         0  main.o ABSOLUTE
    ..\Src\rtc.c                             0x00000000   Number         0  rtc.o ABSOLUTE
    ..\Src\spi.c                             0x00000000   Number         0  spi.o ABSOLUTE
    ..\Src\stm32f4xx_hal_msp.c               0x00000000   Number         0  stm32f4xx_hal_msp.o ABSOLUTE
    ..\Src\stm32f4xx_it.c                    0x00000000   Number         0  stm32f4xx_it.o ABSOLUTE
    ..\Src\system_stm32f4xx.c                0x00000000   Number         0  system_stm32f4xx.o ABSOLUTE
    ..\Src\tim.c                             0x00000000   Number         0  tim.o ABSOLUTE
    ..\Src\usb_device.c                      0x00000000   Number         0  usb_device.o ABSOLUTE
    ..\Src\usbd_conf.c                       0x00000000   Number         0  usbd_conf.o ABSOLUTE
    ..\Src\usbd_custom_hid_if.c              0x00000000   Number         0  usbd_custom_hid_if.o ABSOLUTE
    ..\Src\usbd_desc.c                       0x00000000   Number         0  usbd_desc.o ABSOLUTE
    ..\USB\APP_USB.c                         0x00000000   Number         0  app_usb.o ABSOLUTE
    ..\USB\Program_Upgrade_Status.c          0x00000000   Number         0  program_upgrade_status.o ABSOLUTE
    ..\\APP\\Interface\\Alarm_interface.c    0x00000000   Number         0  alarm_interface.o ABSOLUTE
    ..\\APP\\Interface\\Atomizer_inquiry_interface.c 0x00000000   Number         0  atomizer_inquiry_interface.o ABSOLUTE
    ..\\APP\\Interface\\Batt_JZ_interface.c  0x00000000   Number         0  batt_jz_interface.o ABSOLUTE
    ..\\APP\\Interface\\Battery_charging_interface.c 0x00000000   Number         0  battery_charging_interface.o ABSOLUTE
    ..\\APP\\Interface\\Custom_curve_adjustment_interface.c 0x00000000   Number         0  custom_curve_adjustment_interface.o ABSOLUTE
    ..\\APP\\Interface\\DIY_menu_interface.c 0x00000000   Number         0  diy_menu_interface.o ABSOLUTE
    ..\\APP\\Interface\\Firmware_Tim_interface.c 0x00000000   Number         0  firmware_tim_interface.o ABSOLUTE
    ..\\APP\\Interface\\Lock_Resis_Interface.c 0x00000000   Number         0  lock_resis_interface.o ABSOLUTE
    ..\\APP\\Interface\\Main interface.c     0x00000000   Number         0  main interface.o ABSOLUTE
    ..\\APP\\Interface\\Main_menu_interface.c 0x00000000   Number         0  main_menu_interface.o ABSOLUTE
    ..\\APP\\Interface\\One_Power_interface.c 0x00000000   Number         0  one_power_interface.o ABSOLUTE
    ..\\APP\\Interface\\RTC_Set_interface.c  0x00000000   Number         0  rtc_set_interface.o ABSOLUTE
    ..\\APP\\Interface\\Screensaver_interface.c 0x00000000   Number         0  screensaver_interface.o ABSOLUTE
    ..\\APP\\Interface\\System_off_interface.c 0x00000000   Number         0  system_off_interface.o ABSOLUTE
    ..\\APP\\Interface\\System_settings_interface.c 0x00000000   Number         0  system_settings_interface.o ABSOLUTE
    ..\\APP\\Interface\\TCR_adjust_Interface.c 0x00000000   Number         0  tcr_adjust_interface.o ABSOLUTE
    ..\\APP\\Interface\\VT_MODE_Set_interface.c 0x00000000   Number         0  vt_mode_set_interface.o ABSOLUTE
    ..\\APP\\Interface\\WM_Disp.c            0x00000000   Number         0  wm_disp.o ABSOLUTE
    ..\\APP\\Interface\\public.c             0x00000000   Number         0  public.o ABSOLUTE
    ..\\APP\\KEY_LED\\KEY_LED.c              0x00000000   Number         0  key_led.o ABSOLUTE
    ..\\APP\\Out_Control\\Bypass_MODE_Control.c 0x00000000   Number         0  bypass_mode_control.o ABSOLUTE
    ..\\APP\\Out_Control\\CurveCCT_Mode_control.c 0x00000000   Number         0  curvecct_mode_control.o ABSOLUTE
    ..\\APP\\Out_Control\\CurveCCV_Mode_control.c 0x00000000   Number         0  curveccv_mode_control.o ABSOLUTE
    ..\\APP\\Out_Control\\CurveWatt_MODE_Control.c 0x00000000   Number         0  curvewatt_mode_control.o ABSOLUTE
    ..\\APP\\Out_Control\\SPP_MODE_Control.c 0x00000000   Number         0  spp_mode_control.o ABSOLUTE
    ..\\APP\\Out_Control\\Tempe_MODE_Control.c 0x00000000   Number         0  tempe_mode_control.o ABSOLUTE
    ..\\APP\\Out_Control\\Voltage_MODE_Control.c 0x00000000   Number         0  voltage_mode_control.o ABSOLUTE
    ..\\APP\\Out_Control\\Watt_MODE_Control.c 0x00000000   Number         0  watt_mode_control.o ABSOLUTE
    ..\\APP\\RTC\\APP_RTC.c                  0x00000000   Number         0  app_rtc.o ABSOLUTE
    ..\\APP\\TFT_Init\\Brightness_AUTO.c     0x00000000   Number         0  brightness_auto.o ABSOLUTE
    ..\\APP\\TFT_Init\\TFT_Drive.c           0x00000000   Number         0  tft_drive.o ABSOLUTE
    ..\\APP\\TFT_Init\\TFT_Init.c            0x00000000   Number         0  tft_init.o ABSOLUTE
    ..\\APP\\Vibrate\\Vibrate.c              0x00000000   Number         0  vibrate.o ABSOLUTE
    ..\\Drivers\\CMSIS\\DSP_Lib\\Source\\CommonTables\\arm_common_tables.c 0x00000000   Number         0  arm_common_tables.o ABSOLUTE
    ..\\Drivers\\CMSIS\\DSP_Lib\\Source\\FastMathFunctions\\arm_cos_f32.c 0x00000000   Number         0  arm_cos_f32.o ABSOLUTE
    ..\\Drivers\\CMSIS\\DSP_Lib\\Source\\FastMathFunctions\\arm_sin_f32.c 0x00000000   Number         0  arm_sin_f32.o ABSOLUTE
    ..\\Drivers\\STM32F4xx_HAL_Driver\\Src\\stm32f4xx_hal_adc.c 0x00000000   Number         0  stm32f4xx_hal_adc.o ABSOLUTE
    ..\\Drivers\\STM32F4xx_HAL_Driver\\Src\\stm32f4xx_hal_pcd.c 0x00000000   Number         0  stm32f4xx_hal_pcd.o ABSOLUTE
    ..\\Drivers\\STM32F4xx_HAL_Driver\\Src\\stm32f4xx_hal_pcd_ex.c 0x00000000   Number         0  stm32f4xx_hal_pcd_ex.o ABSOLUTE
    ..\\Drivers\\STM32F4xx_HAL_Driver\\Src\\stm32f4xx_ll_adc.c 0x00000000   Number         0  stm32f4xx_ll_adc.o ABSOLUTE
    ..\\Drivers\\STM32F4xx_HAL_Driver\\Src\\stm32f4xx_ll_crc.c 0x00000000   Number         0  stm32f4xx_ll_crc.o ABSOLUTE
    ..\\Drivers\\STM32F4xx_HAL_Driver\\Src\\stm32f4xx_ll_dma.c 0x00000000   Number         0  stm32f4xx_ll_dma.o ABSOLUTE
    ..\\Drivers\\STM32F4xx_HAL_Driver\\Src\\stm32f4xx_ll_rtc.c 0x00000000   Number         0  stm32f4xx_ll_rtc.o ABSOLUTE
    ..\\Drivers\\STM32F4xx_HAL_Driver\\Src\\stm32f4xx_ll_spi.c 0x00000000   Number         0  stm32f4xx_ll_spi.o ABSOLUTE
    ..\\Drivers\\STM32F4xx_HAL_Driver\\Src\\stm32f4xx_ll_tim.c 0x00000000   Number         0  stm32f4xx_ll_tim.o ABSOLUTE
    ..\\Drivers\\STM32F4xx_HAL_Driver\\Src\\stm32f4xx_ll_usb.c 0x00000000   Number         0  stm32f4xx_ll_usb.o ABSOLUTE
    ..\\Flash\\Flahs_Driver.c                0x00000000   Number         0  flahs_driver.o ABSOLUTE
    ..\\Middlewares\\ST\\STM32_USB_Device_Library\\Class\\CustomHID\\Src\\usbd_customhid.c 0x00000000   Number         0  usbd_customhid.o ABSOLUTE
    ..\\Middlewares\\ST\\STM32_USB_Device_Library\\Core\\Src\\usbd_core.c 0x00000000   Number         0  usbd_core.o ABSOLUTE
    ..\\Middlewares\\ST\\STM32_USB_Device_Library\\Core\\Src\\usbd_ctlreq.c 0x00000000   Number         0  usbd_ctlreq.o ABSOLUTE
    ..\\Middlewares\\ST\\STM32_USB_Device_Library\\Core\\Src\\usbd_ioreq.c 0x00000000   Number         0  usbd_ioreq.o ABSOLUTE
    ..\\STemWinLibrary532\\Config\\GUIDRV_Template.c 0x00000000   Number         0  guidrv_template.o ABSOLUTE
    ..\\STemWinLibrary532\\Config\\LCDConf_FlexColor_Template.c 0x00000000   Number         0  lcdconf_flexcolor_template.o ABSOLUTE
    ..\\STemWinLibrary532\\GUI_image_FLASH.c 0x00000000   Number         0  gui_image_flash.o ABSOLUTE
    ..\\Src\\adc.c                           0x00000000   Number         0  adc.o ABSOLUTE
    ..\\Src\\crc.c                           0x00000000   Number         0  crc.o ABSOLUTE
    ..\\Src\\rtc.c                           0x00000000   Number         0  rtc.o ABSOLUTE
    ..\\Src\\spi.c                           0x00000000   Number         0  spi.o ABSOLUTE
    ..\\Src\\tim.c                           0x00000000   Number         0  tim.o ABSOLUTE
    ..\\Src\\usb_device.c                    0x00000000   Number         0  usb_device.o ABSOLUTE
    ..\\Src\\usbd_conf.c                     0x00000000   Number         0  usbd_conf.o ABSOLUTE
    ..\\Src\\usbd_custom_hid_if.c            0x00000000   Number         0  usbd_custom_hid_if.o ABSOLUTE
    ..\\Src\\usbd_desc.c                     0x00000000   Number         0  usbd_desc.o ABSOLUTE
    ..\\USB\\APP_USB.c                       0x00000000   Number         0  app_usb.o ABSOLUTE
    ..\\USB\\Program_Upgrade_Status.c        0x00000000   Number         0  program_upgrade_status.o ABSOLUTE
    ..\\main\\ADC_Module.c                   0x00000000   Number         0  adc_module.o ABSOLUTE
    ..\\main\\APP_Atomizer.c                 0x00000000   Number         0  app_atomizer.o ABSOLUTE
    ..\\main\\APP_ChargingBAT.c              0x00000000   Number         0  app_chargingbat.o ABSOLUTE
    ..\\main\\APP_Compare.c                  0x00000000   Number         0  app_compare.o ABSOLUTE
    ..\\main\\APP_Custom.c                   0x00000000   Number         0  app_custom.o ABSOLUTE
    ..\\main\\APP_Delay.c                    0x00000000   Number         0  app_delay.o ABSOLUTE
    ..\\main\\APP_FLASH.c                    0x00000000   Number         0  app_flash.o ABSOLUTE
    ..\\main\\APP_KEY.c                      0x00000000   Number         0  app_key.o ABSOLUTE
    ..\\main\\APP_OutputControl.c            0x00000000   Number         0  app_outputcontrol.o ABSOLUTE
    ..\\main\\APP_PWM_int.c                  0x00000000   Number         0  app_pwm_int.o ABSOLUTE
    ..\\main\\APP_Sleeping.c                 0x00000000   Number         0  app_sleeping.o ABSOLUTE
    ..\\main\\Statistics Port number.c       0x00000000   Number         0  statistics port number.o ABSOLUTE
    ..\\main\\sqrt_16.c                      0x00000000   Number         0  sqrt_16.o ABSOLUTE
    ..\main\ADC_Module.c                     0x00000000   Number         0  adc_module.o ABSOLUTE
    ..\main\APP_Atomizer.c                   0x00000000   Number         0  app_atomizer.o ABSOLUTE
    ..\main\APP_ChargingBAT.c                0x00000000   Number         0  app_chargingbat.o ABSOLUTE
    ..\main\APP_Compare.c                    0x00000000   Number         0  app_compare.o ABSOLUTE
    ..\main\APP_Custom.c                     0x00000000   Number         0  app_custom.o ABSOLUTE
    ..\main\APP_Delay.c                      0x00000000   Number         0  app_delay.o ABSOLUTE
    ..\main\APP_FLASH.c                      0x00000000   Number         0  app_flash.o ABSOLUTE
    ..\main\APP_KEY.c                        0x00000000   Number         0  app_key.o ABSOLUTE
    ..\main\APP_OutputControl.c              0x00000000   Number         0  app_outputcontrol.o ABSOLUTE
    ..\main\APP_PWM_int.c                    0x00000000   Number         0  app_pwm_int.o ABSOLUTE
    ..\main\APP_Sleeping.c                   0x00000000   Number         0  app_sleeping.o ABSOLUTE
    ..\main\Statistics Port number.c         0x00000000   Number         0  statistics port number.o ABSOLUTE
    ..\main\sqrt_16.c                        0x00000000   Number         0  sqrt_16.o ABSOLUTE
    cdrcmple.s                               0x00000000   Number         0  cdrcmple.o ABSOLUTE
    dc.s                                     0x00000000   Number         0  dc.o ABSOLUTE
    handlers.s                               0x00000000   Number         0  handlers.o ABSOLUTE
    init.s                                   0x00000000   Number         0  init.o ABSOLUTE
    startup_stm32f401xe.s                    0x00000000   Number         0  startup_stm32f401xe.o ABSOLUTE
    RESET                                    0x08010000   Section      404  startup_stm32f401xe.o(RESET)
    .ARM.Collect$$$$00000000                 0x08010194   Section        0  entry.o(.ARM.Collect$$$$00000000)
    .ARM.Collect$$$$00000001                 0x08010194   Section        4  entry2.o(.ARM.Collect$$$$00000001)
    .ARM.Collect$$$$00000004                 0x08010198   Section        4  entry5.o(.ARM.Collect$$$$00000004)
    .ARM.Collect$$$$00000008                 0x0801019c   Section        0  entry7b.o(.ARM.Collect$$$$00000008)
    .ARM.Collect$$$$0000000A                 0x0801019c   Section        0  entry8b.o(.ARM.Collect$$$$0000000A)
    .ARM.Collect$$$$0000000B                 0x0801019c   Section        8  entry9a.o(.ARM.Collect$$$$0000000B)
    .ARM.Collect$$$$0000000D                 0x080101a4   Section        0  entry10a.o(.ARM.Collect$$$$0000000D)
    .ARM.Collect$$$$0000000F                 0x080101a4   Section        0  entry11a.o(.ARM.Collect$$$$0000000F)
    .ARM.Collect$$$$00002712                 0x080101a4   Section        4  entry2.o(.ARM.Collect$$$$00002712)
    __lit__00000000                          0x080101a4   Data           4  entry2.o(.ARM.Collect$$$$00002712)
    .text                                    0x080101a8   Section       36  startup_stm32f401xe.o(.text)
    $v0                                      0x080101a8   Number         0  startup_stm32f401xe.o(.text)
    .text                                    0x080101cc   Section        0  memmovea.o(.text)
    .text                                    0x0801020c   Section        0  memseta.o(.text)
    .text                                    0x08010230   Section        0  strcmp.o(.text)
    .text                                    0x0801024c   Section        0  dmul.o(.text)
    .text                                    0x08010330   Section        0  ddiv.o(.text)
    .text                                    0x0801040e   Section        0  dflti.o(.text)
    .text                                    0x08010430   Section        0  dfixi.o(.text)
    .text                                    0x0801046e   Section        0  f2d.o(.text)
    .text                                    0x08010494   Section        0  d2f.o(.text)
    .text                                    0x080104cc   Section        0  uidiv.o(.text)
    .text                                    0x080104f8   Section        0  llshl.o(.text)
    .text                                    0x08010516   Section        0  llushr.o(.text)
    .text                                    0x08010536   Section        0  iusefp.o(.text)
    .text                                    0x08010536   Section        0  fepilogue.o(.text)
    .text                                    0x080105a4   Section        0  depilogue.o(.text)
    .text                                    0x0801065e   Section        0  dadd.o(.text)
    .text                                    0x080107ac   Section       48  cdrcmple.o(.text)
    .text                                    0x080107dc   Section       36  init.o(.text)
    .text                                    0x08010800   Section        0  llsshr.o(.text)
    .text                                    0x08010824   Section        0  __dczerorl2.o(.text)
    i.ADC_IRQHandler                         0x0801087c   Section        0  stm32f4xx_it.o(i.ADC_IRQHandler)
    i.ADC_TDx_Data                           0x080108b0   Section        0  adc.o(i.ADC_TDx_Data)
    i.ADC_TDx_Data_1C                        0x0801093c   Section        0  adc.o(i.ADC_TDx_Data_1C)
    i.ADDSUB_LOCK_GOTO                       0x08010984   Section        0  public.o(i.ADDSUB_LOCK_GOTO)
    i.AUTO_MODE_Set_interface                0x08010a1c   Section        0  system_settings_interface.o(i.AUTO_MODE_Set_interface)
    i.AUTO_MODE_Set_touch                    0x08010aa0   Section        0  system_settings_interface.o(i.AUTO_MODE_Set_touch)
    i.AUTO_MODE_Set_windows                  0x08010b28   Section        0  system_settings_interface.o(i.AUTO_MODE_Set_windows)
    AUTO_MODE_Set_windows                    0x08010b29   Thumb Code   152  system_settings_interface.o(i.AUTO_MODE_Set_windows)
    i.AUTO_MODE_parts                        0x08010bf0   Section        0  main interface.o(i.AUTO_MODE_parts)
    AUTO_MODE_parts                          0x08010bf1   Thumb Code    20  main interface.o(i.AUTO_MODE_parts)
    i.Arc_Elongation                         0x08010c0c   Section        0  main interface.o(i.Arc_Elongation)
    Arc_Elongation                           0x08010c0d   Thumb Code   112  main interface.o(i.Arc_Elongation)
    i.Arc_SPPElongation                      0x08010c88   Section        0  main interface.o(i.Arc_SPPElongation)
    Arc_SPPElongation                        0x08010c89   Thumb Code    36  main interface.o(i.Arc_SPPElongation)
    i.Arc_SPPShorten                         0x08010cb0   Section        0  main interface.o(i.Arc_SPPShorten)
    Arc_SPPShorten                           0x08010cb1   Thumb Code    36  main interface.o(i.Arc_SPPShorten)
    i.Arc_angle_Init                         0x08010cd8   Section        0  main interface.o(i.Arc_angle_Init)
    i.Atomizer_Res_update                    0x08010d0c   Section        0  main interface.o(i.Atomizer_Res_update)
    i.Atomizer_inquiry_GOTO                  0x08010d4c   Section        0  public.o(i.Atomizer_inquiry_GOTO)
    i.Atomizer_inquiry_interface             0x08010dc4   Section        0  atomizer_inquiry_interface.o(i.Atomizer_inquiry_interface)
    i.Atomizer_inquiry_touch                 0x08010e70   Section        0  atomizer_inquiry_interface.o(i.Atomizer_inquiry_touch)
    i.Atomizer_inquiry_windows               0x08010f04   Section        0  atomizer_inquiry_interface.o(i.Atomizer_inquiry_windows)
    i.Auto_Locked                            0x08010fc0   Section        0  main interface.o(i.Auto_Locked)
    i.Auto_match_Watt_program                0x08010ff8   Section        0  atomizer_inquiry_interface.o(i.Auto_match_Watt_program)
    i.BATT_Charging_Count_down               0x08011068   Section        0  app_chargingbat.o(i.BATT_Charging_Count_down)
    BATT_Charging_Count_down                 0x08011069   Thumb Code   138  app_chargingbat.o(i.BATT_Charging_Count_down)
    i.BATT_Charging_Count_down_Init          0x080110f8   Section        0  app_chargingbat.o(i.BATT_Charging_Count_down_Init)
    i.BATT_Charging_Count_down_JS            0x08011148   Section        0  app_chargingbat.o(i.BATT_Charging_Count_down_JS)
    i.BATT_Vip_disp                          0x0801117c   Section        0  main interface.o(i.BATT_Vip_disp)
    BATT_Vip_disp                            0x0801117d   Thumb Code   102  main interface.o(i.BATT_Vip_disp)
    i.BATT_Vip_disp                          0x080111f0   Section        0  battery_charging_interface.o(i.BATT_Vip_disp)
    BATT_Vip_disp                            0x080111f1   Thumb Code   160  battery_charging_interface.o(i.BATT_Vip_disp)
    i.BAT_COMP_ONorOFF                       0x08011290   Section        0  app_compare.o(i.BAT_COMP_ONorOFF)
    i.BAT_Management                         0x08011294   Section        0  app_chargingbat.o(i.BAT_Management)
    i.BAT_Management_Charge                  0x080114ec   Section        0  app_chargingbat.o(i.BAT_Management_Charge)
    i.BAT_PWM_EN                             0x080119a0   Section        0  app_pwm_int.o(i.BAT_PWM_EN)
    i.BAT_PWM_Wdata                          0x080119c0   Section        0  app_pwm_int.o(i.BAT_PWM_Wdata)
    i.BL_OffDisplay_excessive                0x08011a14   Section        0  tft_init.o(i.BL_OffDisplay_excessive)
    i.BL_PWM_OFF                             0x08011a3c   Section        0  app_pwm_int.o(i.BL_PWM_OFF)
    i.BL_PWM_Wdata                           0x08011a48   Section        0  app_pwm_int.o(i.BL_PWM_Wdata)
    i.BL_PanelTurnOffDisplay                 0x08011a54   Section        0  tft_init.o(i.BL_PanelTurnOffDisplay)
    i.BL_PanelTurnOnDisplay                  0x08011a68   Section        0  tft_init.o(i.BL_PanelTurnOnDisplay)
    i.BOOT_LOGO_interface                    0x08011a8c   Section        0  one_power_interface.o(i.BOOT_LOGO_interface)
    i.Batt_Back_shanshuo                     0x08011b6c   Section        0  main interface.o(i.Batt_Back_shanshuo)
    i.Batt_JZ_interface                      0x08011c7c   Section        0  batt_jz_interface.o(i.Batt_JZ_interface)
    i.Batt_Proportion                        0x08011fe4   Section        0  app_chargingbat.o(i.Batt_Proportion)
    i.Batt_error_GOTO                        0x08012224   Section        0  public.o(i.Batt_error_GOTO)
    i.Batt_error_interface                   0x08012240   Section        0  alarm_interface.o(i.Batt_error_interface)
    i.Batt_parts                             0x080122ac   Section        0  main interface.o(i.Batt_parts)
    Batt_parts                               0x080122ad   Thumb Code    86  main interface.o(i.Batt_parts)
    i.BatterGrade_Calculate                  0x0801230c   Section        0  app_chargingbat.o(i.BatterGrade_Calculate)
    i.Battery_charging_interface             0x080123b8   Section        0  battery_charging_interface.o(i.Battery_charging_interface)
    i.Battery_charging_windows               0x080125dc   Section        0  battery_charging_interface.o(i.Battery_charging_windows)
    i.Boot_animation                         0x08012640   Section        0  one_power_interface.o(i.Boot_animation)
    Boot_animation                           0x08012641   Thumb Code    88  one_power_interface.o(i.Boot_animation)
    i.BrightScreen_time_Data_update          0x080126a4   Section        0  system_settings_interface.o(i.BrightScreen_time_Data_update)
    BrightScreen_time_Data_update            0x080126a5   Thumb Code   226  system_settings_interface.o(i.BrightScreen_time_Data_update)
    i.BrightScreen_time_Set_interface        0x080127ac   Section        0  system_settings_interface.o(i.BrightScreen_time_Set_interface)
    BrightScreen_time_Set_interface          0x080127ad   Thumb Code   164  system_settings_interface.o(i.BrightScreen_time_Set_interface)
    i.BrightScreen_time_Set_windows          0x08012890   Section        0  system_settings_interface.o(i.BrightScreen_time_Set_windows)
    BrightScreen_time_Set_windows            0x08012891   Thumb Code    72  system_settings_interface.o(i.BrightScreen_time_Set_windows)
    i.BrightScreen_time_touch                0x08012904   Section        0  system_settings_interface.o(i.BrightScreen_time_touch)
    BrightScreen_time_touch                  0x08012905   Thumb Code   196  system_settings_interface.o(i.BrightScreen_time_touch)
    i.Brightness_Data_update                 0x080129fc   Section        0  system_settings_interface.o(i.Brightness_Data_update)
    Brightness_Data_update                   0x080129fd   Thumb Code   112  system_settings_interface.o(i.Brightness_Data_update)
    i.Brightness_Set_interface               0x08012a78   Section        0  system_settings_interface.o(i.Brightness_Set_interface)
    Brightness_Set_interface                 0x08012a79   Thumb Code   270  system_settings_interface.o(i.Brightness_Set_interface)
    i.Bring_AUTO_Init                        0x08012be4   Section        0  brightness_auto.o(i.Bring_AUTO_Init)
    i.Bring_AUTO_Testing                     0x08012c04   Section        0  brightness_auto.o(i.Bring_AUTO_Testing)
    i.BusFault_Handler                       0x08012d38   Section        0  stm32f4xx_it.o(i.BusFault_Handler)
    i.Bypass_MODE_windows                    0x08012d3c   Section        0  main interface.o(i.Bypass_MODE_windows)
    i.Bypass_Output_control                  0x08012db0   Section        0  bypass_mode_control.o(i.Bypass_Output_control)
    i.Bypass_mode_int                        0x08012e00   Section        0  bypass_mode_control.o(i.Bypass_mode_int)
    i.CCT_Custom_Data_Set_interface          0x08012e20   Section        0  custom_curve_adjustment_interface.o(i.CCT_Custom_Data_Set_interface)
    i.CCT_Custom_Data_Set_windows            0x08012f0c   Section        0  custom_curve_adjustment_interface.o(i.CCT_Custom_Data_Set_windows)
    CCT_Custom_Data_Set_windows              0x08012f0d   Thumb Code   212  custom_curve_adjustment_interface.o(i.CCT_Custom_Data_Set_windows)
    i.CCT_Custom_MODE_windows                0x08012ff8   Section        0  main interface.o(i.CCT_Custom_MODE_windows)
    i.CCT_SET_Operation                      0x080130d4   Section        0  custom_curve_adjustment_interface.o(i.CCT_SET_Operation)
    CCT_SET_Operation                        0x080130d5   Thumb Code   438  custom_curve_adjustment_interface.o(i.CCT_SET_Operation)
    i.CCV_Custom_Data_Set_interface          0x080132b4   Section        0  custom_curve_adjustment_interface.o(i.CCV_Custom_Data_Set_interface)
    i.CCV_Custom_Data_Set_windows            0x080133a0   Section        0  custom_curve_adjustment_interface.o(i.CCV_Custom_Data_Set_windows)
    CCV_Custom_Data_Set_windows              0x080133a1   Thumb Code   108  custom_curve_adjustment_interface.o(i.CCV_Custom_Data_Set_windows)
    i.CCV_Custom_Data_update                 0x08013424   Section        0  custom_curve_adjustment_interface.o(i.CCV_Custom_Data_update)
    i.CCV_Custom_MODE_windows                0x080134bc   Section        0  main interface.o(i.CCV_Custom_MODE_windows)
    i.CCV_SET_Operation                      0x08013530   Section        0  custom_curve_adjustment_interface.o(i.CCV_SET_Operation)
    CCV_SET_Operation                        0x08013531   Thumb Code   196  custom_curve_adjustment_interface.o(i.CCV_SET_Operation)
    i.CCV_yule                               0x08013614   Section        0  curveccv_mode_control.o(i.CCV_yule)
    CCV_yule                                 0x08013615   Thumb Code   182  curveccv_mode_control.o(i.CCV_yule)
    i.CCW_SET_Operation                      0x080136f0   Section        0  custom_curve_adjustment_interface.o(i.CCW_SET_Operation)
    CCW_SET_Operation                        0x080136f1   Thumb Code   168  custom_curve_adjustment_interface.o(i.CCW_SET_Operation)
    i.CC_SET_coordinate_Init                 0x080137b4   Section        0  diy_menu_interface.o(i.CC_SET_coordinate_Init)
    CC_SET_coordinate_Init                   0x080137b5   Thumb Code   110  diy_menu_interface.o(i.CC_SET_coordinate_Init)
    i.CC_SET_menu_interface                  0x08013858   Section        0  diy_menu_interface.o(i.CC_SET_menu_interface)
    i.CC_SET_menu_operation                  0x080138ec   Section        0  diy_menu_interface.o(i.CC_SET_menu_operation)
    CC_SET_menu_operation                    0x080138ed   Thumb Code   132  diy_menu_interface.o(i.CC_SET_menu_operation)
    i.CL_DispChar                            0x080139a4   Section        0  gui_dispchar.o(i.CL_DispChar)
    CL_DispChar                              0x080139a5   Thumb Code   142  gui_dispchar.o(i.CL_DispChar)
    i.COMP_ONorOFF                           0x08013a38   Section        0  app_compare.o(i.COMP_ONorOFF)
    i.CRC_CalcBlockCRC                       0x08013a70   Section        0  crc.o(i.CRC_CalcBlockCRC)
    i.CUSTOM_HID_DeInit_FS                   0x08013a8c   Section        0  usbd_custom_hid_if.o(i.CUSTOM_HID_DeInit_FS)
    CUSTOM_HID_DeInit_FS                     0x08013a8d   Thumb Code     4  usbd_custom_hid_if.o(i.CUSTOM_HID_DeInit_FS)
    i.CUSTOM_HID_Init_FS                     0x08013a90   Section        0  usbd_custom_hid_if.o(i.CUSTOM_HID_Init_FS)
    CUSTOM_HID_Init_FS                       0x08013a91   Thumb Code     4  usbd_custom_hid_if.o(i.CUSTOM_HID_Init_FS)
    i.CUSTOM_HID_OutEvent_FS                 0x08013a94   Section        0  usbd_custom_hid_if.o(i.CUSTOM_HID_OutEvent_FS)
    CUSTOM_HID_OutEvent_FS                   0x08013a95   Thumb Code     4  usbd_custom_hid_if.o(i.CUSTOM_HID_OutEvent_FS)
    i.Calculation_position                   0x08013a98   Section        0  screensaver_interface.o(i.Calculation_position)
    Calculation_position                     0x08013a99   Thumb Code   164  screensaver_interface.o(i.Calculation_position)
    i.Change_Arc_angle_State                 0x08013b4c   Section        0  main interface.o(i.Change_Arc_angle_State)
    Change_Arc_angle_State                   0x08013b4d   Thumb Code   528  main interface.o(i.Change_Arc_angle_State)
    i.Clear_SP_Vape_Arc                      0x08013d7c   Section        0  main interface.o(i.Clear_SP_Vape_Arc)
    Clear_SP_Vape_Arc                        0x08013d7d   Thumb Code   110  main interface.o(i.Clear_SP_Vape_Arc)
    i.Clear_Vape_Arc                         0x08013e14   Section        0  main interface.o(i.Clear_Vape_Arc)
    Clear_Vape_Arc                           0x08013e15   Thumb Code   130  main interface.o(i.Clear_Vape_Arc)
    i.Clear_numberANDlengthTim               0x08013ea8   Section        0  statistics port number.o(i.Clear_numberANDlengthTim)
    i.Copy_information                       0x08013eb8   Section        0  app_usb.o(i.Copy_information)
    i.Copy_information_20                    0x08013eec   Section        0  app_usb.o(i.Copy_information_20)
    i.Count_Vout                             0x08013f28   Section        0  voltage_mode_control.o(i.Count_Vout)
    i.Count_WeekDay                          0x08013f58   Section        0  app_rtc.o(i.Count_WeekDay)
    i.Count_Wout                             0x08013fc0   Section        0  app_outputcontrol.o(i.Count_Wout)
    i.Custom_CCT_Output_control              0x08013fd4   Section        0  curvecct_mode_control.o(i.Custom_CCT_Output_control)
    i.Custom_CCT_mode_int                    0x0801404c   Section        0  curvecct_mode_control.o(i.Custom_CCT_mode_int)
    i.Custom_CCV_Output_control              0x08014168   Section        0  curveccv_mode_control.o(i.Custom_CCV_Output_control)
    i.Custom_CCV_mode_int                    0x08014200   Section        0  curveccv_mode_control.o(i.Custom_CCV_mode_int)
    i.Custom_Data_Set_interface              0x08014290   Section        0  custom_curve_adjustment_interface.o(i.Custom_Data_Set_interface)
    i.Custom_Data_Set_windows                0x0801437c   Section        0  custom_curve_adjustment_interface.o(i.Custom_Data_Set_windows)
    Custom_Data_Set_windows                  0x0801437d   Thumb Code   108  custom_curve_adjustment_interface.o(i.Custom_Data_Set_windows)
    i.Custom_Data_update                     0x08014400   Section        0  custom_curve_adjustment_interface.o(i.Custom_Data_update)
    i.Custom_MODE_windows                    0x08014488   Section        0  main interface.o(i.Custom_MODE_windows)
    i.Custom_Output_control                  0x080144fc   Section        0  curvewatt_mode_control.o(i.Custom_Output_control)
    i.Custom_Set_Tim_Operation               0x08014544   Section        0  custom_curve_adjustment_interface.o(i.Custom_Set_Tim_Operation)
    Custom_Set_Tim_Operation                 0x08014545   Thumb Code   110  custom_curve_adjustment_interface.o(i.Custom_Set_Tim_Operation)
    i.Custom_Tim_update                      0x080145c0   Section        0  custom_curve_adjustment_interface.o(i.Custom_Tim_update)
    Custom_Tim_update                        0x080145c1   Thumb Code   104  custom_curve_adjustment_interface.o(i.Custom_Tim_update)
    i.Custom_WriteFLASH                      0x0801462c   Section        0  app_custom.o(i.Custom_WriteFLASH)
    i.Custom_curve_i_j_update                0x080146bc   Section        0  custom_curve_adjustment_interface.o(i.Custom_curve_i_j_update)
    Custom_curve_i_j_update                  0x080146bd   Thumb Code   206  custom_curve_adjustment_interface.o(i.Custom_curve_i_j_update)
    i.Custom_mode_int                        0x08014794   Section        0  curvewatt_mode_control.o(i.Custom_mode_int)
    i.Custom_windows                         0x080147cc   Section        0  custom_curve_adjustment_interface.o(i.Custom_windows)
    Custom_windows                           0x080147cd   Thumb Code   286  custom_curve_adjustment_interface.o(i.Custom_windows)
    i.Custom_yule                            0x08014914   Section        0  curvewatt_mode_control.o(i.Custom_yule)
    Custom_yule                              0x08014915   Thumb Code   164  curvewatt_mode_control.o(i.Custom_yule)
    i.DISP_Button                            0x080149d8   Section        0  atomizer_inquiry_interface.o(i.DISP_Button)
    DISP_Button                              0x080149d9   Thumb Code    36  atomizer_inquiry_interface.o(i.DISP_Button)
    i.DISP_Button                            0x08014a0c   Section        0  system_settings_interface.o(i.DISP_Button)
    DISP_Button                              0x08014a0d   Thumb Code    36  system_settings_interface.o(i.DISP_Button)
    i.DISP_Button_LOCK                       0x08014a40   Section        0  lock_resis_interface.o(i.DISP_Button_LOCK)
    DISP_Button_LOCK                         0x08014a41   Thumb Code    36  lock_resis_interface.o(i.DISP_Button_LOCK)
    i.DISP_Button_PUFF                       0x08014a74   Section        0  system_settings_interface.o(i.DISP_Button_PUFF)
    DISP_Button_PUFF                         0x08014a75   Thumb Code    36  system_settings_interface.o(i.DISP_Button_PUFF)
    i.DISP_SMART_Button                      0x08014aa8   Section        0  system_settings_interface.o(i.DISP_SMART_Button)
    DISP_SMART_Button                        0x08014aa9   Thumb Code    36  system_settings_interface.o(i.DISP_SMART_Button)
    i.DIY_menu_interface                     0x08014adc   Section        0  diy_menu_interface.o(i.DIY_menu_interface)
    i.DMA1_Stream0_IRQHandler                0x08014b70   Section        0  stm32f4xx_it.o(i.DMA1_Stream0_IRQHandler)
    i.Data_Average                           0x08014b72   Section        0  brightness_auto.o(i.Data_Average)
    Data_Average                             0x08014b73   Thumb Code    30  brightness_auto.o(i.Data_Average)
    i.Data_retention                         0x08014b90   Section        0  app_flash.o(i.Data_retention)
    i.DebugMon_Handler                       0x08014d54   Section        0  stm32f4xx_it.o(i.DebugMon_Handler)
    i.Decide_BAT_Congman                     0x08014d58   Section        0  app_chargingbat.o(i.Decide_BAT_Congman)
    i.Default_Data                           0x08014ddc   Section        0  app_flash.o(i.Default_Data)
    i.Default_Set_interface                  0x08014f8c   Section        0  system_settings_interface.o(i.Default_Set_interface)
    i.Default_Set_touch                      0x08015010   Section        0  system_settings_interface.o(i.Default_Set_touch)
    i.Default_Set_windows                    0x08015094   Section        0  system_settings_interface.o(i.Default_Set_windows)
    Default_Set_windows                      0x08015095   Thumb Code   148  system_settings_interface.o(i.Default_Set_windows)
    i.Delay_Nus                              0x08015158   Section        0  app_delay.o(i.Delay_Nus)
    i.DisWave                                0x08015168   Section        0  main interface.o(i.DisWave)
    DisWave                                  0x08015169   Thumb Code   354  main interface.o(i.DisWave)
    i.DisWaveInit                            0x080152d4   Section        0  main interface.o(i.DisWaveInit)
    DisWaveInit                              0x080152d5   Thumb Code    78  main interface.o(i.DisWaveInit)
    i.Disable_VoutADC_Use                    0x0801532c   Section        0  app_atomizer.o(i.Disable_VoutADC_Use)
    i.Disp_Arc_angle                         0x08015358   Section        0  main interface.o(i.Disp_Arc_angle)
    Disp_Arc_angle                           0x08015359   Thumb Code   444  main interface.o(i.Disp_Arc_angle)
    i.Disp_Atomizer                          0x0801553c   Section        0  tcr_adjust_interface.o(i.Disp_Atomizer)
    Disp_Atomizer                            0x0801553d   Thumb Code   178  tcr_adjust_interface.o(i.Disp_Atomizer)
    i.Disp_Batter_Time_Data                  0x08015604   Section        0  battery_charging_interface.o(i.Disp_Batter_Time_Data)
    Disp_Batter_Time_Data                    0x08015605   Thumb Code   170  battery_charging_interface.o(i.Disp_Batter_Time_Data)
    i.Disp_Button                            0x080156c0   Section        0  vt_mode_set_interface.o(i.Disp_Button)
    Disp_Button                              0x080156c1   Thumb Code    36  vt_mode_set_interface.o(i.Disp_Button)
    i.Disp_Custom_Vout                       0x080156f0   Section        0  main interface.o(i.Disp_Custom_Vout)
    Disp_Custom_Vout                         0x080156f1   Thumb Code   112  main interface.o(i.Disp_Custom_Vout)
    i.Disp_DATA_Adjust_Name                  0x08015768   Section        0  vt_mode_set_interface.o(i.Disp_DATA_Adjust_Name)
    Disp_DATA_Adjust_Name                    0x08015769   Thumb Code   194  vt_mode_set_interface.o(i.Disp_DATA_Adjust_Name)
    i.Disp_Data_Arc                          0x08015840   Section        0  main interface.o(i.Disp_Data_Arc)
    Disp_Data_Arc                            0x08015841   Thumb Code    24  main interface.o(i.Disp_Data_Arc)
    i.Disp_EXIT_Key                          0x0801585c   Section        0  main_menu_interface.o(i.Disp_EXIT_Key)
    i.Disp_Firmware_Tim                      0x080158d4   Section        0  batt_jz_interface.o(i.Disp_Firmware_Tim)
    Disp_Firmware_Tim                        0x080158d5   Thumb Code   298  batt_jz_interface.o(i.Disp_Firmware_Tim)
    i.Disp_L_Arrow                           0x08015a24   Section        0  tcr_adjust_interface.o(i.Disp_L_Arrow)
    Disp_L_Arrow                             0x08015a25   Thumb Code    92  tcr_adjust_interface.o(i.Disp_L_Arrow)
    i.Disp_L_Arrow                           0x08015a90   Section        0  custom_curve_adjustment_interface.o(i.Disp_L_Arrow)
    Disp_L_Arrow                             0x08015a91   Thumb Code    94  custom_curve_adjustment_interface.o(i.Disp_L_Arrow)
    i.Disp_L_Arrow                           0x08015b00   Section        0  rtc_set_interface.o(i.Disp_L_Arrow)
    Disp_L_Arrow                             0x08015b01   Thumb Code    92  rtc_set_interface.o(i.Disp_L_Arrow)
    i.Disp_MENU_Name                         0x08015b6c   Section        0  vt_mode_set_interface.o(i.Disp_MENU_Name)
    i.Disp_Main                              0x08015c44   Section        0  main interface.o(i.Disp_Main)
    Disp_Main                                0x08015c45   Thumb Code   124  main interface.o(i.Disp_Main)
    i.Disp_PWR_Data                          0x08015cc4   Section        0  tcr_adjust_interface.o(i.Disp_PWR_Data)
    Disp_PWR_Data                            0x08015cc5   Thumb Code   316  tcr_adjust_interface.o(i.Disp_PWR_Data)
    i.Disp_Proportion_Data                   0x08015e20   Section        0  battery_charging_interface.o(i.Disp_Proportion_Data)
    Disp_Proportion_Data                     0x08015e21   Thumb Code   166  battery_charging_interface.o(i.Disp_Proportion_Data)
    i.Disp_RTC                               0x08015ed4   Section        0  main interface.o(i.Disp_RTC)
    Disp_RTC                                 0x08015ed5   Thumb Code   194  main interface.o(i.Disp_RTC)
    i.Disp_R_Arrow                           0x08015fa8   Section        0  tcr_adjust_interface.o(i.Disp_R_Arrow)
    Disp_R_Arrow                             0x08015fa9   Thumb Code    92  tcr_adjust_interface.o(i.Disp_R_Arrow)
    i.Disp_R_Arrow                           0x08016014   Section        0  custom_curve_adjustment_interface.o(i.Disp_R_Arrow)
    Disp_R_Arrow                             0x08016015   Thumb Code    94  custom_curve_adjustment_interface.o(i.Disp_R_Arrow)
    i.Disp_R_Arrow                           0x08016084   Section        0  rtc_set_interface.o(i.Disp_R_Arrow)
    Disp_R_Arrow                             0x08016085   Thumb Code    92  rtc_set_interface.o(i.Disp_R_Arrow)
    i.Disp_Resis_Data                        0x080160f0   Section        0  lock_resis_interface.o(i.Disp_Resis_Data)
    Disp_Resis_Data                          0x080160f1   Thumb Code   116  lock_resis_interface.o(i.Disp_Resis_Data)
    i.Disp_SP_Vape_Arc                       0x08016174   Section        0  main interface.o(i.Disp_SP_Vape_Arc)
    Disp_SP_Vape_Arc                         0x08016175   Thumb Code    74  main interface.o(i.Disp_SP_Vape_Arc)
    i.Disp_Set_Tempe                         0x080161d0   Section        0  main interface.o(i.Disp_Set_Tempe)
    Disp_Set_Tempe                           0x080161d1   Thumb Code   106  main interface.o(i.Disp_Set_Tempe)
    i.Disp_Sleep_NOP                         0x08016244   Section        0  app_sleeping.o(i.Disp_Sleep_NOP)
    i.Disp_TCR_Data                          0x08016248   Section        0  tcr_adjust_interface.o(i.Disp_TCR_Data)
    Disp_TCR_Data                            0x08016249   Thumb Code   314  tcr_adjust_interface.o(i.Disp_TCR_Data)
    i.Disp_Vape_Time                         0x080163a4   Section        0  main interface.o(i.Disp_Vape_Time)
    i.Disp_Vape_number                       0x08016458   Section        0  main interface.o(i.Disp_Vape_number)
    i.Display_BAT                            0x080164f4   Section        0  main interface.o(i.Display_BAT)
    i.Display_BAT_Charging                   0x08016660   Section        0  battery_charging_interface.o(i.Display_BAT_Charging)
    i.Draw_Bitmap_EX                         0x080167a4   Section        0  gui_image_flash.o(i.Draw_Bitmap_EX)
    i.EXTI15_10_IRQHandler                   0x080167b8   Section        0  stm32f4xx_it.o(i.EXTI15_10_IRQHandler)
    i.EXTI9_5_IRQHandler                     0x080167d4   Section        0  stm32f4xx_it.o(i.EXTI9_5_IRQHandler)
    i.Enable_VoutADC_Use                     0x0801684c   Section        0  app_atomizer.o(i.Enable_VoutADC_Use)
    i.FIRE_TO_UNLOCK_windows                 0x08016874   Section        0  alarm_interface.o(i.FIRE_TO_UNLOCK_windows)
    i.FLASH_SetErrorCode                     0x08016890   Section        0  stm32f4xx_hal_flash.o(i.FLASH_SetErrorCode)
    FLASH_SetErrorCode                       0x08016891   Thumb Code   116  stm32f4xx_hal_flash.o(i.FLASH_SetErrorCode)
    i.FLASH_WaitForLastOperation             0x0801690c   Section        0  stm32f4xx_hal_flash.o(i.FLASH_WaitForLastOperation)
    i.F_Average_Real                         0x0801695c   Section        0  app_outputcontrol.o(i.F_Average_Real)
    i.F_Average_Temp                         0x08016994   Section        0  app_outputcontrol.o(i.F_Average_Temp)
    i.F_Average_Vout                         0x080169dc   Section        0  app_outputcontrol.o(i.F_Average_Vout)
    i.F_BAT_Actual                           0x08016a5c   Section        0  app_chargingbat.o(i.F_BAT_Actual)
    i.F_BAT_Actual_Inti                      0x08016afc   Section        0  app_chargingbat.o(i.F_BAT_Actual_Inti)
    i.Fanhui_Main_interface                  0x08016b14   Section        0  public.o(i.Fanhui_Main_interface)
    i.Fault_handling                         0x08016b70   Section        0  app_outputcontrol.o(i.Fault_handling)
    i.Fault_handling2                        0x08016b8c   Section        0  app_outputcontrol.o(i.Fault_handling2)
    i.Firmware_Tim_Disp                      0x08016ba0   Section        0  firmware_tim_interface.o(i.Firmware_Tim_Disp)
    i.Firmware_Tim_interface                 0x08016c60   Section        0  firmware_tim_interface.o(i.Firmware_Tim_interface)
    i.Flash_GUI_BMP_GetXSizeEx               0x08016d0c   Section        0  gui_image_flash.o(i.Flash_GUI_BMP_GetXSizeEx)
    i.Flash_GUI_BMP_GetYSizeEx               0x08016d24   Section        0  gui_image_flash.o(i.Flash_GUI_BMP_GetYSizeEx)
    i.Flash_GUI_GIF_DrawSubEx                0x08016d3c   Section        0  gui_image_flash.o(i.Flash_GUI_GIF_DrawSubEx)
    i.Flash_GUI_GIF_GetImageInfoEx           0x08016d58   Section        0  gui_image_flash.o(i.Flash_GUI_GIF_GetImageInfoEx)
    i.Flash_GUI_GIF_GetInfoEx                0x08016d74   Section        0  gui_image_flash.o(i.Flash_GUI_GIF_GetInfoEx)
    i.Flash_GUI_GetStreamedBitmapInfoEx      0x08016d8c   Section        0  gui_image_flash.o(i.Flash_GUI_GetStreamedBitmapInfoEx)
    i.Flash_Init                             0x08016da4   Section        0  flahs_driver.o(i.Flash_Init)
    i.GET_CustomCCT_Data_Y                   0x08016dc0   Section        0  custom_curve_adjustment_interface.o(i.GET_CustomCCT_Data_Y)
    GET_CustomCCT_Data_Y                     0x08016dc1   Thumb Code    68  custom_curve_adjustment_interface.o(i.GET_CustomCCT_Data_Y)
    i.GET_CustomCCV_Data_Y                   0x08016e0c   Section        0  custom_curve_adjustment_interface.o(i.GET_CustomCCV_Data_Y)
    GET_CustomCCV_Data_Y                     0x08016e0d   Thumb Code    44  custom_curve_adjustment_interface.o(i.GET_CustomCCV_Data_Y)
    i.GET_CustomWatt_Data_Y                  0x08016e3c   Section        0  custom_curve_adjustment_interface.o(i.GET_CustomWatt_Data_Y)
    GET_CustomWatt_Data_Y                    0x08016e3d   Thumb Code    44  custom_curve_adjustment_interface.o(i.GET_CustomWatt_Data_Y)
    i.GL_DispChar                            0x08016e6c   Section        0  gui_char.o(i.GL_DispChar)
    i.GL_DrawArc                             0x08016eb0   Section        0  gui_arc.o(i.GL_DrawArc)
    i.GL_DrawBitmap                          0x08016fe0   Section        0  gui_drawbitmap.o(i.GL_DrawBitmap)
    i.GL_FillPolygon                         0x08017084   Section        0  gui_fillpolygon.o(i.GL_FillPolygon)
    i.GOTO_Screensaver_interface             0x080172fc   Section        0  public.o(i.GOTO_Screensaver_interface)
    i.GUIMONO_DispChar                       0x08017300   Section        0  gui_charm.o(i.GUIMONO_DispChar)
    i.GUIMONO_GetCharDistX                   0x08017438   Section        0  gui_charm.o(i.GUIMONO_GetCharDistX)
    i.GUIMONO_GetFontInfo                    0x08017450   Section        0  gui_charm.o(i.GUIMONO_GetFontInfo)
    i.GUIMONO_IsInFont                       0x08017456   Section        0  gui_charm.o(i.GUIMONO_IsInFont)
    i.GUIPROP_AA2_EXT_DispChar               0x08017490   Section        0  guiaa_char2ext.o(i.GUIPROP_AA2_EXT_DispChar)
    i.GUIPROP_EXT_GetCharDistX               0x08017550   Section        0  gui_charpext.o(i.GUIPROP_EXT_GetCharDistX)
    i.GUIPROP_EXT_GetCharInfo                0x080175b8   Section        0  gui_charpext.o(i.GUIPROP_EXT_GetCharInfo)
    i.GUIPROP_EXT_GetFontInfo                0x08017608   Section        0  gui_charpext.o(i.GUIPROP_EXT_GetFontInfo)
    i.GUIPROP_EXT_IsInFont                   0x0801760e   Section        0  gui_charpext.o(i.GUIPROP_EXT_IsInFont)
    i.GUIPROP_EXT__ClearLine                 0x08017634   Section        0  gui_encext.o(i.GUIPROP_EXT__ClearLine)
    i.GUIPROP_EXT__DispLine                  0x0801771c   Section        0  gui_encext.o(i.GUIPROP_EXT__DispLine)
    i.GUIPROP_EXT__FindChar                  0x08017764   Section        0  gui_charpext.o(i.GUIPROP_EXT__FindChar)
    i.GUI_AA_DisableHiRes                    0x08017780   Section        0  guiaa_lib.o(i.GUI_AA_DisableHiRes)
    i.GUI_AA_DrawArc                         0x08017790   Section        0  guiaa_arc.o(i.GUI_AA_DrawArc)
    i.GUI_AA_EnableHiRes                     0x08017834   Section        0  guiaa_lib.o(i.GUI_AA_EnableHiRes)
    i.GUI_AA_Exit                            0x08017844   Section        0  guiaa_lib.o(i.GUI_AA_Exit)
    i.GUI_AA_FillCircle                      0x08017864   Section        0  guiaa_circle.o(i.GUI_AA_FillCircle)
    i.GUI_AA_FillPolygon                     0x080179bc   Section        0  guiaa_poly.o(i.GUI_AA_FillPolygon)
    i.GUI_AA_FillRoundedRect                 0x08017bbc   Section        0  guiaa_fillroundedrect.o(i.GUI_AA_FillRoundedRect)
    i.GUI_AA_HiRes2Pixel                     0x08017dcc   Section        0  guiaa_lib.o(i.GUI_AA_HiRes2Pixel)
    i.GUI_AA_Init                            0x08017de4   Section        0  guiaa_lib.o(i.GUI_AA_Init)
    i.GUI_AA_Init_HiRes                      0x08017ed4   Section        0  guiaa_lib.o(i.GUI_AA_Init_HiRes)
    i.GUI_AA_SetFactor                       0x08017eec   Section        0  guiaa_lib.o(i.GUI_AA_SetFactor)
    i.GUI_AA__DrawCharAA2                    0x08017f28   Section        0  guiaa_char2.o(i.GUI_AA__DrawCharAA2)
    i.GUI_ALLOC_AllocNoInit                  0x080180cc   Section        0  gui_alloc.o(i.GUI_ALLOC_AllocNoInit)
    i.GUI_ALLOC_AllocZero                    0x080180d6   Section        0  gui_alloc_alloczero.o(i.GUI_ALLOC_AllocZero)
    i.GUI_ALLOC_AssignMemory                 0x080180fc   Section        0  gui_alloc.o(i.GUI_ALLOC_AssignMemory)
    i.GUI_ALLOC_Free                         0x0801810c   Section        0  gui_alloc.o(i.GUI_ALLOC_Free)
    i.GUI_ALLOC_FreeFixedBlock               0x08018154   Section        0  gui_alloc.o(i.GUI_ALLOC_FreeFixedBlock)
    i.GUI_ALLOC_GetFixedBlock                0x08018170   Section        0  gui_alloc.o(i.GUI_ALLOC_GetFixedBlock)
    i.GUI_ALLOC_GetMaxSize                   0x08018220   Section        0  gui_alloc.o(i.GUI_ALLOC_GetMaxSize)
    i.GUI_ALLOC_LockH                        0x08018264   Section        0  gui_alloc.o(i.GUI_ALLOC_LockH)
    i.GUI_ALLOC_RequestSize                  0x08018290   Section        0  gui_alloc.o(i.GUI_ALLOC_RequestSize)
    i.GUI_ALLOC_UnlockH                      0x08018300   Section        0  gui_alloc.o(i.GUI_ALLOC_UnlockH)
    i.GUI_ALLOC_h2p                          0x08018330   Section        0  gui_alloc.o(i.GUI_ALLOC_h2p)
    i.GUI_AddDecMin                          0x0801834c   Section        0  gui_adddecmin.o(i.GUI_AddDecMin)
    i.GUI_AddDecShift                        0x08018368   Section        0  gui_adddecshift.o(i.GUI_AddDecShift)
    i.GUI_AddSign                            0x0801843c   Section        0  gui_adddecshift.o(i.GUI_AddSign)
    i.GUI_BMP_GetXSizeEx                     0x08018458   Section        0  gui_bmp.o(i.GUI_BMP_GetXSizeEx)
    i.GUI_BMP_GetYSizeEx                     0x0801847c   Section        0  gui_bmp.o(i.GUI_BMP_GetYSizeEx)
    i.GUI_CalcColorDist                      0x080184a6   Section        0  gui_calccolordist.o(i.GUI_CalcColorDist)
    i.GUI_Clear                              0x080184e4   Section        0  gui_core.o(i.GUI_Clear)
    i.GUI_DEVICE_Create                      0x0801854c   Section        0  gui_device.o(i.GUI_DEVICE_Create)
    i.GUI_DEVICE_CreateAndLink               0x080185a4   Section        0  gui_device.o(i.GUI_DEVICE_CreateAndLink)
    i.GUI_DEVICE_Delete                      0x08018614   Section        0  gui_device.o(i.GUI_DEVICE_Delete)
    i.GUI_DEVICE_Link                        0x08018618   Section        0  gui_device.o(i.GUI_DEVICE_Link)
    i.GUI_DEVICE_Unlink                      0x080186c0   Section        0  gui_device.o(i.GUI_DEVICE_Unlink)
    i.GUI_DEVICE__GetpDriver                 0x080186f4   Section        0  gui_device.o(i.GUI_DEVICE__GetpDriver)
    i.GUI_DispChar                           0x0801871c   Section        0  gui_dispchar.o(i.GUI_DispChar)
    i.GUI_DispCharAt                         0x08018720   Section        0  gui_dispchar.o(i.GUI_DispCharAt)
    i.GUI_DispDecAt                          0x08018730   Section        0  gui_val.o(i.GUI_DispDecAt)
    i.GUI_DispDecMin                         0x08018756   Section        0  gui_val.o(i.GUI_DispDecMin)
    i.GUI_DispDecShift                       0x0801876e   Section        0  gui_val.o(i.GUI_DispDecShift)
    i.GUI_DispFloatFix                       0x08018786   Section        0  gui_valf.o(i.GUI_DispFloatFix)
    i.GUI_DispSDecShift                      0x0801878c   Section        0  gui_val.o(i.GUI_DispSDecShift)
    i.GUI_DispString                         0x080187bc   Section        0  gui_dispstring.o(i.GUI_DispString)
    i.GUI_DispStringAt                       0x080188c0   Section        0  gui_dispstringat.o(i.GUI_DispStringAt)
    i.GUI_DispStringHCenterAt                0x080188d0   Section        0  gui_dispstringhcenter.o(i.GUI_DispStringHCenterAt)
    i.GUI_DispStringInRect                   0x08018904   Section        0  gui_dispstringinrect.o(i.GUI_DispStringInRect)
    i.GUI_DrawArc                            0x08018954   Section        0  gui_arc.o(i.GUI_DrawArc)
    i.GUI_DrawBitmap                         0x08018aa8   Section        0  gui_drawbitmap.o(i.GUI_DrawBitmap)
    i.GUI_DrawHLine                          0x08018b94   Section        0  gui_drawhline.o(i.GUI_DrawHLine)
    i.GUI_DrawRect                           0x08018be8   Section        0  gui_2dlib.o(i.GUI_DrawRect)
    i.GUI_DrawStreamedBitmapA565Ex           0x08018c70   Section        0  gui_stream.o(i.GUI_DrawStreamedBitmapA565Ex)
    i.GUI_DrawVLine                          0x08018c84   Section        0  gui_drawvline.o(i.GUI_DrawVLine)
    i.GUI_FillRect                           0x08018cd4   Section        0  gui_fillrect.o(i.GUI_FillRect)
    i.GUI_FillRectEx                         0x08018d2c   Section        0  gui_fillrectex.o(i.GUI_FillRectEx)
    i.GUI_FillRoundedRect                    0x08018d40   Section        0  gui_fillroundedrect.o(i.GUI_FillRoundedRect)
    i.GUI_GIF_DrawSubEx                      0x08018e3c   Section        0  gui_gif.o(i.GUI_GIF_DrawSubEx)
    i.GUI_GIF_GetImageInfoEx                 0x08018efc   Section        0  gui_gif.o(i.GUI_GIF_GetImageInfoEx)
    i.GUI_GIF_GetInfoEx                      0x080190c8   Section        0  gui_gif.o(i.GUI_GIF_GetInfoEx)
    i.GUI_GIF__DrawFromFilePointer           0x0801924c   Section        0  gui_gif.o(i.GUI_GIF__DrawFromFilePointer)
    i.GUI_GIF__GetNextByte                   0x080194a8   Section        0  gui_gif.o(i.GUI_GIF__GetNextByte)
    i.GUI_GetBitsPerPixelEx                  0x08019800   Section        0  lcd_getex.o(i.GUI_GetBitsPerPixelEx)
    i.GUI_GetBkColor                         0x08019814   Section        0  gui_getcolor.o(i.GUI_GetBkColor)
    i.GUI_GetCharDistX                       0x08019824   Section        0  gui_char.o(i.GUI_GetCharDistX)
    i.GUI_GetCharDistXEx                     0x08019834   Section        0  gui_char.o(i.GUI_GetCharDistXEx)
    i.GUI_GetClientRect                      0x08019844   Section        0  gui_getclientrect.o(i.GUI_GetClientRect)
    i.GUI_GetColor                           0x0801984e   Section        0  gui_getcolor.o(i.GUI_GetColor)
    i.GUI_GetFontDistY                       0x0801985c   Section        0  gui_char.o(i.GUI_GetFontDistY)
    i.GUI_GetFontSizeY                       0x0801986c   Section        0  gui_getfontsizey.o(i.GUI_GetFontSizeY)
    i.GUI_GetOrg                             0x08019870   Section        0  gui_getorg.o(i.GUI_GetOrg)
    i.GUI_GetPenSize                         0x0801988c   Section        0  gui_pen.o(i.GUI_GetPenSize)
    i.GUI_GetPixelIndex                      0x08019898   Section        0  lcd_getp.o(i.GUI_GetPixelIndex)
    i.GUI_GetStreamedBitmapInfoEx            0x080198f8   Section        0  gui_stream.o(i.GUI_GetStreamedBitmapInfoEx)
    i.GUI_GetYAdjust                         0x08019944   Section        0  gui_char.o(i.GUI_GetYAdjust)
    i.GUI_GetpfColor2IndexEx                 0x08019974   Section        0  lcd_getex.o(i.GUI_GetpfColor2IndexEx)
    i.GUI_GetpfIndex2ColorEx                 0x08019984   Section        0  lcd_getex.o(i.GUI_GetpfIndex2ColorEx)
    i.GUI_GotoXY                             0x08019994   Section        0  gui_goto.o(i.GUI_GotoXY)
    i.GUI_Init                               0x080199a4   Section        0  gui_core.o(i.GUI_Init)
    i.GUI_Long2Len                           0x08019aa4   Section        0  gui_adddecshift.o(i.GUI_Long2Len)
    i.GUI_MEASDEV_ClearRect                  0x08019ad8   Section        0  guidev_measure.o(i.GUI_MEASDEV_ClearRect)
    i.GUI_MEASDEV_Create                     0x08019afc   Section        0  guidev_measure.o(i.GUI_MEASDEV_Create)
    i.GUI_MEASDEV_Delete                     0x08019b70   Section        0  guidev_measure.o(i.GUI_MEASDEV_Delete)
    i.GUI_MEASDEV_GetRect                    0x08019bac   Section        0  guidev_measure.o(i.GUI_MEASDEV_GetRect)
    i.GUI_MEASDEV_Select                     0x08019bd8   Section        0  guidev_measure.o(i.GUI_MEASDEV_Select)
    i.GUI_MEMDEV_Clear                       0x08019c14   Section        0  guidev_clear.o(i.GUI_MEMDEV_Clear)
    i.GUI_MEMDEV_CopyToLCD                   0x08019c5c   Section        0  guidev.o(i.GUI_MEMDEV_CopyToLCD)
    i.GUI_MEMDEV_CopyToLCDAt                 0x08019c68   Section        0  guidev.o(i.GUI_MEMDEV_CopyToLCDAt)
    i.GUI_MEMDEV_Create                      0x08019d40   Section        0  guidev.o(i.GUI_MEMDEV_Create)
    i.GUI_MEMDEV_CreateAuto                  0x08019dc8   Section        0  guidev_auto.o(i.GUI_MEMDEV_CreateAuto)
    i.GUI_MEMDEV_CreateEx                    0x08019dd0   Section        0  guidev.o(i.GUI_MEMDEV_CreateEx)
    i.GUI_MEMDEV_CreateFixed                 0x08019e5c   Section        0  guidev_createfixed.o(i.GUI_MEMDEV_CreateFixed)
    i.GUI_MEMDEV_Delete                      0x08019e88   Section        0  guidev.o(i.GUI_MEMDEV_Delete)
    i.GUI_MEMDEV_DeleteAuto                  0x08019ecc   Section        0  guidev_auto.o(i.GUI_MEMDEV_DeleteAuto)
    i.GUI_MEMDEV_Draw                        0x08019ed0   Section        0  guidev_banding.o(i.GUI_MEMDEV_Draw)
    i.GUI_MEMDEV_DrawAuto                    0x0801a024   Section        0  guidev_auto.o(i.GUI_MEMDEV_DrawAuto)
    i.GUI_MEMDEV_GetBitsPerPixel             0x0801a0dc   Section        0  guidev.o(i.GUI_MEMDEV_GetBitsPerPixel)
    i.GUI_MEMDEV_GetDataPtr                  0x0801a100   Section        0  guidev_getdataptr.o(i.GUI_MEMDEV_GetDataPtr)
    i.GUI_MEMDEV_GetYSize                    0x0801a11c   Section        0  guidev_getysize.o(i.GUI_MEMDEV_GetYSize)
    i.GUI_MEMDEV_ReduceYSize                 0x0801a144   Section        0  guidev_reduceysize.o(i.GUI_MEMDEV_ReduceYSize)
    i.GUI_MEMDEV_Select                      0x0801a174   Section        0  guidev.o(i.GUI_MEMDEV_Select)
    i.GUI_MEMDEV_SetOrg                      0x0801a1bc   Section        0  guidev_setorg.o(i.GUI_MEMDEV_SetOrg)
    i.GUI_MEMDEV_WriteAt                     0x0801a220   Section        0  guidev_write.o(i.GUI_MEMDEV_WriteAt)
    i.GUI_MEMDEV__CreateFixed                0x0801a28c   Section        0  guidev.o(i.GUI_MEMDEV__CreateFixed)
    i.GUI_MEMDEV__WriteToActiveAt            0x0801a394   Section        0  guidev.o(i.GUI_MEMDEV__WriteToActiveAt)
    i.GUI_MEMDEV__WriteToActiveOpaque        0x0801a3c8   Section        0  guidev_writetoactiveopaque.o(i.GUI_MEMDEV__WriteToActiveOpaque)
    i.GUI_MergeRect                          0x0801abe4   Section        0  gui_mergerect.o(i.GUI_MergeRect)
    i.GUI_MoveRect                           0x0801ac40   Section        0  gui_moverect.o(i.GUI_MoveRect)
    i.GUI_Read_BUFF_Dot                      0x0801ac60   Section        0  tft_drive.o(i.GUI_Read_BUFF_Dot)
    i.GUI_RectsIntersect                     0x0801aca4   Section        0  gui_rectsintersect.o(i.GUI_RectsIntersect)
    i.GUI_RotatePolygon                      0x0801acdc   Section        0  gui_polyrotate.o(i.GUI_RotatePolygon)
    i.GUI_SelectLCD                          0x0801ad50   Section        0  gui_selectlcd.o(i.GUI_SelectLCD)
    i.GUI_SelectLayer                        0x0801ad64   Section        0  gui_selectlayer.o(i.GUI_SelectLayer)
    i.GUI_SetBkColor                         0x0801ad94   Section        0  gui_setcolor.o(i.GUI_SetBkColor)
    i.GUI_SetColor                           0x0801ad98   Section        0  gui_setcolor.o(i.GUI_SetColor)
    i.GUI_SetDefaultFont                     0x0801ad9c   Section        0  gui_core.o(i.GUI_SetDefaultFont)
    i.GUI_SetDrawMode                        0x0801ada8   Section        0  gui_setdrawmode.o(i.GUI_SetDrawMode)
    i.GUI_SetFont                            0x0801adac   Section        0  gui_setfont.o(i.GUI_SetFont)
    i.GUI_SetOrg                             0x0801adc0   Section        0  gui_setorg.o(i.GUI_SetOrg)
    i.GUI_SetPenSize                         0x0801adf4   Section        0  gui_pen.o(i.GUI_SetPenSize)
    i.GUI_SetTextAlign                       0x0801ae04   Section        0  gui_settextalign.o(i.GUI_SetTextAlign)
    i.GUI_SetTextMode                        0x0801ae18   Section        0  gui_settextmode.o(i.GUI_SetTextMode)
    i.GUI_SignalEvent                        0x0801ae2c   Section        0  gui_waitevent.o(i.GUI_SignalEvent)
    i.GUI_StoreKey                           0x0801ae3c   Section        0  gui_onkey.o(i.GUI_StoreKey)
    i.GUI_UC_SetEncodeUTF8                   0x0801ae50   Section        0  gui_uc_encodeutf8.o(i.GUI_UC_SetEncodeUTF8)
    i.GUI_UC__GetCharCodeInc                 0x0801ae60   Section        0  gui_uc.o(i.GUI_UC__GetCharCodeInc)
    i.GUI_UC__NumChars2NumBytes              0x0801ae8c   Section        0  gui_uc.o(i.GUI_UC__NumChars2NumBytes)
    i.GUI_USAGE_AddRect                      0x0801aeb8   Section        0  guidev_usage.o(i.GUI_USAGE_AddRect)
    i.GUI_USAGE_BM_AddHLine                  0x0801aee0   Section        0  guidev_usagebm.o(i.GUI_USAGE_BM_AddHLine)
    GUI_USAGE_BM_AddHLine                    0x0801aee1   Thumb Code   120  guidev_usagebm.o(i.GUI_USAGE_BM_AddHLine)
    i.GUI_USAGE_BM_AddPixel                  0x0801af58   Section        0  guidev_usagebm.o(i.GUI_USAGE_BM_AddPixel)
    GUI_USAGE_BM_AddPixel                    0x0801af59   Thumb Code    46  guidev_usagebm.o(i.GUI_USAGE_BM_AddPixel)
    i.GUI_USAGE_BM_Clear                     0x0801af86   Section        0  guidev_usagebm.o(i.GUI_USAGE_BM_Clear)
    GUI_USAGE_BM_Clear                       0x0801af87   Thumb Code    14  guidev_usagebm.o(i.GUI_USAGE_BM_Clear)
    i.GUI_USAGE_BM_Create                    0x0801af94   Section        0  guidev_usagebm.o(i.GUI_USAGE_BM_Create)
    i.GUI_USAGE_BM_GetNextDirty              0x0801afe8   Section        0  guidev_usagebm.o(i.GUI_USAGE_BM_GetNextDirty)
    GUI_USAGE_BM_GetNextDirty                0x0801afe9   Thumb Code   184  guidev_usagebm.o(i.GUI_USAGE_BM_GetNextDirty)
    i.GUI_USAGE_DecUseCnt                    0x0801b0a0   Section        0  guidev_usage.o(i.GUI_USAGE_DecUseCnt)
    i.GUI_X_Config                           0x0801b0c4   Section        0  guiconf.o(i.GUI_X_Config)
    i.GUI_X_ExecIdle                         0x0801b0e4   Section        0  gui_x.o(i.GUI_X_ExecIdle)
    i.GUI_X_Init                             0x0801b0e6   Section        0  gui_x.o(i.GUI_X_Init)
    i.GUI__CompactPixelIndices               0x0801b0e8   Section        0  gui__compactpixelindices.o(i.GUI__CompactPixelIndices)
    i.GUI__CosHQ                             0x0801b274   Section        0  gui__sinhq.o(i.GUI__CosHQ)
    i.GUI__DispLine                          0x0801b2f8   Section        0  gui_charline.o(i.GUI__DispLine)
    i.GUI__DispStringInRect                  0x0801b494   Section        0  gui_dispstringinrect.o(i.GUI__DispStringInRect)
    i.GUI__DrawBitmap16bpp                   0x0801b5ec   Section        0  gui__drawbitmap16bpp.o(i.GUI__DrawBitmap16bpp)
    i.GUI__DrawBitmapA16bpp                  0x0801b8a0   Section        0  gui_drawbitmap_a16.o(i.GUI__DrawBitmapA16bpp)
    i.GUI__GetAlphaBuffer                    0x0801bb94   Section        0  gui__alpha.o(i.GUI__GetAlphaBuffer)
    i.GUI__GetFontSizeY                      0x0801bc38   Section        0  gui__getfontsizey.o(i.GUI__GetFontSizeY)
    i.GUI__GetLineDistX                      0x0801bc4c   Section        0  gui_charline.o(i.GUI__GetLineDistX)
    i.GUI__GetLineNumChars                   0x0801bcc0   Section        0  gui_charline.o(i.GUI__GetLineNumChars)
    i.GUI__GetOverlap                        0x0801bd04   Section        0  gui_charline.o(i.GUI__GetOverlap)
    i.GUI__HandleEOLine                      0x0801bd1c   Section        0  gui__handleeoline.o(i.GUI__HandleEOLine)
    i.GUI__IntersectRect                     0x0801bd34   Section        0  gui__intersectrect.o(i.GUI__IntersectRect)
    i.GUI__IntersectRects                    0x0801bd76   Section        0  gui__intersectrects.o(i.GUI__IntersectRects)
    i.GUI__ManageCache                       0x0801bdc8   Section        0  gui__managecache.o(i.GUI__ManageCache)
    i.GUI__ManageCacheEx                     0x0801bdd8   Section        0  gui__managecache.o(i.GUI__ManageCacheEx)
    i.GUI__MixColors                         0x0801bec4   Section        0  gui__alpha.o(i.GUI__MixColors)
    i.GUI__MixColorsBulk                     0x0801bf30   Section        0  gui__alpha.o(i.GUI__MixColorsBulk)
    i.GUI__Read16                            0x0801bffc   Section        0  gui__read.o(i.GUI__Read16)
    i.GUI__Read32                            0x0801c010   Section        0  gui__read.o(i.GUI__Read32)
    i.GUI__ReadHeaderFromStream              0x0801c034   Section        0  gui_stream.o(i.GUI__ReadHeaderFromStream)
    i.GUI__RegisterExit                      0x0801c07c   Section        0  gui_core.o(i.GUI__RegisterExit)
    i.GUI__SetPixelAlpha                     0x0801c08c   Section        0  gui__setpixelalpha.o(i.GUI__SetPixelAlpha)
    i.GUI__SinHQ                             0x0801c0fc   Section        0  gui__sinhq.o(i.GUI__SinHQ)
    i.GUI__memset                            0x0801c17c   Section        0  gui__memset.o(i.GUI__memset)
    i.GUI__memset16                          0x0801c24c   Section        0  gui__memset16.o(i.GUI__memset16)
    i.GUI__sqrt32                            0x0801c2f2   Section        0  gui__sqrt32.o(i.GUI__sqrt32)
    i.Get_Bypass_MODE_Deno                   0x0801c30c   Section        0  main interface.o(i.Get_Bypass_MODE_Deno)
    Get_Bypass_MODE_Deno                     0x0801c30d   Thumb Code     4  main interface.o(i.Get_Bypass_MODE_Deno)
    i.Get_Bypass_MODE_Mole                   0x0801c310   Section        0  main interface.o(i.Get_Bypass_MODE_Mole)
    Get_Bypass_MODE_Mole                     0x0801c311   Thumb Code     4  main interface.o(i.Get_Bypass_MODE_Mole)
    i.Get_Temp_MODE_Deno                     0x0801c314   Section        0  main interface.o(i.Get_Temp_MODE_Deno)
    Get_Temp_MODE_Deno                       0x0801c315   Thumb Code    16  main interface.o(i.Get_Temp_MODE_Deno)
    i.Get_Temp_MODE_Mole                     0x0801c328   Section        0  main interface.o(i.Get_Temp_MODE_Mole)
    Get_Temp_MODE_Mole                       0x0801c329   Thumb Code    24  main interface.o(i.Get_Temp_MODE_Mole)
    i.Get_Volt_MODE_Deno                     0x0801c34c   Section        0  main interface.o(i.Get_Volt_MODE_Deno)
    Get_Volt_MODE_Deno                       0x0801c34d   Thumb Code     6  main interface.o(i.Get_Volt_MODE_Deno)
    i.Get_Volt_MODE_Mole                     0x0801c354   Section        0  main interface.o(i.Get_Volt_MODE_Mole)
    Get_Volt_MODE_Mole                       0x0801c355   Thumb Code     6  main interface.o(i.Get_Volt_MODE_Mole)
    i.Get_Watt_MODE_Deno                     0x0801c360   Section        0  main interface.o(i.Get_Watt_MODE_Deno)
    Get_Watt_MODE_Deno                       0x0801c361   Thumb Code     6  main interface.o(i.Get_Watt_MODE_Deno)
    i.Get_Watt_MODE_Mole                     0x0801c368   Section        0  main interface.o(i.Get_Watt_MODE_Mole)
    Get_Watt_MODE_Mole                       0x0801c369   Thumb Code     6  main interface.o(i.Get_Watt_MODE_Mole)
    i.HAL_Delay                              0x0801c374   Section        0  stm32f4xx_hal.o(i.HAL_Delay)
    i.HAL_FLASHEx_OBGetConfig                0x0801c398   Section        0  stm32f4xx_hal_flash_ex.o(i.HAL_FLASHEx_OBGetConfig)
    i.HAL_FLASHEx_OBProgram                  0x0801c3d8   Section        0  stm32f4xx_hal_flash_ex.o(i.HAL_FLASHEx_OBProgram)
    i.HAL_FLASH_Lock                         0x0801c4a4   Section        0  stm32f4xx_hal_flash.o(i.HAL_FLASH_Lock)
    i.HAL_FLASH_OB_Launch                    0x0801c4b8   Section        0  stm32f4xx_hal_flash.o(i.HAL_FLASH_OB_Launch)
    i.HAL_FLASH_OB_Lock                      0x0801c4d0   Section        0  stm32f4xx_hal_flash.o(i.HAL_FLASH_OB_Lock)
    i.HAL_FLASH_OB_Unlock                    0x0801c4e4   Section        0  stm32f4xx_hal_flash.o(i.HAL_FLASH_OB_Unlock)
    i.HAL_FLASH_Unlock                       0x0801c50c   Section        0  stm32f4xx_hal_flash.o(i.HAL_FLASH_Unlock)
    i.HAL_GPIO_DeInit                        0x0801c538   Section        0  stm32f4xx_hal_gpio.o(i.HAL_GPIO_DeInit)
    i.HAL_GPIO_Init                          0x0801c664   Section        0  stm32f4xx_hal_gpio.o(i.HAL_GPIO_Init)
    i.HAL_GetTick                            0x0801c7f8   Section        0  stm32f4xx_hal.o(i.HAL_GetTick)
    i.HAL_IncTick                            0x0801c804   Section        0  stm32f4xx_hal.o(i.HAL_IncTick)
    i.HAL_Init                               0x0801c814   Section        0  stm32f4xx_hal.o(i.HAL_Init)
    i.HAL_InitTick                           0x0801c848   Section        0  stm32f4xx_hal.o(i.HAL_InitTick)
    i.HAL_MspInit                            0x0801c888   Section        0  stm32f4xx_hal_msp.o(i.HAL_MspInit)
    i.HAL_NVIC_DisableIRQ                    0x0801c8e0   Section        0  stm32f4xx_hal_cortex.o(i.HAL_NVIC_DisableIRQ)
    i.HAL_NVIC_EnableIRQ                     0x0801c902   Section        0  stm32f4xx_hal_cortex.o(i.HAL_NVIC_EnableIRQ)
    i.HAL_NVIC_SetPriority                   0x0801c91c   Section        0  stm32f4xx_hal_cortex.o(i.HAL_NVIC_SetPriority)
    i.HAL_NVIC_SetPriorityGrouping           0x0801c95c   Section        0  stm32f4xx_hal_cortex.o(i.HAL_NVIC_SetPriorityGrouping)
    i.HAL_PCDEx_LPM_Callback                 0x0801c980   Section        0  stm32f4xx_hal_pcd_ex.o(i.HAL_PCDEx_LPM_Callback)
    i.HAL_PCDEx_SetRxFiFo                    0x0801c982   Section        0  stm32f4xx_hal_pcd_ex.o(i.HAL_PCDEx_SetRxFiFo)
    i.HAL_PCDEx_SetTxFiFo                    0x0801c98a   Section        0  stm32f4xx_hal_pcd_ex.o(i.HAL_PCDEx_SetTxFiFo)
    i.HAL_PCD_ConnectCallback                0x0801c9ce   Section        0  usbd_conf.o(i.HAL_PCD_ConnectCallback)
    i.HAL_PCD_DataInStageCallback            0x0801c9d6   Section        0  usbd_conf.o(i.HAL_PCD_DataInStageCallback)
    i.HAL_PCD_DataOutStageCallback           0x0801c9e8   Section        0  usbd_conf.o(i.HAL_PCD_DataOutStageCallback)
    i.HAL_PCD_DeInit                         0x0801c9fc   Section        0  stm32f4xx_hal_pcd.o(i.HAL_PCD_DeInit)
    i.HAL_PCD_DisconnectCallback             0x0801ca20   Section        0  usbd_conf.o(i.HAL_PCD_DisconnectCallback)
    i.HAL_PCD_EP_Close                       0x0801ca28   Section        0  stm32f4xx_hal_pcd.o(i.HAL_PCD_EP_Close)
    i.HAL_PCD_EP_ClrStall                    0x0801ca74   Section        0  stm32f4xx_hal_pcd.o(i.HAL_PCD_EP_ClrStall)
    i.HAL_PCD_EP_Open                        0x0801cad0   Section        0  stm32f4xx_hal_pcd.o(i.HAL_PCD_EP_Open)
    i.HAL_PCD_EP_Receive                     0x0801cb30   Section        0  stm32f4xx_hal_pcd.o(i.HAL_PCD_EP_Receive)
    i.HAL_PCD_EP_SetStall                    0x0801cb78   Section        0  stm32f4xx_hal_pcd.o(i.HAL_PCD_EP_SetStall)
    i.HAL_PCD_EP_Transmit                    0x0801cbec   Section        0  stm32f4xx_hal_pcd.o(i.HAL_PCD_EP_Transmit)
    i.HAL_PCD_IRQHandler                     0x0801cc2c   Section        0  stm32f4xx_hal_pcd.o(i.HAL_PCD_IRQHandler)
    i.HAL_PCD_ISOINIncompleteCallback        0x0801d060   Section        0  usbd_conf.o(i.HAL_PCD_ISOINIncompleteCallback)
    i.HAL_PCD_ISOOUTIncompleteCallback       0x0801d068   Section        0  usbd_conf.o(i.HAL_PCD_ISOOUTIncompleteCallback)
    i.HAL_PCD_Init                           0x0801d070   Section        0  stm32f4xx_hal_pcd.o(i.HAL_PCD_Init)
    i.HAL_PCD_MspDeInit                      0x0801d154   Section        0  usbd_conf.o(i.HAL_PCD_MspDeInit)
    i.HAL_PCD_MspInit                        0x0801d188   Section        0  usbd_conf.o(i.HAL_PCD_MspInit)
    i.HAL_PCD_ResetCallback                  0x0801d1ec   Section        0  usbd_conf.o(i.HAL_PCD_ResetCallback)
    i.HAL_PCD_ResumeCallback                 0x0801d20c   Section        0  usbd_conf.o(i.HAL_PCD_ResumeCallback)
    i.HAL_PCD_SOFCallback                    0x0801d214   Section        0  usbd_conf.o(i.HAL_PCD_SOFCallback)
    i.HAL_PCD_SetAddress                     0x0801d21c   Section        0  stm32f4xx_hal_pcd.o(i.HAL_PCD_SetAddress)
    i.HAL_PCD_SetupStageCallback             0x0801d244   Section        0  usbd_conf.o(i.HAL_PCD_SetupStageCallback)
    i.HAL_PCD_Start                          0x0801d252   Section        0  stm32f4xx_hal_pcd.o(i.HAL_PCD_Start)
    i.HAL_PCD_Stop                           0x0801d294   Section        0  stm32f4xx_hal_pcd.o(i.HAL_PCD_Stop)
    i.HAL_PCD_SuspendCallback                0x0801d2d0   Section        0  usbd_conf.o(i.HAL_PCD_SuspendCallback)
    i.HAL_PWR_EnterSTOPMode                  0x0801d300   Section        0  stm32f4xx_hal_pwr.o(i.HAL_PWR_EnterSTOPMode)
    i.HAL_RCC_GetHCLKFreq                    0x0801d338   Section        0  stm32f4xx_hal_rcc.o(i.HAL_RCC_GetHCLKFreq)
    i.HAL_SYSTICK_Callback                   0x0801d344   Section        0  stm32f4xx_hal_cortex.o(i.HAL_SYSTICK_Callback)
    i.HAL_SYSTICK_Config                     0x0801d346   Section        0  stm32f4xx_hal_cortex.o(i.HAL_SYSTICK_Config)
    i.HAL_SYSTICK_IRQHandler                 0x0801d36e   Section        0  stm32f4xx_hal_cortex.o(i.HAL_SYSTICK_IRQHandler)
    i.HIGH_ATOMIZER_windows                  0x0801d378   Section        0  alarm_interface.o(i.HIGH_ATOMIZER_windows)
    i.HardFault_Handler                      0x0801d3f0   Section        0  stm32f4xx_it.o(i.HardFault_Handler)
    i.ImageGetDoubleData                     0x0801d3f4   Section        0  gui_image_flash.o(i.ImageGetDoubleData)
    ImageGetDoubleData                       0x0801d3f5   Thumb Code   130  gui_image_flash.o(i.ImageGetDoubleData)
    i.ImageGetPNGData                        0x0801d480   Section        0  gui_image_flash.o(i.ImageGetPNGData)
    ImageGetPNGData                          0x0801d481   Thumb Code    26  gui_image_flash.o(i.ImageGetPNGData)
    i.Interface_display                      0x0801d4a0   Section        0  wm_disp.o(i.Interface_display)
    i.KEY_ALL_Task                           0x0801d600   Section        0  app_key.o(i.KEY_ALL_Task)
    i.KEY_Filter_processing                  0x0801d62c   Section        0  app_key.o(i.KEY_Filter_processing)
    i.KEY_LED_PWM_OFF                        0x0801d6e0   Section        0  app_pwm_int.o(i.KEY_LED_PWM_OFF)
    i.KEY_LED_Wdata                          0x0801d6ec   Section        0  app_pwm_int.o(i.KEY_LED_Wdata)
    i.KEY_LIGHT_Data_update                  0x0801d6f8   Section        0  system_settings_interface.o(i.KEY_LIGHT_Data_update)
    KEY_LIGHT_Data_update                    0x0801d6f9   Thumb Code   108  system_settings_interface.o(i.KEY_LIGHT_Data_update)
    i.KEY_LIGHT_Set_interface                0x0801d770   Section        0  system_settings_interface.o(i.KEY_LIGHT_Set_interface)
    KEY_LIGHT_Set_interface                  0x0801d771   Thumb Code   270  system_settings_interface.o(i.KEY_LIGHT_Set_interface)
    i.KEY_Main_menu_operation                0x0801d8e0   Section        0  main_menu_interface.o(i.KEY_Main_menu_operation)
    i.KEY_R_ADD_SUB                          0x0801d968   Section        0  app_key.o(i.KEY_R_ADD_SUB)
    i.KEY_TFT_RESET                          0x0801da7c   Section        0  app_key.o(i.KEY_TFT_RESET)
    i.KeyMODE_scan                           0x0801daa4   Section        0  app_key.o(i.KeyMODE_scan)
    i.Key_Light_screen                       0x0801dbd0   Section        0  wm_disp.o(i.Key_Light_screen)
    i.Key_scan                               0x0801dc8c   Section        0  app_key.o(i.Key_scan)
    i.Key_smoke                              0x0801de1c   Section        0  public.o(i.Key_smoke)
    i.LCD_AA_MixColors16                     0x0801df4c   Section        0  lcd_aa.o(i.LCD_AA_MixColors16)
    i.LCD_Color2Index                        0x0801dfc0   Section        0  lcd.o(i.LCD_Color2Index)
    i.LCD_Color2Index_1                      0x0801dfdc   Section        0  guicc_1.o(i.LCD_Color2Index_1)
    LCD_Color2Index_1                        0x0801dfdd   Thumb Code    28  guicc_1.o(i.LCD_Color2Index_1)
    i.LCD_DrawBitmap                         0x0801dff8   Section        0  lcd.o(i.LCD_DrawBitmap)
    i.LCD_DrawHLine                          0x0801e274   Section        0  lcd.o(i.LCD_DrawHLine)
    i.LCD_DrawPixel                          0x0801e2d8   Section        0  lcd.o(i.LCD_DrawPixel)
    i.LCD_DrawVLine                          0x0801e348   Section        0  lcd.o(i.LCD_DrawVLine)
    i.LCD_FillRect                           0x0801e3ac   Section        0  lcd.o(i.LCD_FillRect)
    i.LCD_GetBitsPerPixelEx                  0x0801e418   Section        0  lcd_getex.o(i.LCD_GetBitsPerPixelEx)
    i.LCD_GetBkColorIndex                    0x0801e438   Section        0  lcd_getcolorindex.o(i.LCD_GetBkColorIndex)
    i.LCD_GetColorIndex                      0x0801e448   Section        0  lcd_getcolorindex.o(i.LCD_GetColorIndex)
    i.LCD_GetNextPixelAPI                    0x0801e458   Section        0  lcd_nextpixelapi.o(i.LCD_GetNextPixelAPI)
    i.LCD_GetNumColors                       0x0801e48c   Section        0  lcd_getex.o(i.LCD_GetNumColors)
    i.LCD_GetNumColorsEx                     0x0801e4b4   Section        0  lcd_getex.o(i.LCD_GetNumColorsEx)
    i.LCD_GetNumLayers                       0x0801e4d2   Section        0  lcd_getnumdisplays.o(i.LCD_GetNumLayers)
    i.LCD_GetPalette                         0x0801e4f0   Section        0  lcd_getex.o(i.LCD_GetPalette)
    i.LCD_GetPixelColor                      0x0801e514   Section        0  lcd_getpixelcolor.o(i.LCD_GetPixelColor)
    i.LCD_GetPixelIndex                      0x0801e524   Section        0  lcd_getp.o(i.LCD_GetPixelIndex)
    i.LCD_GetVXSizeEx                        0x0801e584   Section        0  lcd_getex.o(i.LCD_GetVXSizeEx)
    i.LCD_GetVXSizeMax                       0x0801e5a2   Section        0  lcd_getex.o(i.LCD_GetVXSizeMax)
    i.LCD_GetVYSizeEx                        0x0801e5d6   Section        0  lcd_getex.o(i.LCD_GetVYSizeEx)
    i.LCD_GetXSizeDisplay                    0x0801e5f4   Section        0  lcd_getex.o(i.LCD_GetXSizeDisplay)
    i.LCD_GetXSizeEx                         0x0801e600   Section        0  lcd_getex.o(i.LCD_GetXSizeEx)
    i.LCD_GetXSizeMax                        0x0801e61e   Section        0  lcd_getex.o(i.LCD_GetXSizeMax)
    i.LCD_GetYSizeDisplay                    0x0801e654   Section        0  lcd_getex.o(i.LCD_GetYSizeDisplay)
    i.LCD_GetYSizeEx                         0x0801e660   Section        0  lcd_getex.o(i.LCD_GetYSizeEx)
    i.LCD_GetYSizeMax                        0x0801e67e   Section        0  lcd_getex.o(i.LCD_GetYSizeMax)
    i.LCD_GetpPalConvTable                   0x0801e6b4   Section        0  lcd_color.o(i.LCD_GetpPalConvTable)
    i.LCD_GetpPalConvTableBM                 0x0801e710   Section        0  lcd_color.o(i.LCD_GetpPalConvTableBM)
    i.LCD_GetpPalConvTableUncached           0x0801e76c   Section        0  lcd_color.o(i.LCD_GetpPalConvTableUncached)
    i.LCD_Index2Color                        0x0801e7c0   Section        0  lcd.o(i.LCD_Index2Color)
    i.LCD_Index2Color_565                    0x0801e7dc   Section        0  guicc_565.o(i.LCD_Index2Color_565)
    i.LCD_Index2Color_8888                   0x0801e808   Section        0  guicc_8888_index2color.o(i.LCD_Index2Color_8888)
    i.LCD_Index2Color_M565                   0x0801e80c   Section        0  guicc_m565.o(i.LCD_Index2Color_M565)
    i.LCD_InitColors                         0x0801e838   Section        0  lcd_color.o(i.LCD_InitColors)
    i.LCD_InitLUT                            0x0801e870   Section        0  lcd_color.o(i.LCD_InitLUT)
    i.LCD_ReadColor_16bit                    0x0801e8f8   Section        0  tft_init.o(i.LCD_ReadColor_16bit)
    i.LCD_Read_Window                        0x0801e984   Section        0  tft_drive.o(i.LCD_Read_Window)
    i.LCD_SelectLCD                          0x0801e9b8   Section        0  lcd_selectlcd.o(i.LCD_SelectLCD)
    i.LCD_SetBkColor                         0x0801ea00   Section        0  lcd.o(i.LCD_SetBkColor)
    i.LCD_SetBkColorIndex                    0x0801ea0c   Section        0  lcd.o(i.LCD_SetBkColorIndex)
    i.LCD_SetClipRectEx                      0x0801ea24   Section        0  lcd_setcliprectex.o(i.LCD_SetClipRectEx)
    i.LCD_SetClipRectMax                     0x0801ea58   Section        0  lcd.o(i.LCD_SetClipRectMax)
    i.LCD_SetColor                           0x0801ea74   Section        0  lcd.o(i.LCD_SetColor)
    i.LCD_SetColorIndex                      0x0801ea80   Section        0  lcd.o(i.LCD_SetColorIndex)
    i.LCD_SetDisplaySize                     0x0801ea98   Section        0  lcd_getex.o(i.LCD_SetDisplaySize)
    i.LCD_SetDrawMode                        0x0801eaa4   Section        0  lcd.o(i.LCD_SetDrawMode)
    i.LCD_SetLUTEntryEx                      0x0801eab0   Section        0  lcd_set.o(i.LCD_SetLUTEntryEx)
    i.LCD_SetPixelAA4_Trans                  0x0801eadc   Section        0  lcd_aa.o(i.LCD_SetPixelAA4_Trans)
    i.LCD_SetPixelIndex                      0x0801ebe8   Section        0  gui_setpixelindex.o(i.LCD_SetPixelIndex)
    i.LCD_SetSizeEx                          0x0801ec38   Section        0  lcd_set.o(i.LCD_SetSizeEx)
    i.LCD_SetVSizeEx                         0x0801ec64   Section        0  lcd_set.o(i.LCD_SetVSizeEx)
    i.LCD_UpdateColorIndices                 0x0801ec90   Section        0  lcd_updatecolorindices.o(i.LCD_UpdateColorIndices)
    i.LCD_WriteComm                          0x0801ecb4   Section        0  tft_init.o(i.LCD_WriteComm)
    i.LCD_WriteData_16bit                    0x0801ecd8   Section        0  tft_init.o(i.LCD_WriteData_16bit)
    i.LCD_WriteData_8bit                     0x0801ed14   Section        0  tft_init.o(i.LCD_WriteData_8bit)
    i.LCD_Write_Window                       0x0801ed38   Section        0  tft_drive.o(i.LCD_Write_Window)
    i.LCD_X_Config                           0x0801ed6c   Section        0  lcdconf_flexcolor_template.o(i.LCD_X_Config)
    i.LCD_X_DisplayDriver                    0x0801eda0   Section        0  lcdconf_flexcolor_template.o(i.LCD_X_DisplayDriver)
    i.LCD__DrawBitmap_1bpp                   0x0801edb0   Section        0  lcd.o(i.LCD__DrawBitmap_1bpp)
    i.LCD__GetBPP                            0x0801efac   Section        0  lcd_getex.o(i.LCD__GetBPP)
    i.LCD__GetBPPDevice                      0x0801f01a   Section        0  lcd_getex.o(i.LCD__GetBPPDevice)
    i.LED_drive                              0x0801f0a8   Section        0  key_led.o(i.LED_drive)
    i.LL_ADC_CommonDeInit                    0x0801f1b4   Section        0  stm32f4xx_ll_adc.o(i.LL_ADC_CommonDeInit)
    i.LL_ADC_CommonInit                      0x0801f1d0   Section        0  stm32f4xx_ll_adc.o(i.LL_ADC_CommonInit)
    i.LL_ADC_DeInit                          0x0801f1f4   Section        0  stm32f4xx_ll_adc.o(i.LL_ADC_DeInit)
    i.LL_ADC_Init                            0x0801f2ac   Section        0  stm32f4xx_ll_adc.o(i.LL_ADC_Init)
    i.LL_ADC_REG_Init                        0x0801f2e0   Section        0  stm32f4xx_ll_adc.o(i.LL_ADC_REG_Init)
    i.LL_ADC_REG_SetSequencerRanks           0x0801f330   Section        0  adc.o(i.LL_ADC_REG_SetSequencerRanks)
    LL_ADC_REG_SetSequencerRanks             0x0801f331   Thumb Code    48  adc.o(i.LL_ADC_REG_SetSequencerRanks)
    i.LL_ADC_SetChannelSamplingTime          0x0801f360   Section        0  adc.o(i.LL_ADC_SetChannelSamplingTime)
    LL_ADC_SetChannelSamplingTime            0x0801f361   Thumb Code    70  adc.o(i.LL_ADC_SetChannelSamplingTime)
    i.LL_AHB1_GRP1_DisableClock              0x0801f3a8   Section        0  app_sleeping.o(i.LL_AHB1_GRP1_DisableClock)
    LL_AHB1_GRP1_DisableClock                0x0801f3a9   Thumb Code    10  app_sleeping.o(i.LL_AHB1_GRP1_DisableClock)
    i.LL_AHB1_GRP1_EnableClock               0x0801f3b8   Section        0  gpio.o(i.LL_AHB1_GRP1_EnableClock)
    LL_AHB1_GRP1_EnableClock                 0x0801f3b9   Thumb Code    18  gpio.o(i.LL_AHB1_GRP1_EnableClock)
    i.LL_AHB1_GRP1_EnableClock               0x0801f3d0   Section        0  app_usb.o(i.LL_AHB1_GRP1_EnableClock)
    LL_AHB1_GRP1_EnableClock                 0x0801f3d1   Thumb Code    18  app_usb.o(i.LL_AHB1_GRP1_EnableClock)
    i.LL_APB1_GRP1_EnableClock               0x0801f3e8   Section        0  tim.o(i.LL_APB1_GRP1_EnableClock)
    LL_APB1_GRP1_EnableClock                 0x0801f3e9   Thumb Code    18  tim.o(i.LL_APB1_GRP1_EnableClock)
    i.LL_APB1_GRP1_ForceReset                0x0801f400   Section        0  stm32f4xx_ll_tim.o(i.LL_APB1_GRP1_ForceReset)
    LL_APB1_GRP1_ForceReset                  0x0801f401   Thumb Code    10  stm32f4xx_ll_tim.o(i.LL_APB1_GRP1_ForceReset)
    i.LL_APB1_GRP1_ReleaseReset              0x0801f410   Section        0  stm32f4xx_ll_tim.o(i.LL_APB1_GRP1_ReleaseReset)
    LL_APB1_GRP1_ReleaseReset                0x0801f411   Thumb Code    10  stm32f4xx_ll_tim.o(i.LL_APB1_GRP1_ReleaseReset)
    i.LL_APB2_GRP1_DisableClock              0x0801f420   Section        0  app_sleeping.o(i.LL_APB2_GRP1_DisableClock)
    LL_APB2_GRP1_DisableClock                0x0801f421   Thumb Code    10  app_sleeping.o(i.LL_APB2_GRP1_DisableClock)
    i.LL_APB2_GRP1_EnableClock               0x0801f430   Section        0  tim.o(i.LL_APB2_GRP1_EnableClock)
    LL_APB2_GRP1_EnableClock                 0x0801f431   Thumb Code    18  tim.o(i.LL_APB2_GRP1_EnableClock)
    i.LL_APB2_GRP1_ForceReset                0x0801f448   Section        0  stm32f4xx_ll_tim.o(i.LL_APB2_GRP1_ForceReset)
    LL_APB2_GRP1_ForceReset                  0x0801f449   Thumb Code    10  stm32f4xx_ll_tim.o(i.LL_APB2_GRP1_ForceReset)
    i.LL_APB2_GRP1_ReleaseReset              0x0801f458   Section        0  stm32f4xx_ll_tim.o(i.LL_APB2_GRP1_ReleaseReset)
    LL_APB2_GRP1_ReleaseReset                0x0801f459   Thumb Code    10  stm32f4xx_ll_tim.o(i.LL_APB2_GRP1_ReleaseReset)
    i.LL_CRC_DeInit                          0x0801f468   Section        0  stm32f4xx_ll_crc.o(i.LL_CRC_DeInit)
    i.LL_DMA_DeInit                          0x0801f494   Section        0  stm32f4xx_ll_dma.o(i.LL_DMA_DeInit)
    i.LL_DMA_Init                            0x0801f604   Section        0  stm32f4xx_ll_dma.o(i.LL_DMA_Init)
    i.LL_DMA_SetChannelSelection             0x0801f6a0   Section        0  stm32f4xx_ll_dma.o(i.LL_DMA_SetChannelSelection)
    LL_DMA_SetChannelSelection               0x0801f6a1   Thumb Code    16  stm32f4xx_ll_dma.o(i.LL_DMA_SetChannelSelection)
    i.LL_EXTI_DeInit                         0x0801f6b4   Section        0  stm32f4xx_ll_exti.o(i.LL_EXTI_DeInit)
    i.LL_EXTI_Init                           0x0801f6dc   Section        0  stm32f4xx_ll_exti.o(i.LL_EXTI_Init)
    i.LL_EXTI_IsActiveFlag_0_31              0x0801f77c   Section        0  stm32f4xx_it.o(i.LL_EXTI_IsActiveFlag_0_31)
    LL_EXTI_IsActiveFlag_0_31                0x0801f77d   Thumb Code    16  stm32f4xx_it.o(i.LL_EXTI_IsActiveFlag_0_31)
    i.LL_GPIO_Init                           0x0801f790   Section        0  stm32f4xx_ll_gpio.o(i.LL_GPIO_Init)
    i.LL_GPIO_IsInputPinSet                  0x0801f8c6   Section        0  app_key.o(i.LL_GPIO_IsInputPinSet)
    LL_GPIO_IsInputPinSet                    0x0801f8c7   Thumb Code    14  app_key.o(i.LL_GPIO_IsInputPinSet)
    i.LL_Init1msTick                         0x0801f8d4   Section        0  stm32f4xx_ll_utils.o(i.LL_Init1msTick)
    i.LL_RCC_SetRTCClockSource               0x0801f8f0   Section        0  app_rtc.o(i.LL_RCC_SetRTCClockSource)
    LL_RCC_SetRTCClockSource                 0x0801f8f1   Thumb Code    14  app_rtc.o(i.LL_RCC_SetRTCClockSource)
    i.LL_RTC_BAK_GetRegister                 0x0801f904   Section        0  app_rtc.o(i.LL_RTC_BAK_GetRegister)
    LL_RTC_BAK_GetRegister                   0x0801f905   Thumb Code     8  app_rtc.o(i.LL_RTC_BAK_GetRegister)
    i.LL_RTC_BAK_SetRegister                 0x0801f90c   Section        0  app_rtc.o(i.LL_RTC_BAK_SetRegister)
    LL_RTC_BAK_SetRegister                   0x0801f90d   Thumb Code     8  app_rtc.o(i.LL_RTC_BAK_SetRegister)
    i.LL_RTC_DATE_Config                     0x0801f914   Section        0  stm32f4xx_ll_rtc.o(i.LL_RTC_DATE_Config)
    LL_RTC_DATE_Config                       0x0801f915   Thumb Code    34  stm32f4xx_ll_rtc.o(i.LL_RTC_DATE_Config)
    i.LL_RTC_DATE_Init                       0x0801f93c   Section        0  stm32f4xx_ll_rtc.o(i.LL_RTC_DATE_Init)
    i.LL_RTC_EnterInitMode                   0x0801f9e4   Section        0  stm32f4xx_ll_rtc.o(i.LL_RTC_EnterInitMode)
    i.LL_RTC_Init                            0x0801fa2a   Section        0  stm32f4xx_ll_rtc.o(i.LL_RTC_Init)
    i.LL_RTC_TIME_Config                     0x0801fa7c   Section        0  stm32f4xx_ll_rtc.o(i.LL_RTC_TIME_Config)
    LL_RTC_TIME_Config                       0x0801fa7d   Thumb Code    32  stm32f4xx_ll_rtc.o(i.LL_RTC_TIME_Config)
    i.LL_RTC_TIME_Init                       0x0801faa0   Section        0  stm32f4xx_ll_rtc.o(i.LL_RTC_TIME_Init)
    i.LL_RTC_WaitForSynchro                  0x0801fb44   Section        0  stm32f4xx_ll_rtc.o(i.LL_RTC_WaitForSynchro)
    i.LL_SPI_DeInit                          0x0801fbb0   Section        0  stm32f4xx_ll_spi.o(i.LL_SPI_DeInit)
    i.LL_SPI_Init                            0x0801fc34   Section        0  stm32f4xx_ll_spi.o(i.LL_SPI_Init)
    i.LL_SYSCFG_SetEXTISource                0x0801fc98   Section        0  app_sleeping.o(i.LL_SYSCFG_SetEXTISource)
    LL_SYSCFG_SetEXTISource                  0x0801fc99   Thumb Code    36  app_sleeping.o(i.LL_SYSCFG_SetEXTISource)
    i.LL_SetSystemCoreClock                  0x0801fcc0   Section        0  stm32f4xx_ll_utils.o(i.LL_SetSystemCoreClock)
    i.LL_TIM_BDTR_Init                       0x0801fccc   Section        0  stm32f4xx_ll_tim.o(i.LL_TIM_BDTR_Init)
    i.LL_TIM_DeInit                          0x0801fd08   Section        0  stm32f4xx_ll_tim.o(i.LL_TIM_DeInit)
    i.LL_TIM_Init                            0x0801fdb4   Section        0  stm32f4xx_ll_tim.o(i.LL_TIM_Init)
    i.LL_TIM_OC_DisableFast                  0x0801fe4c   Section        0  tim.o(i.LL_TIM_OC_DisableFast)
    LL_TIM_OC_DisableFast                    0x0801fe4d   Thumb Code    80  tim.o(i.LL_TIM_OC_DisableFast)
    i.LL_TIM_OC_EnablePreload                0x0801fea0   Section        0  tim.o(i.LL_TIM_OC_EnablePreload)
    LL_TIM_OC_EnablePreload                  0x0801fea1   Thumb Code    80  tim.o(i.LL_TIM_OC_EnablePreload)
    i.LL_TIM_OC_Init                         0x0801fef4   Section        0  stm32f4xx_ll_tim.o(i.LL_TIM_OC_Init)
    i.LOCK_Res_update                        0x08020080   Section        0  main interface.o(i.LOCK_Res_update)
    LOCK_Res_update                          0x08020081   Thumb Code    58  main interface.o(i.LOCK_Res_update)
    i.LOCK_Resis_LOGO_update                 0x080200cc   Section        0  lock_resis_interface.o(i.LOCK_Resis_LOGO_update)
    LOCK_Resis_LOGO_update                   0x080200cd   Thumb Code    62  lock_resis_interface.o(i.LOCK_Resis_LOGO_update)
    i.LOCK_Resis_Windows                     0x08020110   Section        0  lock_resis_interface.o(i.LOCK_Resis_Windows)
    LOCK_Resis_Windows                       0x08020111   Thumb Code   172  lock_resis_interface.o(i.LOCK_Resis_Windows)
    i.LOCK_Resis_interface                   0x080201ec   Section        0  lock_resis_interface.o(i.LOCK_Resis_interface)
    i.LOCK_Resis_touch                       0x08020274   Section        0  lock_resis_interface.o(i.LOCK_Resis_touch)
    LOCK_Resis_touch                         0x08020275   Thumb Code   218  lock_resis_interface.o(i.LOCK_Resis_touch)
    i.LOGO_LED_Control                       0x08020394   Section        0  key_led.o(i.LOGO_LED_Control)
    i.LOGO_LED_PWM_OFF                       0x08020404   Section        0  app_pwm_int.o(i.LOGO_LED_PWM_OFF)
    i.LOGO_LED_Wdata                         0x08020410   Section        0  app_pwm_int.o(i.LOGO_LED_Wdata)
    i.Lock_parts                             0x0802041c   Section        0  main interface.o(i.Lock_parts)
    Lock_parts                               0x0802041d   Thumb Code    60  main interface.o(i.Lock_parts)
    i.Low_ATOMIZER_windows                   0x08020464   Section        0  alarm_interface.o(i.Low_ATOMIZER_windows)
    i.Low_Battery_windows                    0x080204d8   Section        0  alarm_interface.o(i.Low_Battery_windows)
    i.MODE_OUT_int                           0x08020548   Section        0  app_outputcontrol.o(i.MODE_OUT_int)
    MODE_OUT_int                             0x08020549   Thumb Code   282  app_outputcontrol.o(i.MODE_OUT_int)
    i.MODE_TO_SET_windows                    0x0802068c   Section        0  alarm_interface.o(i.MODE_TO_SET_windows)
    i.MOTOR_PWM_OFF                          0x080206a8   Section        0  app_pwm_int.o(i.MOTOR_PWM_OFF)
    i.MOTOR_PWM_Wdata                        0x080206b4   Section        0  app_pwm_int.o(i.MOTOR_PWM_Wdata)
    i.MP3_DisWave                            0x080206c0   Section        0  main interface.o(i.MP3_DisWave)
    MP3_DisWave                              0x080206c1   Thumb Code    78  main interface.o(i.MP3_DisWave)
    i.MX_ADC1_Init                           0x0802071c   Section        0  adc.o(i.MX_ADC1_Init)
    i.MX_BL_PWM_Init                         0x08020858   Section        0  tim.o(i.MX_BL_PWM_Init)
    i.MX_CHG_PWM_Init                        0x08020940   Section        0  tim.o(i.MX_CHG_PWM_Init)
    i.MX_CRC_Init                            0x080209f8   Section        0  crc.o(i.MX_CRC_Init)
    i.MX_GPIO_Init                           0x08020a14   Section        0  gpio.o(i.MX_GPIO_Init)
    i.MX_LED_PWM_Init                        0x08020bb0   Section        0  tim.o(i.MX_LED_PWM_Init)
    i.MX_MOTOR_PWM_Init                      0x08020c74   Section        0  tim.o(i.MX_MOTOR_PWM_Init)
    i.MX_OUT_PWM_Init                        0x08020d34   Section        0  tim.o(i.MX_OUT_PWM_Init)
    i.MX_RTC_Init                            0x08020e14   Section        0  rtc.o(i.MX_RTC_Init)
    i.MX_SPI3_Init                           0x08020e54   Section        0  spi.o(i.MX_SPI3_Init)
    i.MX_USB_DEVICE_Init                     0x08020f74   Section        0  usb_device.o(i.MX_USB_DEVICE_Init)
    i.Main_interface                         0x08020fac   Section        0  main interface.o(i.Main_interface)
    i.Main_menu_GOTO                         0x0802110c   Section        0  public.o(i.Main_menu_GOTO)
    i.Main_menu_interface                    0x080211c8   Section        0  main_menu_interface.o(i.Main_menu_interface)
    i.Main_menu_operation                    0x0802125c   Section        0  main_menu_interface.o(i.Main_menu_operation)
    Main_menu_operation                      0x0802125d   Thumb Code   176  main_menu_interface.o(i.Main_menu_operation)
    i.Main_menu_operation                    0x08021334   Section        0  diy_menu_interface.o(i.Main_menu_operation)
    Main_menu_operation                      0x08021335   Thumb Code    76  diy_menu_interface.o(i.Main_menu_operation)
    i.Main_operation                         0x080213a8   Section        0  main interface.o(i.Main_operation)
    Main_operation                           0x080213a9   Thumb Code   558  main interface.o(i.Main_operation)
    i.Main_windows                           0x0802161c   Section        0  main interface.o(i.Main_windows)
    i.MapNoRulebmpToBitmap_ex                0x0802171c   Section        0  gui_image_flash.o(i.MapNoRulebmpToBitmap_ex)
    i.Map_draw_bmpToBitmap_ex                0x0802198c   Section        0  gui_image_flash.o(i.Map_draw_bmpToBitmap_ex)
    i.MemManage_Handler                      0x08021acc   Section        0  stm32f4xx_it.o(i.MemManage_Handler)
    i.Menu_Bottom_Windows                    0x08021ad0   Section        0  main_menu_interface.o(i.Menu_Bottom_Windows)
    i.Menu_Page_Init                         0x08021b40   Section        0  main_menu_interface.o(i.Menu_Page_Init)
    i.Menu_coordinate_Init                   0x08021be0   Section        0  main_menu_interface.o(i.Menu_coordinate_Init)
    Menu_coordinate_Init                     0x08021be1   Thumb Code   128  main_menu_interface.o(i.Menu_coordinate_Init)
    i.Menu_coordinate_Init                   0x08021c84   Section        0  system_settings_interface.o(i.Menu_coordinate_Init)
    Menu_coordinate_Init                     0x08021c85   Thumb Code   114  system_settings_interface.o(i.Menu_coordinate_Init)
    i.Menu_coordinate_Init                   0x08021d38   Section        0  diy_menu_interface.o(i.Menu_coordinate_Init)
    Menu_coordinate_Init                     0x08021d39   Thumb Code   116  diy_menu_interface.o(i.Menu_coordinate_Init)
    i.NMI_Handler                            0x08021de4   Section        0  stm32f4xx_it.o(i.NMI_Handler)
    i.NVIC_SetVectorTable                    0x08021de8   Section        0  main.o(i.NVIC_SetVectorTable)
    i.OTG_FS_IRQHandler                      0x08021e2c   Section        0  stm32f4xx_it.o(i.OTG_FS_IRQHandler)
    i.OUTControl                             0x08021e38   Section        0  app_outputcontrol.o(i.OUTControl)
    i.OUTControl_Init                        0x08021ea4   Section        0  app_outputcontrol.o(i.OUTControl_Init)
    i.OUT_PWM_Wdata                          0x08021ecc   Section        0  app_pwm_int.o(i.OUT_PWM_Wdata)
    i.OUT_YES_Control                        0x08021f10   Section        0  app_outputcontrol.o(i.OUT_YES_Control)
    i.One_Power_interface                    0x08021fa8   Section        0  one_power_interface.o(i.One_Power_interface)
    i.Open_circuit_windows                   0x08021ffc   Section        0  alarm_interface.o(i.Open_circuit_windows)
    i.OutV_parts                             0x08022074   Section        0  main interface.o(i.OutV_parts)
    OutV_parts                               0x08022075   Thumb Code    38  main interface.o(i.OutV_parts)
    i.OutW_parts                             0x080220a4   Section        0  main interface.o(i.OutW_parts)
    OutW_parts                               0x080220a5   Thumb Code    38  main interface.o(i.OutW_parts)
    i.Out_Boot                               0x080220d4   Section        0  one_power_interface.o(i.Out_Boot)
    Out_Boot                                 0x080220d5   Thumb Code     2  one_power_interface.o(i.Out_Boot)
    i.Out_Read_load                          0x080220d8   Section        0  app_outputcontrol.o(i.Out_Read_load)
    i.Out_int                                0x08022124   Section        0  app_outputcontrol.o(i.Out_int)
    i.Over_PCB_Temp                          0x080221e4   Section        0  app_outputcontrol.o(i.Over_PCB_Temp)
    i.PCB_Overheated_windows                 0x08022230   Section        0  alarm_interface.o(i.PCB_Overheated_windows)
    i.PCD_EP_OutXfrComplete_int              0x0802228c   Section        0  stm32f4xx_hal_pcd.o(i.PCD_EP_OutXfrComplete_int)
    PCD_EP_OutXfrComplete_int                0x0802228d   Thumb Code   196  stm32f4xx_hal_pcd.o(i.PCD_EP_OutXfrComplete_int)
    i.PCD_WriteEmptyTxFifo                   0x08022358   Section        0  stm32f4xx_hal_pcd.o(i.PCD_WriteEmptyTxFifo)
    PCD_WriteEmptyTxFifo                     0x08022359   Thumb Code   162  stm32f4xx_hal_pcd.o(i.PCD_WriteEmptyTxFifo)
    i.PID_init                               0x080223fc   Section        0  app_outputcontrol.o(i.PID_init)
    i.PID_realize                            0x08022430   Section        0  app_outputcontrol.o(i.PID_realize)
    i.PUFF_Set_interface                     0x080225d4   Section        0  system_settings_interface.o(i.PUFF_Set_interface)
    PUFF_Set_interface                       0x080225d5   Thumb Code    98  system_settings_interface.o(i.PUFF_Set_interface)
    i.PUFF_Set_touch                         0x08022658   Section        0  system_settings_interface.o(i.PUFF_Set_touch)
    PUFF_Set_touch                           0x08022659   Thumb Code   138  system_settings_interface.o(i.PUFF_Set_touch)
    i.PUFF_Set_windows                       0x0802270c   Section        0  system_settings_interface.o(i.PUFF_Set_windows)
    PUFF_Set_windows                         0x0802270d   Thumb Code   178  system_settings_interface.o(i.PUFF_Set_windows)
    i.PWM_OFF                                0x0802280c   Section        0  app_pwm_int.o(i.PWM_OFF)
    i.PWM_ON                                 0x08022848   Section        0  app_pwm_int.o(i.PWM_ON)
    i.PanelTurnOffDisplay                    0x08022858   Section        0  tft_init.o(i.PanelTurnOffDisplay)
    i.PanelTurnOnDisplay                     0x08022874   Section        0  tft_init.o(i.PanelTurnOnDisplay)
    i.PendSV_Handler                         0x08022890   Section        0  stm32f4xx_it.o(i.PendSV_Handler)
    i.Power_down_control                     0x08022894   Section        0  app_outputcontrol.o(i.Power_down_control)
    i.Print_Button_Disp                      0x08022924   Section        0  custom_curve_adjustment_interface.o(i.Print_Button_Disp)
    i.Print_PUFF_Data                        0x08022a0c   Section        0  system_settings_interface.o(i.Print_PUFF_Data)
    Print_PUFF_Data                          0x08022a0d   Thumb Code   196  system_settings_interface.o(i.Print_PUFF_Data)
    i.Program_Upgrade_Status                 0x08022ae0   Section        0  program_upgrade_status.o(i.Program_Upgrade_Status)
    i.RTC_AMPM_set                           0x08022c50   Section        0  rtc_set_interface.o(i.RTC_AMPM_set)
    RTC_AMPM_set                             0x08022c51   Thumb Code    70  rtc_set_interface.o(i.RTC_AMPM_set)
    i.RTC_Date_limit                         0x08022ca0   Section        0  rtc_set_interface.o(i.RTC_Date_limit)
    RTC_Date_limit                           0x08022ca1   Thumb Code    34  rtc_set_interface.o(i.RTC_Date_limit)
    i.RTC_GetDate                            0x08022cd0   Section        0  app_rtc.o(i.RTC_GetDate)
    i.RTC_GetTime                            0x08022d3c   Section        0  app_rtc.o(i.RTC_GetTime)
    i.RTC_Set_Date                           0x08022d9c   Section        0  rtc_set_interface.o(i.RTC_Set_Date)
    RTC_Set_Date                             0x08022d9d   Thumb Code    78  rtc_set_interface.o(i.RTC_Set_Date)
    i.RTC_Set_Hours                          0x08022e00   Section        0  rtc_set_interface.o(i.RTC_Set_Hours)
    RTC_Set_Hours                            0x08022e01   Thumb Code    88  rtc_set_interface.o(i.RTC_Set_Hours)
    i.RTC_Set_Minutes                        0x08022e64   Section        0  rtc_set_interface.o(i.RTC_Set_Minutes)
    RTC_Set_Minutes                          0x08022e65   Thumb Code    64  rtc_set_interface.o(i.RTC_Set_Minutes)
    i.RTC_Set_Month                          0x08022eb0   Section        0  rtc_set_interface.o(i.RTC_Set_Month)
    RTC_Set_Month                            0x08022eb1   Thumb Code    66  rtc_set_interface.o(i.RTC_Set_Month)
    i.RTC_Set_Seconds                        0x08022f00   Section        0  rtc_set_interface.o(i.RTC_Set_Seconds)
    RTC_Set_Seconds                          0x08022f01   Thumb Code    64  rtc_set_interface.o(i.RTC_Set_Seconds)
    i.RTC_Set_Year                           0x08022f4c   Section        0  rtc_set_interface.o(i.RTC_Set_Year)
    RTC_Set_Year                             0x08022f4d   Thumb Code    66  rtc_set_interface.o(i.RTC_Set_Year)
    i.RTC_Set_interface                      0x08022f9c   Section        0  rtc_set_interface.o(i.RTC_Set_interface)
    i.RTC_Set_touch                          0x080230d0   Section        0  rtc_set_interface.o(i.RTC_Set_touch)
    RTC_Set_touch                            0x080230d1   Thumb Code   144  rtc_set_interface.o(i.RTC_Set_touch)
    i.RTC_Set_windows                        0x08023178   Section        0  rtc_set_interface.o(i.RTC_Set_windows)
    RTC_Set_windows                          0x08023179   Thumb Code   246  rtc_set_interface.o(i.RTC_Set_windows)
    i.RTC_TimeRegulate                       0x080232b0   Section        0  app_rtc.o(i.RTC_TimeRegulate)
    i.RTC_int                                0x0802336c   Section        0  app_rtc.o(i.RTC_int)
    i.RTCgotoSET                             0x08023558   Section        0  app_rtc.o(i.RTCgotoSET)
    i.ReadBATz_Data                          0x0802356c   Section        0  adc_module.o(i.ReadBATz_Data)
    i.ReadLoad_Data                          0x080235f0   Section        0  adc_module.o(i.ReadLoad_Data)
    i.ReadTemp_Data                          0x08023670   Section        0  adc_module.o(i.ReadTemp_Data)
    i.Read_ChargIV_Data                      0x080236ac   Section        0  adc_module.o(i.Read_ChargIV_Data)
    i.Read_Custom_flash                      0x080236c4   Section        0  app_custom.o(i.Read_Custom_flash)
    i.Read_LUX_Data                          0x0802386c   Section        0  adc_module.o(i.Read_LUX_Data)
    i.Read_L_1C                              0x08023870   Section        0  app_atomizer.o(i.Read_L_1C)
    i.Read_RTC_BIN                           0x08023904   Section        0  app_rtc.o(i.Read_RTC_BIN)
    i.Read_USBV_Data                         0x08023a3c   Section        0  adc_module.o(i.Read_USBV_Data)
    i.Read_VCC_Data                          0x08023a54   Section        0  adc_module.o(i.Read_VCC_Data)
    i.Read_load                              0x08023a7c   Section        0  app_atomizer.o(i.Read_load)
    i.Read_outI_Data_1C                      0x08023d38   Section        0  adc_module.o(i.Read_outI_Data_1C)
    i.Read_outV_Data                         0x08023d50   Section        0  adc_module.o(i.Read_outV_Data)
    i.ResData_update                         0x08023d68   Section        0  main interface.o(i.ResData_update)
    i.Resis_Data_update                      0x08023df4   Section        0  atomizer_inquiry_interface.o(i.Resis_Data_update)
    Resis_Data_update                        0x08023df5   Thumb Code   138  atomizer_inquiry_interface.o(i.Resis_Data_update)
    i.Resis_Data_update                      0x08023e94   Section        0  lock_resis_interface.o(i.Resis_Data_update)
    Resis_Data_update                        0x08023e95   Thumb Code   138  lock_resis_interface.o(i.Resis_Data_update)
    i.Ret_Bring_VIP                          0x08023f34   Section        0  brightness_auto.o(i.Ret_Bring_VIP)
    Ret_Bring_VIP                            0x08023f35   Thumb Code    26  brightness_auto.o(i.Ret_Bring_VIP)
    i.Rflash                                 0x08023f54   Section        0  app_flash.o(i.Rflash)
    i.SMART_Set_interface                    0x08024378   Section        0  system_settings_interface.o(i.SMART_Set_interface)
    SMART_Set_interface                      0x08024379   Thumb Code    98  system_settings_interface.o(i.SMART_Set_interface)
    i.SMART_Set_touch                        0x080243fc   Section        0  system_settings_interface.o(i.SMART_Set_touch)
    i.SMART_Set_windows                      0x08024484   Section        0  system_settings_interface.o(i.SMART_Set_windows)
    SMART_Set_windows                        0x08024485   Thumb Code   152  system_settings_interface.o(i.SMART_Set_windows)
    i.SPI3_DMA_Read_Data8_BUFF               0x0802454c   Section        0  spi.o(i.SPI3_DMA_Read_Data8_BUFF)
    i.SPI3_DMA_Read_OK_Wait                  0x080245b0   Section        0  spi.o(i.SPI3_DMA_Read_OK_Wait)
    i.SPI3_DMA_Write_Data8_BUFF              0x080245ec   Section        0  spi.o(i.SPI3_DMA_Write_Data8_BUFF)
    i.SPI3_DMA_Write_OK_Wait                 0x0802465c   Section        0  spi.o(i.SPI3_DMA_Write_OK_Wait)
    i.SPI3_Read_Data24                       0x080246a8   Section        0  spi.o(i.SPI3_Read_Data24)
    i.SPI3_Read_Data8                        0x080246c0   Section        0  spi.o(i.SPI3_Read_Data8)
    i.SPI3_Read_SmallData16                  0x080246e4   Section        0  spi.o(i.SPI3_Read_SmallData16)
    i.SPI3_Read_SmallData32                  0x080246f6   Section        0  spi.o(i.SPI3_Read_SmallData32)
    i.SPI3_Write_Data24                      0x08024718   Section        0  spi.o(i.SPI3_Write_Data24)
    i.SPI3_Write_Data8                       0x08024738   Section        0  spi.o(i.SPI3_Write_Data8)
    i.SPI3_Write_SmallData32                 0x08024758   Section        0  spi.o(i.SPI3_Write_SmallData32)
    i.SPI_Flash_ReadID                       0x0802477c   Section        0  flahs_driver.o(i.SPI_Flash_ReadID)
    i.SPI_Flash_ReadReg                      0x080247b8   Section        0  flahs_driver.o(i.SPI_Flash_ReadReg)
    i.SPI_Flash_Read_BuffData32              0x080247d8   Section        0  flahs_driver.o(i.SPI_Flash_Read_BuffData32)
    i.SPI_Flash_Read_BuffData8               0x08024838   Section        0  flahs_driver.o(i.SPI_Flash_Read_BuffData8)
    i.SPI_Flash_Read_BuffData_OK             0x08024898   Section        0  flahs_driver.o(i.SPI_Flash_Read_BuffData_OK)
    i.SPI_Flash_Read_PageData16              0x080248ac   Section        0  flahs_driver.o(i.SPI_Flash_Read_PageData16)
    i.SPI_Flash_Read_PageData32              0x080248dc   Section        0  flahs_driver.o(i.SPI_Flash_Read_PageData32)
    i.SPI_Flash_Read_PageData8               0x08024904   Section        0  flahs_driver.o(i.SPI_Flash_Read_PageData8)
    i.SPI_Flash_WAKEUP                       0x0802492c   Section        0  flahs_driver.o(i.SPI_Flash_WAKEUP)
    i.SPI_Flash_WaitForWriteEnd              0x08024964   Section        0  flahs_driver.o(i.SPI_Flash_WaitForWriteEnd)
    i.SPI_Flash_WritePageData32              0x08024974   Section        0  flahs_driver.o(i.SPI_Flash_WritePageData32)
    i.SPI_Flash_WritePageData8               0x080249b0   Section        0  flahs_driver.o(i.SPI_Flash_WritePageData8)
    i.SPI_Flash_Write_BuffData32             0x080249ec   Section        0  flahs_driver.o(i.SPI_Flash_Write_BuffData32)
    i.SPI_Flash_Write_BuffData8              0x08024ab0   Section        0  flahs_driver.o(i.SPI_Flash_Write_BuffData8)
    i.SPI_Flash_Write_BuffData_OK            0x08024b74   Section        0  flahs_driver.o(i.SPI_Flash_Write_BuffData_OK)
    i.SPI_Flash_Write_Disable                0x08024b90   Section        0  flahs_driver.o(i.SPI_Flash_Write_Disable)
    i.SPI_Flash_Write_Enable                 0x08024bac   Section        0  flahs_driver.o(i.SPI_Flash_Write_Enable)
    i.SPP_MODE_windows                       0x08024bc8   Section        0  main interface.o(i.SPP_MODE_windows)
    i.SPP_Output_control                     0x08024c38   Section        0  spp_mode_control.o(i.SPP_Output_control)
    i.SPP_mode_int                           0x08024d04   Section        0  spp_mode_control.o(i.SPP_mode_int)
    i.SPP_yule                               0x08024d64   Section        0  spp_mode_control.o(i.SPP_yule)
    SPP_yule                                 0x08024d65   Thumb Code   186  spp_mode_control.o(i.SPP_yule)
    i.SP_Arc_angle_State                     0x08024e44   Section        0  main interface.o(i.SP_Arc_angle_State)
    SP_Arc_angle_State                       0x08024e45   Thumb Code   132  main interface.o(i.SP_Arc_angle_State)
    i.SP_Cutt_Vape_Arc_4                     0x08024ed8   Section        0  main interface.o(i.SP_Cutt_Vape_Arc_4)
    SP_Cutt_Vape_Arc_4                       0x08024ed9   Thumb Code    90  main interface.o(i.SP_Cutt_Vape_Arc_4)
    i.SVC_Handler                            0x08024f3c   Section        0  stm32f4xx_it.o(i.SVC_Handler)
    i.Screen_GOTO_charging                   0x08024f40   Section        0  public.o(i.Screen_GOTO_charging)
    i.Screen_Tim_Data_update                 0x08024f90   Section        0  system_settings_interface.o(i.Screen_Tim_Data_update)
    Screen_Tim_Data_update                   0x08024f91   Thumb Code   218  system_settings_interface.o(i.Screen_Tim_Data_update)
    i.Screensaver_2_Return                   0x08025090   Section        0  screensaver_interface.o(i.Screensaver_2_Return)
    Screensaver_2_Return                     0x08025091   Thumb Code    48  screensaver_interface.o(i.Screensaver_2_Return)
    i.Screensaver_Windows_1                  0x080250cc   Section        0  screensaver_interface.o(i.Screensaver_Windows_1)
    Screensaver_Windows_1                    0x080250cd   Thumb Code   108  screensaver_interface.o(i.Screensaver_Windows_1)
    i.Screensaver_Windows_1return            0x08025148   Section        0  screensaver_interface.o(i.Screensaver_Windows_1return)
    Screensaver_Windows_1return              0x08025149   Thumb Code     4  screensaver_interface.o(i.Screensaver_Windows_1return)
    i.Screensaver_Windows_2                  0x0802514c   Section        0  screensaver_interface.o(i.Screensaver_Windows_2)
    Screensaver_Windows_2                    0x0802514d   Thumb Code   190  screensaver_interface.o(i.Screensaver_Windows_2)
    i.Screensaver_interface                  0x08025220   Section        0  screensaver_interface.o(i.Screensaver_interface)
    i.Selected_Cursor                        0x0802543c   Section        0  main_menu_interface.o(i.Selected_Cursor)
    i.Set_CCT_Custom_Data_update             0x080254f4   Section        0  main interface.o(i.Set_CCT_Custom_Data_update)
    Set_CCT_Custom_Data_update               0x080254f5   Thumb Code    76  main interface.o(i.Set_CCT_Custom_Data_update)
    i.Set_CCV_Custom_Data_update             0x08025550   Section        0  main interface.o(i.Set_CCV_Custom_Data_update)
    Set_CCV_Custom_Data_update               0x08025551   Thumb Code    78  main interface.o(i.Set_CCV_Custom_Data_update)
    i.Set_Custom_Data_update                 0x080255b4   Section        0  main interface.o(i.Set_Custom_Data_update)
    Set_Custom_Data_update                   0x080255b5   Thumb Code    78  main interface.o(i.Set_Custom_Data_update)
    i.Set_RTC_DateTime                       0x08025618   Section        0  app_rtc.o(i.Set_RTC_DateTime)
    i.Set_Ret_Bring_VIP                      0x08025694   Section        0  brightness_auto.o(i.Set_Ret_Bring_VIP)
    i.Set_SPPWattData_update                 0x080256bc   Section        0  main interface.o(i.Set_SPPWattData_update)
    i.Set_SPPWatt_update                     0x0802578c   Section        0  main interface.o(i.Set_SPPWatt_update)
    i.Set_Tempe_update                       0x080257ac   Section        0  main interface.o(i.Set_Tempe_update)
    i.Set_Volt_update                        0x080257dc   Section        0  main interface.o(i.Set_Volt_update)
    i.Set_WattData_update                    0x08025810   Section        0  main interface.o(i.Set_WattData_update)
    i.Set_Watt_update                        0x080258c0   Section        0  main interface.o(i.Set_Watt_update)
    i.Short_circuit_windows                  0x080258e0   Section        0  alarm_interface.o(i.Short_circuit_windows)
    i.Sleeping_Module                        0x08025958   Section        0  app_sleeping.o(i.Sleeping_Module)
    i.Sleeping_Peripheral                    0x08025adc   Section        0  app_sleeping.o(i.Sleeping_Peripheral)
    i.Smoking_KEY_anxia_JC                   0x08025d38   Section        0  public.o(i.Smoking_KEY_anxia_JC)
    i.Smoking_timeout_windows                0x08025d54   Section        0  alarm_interface.o(i.Smoking_timeout_windows)
    i.Statistics_numberANDlengthTim          0x08025db4   Section        0  statistics port number.o(i.Statistics_numberANDlengthTim)
    i.SysTick_Handler                        0x08025e00   Section        0  stm32f4xx_it.o(i.SysTick_Handler)
    i.SystemClock_Config                     0x080260bc   Section        0  main.o(i.SystemClock_Config)
    i.SystemInit                             0x0802620c   Section        0  system_stm32f4xx.o(i.SystemInit)
    i.System_Set_Menu_interface              0x08026264   Section        0  system_settings_interface.o(i.System_Set_Menu_interface)
    i.System_Set_Operation                   0x080262e8   Section        0  system_settings_interface.o(i.System_Set_Operation)
    System_Set_Operation                     0x080262e9   Thumb Code   128  system_settings_interface.o(i.System_Set_Operation)
    i.System_off_GOTO                        0x0802638c   Section        0  public.o(i.System_off_GOTO)
    i.System_off_interface                   0x080263a4   Section        0  system_off_interface.o(i.System_off_interface)
    i.System_off_windows                     0x08026490   Section        0  system_off_interface.o(i.System_off_windows)
    System_off_windows                       0x08026491   Thumb Code   108  system_off_interface.o(i.System_off_windows)
    i.TCR_Data_Set_interface                 0x08026534   Section        0  tcr_adjust_interface.o(i.TCR_Data_Set_interface)
    i.TCR_Data_Set_windows                   0x08026600   Section        0  tcr_adjust_interface.o(i.TCR_Data_Set_windows)
    TCR_Data_Set_windows                     0x08026601   Thumb Code   162  tcr_adjust_interface.o(i.TCR_Data_Set_windows)
    i.TCR_Data_touch                         0x080266e4   Section        0  tcr_adjust_interface.o(i.TCR_Data_touch)
    TCR_Data_touch                           0x080266e5   Thumb Code   440  tcr_adjust_interface.o(i.TCR_Data_touch)
    i.TCR_MODE_windows                       0x080268d4   Section        0  main interface.o(i.TCR_MODE_windows)
    i.TCR_mode_int                           0x08026950   Section        0  tempe_mode_control.o(i.TCR_mode_int)
    i.TFT_BL_Brightness                      0x08026a30   Section        0  tft_init.o(i.TFT_BL_Brightness)
    i.TFT_LCD_RESET                          0x08026a48   Section        0  tft_init.o(i.TFT_LCD_RESET)
    i.TFT_REset_program                      0x08026a74   Section        0  tft_init.o(i.TFT_REset_program)
    i.TFT_SET_BL_Brightness                  0x08026a98   Section        0  tft_init.o(i.TFT_SET_BL_Brightness)
    i.TFT_ST7789S_Init                       0x08026ab0   Section        0  tft_init.o(i.TFT_ST7789S_Init)
    i.TFT_VCC_Reset                          0x08026c7c   Section        0  gpio.o(i.TFT_VCC_Reset)
    i.TFT_VCC_Set                            0x08026cac   Section        0  gpio.o(i.TFT_VCC_Set)
    i.Temp_MODE_windows                      0x08026cdc   Section        0  main interface.o(i.Temp_MODE_windows)
    i.Temp_Output_control                    0x08026d50   Section        0  tempe_mode_control.o(i.Temp_Output_control)
    i.Temp_metric_parts                      0x08026e00   Section        0  main interface.o(i.Temp_metric_parts)
    Temp_metric_parts                        0x08026e01   Thumb Code   140  main interface.o(i.Temp_metric_parts)
    i.Temp_mode_int                          0x08026e98   Section        0  tempe_mode_control.o(i.Temp_mode_int)
    i.Tempe_Compensation_calculation         0x08026f78   Section        0  tempe_mode_control.o(i.Tempe_Compensation_calculation)
    i.USBD_CUSTOM_HID_DataIn                 0x08027038   Section        0  usbd_customhid.o(i.USBD_CUSTOM_HID_DataIn)
    USBD_CUSTOM_HID_DataIn                   0x08027039   Thumb Code    14  usbd_customhid.o(i.USBD_CUSTOM_HID_DataIn)
    i.USBD_CUSTOM_HID_DataOut                0x08027048   Section        0  usbd_customhid.o(i.USBD_CUSTOM_HID_DataOut)
    USBD_CUSTOM_HID_DataOut                  0x08027049   Thumb Code    56  usbd_customhid.o(i.USBD_CUSTOM_HID_DataOut)
    i.USBD_CUSTOM_HID_DeInit                 0x08027088   Section        0  usbd_customhid.o(i.USBD_CUSTOM_HID_DeInit)
    USBD_CUSTOM_HID_DeInit                   0x08027089   Thumb Code    50  usbd_customhid.o(i.USBD_CUSTOM_HID_DeInit)
    i.USBD_CUSTOM_HID_EP0_RxReady            0x080270ba   Section        0  usbd_customhid.o(i.USBD_CUSTOM_HID_EP0_RxReady)
    USBD_CUSTOM_HID_EP0_RxReady              0x080270bb   Thumb Code    34  usbd_customhid.o(i.USBD_CUSTOM_HID_EP0_RxReady)
    i.USBD_CUSTOM_HID_GetCfgDesc             0x080270dc   Section        0  usbd_customhid.o(i.USBD_CUSTOM_HID_GetCfgDesc)
    USBD_CUSTOM_HID_GetCfgDesc               0x080270dd   Thumb Code     8  usbd_customhid.o(i.USBD_CUSTOM_HID_GetCfgDesc)
    i.USBD_CUSTOM_HID_GetDeviceQualifierDesc 0x080270e8   Section        0  usbd_customhid.o(i.USBD_CUSTOM_HID_GetDeviceQualifierDesc)
    USBD_CUSTOM_HID_GetDeviceQualifierDesc   0x080270e9   Thumb Code     8  usbd_customhid.o(i.USBD_CUSTOM_HID_GetDeviceQualifierDesc)
    i.USBD_CUSTOM_HID_Init                   0x080270f4   Section        0  usbd_customhid.o(i.USBD_CUSTOM_HID_Init)
    USBD_CUSTOM_HID_Init                     0x080270f5   Thumb Code    76  usbd_customhid.o(i.USBD_CUSTOM_HID_Init)
    i.USBD_CUSTOM_HID_RegisterInterface      0x08027140   Section        0  usbd_customhid.o(i.USBD_CUSTOM_HID_RegisterInterface)
    i.USBD_CUSTOM_HID_SendReport             0x08027150   Section        0  usbd_customhid.o(i.USBD_CUSTOM_HID_SendReport)
    i.USBD_CUSTOM_HID_Setup                  0x08027178   Section        0  usbd_customhid.o(i.USBD_CUSTOM_HID_Setup)
    USBD_CUSTOM_HID_Setup                    0x08027179   Thumb Code   180  usbd_customhid.o(i.USBD_CUSTOM_HID_Setup)
    i.USBD_ClrClassConfig                    0x08027230   Section        0  usbd_core.o(i.USBD_ClrClassConfig)
    i.USBD_CtlContinueRx                     0x0802723e   Section        0  usbd_ioreq.o(i.USBD_CtlContinueRx)
    i.USBD_CtlContinueSendData               0x0802724e   Section        0  usbd_ioreq.o(i.USBD_CtlContinueSendData)
    i.USBD_CtlError                          0x0802725e   Section        0  usbd_ctlreq.o(i.USBD_CtlError)
    i.USBD_CtlPrepareRx                      0x08027274   Section        0  usbd_ioreq.o(i.USBD_CtlPrepareRx)
    i.USBD_CtlReceiveStatus                  0x08027292   Section        0  usbd_ioreq.o(i.USBD_CtlReceiveStatus)
    i.USBD_CtlSendData                       0x080272a8   Section        0  usbd_ioreq.o(i.USBD_CtlSendData)
    i.USBD_CtlSendStatus                     0x080272c2   Section        0  usbd_ioreq.o(i.USBD_CtlSendStatus)
    i.USBD_DeInit                            0x080272d8   Section        0  usbd_core.o(i.USBD_DeInit)
    i.USBD_FS_ConfigStrDescriptor            0x08027300   Section        0  usbd_desc.o(i.USBD_FS_ConfigStrDescriptor)
    i.USBD_FS_DeviceDescriptor               0x08027324   Section        0  usbd_desc.o(i.USBD_FS_DeviceDescriptor)
    i.USBD_FS_InterfaceStrDescriptor         0x08027330   Section        0  usbd_desc.o(i.USBD_FS_InterfaceStrDescriptor)
    i.USBD_FS_LangIDStrDescriptor            0x08027350   Section        0  usbd_desc.o(i.USBD_FS_LangIDStrDescriptor)
    i.USBD_FS_ManufacturerStrDescriptor      0x0802735c   Section        0  usbd_desc.o(i.USBD_FS_ManufacturerStrDescriptor)
    i.USBD_FS_ProductStrDescriptor           0x0802737c   Section        0  usbd_desc.o(i.USBD_FS_ProductStrDescriptor)
    i.USBD_FS_SerialStrDescriptor            0x080273a0   Section        0  usbd_desc.o(i.USBD_FS_SerialStrDescriptor)
    i.USBD_GetDescriptor                     0x080273c4   Section        0  usbd_ctlreq.o(i.USBD_GetDescriptor)
    USBD_GetDescriptor                       0x080273c5   Thumb Code   224  usbd_ctlreq.o(i.USBD_GetDescriptor)
    i.USBD_GetString                         0x080274a4   Section        0  usbd_ctlreq.o(i.USBD_GetString)
    i.USBD_Init                              0x080274ea   Section        0  usbd_core.o(i.USBD_Init)
    i.USBD_LL_ClearStallEP                   0x08027514   Section        0  usbd_conf.o(i.USBD_LL_ClearStallEP)
    i.USBD_LL_CloseEP                        0x08027534   Section        0  usbd_conf.o(i.USBD_LL_CloseEP)
    i.USBD_LL_DataInStage                    0x08027554   Section        0  usbd_core.o(i.USBD_LL_DataInStage)
    i.USBD_LL_DataOutStage                   0x080275fe   Section        0  usbd_core.o(i.USBD_LL_DataOutStage)
    i.USBD_LL_DeInit                         0x08027668   Section        0  usbd_conf.o(i.USBD_LL_DeInit)
    i.USBD_LL_DevConnected                   0x08027688   Section        0  usbd_core.o(i.USBD_LL_DevConnected)
    i.USBD_LL_DevDisconnected                0x0802768c   Section        0  usbd_core.o(i.USBD_LL_DevDisconnected)
    i.USBD_LL_Init                           0x080276a4   Section        0  usbd_conf.o(i.USBD_LL_Init)
    i.USBD_LL_IsStallEP                      0x08027720   Section        0  usbd_conf.o(i.USBD_LL_IsStallEP)
    i.USBD_LL_IsoINIncomplete                0x08027740   Section        0  usbd_core.o(i.USBD_LL_IsoINIncomplete)
    i.USBD_LL_IsoOUTIncomplete               0x08027744   Section        0  usbd_core.o(i.USBD_LL_IsoOUTIncomplete)
    i.USBD_LL_OpenEP                         0x08027748   Section        0  usbd_conf.o(i.USBD_LL_OpenEP)
    i.USBD_LL_PrepareReceive                 0x0802776e   Section        0  usbd_conf.o(i.USBD_LL_PrepareReceive)
    i.USBD_LL_Reset                          0x0802778e   Section        0  usbd_core.o(i.USBD_LL_Reset)
    i.USBD_LL_Resume                         0x080277cc   Section        0  usbd_core.o(i.USBD_LL_Resume)
    i.USBD_LL_SOF                            0x080277d8   Section        0  usbd_core.o(i.USBD_LL_SOF)
    i.USBD_LL_SetSpeed                       0x080277f0   Section        0  usbd_core.o(i.USBD_LL_SetSpeed)
    i.USBD_LL_SetUSBAddress                  0x080277f6   Section        0  usbd_conf.o(i.USBD_LL_SetUSBAddress)
    i.USBD_LL_SetupStage                     0x08027816   Section        0  usbd_core.o(i.USBD_LL_SetupStage)
    i.USBD_LL_StallEP                        0x08027870   Section        0  usbd_conf.o(i.USBD_LL_StallEP)
    i.USBD_LL_Start                          0x08027890   Section        0  usbd_conf.o(i.USBD_LL_Start)
    i.USBD_LL_Stop                           0x080278b0   Section        0  usbd_conf.o(i.USBD_LL_Stop)
    i.USBD_LL_Suspend                        0x080278d0   Section        0  usbd_core.o(i.USBD_LL_Suspend)
    i.USBD_LL_Transmit                       0x080278e2   Section        0  usbd_conf.o(i.USBD_LL_Transmit)
    i.USBD_ParseSetupRequest                 0x08027902   Section        0  usbd_ctlreq.o(i.USBD_ParseSetupRequest)
    i.USBD_RegisterClass                     0x0802792a   Section        0  usbd_core.o(i.USBD_RegisterClass)
    i.USBD_SetClassConfig                    0x0802793a   Section        0  usbd_core.o(i.USBD_SetClassConfig)
    i.USBD_SetConfig                         0x08027950   Section        0  usbd_ctlreq.o(i.USBD_SetConfig)
    USBD_SetConfig                           0x08027951   Thumb Code   110  usbd_ctlreq.o(i.USBD_SetConfig)
    i.USBD_Start                             0x080279c4   Section        0  usbd_core.o(i.USBD_Start)
    i.USBD_StdDevReq                         0x080279ce   Section        0  usbd_ctlreq.o(i.USBD_StdDevReq)
    i.USBD_StdEPReq                          0x08027ac0   Section        0  usbd_ctlreq.o(i.USBD_StdEPReq)
    i.USBD_StdItfReq                         0x08027b9c   Section        0  usbd_ctlreq.o(i.USBD_StdItfReq)
    i.USB_ActivateEndpoint                   0x08027bd0   Section        0  stm32f4xx_ll_usb.o(i.USB_ActivateEndpoint)
    i.USB_ActivateSetup                      0x08027c50   Section        0  stm32f4xx_ll_usb.o(i.USB_ActivateSetup)
    i.USB_CoreInit                           0x08027c6c   Section        0  stm32f4xx_ll_usb.o(i.USB_CoreInit)
    i.USB_CoreReset                          0x08027ce0   Section        0  stm32f4xx_ll_usb.o(i.USB_CoreReset)
    USB_CoreReset                            0x08027ce1   Thumb Code    50  stm32f4xx_ll_usb.o(i.USB_CoreReset)
    i.USB_DISABLE_transmission               0x08027d18   Section        0  app_usb.o(i.USB_DISABLE_transmission)
    i.USB_DeactivateEndpoint                 0x08027d74   Section        0  stm32f4xx_ll_usb.o(i.USB_DeactivateEndpoint)
    i.USB_DevConnect                         0x08027e40   Section        0  stm32f4xx_ll_usb.o(i.USB_DevConnect)
    i.USB_DevDisconnect                      0x08027e58   Section        0  stm32f4xx_ll_usb.o(i.USB_DevDisconnect)
    i.USB_DevInit                            0x08027e70   Section        0  stm32f4xx_ll_usb.o(i.USB_DevInit)
    i.USB_DisableGlobalInt                   0x08027fe4   Section        0  stm32f4xx_ll_usb.o(i.USB_DisableGlobalInt)
    i.USB_ENABLE_transmission                0x08027ff0   Section        0  app_usb.o(i.USB_ENABLE_transmission)
    i.USB_EP0StartXfer                       0x08028030   Section        0  stm32f4xx_ll_usb.o(i.USB_EP0StartXfer)
    i.USB_EP0_OutStart                       0x08028148   Section        0  stm32f4xx_ll_usb.o(i.USB_EP0_OutStart)
    i.USB_EPClearStall                       0x080281a0   Section        0  stm32f4xx_ll_usb.o(i.USB_EPClearStall)
    i.USB_EPSetStall                         0x080281f8   Section        0  stm32f4xx_ll_usb.o(i.USB_EPSetStall)
    i.USB_EPStartXfer                        0x08028250   Section        0  stm32f4xx_ll_usb.o(i.USB_EPStartXfer)
    i.USB_EnableGlobalInt                    0x08028438   Section        0  stm32f4xx_ll_usb.o(i.USB_EnableGlobalInt)
    i.USB_FlushRxFifo                        0x08028444   Section        0  stm32f4xx_ll_usb.o(i.USB_FlushRxFifo)
    i.USB_FlushTxFifo                        0x08028464   Section        0  stm32f4xx_ll_usb.o(i.USB_FlushTxFifo)
    i.USB_GPIO_Set                           0x08028488   Section        0  app_chargingbat.o(i.USB_GPIO_Set)
    i.USB_GetDevSpeed                        0x080284c4   Section        0  stm32f4xx_ll_usb.o(i.USB_GetDevSpeed)
    i.USB_GetMode                            0x080284de   Section        0  stm32f4xx_ll_usb.o(i.USB_GetMode)
    i.USB_Query_parameters                   0x080284e8   Section        0  app_usb.o(i.USB_Query_parameters)
    i.USB_R_W_parameters                     0x08028640   Section        0  app_usb.o(i.USB_R_W_parameters)
    i.USB_ReadDevAllInEpInterrupt            0x08028bec   Section        0  stm32f4xx_ll_usb.o(i.USB_ReadDevAllInEpInterrupt)
    i.USB_ReadDevAllOutEpInterrupt           0x08028bfa   Section        0  stm32f4xx_ll_usb.o(i.USB_ReadDevAllOutEpInterrupt)
    i.USB_ReadDevInEPInterrupt               0x08028c08   Section        0  stm32f4xx_ll_usb.o(i.USB_ReadDevInEPInterrupt)
    i.USB_ReadDevOutEPInterrupt              0x08028c2c   Section        0  stm32f4xx_ll_usb.o(i.USB_ReadDevOutEPInterrupt)
    i.USB_ReadInterrupts                     0x08028c3c   Section        0  stm32f4xx_ll_usb.o(i.USB_ReadInterrupts)
    i.USB_ReadPacket                         0x08028c44   Section        0  stm32f4xx_ll_usb.o(i.USB_ReadPacket)
    i.USB_SetCurrentMode                     0x08028c60   Section        0  stm32f4xx_ll_usb.o(i.USB_SetCurrentMode)
    i.USB_SetDevAddress                      0x08028c8e   Section        0  stm32f4xx_ll_usb.o(i.USB_SetDevAddress)
    i.USB_SetTurnaroundTime                  0x08028cb0   Section        0  stm32f4xx_ll_usb.o(i.USB_SetTurnaroundTime)
    i.USB_StopDevice                         0x08028d98   Section        0  stm32f4xx_ll_usb.o(i.USB_StopDevice)
    i.USB_T_data                             0x08028ddc   Section        0  app_key.o(i.USB_T_data)
    i.USB_Warning_interface                  0x08028f08   Section        0  alarm_interface.o(i.USB_Warning_interface)
    i.USB_WritePacket                        0x08029024   Section        0  stm32f4xx_ll_usb.o(i.USB_WritePacket)
    i.USB_anomaly_windows                    0x08029048   Section        0  alarm_interface.o(i.USB_anomaly_windows)
    i.USB_state_program                      0x080290c4   Section        0  app_usb.o(i.USB_state_program)
    i.UsageFault_Handler                     0x08029160   Section        0  stm32f4xx_it.o(i.UsageFault_Handler)
    i.VCC33_judge                            0x08029164   Section        0  main.o(i.VCC33_judge)
    i.VIBRATE_Data_update                    0x080291d8   Section        0  system_settings_interface.o(i.VIBRATE_Data_update)
    VIBRATE_Data_update                      0x080291d9   Thumb Code    94  system_settings_interface.o(i.VIBRATE_Data_update)
    i.VIBRATE_Set_interface                  0x08029248   Section        0  system_settings_interface.o(i.VIBRATE_Set_interface)
    VIBRATE_Set_interface                    0x08029249   Thumb Code   194  system_settings_interface.o(i.VIBRATE_Set_interface)
    i.VIBRATE_Set_touch                      0x0802935c   Section        0  system_settings_interface.o(i.VIBRATE_Set_touch)
    VIBRATE_Set_touch                        0x0802935d   Thumb Code    90  system_settings_interface.o(i.VIBRATE_Set_touch)
    i.VT_SET_coordinate_Init                 0x080293d4   Section        0  diy_menu_interface.o(i.VT_SET_coordinate_Init)
    VT_SET_coordinate_Init                   0x080293d5   Thumb Code   114  diy_menu_interface.o(i.VT_SET_coordinate_Init)
    i.VT_SET_menu_interface                  0x0802947c   Section        0  diy_menu_interface.o(i.VT_SET_menu_interface)
    i.VT_SET_menu_operation                  0x08029510   Section        0  diy_menu_interface.o(i.VT_SET_menu_operation)
    VT_SET_menu_operation                    0x08029511   Thumb Code   142  diy_menu_interface.o(i.VT_SET_menu_operation)
    i.VW_SET_coordinate_Init                 0x080295d4   Section        0  diy_menu_interface.o(i.VW_SET_coordinate_Init)
    VW_SET_coordinate_Init                   0x080295d5   Thumb Code   104  diy_menu_interface.o(i.VW_SET_coordinate_Init)
    i.VW_SET_menu_interface                  0x08029674   Section        0  diy_menu_interface.o(i.VW_SET_menu_interface)
    i.VW_SET_menu_operation                  0x08029708   Section        0  diy_menu_interface.o(i.VW_SET_menu_operation)
    VW_SET_menu_operation                    0x08029709   Thumb Code    98  diy_menu_interface.o(i.VW_SET_menu_operation)
    i.Vape_MP3_Beat                          0x0802978c   Section        0  main interface.o(i.Vape_MP3_Beat)
    Vape_MP3_Beat                            0x0802978d   Thumb Code   226  main interface.o(i.Vape_MP3_Beat)
    i.Vibrate_EN                             0x08029884   Section        0  vibrate.o(i.Vibrate_EN)
    i.Vibrate_ON                             0x08029890   Section        0  vibrate.o(i.Vibrate_ON)
    i.Vibrate_drive                          0x080298b8   Section        0  vibrate.o(i.Vibrate_drive)
    i.Vibrate_program                        0x080298e0   Section        0  vibrate.o(i.Vibrate_program)
    i.Voltage_MODE_windows                   0x08029930   Section        0  main interface.o(i.Voltage_MODE_windows)
    i.Voltage_Output_control                 0x080299b4   Section        0  voltage_mode_control.o(i.Voltage_Output_control)
    i.Voltage_mode_int                       0x080299d4   Section        0  voltage_mode_control.o(i.Voltage_mode_int)
    i.Voltage_yule                           0x08029a58   Section        0  bypass_mode_control.o(i.Voltage_yule)
    Voltage_yule                             0x08029a59   Thumb Code   170  bypass_mode_control.o(i.Voltage_yule)
    i.Voltage_yule                           0x08029b24   Section        0  voltage_mode_control.o(i.Voltage_yule)
    Voltage_yule                             0x08029b25   Thumb Code   182  voltage_mode_control.o(i.Voltage_yule)
    i.Vout_Data_disp                         0x08029c00   Section        0  main interface.o(i.Vout_Data_disp)
    i.Vout_adjust                            0x08029c8c   Section        0  app_outputcontrol.o(i.Vout_adjust)
    i.Vout_update                            0x08029cf8   Section        0  main interface.o(i.Vout_update)
    i.W25QXX_Erase_Sector                    0x08029db4   Section        0  flahs_driver.o(i.W25QXX_Erase_Sector)
    i.WM_Activate                            0x08029de8   Section        0  wm.o(i.WM_Activate)
    i.WM_BringToBottom                       0x08029df8   Section        0  wm_bringtobottom.o(i.WM_BringToBottom)
    i.WM_CreateWindowAsChild                 0x08029e84   Section        0  wm.o(i.WM_CreateWindowAsChild)
    i.WM_Deactivate                          0x08029fd4   Section        0  wm.o(i.WM_Deactivate)
    i.WM_DefaultProc                         0x08029fe8   Section        0  wm.o(i.WM_DefaultProc)
    i.WM_GetClientRect                       0x0802a030   Section        0  wm_getclientrect.o(i.WM_GetClientRect)
    i.WM_GetDesktopWindow                    0x0802a064   Section        0  wm_getdesktopwindow.o(i.WM_GetDesktopWindow)
    i.WM_GetFirstChild                       0x0802a07c   Section        0  wm_getfirstchild.o(i.WM_GetFirstChild)
    i.WM_GetParent                           0x0802a08c   Section        0  wm_getparent.o(i.WM_GetParent)
    i.WM_Init                                0x0802a09c   Section        0  wm.o(i.WM_Init)
    i.WM_InvalidateRect                      0x0802a174   Section        0  wm.o(i.WM_InvalidateRect)
    i.WM_InvalidateWindowAndDescsEx          0x0802a248   Section        0  wm.o(i.WM_InvalidateWindowAndDescsEx)
    i.WM_SelectWindow                        0x0802a2b8   Section        0  wm.o(i.WM_SelectWindow)
    i.WM_SendToParent                        0x0802a320   Section        0  wm_sendtoparent.o(i.WM_SendToParent)
    i.WM_SetUserClipRect                     0x0802a344   Section        0  wm_setusercliprect.o(i.WM_SetUserClipRect)
    i.WM__ActivateClipRect                   0x0802a35c   Section        0  wm.o(i.WM__ActivateClipRect)
    i.WM__AddCriticalHandle                  0x0802a42c   Section        0  wm_criticalhandle.o(i.WM__AddCriticalHandle)
    i.WM__ClipAtParentBorders                0x0802a43c   Section        0  wm.o(i.WM__ClipAtParentBorders)
    i.WM__GetClientRectEx                    0x0802a494   Section        0  wm_getclientrect.o(i.WM__GetClientRectEx)
    i.WM__GetClientRectWin                   0x0802a4b4   Section        0  wm.o(i.WM__GetClientRectWin)
    i.WM__GetFirstSibling                    0x0802a4cc   Section        0  wm__getfirstsibling.o(i.WM__GetFirstSibling)
    i.WM__GetNextIVR                         0x0802a4e0   Section        0  wm.o(i.WM__GetNextIVR)
    i.WM__GetOrgX_AA                         0x0802a81c   Section        0  wm__getorg_aa.o(i.WM__GetOrgX_AA)
    i.WM__GetOrgY_AA                         0x0802a838   Section        0  wm__getorg_aa.o(i.WM__GetOrgY_AA)
    i.WM__GetPrevSibling                     0x0802a854   Section        0  wm__getprevsibling.o(i.WM__GetPrevSibling)
    i.WM__InitIVRSearch                      0x0802a87c   Section        0  wm.o(i.WM__InitIVRSearch)
    i.WM__InsertWindowIntoList               0x0802a980   Section        0  wm.o(i.WM__InsertWindowIntoList)
    i.WM__InvalidateDrawAndDescs             0x0802aa38   Section        0  wm.o(i.WM__InvalidateDrawAndDescs)
    i.WM__InvalidateRect                     0x0802aa90   Section        0  wm.o(i.WM__InvalidateRect)
    i.WM__InvalidateRectEx                   0x0802ab62   Section        0  wm.o(i.WM__InvalidateRectEx)
    i.WM__SendMessage                        0x0802ab68   Section        0  wm__sendmessage.o(i.WM__SendMessage)
    i.WM__SendMessageNoPara                  0x0802aba4   Section        0  wm__sendmessagenopara.o(i.WM__SendMessageNoPara)
    i.Warning_interface                      0x0802abd4   Section        0  alarm_interface.o(i.Warning_interface)
    i.Watch_Dispaly_1_Display                0x0802ad10   Section        0  screensaver_interface.o(i.Watch_Dispaly_1_Display)
    Watch_Dispaly_1_Display                  0x0802ad11   Thumb Code   136  screensaver_interface.o(i.Watch_Dispaly_1_Display)
    i.Watch_Dispaly_2_Display                0x0802ada4   Section        0  screensaver_interface.o(i.Watch_Dispaly_2_Display)
    Watch_Dispaly_2_Display                  0x0802ada5   Thumb Code   520  screensaver_interface.o(i.Watch_Dispaly_2_Display)
    i.Watchdog_OFF                           0x0802afdc   Section        0  main.o(i.Watchdog_OFF)
    i.Watchdog_ON                            0x0802afe8   Section        0  main.o(i.Watchdog_ON)
    i.Watchdog_Reset                         0x0802aff8   Section        0  main.o(i.Watchdog_Reset)
    i.Watt_MODE_windows                      0x0802b018   Section        0  main interface.o(i.Watt_MODE_windows)
    i.Watt_Output_control                    0x0802b0e8   Section        0  watt_mode_control.o(i.Watt_Output_control)
    i.Watt_Progress                          0x0802b214   Section        0  main interface.o(i.Watt_Progress)
    Watt_Progress                            0x0802b215   Thumb Code    72  main interface.o(i.Watt_Progress)
    i.Watt_mode_int                          0x0802b25c   Section        0  watt_mode_control.o(i.Watt_mode_int)
    i.Watt_yule                              0x0802b2f0   Section        0  watt_mode_control.o(i.Watt_yule)
    Watt_yule                                0x0802b2f1   Thumb Code   174  watt_mode_control.o(i.Watt_yule)
    i.Windows_Interrupt_Push                 0x0802b3c0   Section        0  wm_disp.o(i.Windows_Interrupt_Push)
    i.Windows_Switch                         0x0802b3d0   Section        0  wm_disp.o(i.Windows_Switch)
    i.Wout_Data_disp                         0x0802b3dc   Section        0  main interface.o(i.Wout_Data_disp)
    i.Wout_adjust                            0x0802b4bc   Section        0  app_outputcontrol.o(i.Wout_adjust)
    i.Wout_update                            0x0802b57c   Section        0  main interface.o(i.Wout_update)
    i._AddFreeMemory                         0x0802b69c   Section        0  gui_alloc.o(i._AddFreeMemory)
    _AddFreeMemory                           0x0802b69d   Thumb Code   182  gui_alloc.o(i._AddFreeMemory)
    i._Alloc                                 0x0802b758   Section        0  gui_alloc.o(i._Alloc)
    _Alloc                                   0x0802b759   Thumb Code   480  gui_alloc.o(i._Alloc)
    i._CalcSizeOfChar                        0x0802b93c   Section        0  gui_uc_encodeutf8.o(i._CalcSizeOfChar)
    _CalcSizeOfChar                          0x0802b93d   Thumb Code    20  gui_uc_encodeutf8.o(i._CalcSizeOfChar)
    i._CalcSizeOfChar                        0x0802b950   Section        0  gui_uc_encodenone.o(i._CalcSizeOfChar)
    _CalcSizeOfChar                          0x0802b951   Thumb Code     4  gui_uc_encodenone.o(i._CalcSizeOfChar)
    i._ClearUnusedPixels                     0x0802b954   Section        0  gui_gif.o(i._ClearUnusedPixels)
    _ClearUnusedPixels                       0x0802b955   Thumb Code   168  gui_gif.o(i._ClearUnusedPixels)
    i._Color2IndexBulk                       0x0802ba00   Section        0  guicc_m565.o(i._Color2IndexBulk)
    _Color2IndexBulk                         0x0802ba01   Thumb Code   140  guicc_m565.o(i._Color2IndexBulk)
    i._Color2IndexBulk                       0x0802ba98   Section        0  guicc_8888.o(i._Color2IndexBulk)
    _Color2IndexBulk                         0x0802ba99   Thumb Code    58  guicc_8888.o(i._Color2IndexBulk)
    i._Color2Index_0                         0x0802bad4   Section        0  guicc_0.o(i._Color2Index_0)
    _Color2Index_0                           0x0802bad5   Thumb Code   110  guicc_0.o(i._Color2Index_0)
    i._Color2Index_8888                      0x0802bb42   Section        0  guicc_8888.o(i._Color2Index_8888)
    _Color2Index_8888                        0x0802bb43   Thumb Code     2  guicc_8888.o(i._Color2Index_8888)
    i._Color2Index_M565                      0x0802bb44   Section        0  guicc_m565.o(i._Color2Index_M565)
    _Color2Index_M565                        0x0802bb45   Thumb Code    34  guicc_m565.o(i._Color2Index_M565)
    i._Cutt_Vape_Arc                         0x0802bb70   Section        0  main interface.o(i._Cutt_Vape_Arc)
    _Cutt_Vape_Arc                           0x0802bb71   Thumb Code    36  main interface.o(i._Cutt_Vape_Arc)
    i._DispFloatFix                          0x0802bb98   Section        0  gui_valf.o(i._DispFloatFix)
    _DispFloatFix                            0x0802bb99   Thumb Code   132  gui_valf.o(i._DispFloatFix)
    i._DrawArc                               0x0802bc20   Section        0  gui_arc.o(i._DrawArc)
    _DrawArc                                 0x0802bc21   Thumb Code   842  gui_arc.o(i._DrawArc)
    i._DrawBitLine1BPP                       0x0802bf70   Section        0  guidrv_template.o(i._DrawBitLine1BPP)
    _DrawBitLine1BPP                         0x0802bf71   Thumb Code   290  guidrv_template.o(i._DrawBitLine1BPP)
    i._DrawBitLine2BPP                       0x0802c09c   Section        0  guidrv_template.o(i._DrawBitLine2BPP)
    _DrawBitLine2BPP                         0x0802c09d   Thumb Code   338  guidrv_template.o(i._DrawBitLine2BPP)
    i._DrawBitLine4BPP                       0x0802c1f4   Section        0  guidrv_template.o(i._DrawBitLine4BPP)
    _DrawBitLine4BPP                         0x0802c1f5   Thumb Code   334  guidrv_template.o(i._DrawBitLine4BPP)
    i._DrawBitLine8BPP                       0x0802c348   Section        0  guidrv_template.o(i._DrawBitLine8BPP)
    _DrawBitLine8BPP                         0x0802c349   Thumb Code   220  guidrv_template.o(i._DrawBitLine8BPP)
    i._DrawBitmap                            0x0802c428   Section        0  guidrv_template.o(i._DrawBitmap)
    _DrawBitmap                              0x0802c429   Thumb Code   290  guidrv_template.o(i._DrawBitmap)
    i._DrawBitmap                            0x0802c54c   Section        0  guidev_1.o(i._DrawBitmap)
    _DrawBitmap                              0x0802c54d   Thumb Code  1438  guidev_1.o(i._DrawBitmap)
    i._DrawBitmap                            0x0802caec   Section        0  guidev_16.o(i._DrawBitmap)
    _DrawBitmap                              0x0802caed   Thumb Code  2058  guidev_16.o(i._DrawBitmap)
    i._DrawBitmap                            0x0802d2fc   Section        0  guidev_measure.o(i._DrawBitmap)
    _DrawBitmap                              0x0802d2fd   Thumb Code    20  guidev_measure.o(i._DrawBitmap)
    i._DrawBitmapA565                        0x0802d310   Section        0  gui_drawbitmap_a16.o(i._DrawBitmapA565)
    _DrawBitmapA565                          0x0802d311   Thumb Code    26  gui_drawbitmap_a16.o(i._DrawBitmapA565)
    i._DrawBitmapSwapRB                      0x0802d330   Section        0  gui_drawbitmap_565.o(i._DrawBitmapSwapRB)
    _DrawBitmapSwapRB                        0x0802d331   Thumb Code    36  gui_drawbitmap_565.o(i._DrawBitmapSwapRB)
    i._DrawFromDataBlock                     0x0802d35c   Section        0  gui_gif.o(i._DrawFromDataBlock)
    _DrawFromDataBlock                       0x0802d35d   Thumb Code   572  gui_gif.o(i._DrawFromDataBlock)
    i._DrawHLine                             0x0802d5a4   Section        0  guidrv_template.o(i._DrawHLine)
    _DrawHLine                               0x0802d5a5   Thumb Code    10  guidrv_template.o(i._DrawHLine)
    i._DrawHLine                             0x0802d5b0   Section        0  guiaa_lib.o(i._DrawHLine)
    _DrawHLine                               0x0802d5b1   Thumb Code   328  guiaa_lib.o(i._DrawHLine)
    i._DrawHLine                             0x0802d700   Section        0  guidev_1.o(i._DrawHLine)
    _DrawHLine                               0x0802d701   Thumb Code    10  guidev_1.o(i._DrawHLine)
    i._DrawHLine                             0x0802d70a   Section        0  guidev_16.o(i._DrawHLine)
    _DrawHLine                               0x0802d70b   Thumb Code    10  guidev_16.o(i._DrawHLine)
    i._DrawHLine                             0x0802d714   Section        0  guidev_measure.o(i._DrawHLine)
    _DrawHLine                               0x0802d715   Thumb Code    14  guidev_measure.o(i._DrawHLine)
    i._DrawStreamedBitmapEx                  0x0802d724   Section        0  gui_stream.o(i._DrawStreamedBitmapEx)
    _DrawStreamedBitmapEx                    0x0802d725   Thumb Code   144  gui_stream.o(i._DrawStreamedBitmapEx)
    i._DrawStreamedBitmapExNoPalette         0x0802d7bc   Section        0  gui_stream.o(i._DrawStreamedBitmapExNoPalette)
    _DrawStreamedBitmapExNoPalette           0x0802d7bd   Thumb Code   254  gui_stream.o(i._DrawStreamedBitmapExNoPalette)
    i._DrawVLine                             0x0802d8c0   Section        0  guidrv_template.o(i._DrawVLine)
    _DrawVLine                               0x0802d8c1   Thumb Code    12  guidrv_template.o(i._DrawVLine)
    i._DrawVLine                             0x0802d8cc   Section        0  guidev_1.o(i._DrawVLine)
    _DrawVLine                               0x0802d8cd   Thumb Code   178  guidev_1.o(i._DrawVLine)
    i._DrawVLine                             0x0802d984   Section        0  guidev_16.o(i._DrawVLine)
    _DrawVLine                               0x0802d985   Thumb Code   272  guidev_16.o(i._DrawVLine)
    i._DrawVLine                             0x0802da98   Section        0  guidev_measure.o(i._DrawVLine)
    _DrawVLine                               0x0802da99   Thumb Code    12  guidev_measure.o(i._DrawVLine)
    i._Encode                                0x0802daa4   Section        0  gui_uc_encodeutf8.o(i._Encode)
    _Encode                                  0x0802daa5   Thumb Code    70  gui_uc_encodeutf8.o(i._Encode)
    i._Encode                                0x0802daea   Section        0  gui_uc_encodenone.o(i._Encode)
    _Encode                                  0x0802daeb   Thumb Code     6  gui_uc_encodenone.o(i._Encode)
    i._EnlargeBlocks                         0x0802daf0   Section        0  gui_alloc.o(i._EnlargeBlocks)
    _EnlargeBlocks                           0x0802daf1   Thumb Code   196  gui_alloc.o(i._EnlargeBlocks)
